{
  "contractName": "Authenticator",
  "abi": [
    {
      "anonymous": false,
      "inputs": [
        {
          "indexed": true,
          "internalType": "address",
          "name": "user",
          "type": "address"
        },
        {
          "indexed": false,
          "internalType": "string",
          "name": "name",
          "type": "string"
        },
        {
          "indexed": false,
          "internalType": "uint256",
          "name": "grade",
          "type": "uint256"
        },
        {
          "indexed": false,
          "internalType": "string",
          "name": "condition",
          "type": "string"
        }
      ],
      "name": "CardRegistered",
      "type": "event"
    },
    {
      "anonymous": false,
      "inputs": [
        {
          "indexed": true,
          "internalType": "address",
          "name": "from",
          "type": "address"
        },
        {
          "indexed": true,
          "internalType": "address",
          "name": "to",
          "type": "address"
        },
        {
          "indexed": false,
          "internalType": "uint256",
          "name": "cardIndex",
          "type": "uint256"
        }
      ],
      "name": "CardTransferred",
      "type": "event"
    },
    {
      "inputs": [
        {
          "internalType": "string",
          "name": "_name",
          "type": "string"
        },
        {
          "internalType": "uint256",
          "name": "_grade",
          "type": "uint256"
        },
        {
          "internalType": "string",
          "name": "_condition",
          "type": "string"
        }
      ],
      "name": "registerCard",
      "outputs": [],
      "stateMutability": "nonpayable",
      "type": "function"
    },
    {
      "inputs": [
        {
          "internalType": "address",
          "name": "_to",
          "type": "address"
        },
        {
          "internalType": "uint256",
          "name": "_cardIndex",
          "type": "uint256"
        }
      ],
      "name": "transferCard",
      "outputs": [],
      "stateMutability": "nonpayable",
      "type": "function"
    },
    {
      "inputs": [
        {
          "internalType": "address",
          "name": "_user",
          "type": "address"
        }
      ],
      "name": "getUserCards",
      "outputs": [
        {
          "components": [
            {
              "internalType": "string",
              "name": "name",
              "type": "string"
            },
            {
              "internalType": "uint256",
              "name": "grade",
              "type": "uint256"
            },
            {
              "internalType": "string",
              "name": "condition",
              "type": "string"
            }
          ],
          "internalType": "struct Authenticator.Card[]",
          "name": "",
          "type": "tuple[]"
        }
      ],
      "stateMutability": "view",
      "type": "function",
      "constant": true
    },
    {
      "inputs": [
        {
          "internalType": "address",
          "name": "_user",
          "type": "address"
        }
      ],
      "name": "getCardCount",
      "outputs": [
        {
          "internalType": "uint256",
          "name": "",
          "type": "uint256"
        }
      ],
      "stateMutability": "view",
      "type": "function",
      "constant": true
    }
  ],
  "bytecode": "0x608060405234801561001057600080fd5b506112d8806100206000396000f3fe608060405234801561001057600080fd5b506004361061004c5760003560e01c806388d9f40d146100515780639b81a35914610081578063b931f0471461009d578063dce0b586146100b9575b600080fd5b61006b60048036038101906100669190610993565b6100e9565b6040516100789190610b82565b60405180910390f35b61009b60048036038101906100969190610bd0565b6102b4565b005b6100b760048036038101906100b29190610d45565b61070f565b005b6100d360048036038101906100ce9190610993565b61087b565b6040516100e09190610ddf565b60405180910390f35b60606000808373ffffffffffffffffffffffffffffffffffffffff1673ffffffffffffffffffffffffffffffffffffffff168152602001908152602001600020805480602002602001604051908101604052809291908181526020016000905b828210156102a9578382906000526020600020906003020160405180606001604052908160008201805461017c90610e29565b80601f01602080910402602001604051908101604052809291908181526020018280546101a890610e29565b80156101f55780601f106101ca576101008083540402835291602001916101f5565b820191906000526020600020905b8154815290600101906020018083116101d857829003601f168201915b505050505081526020016001820154815260200160028201805461021890610e29565b80601f016020809104026020016040519081016040528092919081815260200182805461024490610e29565b80156102915780601f1061026657610100808354040283529160200191610291565b820191906000526020600020905b81548152906001019060200180831161027457829003601f168201915b50505050508152505081526020019060010190610149565b505050509050919050565b6000803373ffffffffffffffffffffffffffffffffffffffff1673ffffffffffffffffffffffffffffffffffffffff168152602001908152602001600020805490508110610337576040517f08c379a000000000000000000000000000000000000000000000000000000000815260040161032e90610eb7565b60405180910390fd5b60008060003373ffffffffffffffffffffffffffffffffffffffff1673ffffffffffffffffffffffffffffffffffffffff168152602001908152602001600020828154811061038957610388610ed7565b5b90600052602060002090600302016040518060600160405290816000820180546103b290610e29565b80601f01602080910402602001604051908101604052809291908181526020018280546103de90610e29565b801561042b5780601f106104005761010080835404028352916020019161042b565b820191906000526020600020905b81548152906001019060200180831161040e57829003601f168201915b505050505081526020016001820154815260200160028201805461044e90610e29565b80601f016020809104026020016040519081016040528092919081815260200182805461047a90610e29565b80156104c75780601f1061049c576101008083540402835291602001916104c7565b820191906000526020600020905b8154815290600101906020018083116104aa57829003601f168201915b50505050508152505090506000808473ffffffffffffffffffffffffffffffffffffffff1673ffffffffffffffffffffffffffffffffffffffff168152602001908152602001600020819080600181540180825580915050600190039060005260206000209060030201600090919091909150600082015181600001908161054f91906110b2565b5060208201518160010155604082015181600201908161056f91906110b2565b505050600160003373ffffffffffffffffffffffffffffffffffffffff1673ffffffffffffffffffffffffffffffffffffffff16815260200190815260200160002060008154809291906105c2906111b3565b9190505550600160008473ffffffffffffffffffffffffffffffffffffffff1673ffffffffffffffffffffffffffffffffffffffff1681526020019081526020016000206000815480929190610617906111dc565b91905055506000803373ffffffffffffffffffffffffffffffffffffffff1673ffffffffffffffffffffffffffffffffffffffff168152602001908152602001600020828154811061066c5761066b610ed7565b5b90600052602060002090600302016000808201600061068b91906108c4565b60018201600090556002820160006106a391906108c4565b50508273ffffffffffffffffffffffffffffffffffffffff163373ffffffffffffffffffffffffffffffffffffffff167f08c7dc9c65cfe0a446c6b662ec2e35c1966d49c8c50f8a4b78a7e2e0c68217c4846040516107029190610ddf565b60405180910390a3505050565b600060405180606001604052808581526020018481526020018381525090506000803373ffffffffffffffffffffffffffffffffffffffff1673ffffffffffffffffffffffffffffffffffffffff16815260200190815260200160002081908060018154018082558091505060019003906000526020600020906003020160009091909190915060008201518160000190816107ab91906110b2565b506020820151816001015560408201518160020190816107cb91906110b2565b505050600160003373ffffffffffffffffffffffffffffffffffffffff1673ffffffffffffffffffffffffffffffffffffffff168152602001908152602001600020600081548092919061081e906111dc565b91905055503373ffffffffffffffffffffffffffffffffffffffff167fd5ed51683b2822693297735ede880846194bea029d405788e45a05e66b6d969685858560405161086d9392919061125d565b60405180910390a250505050565b6000600160008373ffffffffffffffffffffffffffffffffffffffff1673ffffffffffffffffffffffffffffffffffffffff168152602001908152602001600020549050919050565b5080546108d090610e29565b6000825580601f106108e25750610901565b601f0160209004906000526020600020908101906109009190610904565b5b50565b5b8082111561091d576000816000905550600101610905565b5090565b6000604051905090565b600080fd5b600080fd5b600073ffffffffffffffffffffffffffffffffffffffff82169050919050565b600061096082610935565b9050919050565b61097081610955565b811461097b57600080fd5b50565b60008135905061098d81610967565b92915050565b6000602082840312156109a9576109a861092b565b5b60006109b78482850161097e565b91505092915050565b600081519050919050565b600082825260208201905092915050565b6000819050602082019050919050565b600081519050919050565b600082825260208201905092915050565b60005b83811015610a26578082015181840152602081019050610a0b565b60008484015250505050565b6000601f19601f8301169050919050565b6000610a4e826109ec565b610a5881856109f7565b9350610a68818560208601610a08565b610a7181610a32565b840191505092915050565b6000819050919050565b610a8f81610a7c565b82525050565b60006060830160008301518482036000860152610ab28282610a43565b9150506020830151610ac76020860182610a86565b5060408301518482036040860152610adf8282610a43565b9150508091505092915050565b6000610af88383610a95565b905092915050565b6000602082019050919050565b6000610b18826109c0565b610b2281856109cb565b935083602082028501610b34856109dc565b8060005b85811015610b705784840389528151610b518582610aec565b9450610b5c83610b00565b925060208a01995050600181019050610b38565b50829750879550505050505092915050565b60006020820190508181036000830152610b9c8184610b0d565b905092915050565b610bad81610a7c565b8114610bb857600080fd5b50565b600081359050610bca81610ba4565b92915050565b60008060408385031215610be757610be661092b565b5b6000610bf58582860161097e565b9250506020610c0685828601610bbb565b9150509250929050565b600080fd5b600080fd5b7f4e487b7100000000000000000000000000000000000000000000000000000000600052604160045260246000fd5b610c5282610a32565b810181811067ffffffffffffffff82111715610c7157610c70610c1a565b5b80604052505050565b6000610c84610921565b9050610c908282610c49565b919050565b600067ffffffffffffffff821115610cb057610caf610c1a565b5b610cb982610a32565b9050602081019050919050565b82818337600083830152505050565b6000610ce8610ce384610c95565b610c7a565b905082815260208101848484011115610d0457610d03610c15565b5b610d0f848285610cc6565b509392505050565b600082601f830112610d2c57610d2b610c10565b5b8135610d3c848260208601610cd5565b91505092915050565b600080600060608486031215610d5e57610d5d61092b565b5b600084013567ffffffffffffffff811115610d7c57610d7b610930565b5b610d8886828701610d17565b9350506020610d9986828701610bbb565b925050604084013567ffffffffffffffff811115610dba57610db9610930565b5b610dc686828701610d17565b9150509250925092565b610dd981610a7c565b82525050565b6000602082019050610df46000830184610dd0565b92915050565b7f4e487b7100000000000000000000000000000000000000000000000000000000600052602260045260246000fd5b60006002820490506001821680610e4157607f821691505b602082108103610e5457610e53610dfa565b5b50919050565b600082825260208201905092915050565b7f496e76616c6964206361726420696e6465780000000000000000000000000000600082015250565b6000610ea1601283610e5a565b9150610eac82610e6b565b602082019050919050565b60006020820190508181036000830152610ed081610e94565b9050919050565b7f4e487b7100000000000000000000000000000000000000000000000000000000600052603260045260246000fd5b60008190508160005260206000209050919050565b60006020601f8301049050919050565b600082821b905092915050565b600060088302610f687fffffffffffffffffffffffffffffffffffffffffffffffffffffffffffffffff82610f2b565b610f728683610f2b565b95508019841693508086168417925050509392505050565b6000819050919050565b6000610faf610faa610fa584610a7c565b610f8a565b610a7c565b9050919050565b6000819050919050565b610fc983610f94565b610fdd610fd582610fb6565b848454610f38565b825550505050565b600090565b610ff2610fe5565b610ffd818484610fc0565b505050565b5b8181101561102157611016600082610fea565b600181019050611003565b5050565b601f8211156110665761103781610f06565b61104084610f1b565b8101602085101561104f578190505b61106361105b85610f1b565b830182611002565b50505b505050565b600082821c905092915050565b60006110896000198460080261106b565b1980831691505092915050565b60006110a28383611078565b9150826002028217905092915050565b6110bb826109ec565b67ffffffffffffffff8111156110d4576110d3610c1a565b5b6110de8254610e29565b6110e9828285611025565b600060209050601f83116001811461111c576000841561110a578287015190505b6111148582611096565b86555061117c565b601f19841661112a86610f06565b60005b828110156111525784890151825560018201915060208501945060208101905061112d565b8683101561116f578489015161116b601f891682611078565b8355505b6001600288020188555050505b505050505050565b7f4e487b7100000000000000000000000000000000000000000000000000000000600052601160045260246000fd5b60006111be82610a7c565b9150600082036111d1576111d0611184565b5b600182039050919050565b60006111e782610a7c565b91507fffffffffffffffffffffffffffffffffffffffffffffffffffffffffffffffff820361121957611218611184565b5b600182019050919050565b600061122f826109ec565b6112398185610e5a565b9350611249818560208601610a08565b61125281610a32565b840191505092915050565b600060608201905081810360008301526112778186611224565b90506112866020830185610dd0565b81810360408301526112988184611224565b905094935050505056fea2646970667358221220cc1c9654e8187796ceb7d2bb04ab5b45c0cb08870fddea9d322d087963744a5a64736f6c63430008120033",
  "immutableReferences": {},
  "source": "// SPDX-License-Identifier: MIT\r\npragma solidity >=0.4.22 <0.9.0;\r\n\r\ncontract Authenticator {\r\n    struct Card {\r\n        string name;\r\n        uint256 grade;\r\n        string condition;\r\n        // Other variables\r\n    }\r\n\r\n    mapping(address => Card[]) private userCards; // Mapping to register cards for each user\r\n    mapping(address => uint256) private cardCounts; // Mapping to keep track of card counts for each user\r\n\r\n    // Event works as a log to keep track of all the transactions that happened in the contract\r\n    // These logs are stored on blockchain and are accessible using address of the contract till the contract\r\n    // is present on the blockchain. An event generated is not accessible from within contracts,\r\n    // not even the one which have created and emitted them.\r\n\r\n    // Event to notify when a card is registered\r\n    event CardRegistered(\r\n        address indexed user,\r\n        string name,\r\n        uint256 grade,\r\n        string condition\r\n    );\r\n\r\n    // Event to notify when a card is transferred\r\n    event CardTransferred(\r\n        address indexed from,\r\n        address indexed to,\r\n        uint256 cardIndex\r\n    );\r\n\r\n    // Function to register a card for a user, external means that this function can be called from outside the contract\r\n    function registerCard(\r\n        string memory _name,\r\n        uint256 _grade,\r\n        string memory _condition\r\n    ) external {\r\n        Card memory newCard = Card(_name, _grade, _condition);\r\n        userCards[msg.sender].push(newCard);\r\n        cardCounts[msg.sender]++;\r\n        emit CardRegistered(msg.sender, _name, _grade, _condition);\r\n    }\r\n\r\n    // Function to transfer a card from one user to another\r\n    function transferCard(address _to, uint256 _cardIndex) external {\r\n        require( // require is used to validate the inputs to the function and throw error if the condition is not met\r\n            _cardIndex < userCards[msg.sender].length,\r\n            \"Invalid card index\"\r\n        );\r\n        Card memory cardToTransfer = userCards[msg.sender][_cardIndex]; // Get the card to transfer\r\n        userCards[_to].push(cardToTransfer); // Push the card to the user to whom it is being transferred\r\n        cardCounts[msg.sender]--; // Reduce the card count of the user from whom the card is being transferred\r\n        cardCounts[_to]++; // Increase the card count of the user to whom the card is being transferred\r\n        delete userCards[msg.sender][_cardIndex]; // Delete the card from the user from whom the card is being transferred\r\n        emit CardTransferred(msg.sender, _to, _cardIndex); // Emit the event to notify the transfer\r\n    }\r\n\r\n    // Function to get all cards of a user by address\r\n    function getUserCards(address _user) external view returns (Card[] memory) {\r\n        // view means that this function will not modify the state of the contract\r\n        return userCards[_user];\r\n    }\r\n\r\n    // Function to get card count of a user by address\r\n    function getCardCount(address _user) external view returns (uint256) {\r\n        return cardCounts[_user];\r\n    }\r\n}\r\n",
  "sourcePath": "C:\\Users\\Giacomo\\Desktop\\Blockchain\\blockchain-authenticator\\project\\truffle\\contracts\\authenticator.sol",
  "compiler": {
    "name": "solc",
    "version": "0.8.18+commit.87f61d96.Emscripten.clang"
  },
  "schemaVersion": "3.4.14",
  "updatedAt": "2023-06-30T07:50:28.783Z",
  "networkType": "ethereum",
  "devdoc": {
    "kind": "dev",
    "methods": {},
    "version": 1
  },
  "userdoc": {
    "kind": "user",
    "methods": {},
    "version": 1
  }
}