{
  "contractName": "Authenticator",
  "abi": [
    {
      "anonymous": false,
      "inputs": [
        {
          "indexed": true,
          "internalType": "address",
          "name": "user",
          "type": "address"
        },
        {
          "indexed": false,
          "internalType": "string",
          "name": "name",
          "type": "string"
        },
        {
          "indexed": false,
          "internalType": "uint256",
          "name": "grade",
          "type": "uint256"
        },
        {
          "indexed": false,
          "internalType": "string",
          "name": "condition",
          "type": "string"
        }
      ],
      "name": "CardRegistered",
      "type": "event"
    },
    {
      "anonymous": false,
      "inputs": [
        {
          "indexed": true,
          "internalType": "address",
          "name": "from",
          "type": "address"
        },
        {
          "indexed": true,
          "internalType": "address",
          "name": "to",
          "type": "address"
        },
        {
          "indexed": false,
          "internalType": "uint256",
          "name": "cardIndex",
          "type": "uint256"
        }
      ],
      "name": "CardTransferred",
      "type": "event"
    },
    {
      "inputs": [
        {
          "internalType": "string",
          "name": "_name",
          "type": "string"
        },
        {
          "internalType": "uint256",
          "name": "_grade",
          "type": "uint256"
        },
        {
          "internalType": "string",
          "name": "_condition",
          "type": "string"
        }
      ],
      "name": "registerCard",
      "outputs": [],
      "stateMutability": "nonpayable",
      "type": "function"
    },
    {
      "inputs": [
        {
          "internalType": "address",
          "name": "_to",
          "type": "address"
        },
        {
          "internalType": "uint256",
          "name": "_cardIndex",
          "type": "uint256"
        }
      ],
      "name": "transferCard",
      "outputs": [],
      "stateMutability": "nonpayable",
      "type": "function"
    },
    {
      "inputs": [
        {
          "internalType": "address",
          "name": "_user",
          "type": "address"
        }
      ],
      "name": "getUserCards",
      "outputs": [
        {
          "components": [
            {
              "internalType": "string",
              "name": "name",
              "type": "string"
            },
            {
              "internalType": "uint256",
              "name": "grade",
              "type": "uint256"
            },
            {
              "internalType": "string",
              "name": "condition",
              "type": "string"
            }
          ],
          "internalType": "struct Authenticator.Card[]",
          "name": "",
          "type": "tuple[]"
        }
      ],
      "stateMutability": "view",
      "type": "function",
      "constant": true
    },
    {
      "inputs": [
        {
          "internalType": "address",
          "name": "_user",
          "type": "address"
        }
      ],
      "name": "getCardCount",
      "outputs": [
        {
          "internalType": "uint256",
          "name": "",
          "type": "uint256"
        }
      ],
      "stateMutability": "view",
      "type": "function",
      "constant": true
    }
  ],
  "bytecode": "0x608060405234801561001057600080fd5b506116dc806100206000396000f3fe608060405234801561001057600080fd5b506004361061004c5760003560e01c806388d9f40d146100515780639b81a35914610081578063b931f0471461009d578063dce0b586146100b9575b600080fd5b61006b60048036038101906100669190610b96565b6100e9565b6040516100789190610d85565b60405180910390f35b61009b60048036038101906100969190610dd3565b6102b4565b005b6100b760048036038101906100b29190610f48565b61068f565b005b6100d360048036038101906100ce9190610b96565b6107fb565b6040516100e09190610fe2565b60405180910390f35b60606000808373ffffffffffffffffffffffffffffffffffffffff1673ffffffffffffffffffffffffffffffffffffffff168152602001908152602001600020805480602002602001604051908101604052809291908181526020016000905b828210156102a9578382906000526020600020906003020160405180606001604052908160008201805461017c9061102c565b80601f01602080910402602001604051908101604052809291908181526020018280546101a89061102c565b80156101f55780601f106101ca576101008083540402835291602001916101f5565b820191906000526020600020905b8154815290600101906020018083116101d857829003601f168201915b50505050508152602001600182015481526020016002820180546102189061102c565b80601f01602080910402602001604051908101604052809291908181526020018280546102449061102c565b80156102915780601f1061026657610100808354040283529160200191610291565b820191906000526020600020905b81548152906001019060200180831161027457829003601f168201915b50505050508152505081526020019060010190610149565b505050509050919050565b6000803373ffffffffffffffffffffffffffffffffffffffff1673ffffffffffffffffffffffffffffffffffffffff168152602001908152602001600020805490508110610337576040517f08c379a000000000000000000000000000000000000000000000000000000000815260040161032e906110ba565b60405180910390fd5b60008060003373ffffffffffffffffffffffffffffffffffffffff1673ffffffffffffffffffffffffffffffffffffffff1681526020019081526020016000208281548110610389576103886110da565b5b90600052602060002090600302016040518060600160405290816000820180546103b29061102c565b80601f01602080910402602001604051908101604052809291908181526020018280546103de9061102c565b801561042b5780601f106104005761010080835404028352916020019161042b565b820191906000526020600020905b81548152906001019060200180831161040e57829003601f168201915b505050505081526020016001820154815260200160028201805461044e9061102c565b80601f016020809104026020016040519081016040528092919081815260200182805461047a9061102c565b80156104c75780601f1061049c576101008083540402835291602001916104c7565b820191906000526020600020905b8154815290600101906020018083116104aa57829003601f168201915b50505050508152505090506000808473ffffffffffffffffffffffffffffffffffffffff1673ffffffffffffffffffffffffffffffffffffffff168152602001908152602001600020819080600181540180825580915050600190039060005260206000209060030201600090919091909150600082015181600001908161054f91906112b5565b5060208201518160010155604082015181600201908161056f91906112b5565b505050600160003373ffffffffffffffffffffffffffffffffffffffff1673ffffffffffffffffffffffffffffffffffffffff16815260200190815260200160002060008154809291906105c2906113b6565b9190505550600160008473ffffffffffffffffffffffffffffffffffffffff1673ffffffffffffffffffffffffffffffffffffffff1681526020019081526020016000206000815480929190610617906113df565b919050555061062582610844565b8273ffffffffffffffffffffffffffffffffffffffff163373ffffffffffffffffffffffffffffffffffffffff167f08c7dc9c65cfe0a446c6b662ec2e35c1966d49c8c50f8a4b78a7e2e0c68217c4846040516106829190610fe2565b60405180910390a3505050565b600060405180606001604052808581526020018481526020018381525090506000803373ffffffffffffffffffffffffffffffffffffffff1673ffffffffffffffffffffffffffffffffffffffff168152602001908152602001600020819080600181540180825580915050600190039060005260206000209060030201600090919091909150600082015181600001908161072b91906112b5565b5060208201518160010155604082015181600201908161074b91906112b5565b505050600160003373ffffffffffffffffffffffffffffffffffffffff1673ffffffffffffffffffffffffffffffffffffffff168152602001908152602001600020600081548092919061079e906113df565b91905055503373ffffffffffffffffffffffffffffffffffffffff167fd5ed51683b2822693297735ede880846194bea029d405788e45a05e66b6d96968585856040516107ed93929190611460565b60405180910390a250505050565b6000600160008373ffffffffffffffffffffffffffffffffffffffff1673ffffffffffffffffffffffffffffffffffffffff168152602001908152602001600020549050919050565b6000803373ffffffffffffffffffffffffffffffffffffffff1673ffffffffffffffffffffffffffffffffffffffff1681526020019081526020016000208054905081106108c7576040517f08c379a00000000000000000000000000000000000000000000000000000000081526004016108be906114f1565b60405180910390fd5b60008190505b60016000803373ffffffffffffffffffffffffffffffffffffffff1673ffffffffffffffffffffffffffffffffffffffff1681526020019081526020016000208054905061091b9190611511565b811015610a34576000803373ffffffffffffffffffffffffffffffffffffffff1673ffffffffffffffffffffffffffffffffffffffff16815260200190815260200160002060018261096d9190611545565b8154811061097e5761097d6110da565b5b90600052602060002090600302016000803373ffffffffffffffffffffffffffffffffffffffff1673ffffffffffffffffffffffffffffffffffffffff16815260200190815260200160002082815481106109dc576109db6110da565b5b9060005260206000209060030201600082018160000190816109fe919061158f565b506001820154816001015560028201816002019081610a1d919061158f565b509050508080610a2c906113df565b9150506108cd565b506000803373ffffffffffffffffffffffffffffffffffffffff1673ffffffffffffffffffffffffffffffffffffffff168152602001908152602001600020805480610a8357610a82611677565b5b600190038181906000526020600020906003020160008082016000610aa89190610ac7565b6001820160009055600282016000610ac09190610ac7565b5050905550565b508054610ad39061102c565b6000825580601f10610ae55750610b04565b601f016020900490600052602060002090810190610b039190610b07565b5b50565b5b80821115610b20576000816000905550600101610b08565b5090565b6000604051905090565b600080fd5b600080fd5b600073ffffffffffffffffffffffffffffffffffffffff82169050919050565b6000610b6382610b38565b9050919050565b610b7381610b58565b8114610b7e57600080fd5b50565b600081359050610b9081610b6a565b92915050565b600060208284031215610bac57610bab610b2e565b5b6000610bba84828501610b81565b91505092915050565b600081519050919050565b600082825260208201905092915050565b6000819050602082019050919050565b600081519050919050565b600082825260208201905092915050565b60005b83811015610c29578082015181840152602081019050610c0e565b60008484015250505050565b6000601f19601f8301169050919050565b6000610c5182610bef565b610c5b8185610bfa565b9350610c6b818560208601610c0b565b610c7481610c35565b840191505092915050565b6000819050919050565b610c9281610c7f565b82525050565b60006060830160008301518482036000860152610cb58282610c46565b9150506020830151610cca6020860182610c89565b5060408301518482036040860152610ce28282610c46565b9150508091505092915050565b6000610cfb8383610c98565b905092915050565b6000602082019050919050565b6000610d1b82610bc3565b610d258185610bce565b935083602082028501610d3785610bdf565b8060005b85811015610d735784840389528151610d548582610cef565b9450610d5f83610d03565b925060208a01995050600181019050610d3b565b50829750879550505050505092915050565b60006020820190508181036000830152610d9f8184610d10565b905092915050565b610db081610c7f565b8114610dbb57600080fd5b50565b600081359050610dcd81610da7565b92915050565b60008060408385031215610dea57610de9610b2e565b5b6000610df885828601610b81565b9250506020610e0985828601610dbe565b9150509250929050565b600080fd5b600080fd5b7f4e487b7100000000000000000000000000000000000000000000000000000000600052604160045260246000fd5b610e5582610c35565b810181811067ffffffffffffffff82111715610e7457610e73610e1d565b5b80604052505050565b6000610e87610b24565b9050610e938282610e4c565b919050565b600067ffffffffffffffff821115610eb357610eb2610e1d565b5b610ebc82610c35565b9050602081019050919050565b82818337600083830152505050565b6000610eeb610ee684610e98565b610e7d565b905082815260208101848484011115610f0757610f06610e18565b5b610f12848285610ec9565b509392505050565b600082601f830112610f2f57610f2e610e13565b5b8135610f3f848260208601610ed8565b91505092915050565b600080600060608486031215610f6157610f60610b2e565b5b600084013567ffffffffffffffff811115610f7f57610f7e610b33565b5b610f8b86828701610f1a565b9350506020610f9c86828701610dbe565b925050604084013567ffffffffffffffff811115610fbd57610fbc610b33565b5b610fc986828701610f1a565b9150509250925092565b610fdc81610c7f565b82525050565b6000602082019050610ff76000830184610fd3565b92915050565b7f4e487b7100000000000000000000000000000000000000000000000000000000600052602260045260246000fd5b6000600282049050600182168061104457607f821691505b60208210810361105757611056610ffd565b5b50919050565b600082825260208201905092915050565b7f496e76616c6964206361726420696e6465780000000000000000000000000000600082015250565b60006110a460128361105d565b91506110af8261106e565b602082019050919050565b600060208201905081810360008301526110d381611097565b9050919050565b7f4e487b7100000000000000000000000000000000000000000000000000000000600052603260045260246000fd5b60008190508160005260206000209050919050565b60006020601f8301049050919050565b600082821b905092915050565b60006008830261116b7fffffffffffffffffffffffffffffffffffffffffffffffffffffffffffffffff8261112e565b611175868361112e565b95508019841693508086168417925050509392505050565b6000819050919050565b60006111b26111ad6111a884610c7f565b61118d565b610c7f565b9050919050565b6000819050919050565b6111cc83611197565b6111e06111d8826111b9565b84845461113b565b825550505050565b600090565b6111f56111e8565b6112008184846111c3565b505050565b5b81811015611224576112196000826111ed565b600181019050611206565b5050565b601f8211156112695761123a81611109565b6112438461111e565b81016020851015611252578190505b61126661125e8561111e565b830182611205565b50505b505050565b600082821c905092915050565b600061128c6000198460080261126e565b1980831691505092915050565b60006112a5838361127b565b9150826002028217905092915050565b6112be82610bef565b67ffffffffffffffff8111156112d7576112d6610e1d565b5b6112e1825461102c565b6112ec828285611228565b600060209050601f83116001811461131f576000841561130d578287015190505b6113178582611299565b86555061137f565b601f19841661132d86611109565b60005b8281101561135557848901518255600182019150602085019450602081019050611330565b86831015611372578489015161136e601f89168261127b565b8355505b6001600288020188555050505b505050505050565b7f4e487b7100000000000000000000000000000000000000000000000000000000600052601160045260246000fd5b60006113c182610c7f565b9150600082036113d4576113d3611387565b5b600182039050919050565b60006113ea82610c7f565b91507fffffffffffffffffffffffffffffffffffffffffffffffffffffffffffffffff820361141c5761141b611387565b5b600182019050919050565b600061143282610bef565b61143c818561105d565b935061144c818560208601610c0b565b61145581610c35565b840191505092915050565b6000606082019050818103600083015261147a8186611427565b90506114896020830185610fd3565b818103604083015261149b8184611427565b9050949350505050565b7f496e646578206f7574206f6620626f756e647300000000000000000000000000600082015250565b60006114db60138361105d565b91506114e6826114a5565b602082019050919050565b6000602082019050818103600083015261150a816114ce565b9050919050565b600061151c82610c7f565b915061152783610c7f565b925082820390508181111561153f5761153e611387565b5b92915050565b600061155082610c7f565b915061155b83610c7f565b925082820190508082111561157357611572611387565b5b92915050565b6000815490506115888161102c565b9050919050565b81810361159d575050611675565b6115a682611579565b67ffffffffffffffff8111156115bf576115be610e1d565b5b6115c9825461102c565b6115d4828285611228565b6000601f83116001811461160357600084156115f1578287015490505b6115fb8582611299565b86555061166e565b601f19841661161187611109565b965061161c86611109565b60005b828110156116445784890154825560018201915060018501945060208101905061161f565b86831015611661578489015461165d601f89168261127b565b8355505b6001600288020188555050505b5050505050505b565b7f4e487b7100000000000000000000000000000000000000000000000000000000600052603160045260246000fdfea2646970667358221220f23734b82277cfd5a170cfb680f535dcdf7c4b75c65082aec48eaf3209d054b164736f6c63430008120033",
  "immutableReferences": {},
  "source": "// SPDX-License-Identifier: MIT\r\npragma solidity >=0.4.22 <0.9.0;\r\n\r\ncontract Authenticator {\r\n    struct Card {\r\n        string name;\r\n        uint256 grade;\r\n        string condition;\r\n        // Other variables\r\n    }\r\n\r\n    mapping(address => Card[]) private userCards; // Mapping to register cards for each user\r\n    mapping(address => uint256) private cardCounts; // Mapping to keep track of card counts for each user\r\n\r\n    // Event works as a log to keep track of all the transactions that happened in the contract\r\n    // These logs are stored on blockchain and are accessible using address of the contract till the contract\r\n    // is present on the blockchain. An event generated is not accessible from within contracts,\r\n    // not even the one which have created and emitted them.\r\n\r\n    // Event to notify when a card is registered\r\n    event CardRegistered(\r\n        address indexed user,\r\n        string name,\r\n        uint256 grade,\r\n        string condition\r\n    );\r\n\r\n    // Event to notify when a card is transferred\r\n    event CardTransferred(\r\n        address indexed from,\r\n        address indexed to,\r\n        uint256 cardIndex\r\n    );\r\n\r\n    // Function to register a card for a user, external means that this function can be called from outside the contract\r\n    function registerCard(\r\n        string memory _name,\r\n        uint256 _grade,\r\n        string memory _condition\r\n    ) external {\r\n        Card memory newCard = Card(_name, _grade, _condition);\r\n        userCards[msg.sender].push(newCard);\r\n        cardCounts[msg.sender]++;\r\n        emit CardRegistered(msg.sender, _name, _grade, _condition);\r\n    }\r\n\r\n    // Function to transfer a card from one user to another\r\n    function transferCard(address _to, uint256 _cardIndex) external {\r\n        require( // require is used to validate the inputs to the function and throw error if the condition is not met\r\n            _cardIndex < userCards[msg.sender].length,\r\n            \"Invalid card index\"\r\n        );\r\n        Card memory cardToTransfer = userCards[msg.sender][_cardIndex]; // Get the card to transfer\r\n        userCards[_to].push(cardToTransfer); // Push the card to the user to whom it is being transferred\r\n        cardCounts[msg.sender]--; // Reduce the card count of the user from whom the card is being transferred\r\n        cardCounts[_to]++; // Increase the card count of the user to whom the card is being transferred\r\n        removeElement(_cardIndex); // Delete the card from the user from whom the card is being transferred\r\n        emit CardTransferred(msg.sender, _to, _cardIndex); // Emit the event to notify the transfer\r\n    }\r\n\r\n    // Function to get all cards of a user by address\r\n    function getUserCards(address _user) external view returns (Card[] memory) {\r\n        // view means that this function will not modify the state of the contract\r\n        return userCards[_user];\r\n    }\r\n\r\n    // Function to get card count of a user by address\r\n    function getCardCount(address _user) external view returns (uint256) {\r\n        return cardCounts[_user];\r\n    }\r\n\r\n    function removeElement(uint256 _cardIndex) internal {\r\n        require(_cardIndex < userCards[msg.sender].length, \"Index out of bounds\");\r\n\r\n        // Shift elements to the left starting from the element to be removed\r\n        for (uint i = _cardIndex; i < userCards[msg.sender].length - 1; i++) {          //FORSE USA TROPPO GAS --> da approfondire\r\n            userCards[msg.sender][i] = userCards[msg.sender][i + 1];\r\n        }\r\n\r\n        // Resize the array by deleting the last element\r\n        userCards[msg.sender].pop();\r\n    }\r\n}\r\n",
  "sourcePath": "C:\\Users\\Giacomo\\Desktop\\Blockchain\\blockchain-authenticator\\project\\truffle\\contracts\\authenticator.sol",
  "compiler": {
    "name": "solc",
    "version": "0.8.18+commit.87f61d96.Emscripten.clang"
  },
  "schemaVersion": "3.4.14",
  "updatedAt": "2023-07-05T15:05:09.127Z",
  "networkType": "ethereum",
  "devdoc": {
    "kind": "dev",
    "methods": {},
    "version": 1
  },
  "userdoc": {
    "kind": "user",
    "methods": {},
    "version": 1
  }
}