{
  "contractName": "GradationCard",
  "abi": [
    {
      "inputs": [],
      "stateMutability": "nonpayable",
      "type": "constructor"
    },
    {
      "anonymous": false,
      "inputs": [
        {
          "indexed": true,
          "internalType": "address",
          "name": "owner",
          "type": "address"
        },
        {
          "indexed": true,
          "internalType": "address",
          "name": "approved",
          "type": "address"
        },
        {
          "indexed": true,
          "internalType": "uint256",
          "name": "tokenId",
          "type": "uint256"
        }
      ],
      "name": "Approval",
      "type": "event"
    },
    {
      "anonymous": false,
      "inputs": [
        {
          "indexed": true,
          "internalType": "address",
          "name": "owner",
          "type": "address"
        },
        {
          "indexed": true,
          "internalType": "address",
          "name": "operator",
          "type": "address"
        },
        {
          "indexed": false,
          "internalType": "bool",
          "name": "approved",
          "type": "bool"
        }
      ],
      "name": "ApprovalForAll",
      "type": "event"
    },
    {
      "anonymous": false,
      "inputs": [
        {
          "indexed": true,
          "internalType": "address",
          "name": "from",
          "type": "address"
        },
        {
          "indexed": true,
          "internalType": "address",
          "name": "to",
          "type": "address"
        },
        {
          "indexed": true,
          "internalType": "uint256",
          "name": "tokenId",
          "type": "uint256"
        }
      ],
      "name": "Transfer",
      "type": "event"
    },
    {
      "inputs": [
        {
          "internalType": "address",
          "name": "to",
          "type": "address"
        },
        {
          "internalType": "uint256",
          "name": "tokenId",
          "type": "uint256"
        }
      ],
      "name": "approve",
      "outputs": [],
      "stateMutability": "nonpayable",
      "type": "function"
    },
    {
      "inputs": [
        {
          "internalType": "address",
          "name": "owner",
          "type": "address"
        }
      ],
      "name": "balanceOf",
      "outputs": [
        {
          "internalType": "uint256",
          "name": "",
          "type": "uint256"
        }
      ],
      "stateMutability": "view",
      "type": "function"
    },
    {
      "inputs": [
        {
          "internalType": "uint256",
          "name": "tokenId",
          "type": "uint256"
        }
      ],
      "name": "getApproved",
      "outputs": [
        {
          "internalType": "address",
          "name": "",
          "type": "address"
        }
      ],
      "stateMutability": "view",
      "type": "function"
    },
    {
      "inputs": [
        {
          "internalType": "address",
          "name": "owner",
          "type": "address"
        },
        {
          "internalType": "address",
          "name": "operator",
          "type": "address"
        }
      ],
      "name": "isApprovedForAll",
      "outputs": [
        {
          "internalType": "bool",
          "name": "",
          "type": "bool"
        }
      ],
      "stateMutability": "view",
      "type": "function"
    },
    {
      "inputs": [],
      "name": "name",
      "outputs": [
        {
          "internalType": "string",
          "name": "",
          "type": "string"
        }
      ],
      "stateMutability": "view",
      "type": "function"
    },
    {
      "inputs": [
        {
          "internalType": "uint256",
          "name": "tokenId",
          "type": "uint256"
        }
      ],
      "name": "ownerOf",
      "outputs": [
        {
          "internalType": "address",
          "name": "",
          "type": "address"
        }
      ],
      "stateMutability": "view",
      "type": "function"
    },
    {
      "inputs": [
        {
          "internalType": "address",
          "name": "from",
          "type": "address"
        },
        {
          "internalType": "address",
          "name": "to",
          "type": "address"
        },
        {
          "internalType": "uint256",
          "name": "tokenId",
          "type": "uint256"
        }
      ],
      "name": "safeTransferFrom",
      "outputs": [],
      "stateMutability": "nonpayable",
      "type": "function"
    },
    {
      "inputs": [
        {
          "internalType": "address",
          "name": "from",
          "type": "address"
        },
        {
          "internalType": "address",
          "name": "to",
          "type": "address"
        },
        {
          "internalType": "uint256",
          "name": "tokenId",
          "type": "uint256"
        },
        {
          "internalType": "bytes",
          "name": "data",
          "type": "bytes"
        }
      ],
      "name": "safeTransferFrom",
      "outputs": [],
      "stateMutability": "nonpayable",
      "type": "function"
    },
    {
      "inputs": [
        {
          "internalType": "address",
          "name": "operator",
          "type": "address"
        },
        {
          "internalType": "bool",
          "name": "approved",
          "type": "bool"
        }
      ],
      "name": "setApprovalForAll",
      "outputs": [],
      "stateMutability": "nonpayable",
      "type": "function"
    },
    {
      "inputs": [
        {
          "internalType": "bytes4",
          "name": "interfaceId",
          "type": "bytes4"
        }
      ],
      "name": "supportsInterface",
      "outputs": [
        {
          "internalType": "bool",
          "name": "",
          "type": "bool"
        }
      ],
      "stateMutability": "view",
      "type": "function"
    },
    {
      "inputs": [],
      "name": "symbol",
      "outputs": [
        {
          "internalType": "string",
          "name": "",
          "type": "string"
        }
      ],
      "stateMutability": "view",
      "type": "function"
    },
    {
      "inputs": [
        {
          "internalType": "uint256",
          "name": "tokenId",
          "type": "uint256"
        }
      ],
      "name": "tokenURI",
      "outputs": [
        {
          "internalType": "string",
          "name": "",
          "type": "string"
        }
      ],
      "stateMutability": "view",
      "type": "function"
    },
    {
      "inputs": [
        {
          "internalType": "address",
          "name": "from",
          "type": "address"
        },
        {
          "internalType": "address",
          "name": "to",
          "type": "address"
        },
        {
          "internalType": "uint256",
          "name": "tokenId",
          "type": "uint256"
        }
      ],
      "name": "transferFrom",
      "outputs": [],
      "stateMutability": "nonpayable",
      "type": "function"
    },
    {
      "inputs": [
        {
          "internalType": "string",
          "name": "name",
          "type": "string"
        },
        {
          "internalType": "string",
          "name": "condition",
          "type": "string"
        },
        {
          "internalType": "uint256",
          "name": "grade",
          "type": "uint256"
        }
      ],
      "name": "mintCard",
      "outputs": [],
      "stateMutability": "nonpayable",
      "type": "function"
    },
    {
      "inputs": [
        {
          "internalType": "address",
          "name": "to",
          "type": "address"
        },
        {
          "internalType": "uint256",
          "name": "tokenId",
          "type": "uint256"
        }
      ],
      "name": "transferCard",
      "outputs": [],
      "stateMutability": "nonpayable",
      "type": "function"
    },
    {
      "inputs": [
        {
          "internalType": "uint256",
          "name": "tokenId",
          "type": "uint256"
        }
      ],
      "name": "getCard",
      "outputs": [
        {
          "components": [
            {
              "internalType": "uint256",
              "name": "cardId",
              "type": "uint256"
            },
            {
              "internalType": "string",
              "name": "name",
              "type": "string"
            },
            {
              "internalType": "string",
              "name": "condition",
              "type": "string"
            },
            {
              "internalType": "uint256",
              "name": "grade",
              "type": "uint256"
            },
            {
              "internalType": "address",
              "name": "owner",
              "type": "address"
            }
          ],
          "internalType": "struct GradationCard.Card",
          "name": "",
          "type": "tuple"
        }
      ],
      "stateMutability": "view",
      "type": "function"
    }
  ],
  "bytecode": "0x60806040523480156200001157600080fd5b506040518060400160405280600d81526020017f477261646174696f6e43617264000000000000000000000000000000000000008152506040518060400160405280600281526020017f474300000000000000000000000000000000000000000000000000000000000081525081600090816200008f919062000324565b508060019081620000a1919062000324565b5050506200040b565b600081519050919050565b7f4e487b7100000000000000000000000000000000000000000000000000000000600052604160045260246000fd5b7f4e487b7100000000000000000000000000000000000000000000000000000000600052602260045260246000fd5b600060028204905060018216806200012c57607f821691505b602082108103620001425762000141620000e4565b5b50919050565b60008190508160005260206000209050919050565b60006020601f8301049050919050565b600082821b905092915050565b600060088302620001ac7fffffffffffffffffffffffffffffffffffffffffffffffffffffffffffffffff826200016d565b620001b886836200016d565b95508019841693508086168417925050509392505050565b6000819050919050565b6000819050919050565b600062000205620001ff620001f984620001d0565b620001da565b620001d0565b9050919050565b6000819050919050565b6200022183620001e4565b6200023962000230826200020c565b8484546200017a565b825550505050565b600090565b6200025062000241565b6200025d81848462000216565b505050565b5b8181101562000285576200027960008262000246565b60018101905062000263565b5050565b601f821115620002d4576200029e8162000148565b620002a9846200015d565b81016020851015620002b9578190505b620002d1620002c8856200015d565b83018262000262565b50505b505050565b600082821c905092915050565b6000620002f960001984600802620002d9565b1980831691505092915050565b6000620003148383620002e6565b9150826002028217905092915050565b6200032f82620000aa565b67ffffffffffffffff8111156200034b576200034a620000b5565b5b62000357825462000113565b6200036482828562000289565b600060209050601f8311600181146200039c576000841562000387578287015190505b62000393858262000306565b86555062000403565b601f198416620003ac8662000148565b60005b82811015620003d657848901518255600182019150602085019450602081019050620003af565b86831015620003f65784890151620003f2601f891682620002e6565b8355505b6001600288020188555050505b505050505050565b612e9e806200041b6000396000f3fe608060405234801561001057600080fd5b50600436106101005760003560e01c80638d77986711610097578063a22cb46511610066578063a22cb465146102bd578063b88d4fde146102d9578063c87b56dd146102f5578063e985e9c51461032557610100565b80638d779867146102375780639188d3121461025357806395d89b41146102835780639b81a359146102a157610100565b806323b872dd116100d357806323b872dd1461019f57806342842e0e146101bb5780636352211e146101d757806370a082311461020757610100565b806301ffc9a71461010557806306fdde0314610135578063081812fc14610153578063095ea7b314610183575b600080fd5b61011f600480360381019061011a9190611bc5565b610355565b60405161012c9190611c0d565b60405180910390f35b61013d610437565b60405161014a9190611cb8565b60405180910390f35b61016d60048036038101906101689190611d10565b6104c9565b60405161017a9190611d7e565b60405180910390f35b61019d60048036038101906101989190611dc5565b61050f565b005b6101b960048036038101906101b49190611e05565b610626565b005b6101d560048036038101906101d09190611e05565b610686565b005b6101f160048036038101906101ec9190611d10565b6106a6565b6040516101fe9190611d7e565b60405180910390f35b610221600480360381019061021c9190611e58565b61072c565b60405161022e9190611e94565b60405180910390f35b610251600480360381019061024c9190611fe4565b6107e3565b005b61026d60048036038101906102689190611d10565b6108e5565b60405161027a9190612154565b60405180910390f35b61028b610ae8565b6040516102989190611cb8565b60405180910390f35b6102bb60048036038101906102b69190611dc5565b610b7a565b005b6102d760048036038101906102d291906121a2565b610c27565b005b6102f360048036038101906102ee9190612283565b610c3d565b005b61030f600480360381019061030a9190611d10565b610c9f565b60405161031c9190611cb8565b60405180910390f35b61033f600480360381019061033a9190612306565b610d07565b60405161034c9190611c0d565b60405180910390f35b60007f80ac58cd000000000000000000000000000000000000000000000000000000007bffffffffffffffffffffffffffffffffffffffffffffffffffffffff1916827bffffffffffffffffffffffffffffffffffffffffffffffffffffffff1916148061042057507f5b5e139f000000000000000000000000000000000000000000000000000000007bffffffffffffffffffffffffffffffffffffffffffffffffffffffff1916827bffffffffffffffffffffffffffffffffffffffffffffffffffffffff1916145b80610430575061042f82610d9b565b5b9050919050565b60606000805461044690612375565b80601f016020809104026020016040519081016040528092919081815260200182805461047290612375565b80156104bf5780601f10610494576101008083540402835291602001916104bf565b820191906000526020600020905b8154815290600101906020018083116104a257829003601f168201915b5050505050905090565b60006104d482610e05565b6004600083815260200190815260200160002060009054906101000a900473ffffffffffffffffffffffffffffffffffffffff169050919050565b600061051a826106a6565b90508073ffffffffffffffffffffffffffffffffffffffff168373ffffffffffffffffffffffffffffffffffffffff160361058a576040517f08c379a000000000000000000000000000000000000000000000000000000000815260040161058190612418565b60405180910390fd5b8073ffffffffffffffffffffffffffffffffffffffff166105a9610e50565b73ffffffffffffffffffffffffffffffffffffffff1614806105d857506105d7816105d2610e50565b610d07565b5b610617576040517f08c379a000000000000000000000000000000000000000000000000000000000815260040161060e906124aa565b60405180910390fd5b6106218383610e58565b505050565b610637610631610e50565b82610f11565b610676576040517f08c379a000000000000000000000000000000000000000000000000000000000815260040161066d9061253c565b60405180910390fd5b610681838383610fa6565b505050565b6106a183838360405180602001604052806000815250610c3d565b505050565b6000806106b28361129f565b9050600073ffffffffffffffffffffffffffffffffffffffff168173ffffffffffffffffffffffffffffffffffffffff1603610723576040517f08c379a000000000000000000000000000000000000000000000000000000000815260040161071a906125a8565b60405180910390fd5b80915050919050565b60008073ffffffffffffffffffffffffffffffffffffffff168273ffffffffffffffffffffffffffffffffffffffff160361079c576040517f08c379a00000000000000000000000000000000000000000000000000000000081526004016107939061263a565b60405180910390fd5b600360008373ffffffffffffffffffffffffffffffffffffffff1673ffffffffffffffffffffffffffffffffffffffff168152602001908152602001600020549050919050565b6107ed60066112dc565b60006107f960066112f2565b90506108053382611300565b6040518060a001604052808281526020018581526020018481526020018381526020013373ffffffffffffffffffffffffffffffffffffffff16815250600760008381526020019081526020016000206000820151816000015560208201518160010190816108749190612806565b50604082015181600201908161088a9190612806565b506060820151816003015560808201518160040160006101000a81548173ffffffffffffffffffffffffffffffffffffffff021916908373ffffffffffffffffffffffffffffffffffffffff16021790555090505050505050565b6108ed611b14565b6108f68261151d565b610935576040517f08c379a000000000000000000000000000000000000000000000000000000000815260040161092c9061294a565b60405180910390fd5b600760008381526020019081526020016000206040518060a00160405290816000820154815260200160018201805461096d90612375565b80601f016020809104026020016040519081016040528092919081815260200182805461099990612375565b80156109e65780601f106109bb576101008083540402835291602001916109e6565b820191906000526020600020905b8154815290600101906020018083116109c957829003601f168201915b505050505081526020016002820180546109ff90612375565b80601f0160208091040260200160405190810160405280929190818152602001828054610a2b90612375565b8015610a785780601f10610a4d57610100808354040283529160200191610a78565b820191906000526020600020905b815481529060010190602001808311610a5b57829003601f168201915b50505050508152602001600382015481526020016004820160009054906101000a900473ffffffffffffffffffffffffffffffffffffffff1673ffffffffffffffffffffffffffffffffffffffff1673ffffffffffffffffffffffffffffffffffffffff16815250509050919050565b606060018054610af790612375565b80601f0160208091040260200160405190810160405280929190818152602001828054610b2390612375565b8015610b705780601f10610b4557610100808354040283529160200191610b70565b820191906000526020600020905b815481529060010190602001808311610b5357829003601f168201915b5050505050905090565b610b843382610f11565b610bc3576040517f08c379a0000000000000000000000000000000000000000000000000000000008152600401610bba906129dc565b60405180910390fd5b610bce338383610fa6565b816007600083815260200190815260200160002060040160006101000a81548173ffffffffffffffffffffffffffffffffffffffff021916908373ffffffffffffffffffffffffffffffffffffffff1602179055505050565b610c39610c32610e50565b838361155e565b5050565b610c4e610c48610e50565b83610f11565b610c8d576040517f08c379a0000000000000000000000000000000000000000000000000000000008152600401610c849061253c565b60405180910390fd5b610c99848484846116ca565b50505050565b6060610caa82610e05565b6000610cb4611726565b90506000815111610cd45760405180602001604052806000815250610cff565b80610cde8461173d565b604051602001610cef929190612a38565b6040516020818303038152906040525b915050919050565b6000600560008473ffffffffffffffffffffffffffffffffffffffff1673ffffffffffffffffffffffffffffffffffffffff16815260200190815260200160002060008373ffffffffffffffffffffffffffffffffffffffff1673ffffffffffffffffffffffffffffffffffffffff16815260200190815260200160002060009054906101000a900460ff16905092915050565b60007f01ffc9a7000000000000000000000000000000000000000000000000000000007bffffffffffffffffffffffffffffffffffffffffffffffffffffffff1916827bffffffffffffffffffffffffffffffffffffffffffffffffffffffff1916149050919050565b610e0e8161151d565b610e4d576040517f08c379a0000000000000000000000000000000000000000000000000000000008152600401610e44906125a8565b60405180910390fd5b50565b600033905090565b816004600083815260200190815260200160002060006101000a81548173ffffffffffffffffffffffffffffffffffffffff021916908373ffffffffffffffffffffffffffffffffffffffff160217905550808273ffffffffffffffffffffffffffffffffffffffff16610ecb836106a6565b73ffffffffffffffffffffffffffffffffffffffff167f8c5be1e5ebec7d5bd14f71427d1e84f3dd0314c0f7b2291e5b200ac8c7c3b92560405160405180910390a45050565b600080610f1d836106a6565b90508073ffffffffffffffffffffffffffffffffffffffff168473ffffffffffffffffffffffffffffffffffffffff161480610f5f5750610f5e8185610d07565b5b80610f9d57508373ffffffffffffffffffffffffffffffffffffffff16610f85846104c9565b73ffffffffffffffffffffffffffffffffffffffff16145b91505092915050565b8273ffffffffffffffffffffffffffffffffffffffff16610fc6826106a6565b73ffffffffffffffffffffffffffffffffffffffff161461101c576040517f08c379a000000000000000000000000000000000000000000000000000000000815260040161101390612ace565b60405180910390fd5b600073ffffffffffffffffffffffffffffffffffffffff168273ffffffffffffffffffffffffffffffffffffffff160361108b576040517f08c379a000000000000000000000000000000000000000000000000000000000815260040161108290612b60565b60405180910390fd5b611098838383600161180b565b8273ffffffffffffffffffffffffffffffffffffffff166110b8826106a6565b73ffffffffffffffffffffffffffffffffffffffff161461110e576040517f08c379a000000000000000000000000000000000000000000000000000000000815260040161110590612ace565b60405180910390fd5b6004600082815260200190815260200160002060006101000a81549073ffffffffffffffffffffffffffffffffffffffff02191690556001600360008573ffffffffffffffffffffffffffffffffffffffff1673ffffffffffffffffffffffffffffffffffffffff168152602001908152602001600020600082825403925050819055506001600360008473ffffffffffffffffffffffffffffffffffffffff1673ffffffffffffffffffffffffffffffffffffffff16815260200190815260200160002060008282540192505081905550816002600083815260200190815260200160002060006101000a81548173ffffffffffffffffffffffffffffffffffffffff021916908373ffffffffffffffffffffffffffffffffffffffff160217905550808273ffffffffffffffffffffffffffffffffffffffff168473ffffffffffffffffffffffffffffffffffffffff167fddf252ad1be2c89b69c2b068fc378daa952ba7f163c4a11628f55a4df523b3ef60405160405180910390a461129a8383836001611811565b505050565b60006002600083815260200190815260200160002060009054906101000a900473ffffffffffffffffffffffffffffffffffffffff169050919050565b6001816000016000828254019250508190555050565b600081600001549050919050565b600073ffffffffffffffffffffffffffffffffffffffff168273ffffffffffffffffffffffffffffffffffffffff160361136f576040517f08c379a000000000000000000000000000000000000000000000000000000000815260040161136690612bcc565b60405180910390fd5b6113788161151d565b156113b8576040517f08c379a00000000000000000000000000000000000000000000000000000000081526004016113af90612c38565b60405180910390fd5b6113c660008383600161180b565b6113cf8161151d565b1561140f576040517f08c379a000000000000000000000000000000000000000000000000000000000815260040161140690612c38565b60405180910390fd5b6001600360008473ffffffffffffffffffffffffffffffffffffffff1673ffffffffffffffffffffffffffffffffffffffff16815260200190815260200160002060008282540192505081905550816002600083815260200190815260200160002060006101000a81548173ffffffffffffffffffffffffffffffffffffffff021916908373ffffffffffffffffffffffffffffffffffffffff160217905550808273ffffffffffffffffffffffffffffffffffffffff16600073ffffffffffffffffffffffffffffffffffffffff167fddf252ad1be2c89b69c2b068fc378daa952ba7f163c4a11628f55a4df523b3ef60405160405180910390a4611519600083836001611811565b5050565b60008073ffffffffffffffffffffffffffffffffffffffff1661153f8361129f565b73ffffffffffffffffffffffffffffffffffffffff1614159050919050565b8173ffffffffffffffffffffffffffffffffffffffff168373ffffffffffffffffffffffffffffffffffffffff16036115cc576040517f08c379a00000000000000000000000000000000000000000000000000000000081526004016115c390612ca4565b60405180910390fd5b80600560008573ffffffffffffffffffffffffffffffffffffffff1673ffffffffffffffffffffffffffffffffffffffff16815260200190815260200160002060008473ffffffffffffffffffffffffffffffffffffffff1673ffffffffffffffffffffffffffffffffffffffff16815260200190815260200160002060006101000a81548160ff0219169083151502179055508173ffffffffffffffffffffffffffffffffffffffff168373ffffffffffffffffffffffffffffffffffffffff167f17307eab39ab6107e8899845ad3d59bd9653f200f220920489ca2b5937696c31836040516116bd9190611c0d565b60405180910390a3505050565b6116d5848484610fa6565b6116e184848484611817565b611720576040517f08c379a000000000000000000000000000000000000000000000000000000000815260040161171790612d36565b60405180910390fd5b50505050565b606060405180602001604052806000815250905090565b60606000600161174c8461199e565b01905060008167ffffffffffffffff81111561176b5761176a611eb9565b5b6040519080825280601f01601f19166020018201604052801561179d5781602001600182028036833780820191505090505b509050600082602001820190505b600115611800578080600190039150507f3031323334353637383961626364656600000000000000000000000000000000600a86061a8153600a85816117f4576117f3612d56565b5b049450600085036117ab575b819350505050919050565b50505050565b50505050565b60006118388473ffffffffffffffffffffffffffffffffffffffff16611af1565b15611991578373ffffffffffffffffffffffffffffffffffffffff1663150b7a02611861610e50565b8786866040518563ffffffff1660e01b81526004016118839493929190612dda565b6020604051808303816000875af19250505080156118bf57506040513d601f19601f820116820180604052508101906118bc9190612e3b565b60015b611941573d80600081146118ef576040519150601f19603f3d011682016040523d82523d6000602084013e6118f4565b606091505b506000815103611939576040517f08c379a000000000000000000000000000000000000000000000000000000000815260040161193090612d36565b60405180910390fd5b805181602001fd5b63150b7a0260e01b7bffffffffffffffffffffffffffffffffffffffffffffffffffffffff1916817bffffffffffffffffffffffffffffffffffffffffffffffffffffffff191614915050611996565b600190505b949350505050565b600080600090507a184f03e93ff9f4daa797ed6e38ed64bf6a1f01000000000000000083106119fc577a184f03e93ff9f4daa797ed6e38ed64bf6a1f01000000000000000083816119f2576119f1612d56565b5b0492506040810190505b6d04ee2d6d415b85acef81000000008310611a39576d04ee2d6d415b85acef81000000008381611a2f57611a2e612d56565b5b0492506020810190505b662386f26fc100008310611a6857662386f26fc100008381611a5e57611a5d612d56565b5b0492506010810190505b6305f5e1008310611a91576305f5e1008381611a8757611a86612d56565b5b0492506008810190505b6127108310611ab6576127108381611aac57611aab612d56565b5b0492506004810190505b60648310611ad95760648381611acf57611ace612d56565b5b0492506002810190505b600a8310611ae8576001810190505b80915050919050565b6000808273ffffffffffffffffffffffffffffffffffffffff163b119050919050565b6040518060a0016040528060008152602001606081526020016060815260200160008152602001600073ffffffffffffffffffffffffffffffffffffffff1681525090565b6000604051905090565b600080fd5b600080fd5b60007fffffffff0000000000000000000000000000000000000000000000000000000082169050919050565b611ba281611b6d565b8114611bad57600080fd5b50565b600081359050611bbf81611b99565b92915050565b600060208284031215611bdb57611bda611b63565b5b6000611be984828501611bb0565b91505092915050565b60008115159050919050565b611c0781611bf2565b82525050565b6000602082019050611c226000830184611bfe565b92915050565b600081519050919050565b600082825260208201905092915050565b60005b83811015611c62578082015181840152602081019050611c47565b60008484015250505050565b6000601f19601f8301169050919050565b6000611c8a82611c28565b611c948185611c33565b9350611ca4818560208601611c44565b611cad81611c6e565b840191505092915050565b60006020820190508181036000830152611cd28184611c7f565b905092915050565b6000819050919050565b611ced81611cda565b8114611cf857600080fd5b50565b600081359050611d0a81611ce4565b92915050565b600060208284031215611d2657611d25611b63565b5b6000611d3484828501611cfb565b91505092915050565b600073ffffffffffffffffffffffffffffffffffffffff82169050919050565b6000611d6882611d3d565b9050919050565b611d7881611d5d565b82525050565b6000602082019050611d936000830184611d6f565b92915050565b611da281611d5d565b8114611dad57600080fd5b50565b600081359050611dbf81611d99565b92915050565b60008060408385031215611ddc57611ddb611b63565b5b6000611dea85828601611db0565b9250506020611dfb85828601611cfb565b9150509250929050565b600080600060608486031215611e1e57611e1d611b63565b5b6000611e2c86828701611db0565b9350506020611e3d86828701611db0565b9250506040611e4e86828701611cfb565b9150509250925092565b600060208284031215611e6e57611e6d611b63565b5b6000611e7c84828501611db0565b91505092915050565b611e8e81611cda565b82525050565b6000602082019050611ea96000830184611e85565b92915050565b600080fd5b600080fd5b7f4e487b7100000000000000000000000000000000000000000000000000000000600052604160045260246000fd5b611ef182611c6e565b810181811067ffffffffffffffff82111715611f1057611f0f611eb9565b5b80604052505050565b6000611f23611b59565b9050611f2f8282611ee8565b919050565b600067ffffffffffffffff821115611f4f57611f4e611eb9565b5b611f5882611c6e565b9050602081019050919050565b82818337600083830152505050565b6000611f87611f8284611f34565b611f19565b905082815260208101848484011115611fa357611fa2611eb4565b5b611fae848285611f65565b509392505050565b600082601f830112611fcb57611fca611eaf565b5b8135611fdb848260208601611f74565b91505092915050565b600080600060608486031215611ffd57611ffc611b63565b5b600084013567ffffffffffffffff81111561201b5761201a611b68565b5b61202786828701611fb6565b935050602084013567ffffffffffffffff81111561204857612047611b68565b5b61205486828701611fb6565b925050604061206586828701611cfb565b9150509250925092565b61207881611cda565b82525050565b600082825260208201905092915050565b600061209a82611c28565b6120a4818561207e565b93506120b4818560208601611c44565b6120bd81611c6e565b840191505092915050565b6120d181611d5d565b82525050565b600060a0830160008301516120ef600086018261206f565b5060208301518482036020860152612107828261208f565b91505060408301518482036040860152612121828261208f565b9150506060830151612136606086018261206f565b50608083015161214960808601826120c8565b508091505092915050565b6000602082019050818103600083015261216e81846120d7565b905092915050565b61217f81611bf2565b811461218a57600080fd5b50565b60008135905061219c81612176565b92915050565b600080604083850312156121b9576121b8611b63565b5b60006121c785828601611db0565b92505060206121d88582860161218d565b9150509250929050565b600067ffffffffffffffff8211156121fd576121fc611eb9565b5b61220682611c6e565b9050602081019050919050565b6000612226612221846121e2565b611f19565b90508281526020810184848401111561224257612241611eb4565b5b61224d848285611f65565b509392505050565b600082601f83011261226a57612269611eaf565b5b813561227a848260208601612213565b91505092915050565b6000806000806080858703121561229d5761229c611b63565b5b60006122ab87828801611db0565b94505060206122bc87828801611db0565b93505060406122cd87828801611cfb565b925050606085013567ffffffffffffffff8111156122ee576122ed611b68565b5b6122fa87828801612255565b91505092959194509250565b6000806040838503121561231d5761231c611b63565b5b600061232b85828601611db0565b925050602061233c85828601611db0565b9150509250929050565b7f4e487b7100000000000000000000000000000000000000000000000000000000600052602260045260246000fd5b6000600282049050600182168061238d57607f821691505b6020821081036123a05761239f612346565b5b50919050565b7f4552433732313a20617070726f76616c20746f2063757272656e74206f776e6560008201527f7200000000000000000000000000000000000000000000000000000000000000602082015250565b6000612402602183611c33565b915061240d826123a6565b604082019050919050565b60006020820190508181036000830152612431816123f5565b9050919050565b7f4552433732313a20617070726f76652063616c6c6572206973206e6f7420746f60008201527f6b656e206f776e6572206f7220617070726f76656420666f7220616c6c000000602082015250565b6000612494603d83611c33565b915061249f82612438565b604082019050919050565b600060208201905081810360008301526124c381612487565b9050919050565b7f4552433732313a2063616c6c6572206973206e6f7420746f6b656e206f776e6560008201527f72206f7220617070726f76656400000000000000000000000000000000000000602082015250565b6000612526602d83611c33565b9150612531826124ca565b604082019050919050565b6000602082019050818103600083015261255581612519565b9050919050565b7f4552433732313a20696e76616c696420746f6b656e2049440000000000000000600082015250565b6000612592601883611c33565b915061259d8261255c565b602082019050919050565b600060208201905081810360008301526125c181612585565b9050919050565b7f4552433732313a2061646472657373207a65726f206973206e6f74206120766160008201527f6c6964206f776e65720000000000000000000000000000000000000000000000602082015250565b6000612624602983611c33565b915061262f826125c8565b604082019050919050565b6000602082019050818103600083015261265381612617565b9050919050565b60008190508160005260206000209050919050565b60006020601f8301049050919050565b600082821b905092915050565b6000600883026126bc7fffffffffffffffffffffffffffffffffffffffffffffffffffffffffffffffff8261267f565b6126c6868361267f565b95508019841693508086168417925050509392505050565b6000819050919050565b60006127036126fe6126f984611cda565b6126de565b611cda565b9050919050565b6000819050919050565b61271d836126e8565b6127316127298261270a565b84845461268c565b825550505050565b600090565b612746612739565b612751818484612714565b505050565b5b818110156127755761276a60008261273e565b600181019050612757565b5050565b601f8211156127ba5761278b8161265a565b6127948461266f565b810160208510156127a3578190505b6127b76127af8561266f565b830182612756565b50505b505050565b600082821c905092915050565b60006127dd600019846008026127bf565b1980831691505092915050565b60006127f683836127cc565b9150826002028217905092915050565b61280f82611c28565b67ffffffffffffffff81111561282857612827611eb9565b5b6128328254612375565b61283d828285612779565b600060209050601f831160018114612870576000841561285e578287015190505b61286885826127ea565b8655506128d0565b601f19841661287e8661265a565b60005b828110156128a657848901518255600182019150602085019450602081019050612881565b868310156128c357848901516128bf601f8916826127cc565b8355505b6001600288020188555050505b505050505050565b7f477261646174696f6e436172643a206361726420646f6573206e6f742065786960008201527f7374000000000000000000000000000000000000000000000000000000000000602082015250565b6000612934602283611c33565b915061293f826128d8565b604082019050919050565b6000602082019050818103600083015261296381612927565b9050919050565b7f477261646174696f6e436172643a207472616e736665722063616c6c6572206960008201527f73206e6f74206f776e6572206e6f7220617070726f7665640000000000000000602082015250565b60006129c6603883611c33565b91506129d18261296a565b604082019050919050565b600060208201905081810360008301526129f5816129b9565b9050919050565b600081905092915050565b6000612a1282611c28565b612a1c81856129fc565b9350612a2c818560208601611c44565b80840191505092915050565b6000612a448285612a07565b9150612a508284612a07565b91508190509392505050565b7f4552433732313a207472616e736665722066726f6d20696e636f72726563742060008201527f6f776e6572000000000000000000000000000000000000000000000000000000602082015250565b6000612ab8602583611c33565b9150612ac382612a5c565b604082019050919050565b60006020820190508181036000830152612ae781612aab565b9050919050565b7f4552433732313a207472616e7366657220746f20746865207a65726f2061646460008201527f7265737300000000000000000000000000000000000000000000000000000000602082015250565b6000612b4a602483611c33565b9150612b5582612aee565b604082019050919050565b60006020820190508181036000830152612b7981612b3d565b9050919050565b7f4552433732313a206d696e7420746f20746865207a65726f2061646472657373600082015250565b6000612bb6602083611c33565b9150612bc182612b80565b602082019050919050565b60006020820190508181036000830152612be581612ba9565b9050919050565b7f4552433732313a20746f6b656e20616c7265616479206d696e74656400000000600082015250565b6000612c22601c83611c33565b9150612c2d82612bec565b602082019050919050565b60006020820190508181036000830152612c5181612c15565b9050919050565b7f4552433732313a20617070726f766520746f2063616c6c657200000000000000600082015250565b6000612c8e601983611c33565b9150612c9982612c58565b602082019050919050565b60006020820190508181036000830152612cbd81612c81565b9050919050565b7f4552433732313a207472616e7366657220746f206e6f6e20455243373231526560008201527f63656976657220696d706c656d656e7465720000000000000000000000000000602082015250565b6000612d20603283611c33565b9150612d2b82612cc4565b604082019050919050565b60006020820190508181036000830152612d4f81612d13565b9050919050565b7f4e487b7100000000000000000000000000000000000000000000000000000000600052601260045260246000fd5b600081519050919050565b600082825260208201905092915050565b6000612dac82612d85565b612db68185612d90565b9350612dc6818560208601611c44565b612dcf81611c6e565b840191505092915050565b6000608082019050612def6000830187611d6f565b612dfc6020830186611d6f565b612e096040830185611e85565b8181036060830152612e1b8184612da1565b905095945050505050565b600081519050612e3581611b99565b92915050565b600060208284031215612e5157612e50611b63565b5b6000612e5f84828501612e26565b9150509291505056fea2646970667358221220c3af50d6599a8cb6a86e22fe4c872c2d74b4ce3174702ee0153cb83592e6c1af64736f6c63430008120033",
  "immutableReferences": {},
  "source": "// SPDX-License-Identifier: MIT\r\npragma solidity ^0.8.0;\r\n\r\nimport \"./../node_modules/@openzeppelin/contracts/token/ERC721/ERC721.sol\";\r\nimport \"./../node_modules/@openzeppelin/contracts/utils/Counters.sol\";\r\n\r\ncontract GradationCard is ERC721 {\r\n    using Counters for Counters.Counter;\r\n    Counters.Counter private _tokenIdCounter; // counter for token id management to avoid duplication\r\n\r\n    struct Card {\r\n        uint256 cardId;\r\n        string name;\r\n        string condition;\r\n        uint256 grade;\r\n        address owner;\r\n    }\r\n\r\n    mapping(uint256 => Card) private _cards;\r\n\r\n    constructor() ERC721(\"GradationCard\", \"GC\") {}\r\n\r\n    // function to mint a new card with a unique token id and assign it to the caller\r\n    function mintCard(\r\n        string memory name,\r\n        string memory condition,\r\n        uint256 grade\r\n    ) external {\r\n        _tokenIdCounter.increment();\r\n        uint256 tokenId = _tokenIdCounter.current();\r\n        _mint(msg.sender, tokenId);\r\n        _cards[tokenId] = Card(tokenId, name, condition, grade, msg.sender);\r\n    }\r\n\r\n    function transferCard(address to, uint256 tokenId) external {\r\n        require(\r\n            _isApprovedOrOwner(msg.sender, tokenId),\r\n            \"GradationCard: transfer caller is not owner nor approved\"\r\n        );\r\n        _transfer(msg.sender, to, tokenId);\r\n        _cards[tokenId].owner = to;\r\n    }\r\n\r\n    function getCard(uint256 tokenId) external view returns (Card memory) {\r\n        require(_exists(tokenId), \"GradationCard: card does not exist\");\r\n        return _cards[tokenId];\r\n    }\r\n}\r\n",
  "sourcePath": "C:\\Users\\Alessandro\\Desktop\\Universita\\Blockchain\\blockchain-authenticator\\project\\truffle\\contracts\\authenticator.sol",
  "compiler": {
    "name": "solc",
    "version": "0.8.18+commit.87f61d96.Emscripten.clang"
  },
  "schemaVersion": "3.4.14",
  "updatedAt": "2023-07-03T19:44:52.139Z",
  "devdoc": {
    "events": {
      "Approval(address,address,uint256)": {
        "details": "Emitted when `owner` enables `approved` to manage the `tokenId` token."
      },
      "ApprovalForAll(address,address,bool)": {
        "details": "Emitted when `owner` enables or disables (`approved`) `operator` to manage all of its assets."
      },
      "Transfer(address,address,uint256)": {
        "details": "Emitted when `tokenId` token is transferred from `from` to `to`."
      }
    },
    "kind": "dev",
    "methods": {
      "approve(address,uint256)": {
        "details": "See {IERC721-approve}."
      },
      "balanceOf(address)": {
        "details": "See {IERC721-balanceOf}."
      },
      "getApproved(uint256)": {
        "details": "See {IERC721-getApproved}."
      },
      "isApprovedForAll(address,address)": {
        "details": "See {IERC721-isApprovedForAll}."
      },
      "name()": {
        "details": "See {IERC721Metadata-name}."
      },
      "ownerOf(uint256)": {
        "details": "See {IERC721-ownerOf}."
      },
      "safeTransferFrom(address,address,uint256)": {
        "details": "See {IERC721-safeTransferFrom}."
      },
      "safeTransferFrom(address,address,uint256,bytes)": {
        "details": "See {IERC721-safeTransferFrom}."
      },
      "setApprovalForAll(address,bool)": {
        "details": "See {IERC721-setApprovalForAll}."
      },
      "supportsInterface(bytes4)": {
        "details": "See {IERC165-supportsInterface}."
      },
      "symbol()": {
        "details": "See {IERC721Metadata-symbol}."
      },
      "tokenURI(uint256)": {
        "details": "See {IERC721Metadata-tokenURI}."
      },
      "transferFrom(address,address,uint256)": {
        "details": "See {IERC721-transferFrom}."
      }
    },
    "version": 1
  },
  "userdoc": {
    "kind": "user",
    "methods": {},
    "version": 1
  }
}