{
  "contractName": "NFTCollectible",
  "abi": [
    {
      "inputs": [],
      "stateMutability": "nonpayable",
      "type": "constructor"
    },
    {
      "anonymous": false,
      "inputs": [
        {
          "indexed": true,
          "internalType": "address",
          "name": "owner",
          "type": "address"
        },
        {
          "indexed": true,
          "internalType": "address",
          "name": "approved",
          "type": "address"
        },
        {
          "indexed": true,
          "internalType": "uint256",
          "name": "tokenId",
          "type": "uint256"
        }
      ],
      "name": "Approval",
      "type": "event"
    },
    {
      "anonymous": false,
      "inputs": [
        {
          "indexed": true,
          "internalType": "address",
          "name": "owner",
          "type": "address"
        },
        {
          "indexed": true,
          "internalType": "address",
          "name": "operator",
          "type": "address"
        },
        {
          "indexed": false,
          "internalType": "bool",
          "name": "approved",
          "type": "bool"
        }
      ],
      "name": "ApprovalForAll",
      "type": "event"
    },
    {
      "anonymous": false,
      "inputs": [
        {
          "indexed": false,
          "internalType": "uint256",
          "name": "_fromTokenId",
          "type": "uint256"
        },
        {
          "indexed": false,
          "internalType": "uint256",
          "name": "_toTokenId",
          "type": "uint256"
        }
      ],
      "name": "BatchMetadataUpdate",
      "type": "event"
    },
    {
      "anonymous": false,
      "inputs": [
        {
          "indexed": false,
          "internalType": "uint256",
          "name": "_tokenId",
          "type": "uint256"
        }
      ],
      "name": "MetadataUpdate",
      "type": "event"
    },
    {
      "anonymous": false,
      "inputs": [
        {
          "indexed": true,
          "internalType": "address",
          "name": "from",
          "type": "address"
        },
        {
          "indexed": true,
          "internalType": "address",
          "name": "to",
          "type": "address"
        },
        {
          "indexed": true,
          "internalType": "uint256",
          "name": "tokenId",
          "type": "uint256"
        }
      ],
      "name": "Transfer",
      "type": "event"
    },
    {
      "inputs": [
        {
          "internalType": "address",
          "name": "to",
          "type": "address"
        },
        {
          "internalType": "uint256",
          "name": "tokenId",
          "type": "uint256"
        }
      ],
      "name": "approve",
      "outputs": [],
      "stateMutability": "nonpayable",
      "type": "function"
    },
    {
      "inputs": [
        {
          "internalType": "address",
          "name": "owner",
          "type": "address"
        }
      ],
      "name": "balanceOf",
      "outputs": [
        {
          "internalType": "uint256",
          "name": "",
          "type": "uint256"
        }
      ],
      "stateMutability": "view",
      "type": "function"
    },
    {
      "inputs": [
        {
          "internalType": "uint256",
          "name": "tokenId",
          "type": "uint256"
        }
      ],
      "name": "getApproved",
      "outputs": [
        {
          "internalType": "address",
          "name": "",
          "type": "address"
        }
      ],
      "stateMutability": "view",
      "type": "function"
    },
    {
      "inputs": [
        {
          "internalType": "address",
          "name": "owner",
          "type": "address"
        },
        {
          "internalType": "address",
          "name": "operator",
          "type": "address"
        }
      ],
      "name": "isApprovedForAll",
      "outputs": [
        {
          "internalType": "bool",
          "name": "",
          "type": "bool"
        }
      ],
      "stateMutability": "view",
      "type": "function"
    },
    {
      "inputs": [],
      "name": "name",
      "outputs": [
        {
          "internalType": "string",
          "name": "",
          "type": "string"
        }
      ],
      "stateMutability": "view",
      "type": "function"
    },
    {
      "inputs": [
        {
          "internalType": "uint256",
          "name": "tokenId",
          "type": "uint256"
        }
      ],
      "name": "ownerOf",
      "outputs": [
        {
          "internalType": "address",
          "name": "",
          "type": "address"
        }
      ],
      "stateMutability": "view",
      "type": "function"
    },
    {
      "inputs": [
        {
          "internalType": "address",
          "name": "from",
          "type": "address"
        },
        {
          "internalType": "address",
          "name": "to",
          "type": "address"
        },
        {
          "internalType": "uint256",
          "name": "tokenId",
          "type": "uint256"
        }
      ],
      "name": "safeTransferFrom",
      "outputs": [],
      "stateMutability": "nonpayable",
      "type": "function"
    },
    {
      "inputs": [
        {
          "internalType": "address",
          "name": "from",
          "type": "address"
        },
        {
          "internalType": "address",
          "name": "to",
          "type": "address"
        },
        {
          "internalType": "uint256",
          "name": "tokenId",
          "type": "uint256"
        },
        {
          "internalType": "bytes",
          "name": "data",
          "type": "bytes"
        }
      ],
      "name": "safeTransferFrom",
      "outputs": [],
      "stateMutability": "nonpayable",
      "type": "function"
    },
    {
      "inputs": [
        {
          "internalType": "address",
          "name": "operator",
          "type": "address"
        },
        {
          "internalType": "bool",
          "name": "approved",
          "type": "bool"
        }
      ],
      "name": "setApprovalForAll",
      "outputs": [],
      "stateMutability": "nonpayable",
      "type": "function"
    },
    {
      "inputs": [
        {
          "internalType": "bytes4",
          "name": "interfaceId",
          "type": "bytes4"
        }
      ],
      "name": "supportsInterface",
      "outputs": [
        {
          "internalType": "bool",
          "name": "",
          "type": "bool"
        }
      ],
      "stateMutability": "view",
      "type": "function"
    },
    {
      "inputs": [],
      "name": "symbol",
      "outputs": [
        {
          "internalType": "string",
          "name": "",
          "type": "string"
        }
      ],
      "stateMutability": "view",
      "type": "function"
    },
    {
      "inputs": [
        {
          "internalType": "uint256",
          "name": "tokenId",
          "type": "uint256"
        }
      ],
      "name": "tokenURI",
      "outputs": [
        {
          "internalType": "string",
          "name": "",
          "type": "string"
        }
      ],
      "stateMutability": "view",
      "type": "function"
    },
    {
      "inputs": [
        {
          "internalType": "address",
          "name": "from",
          "type": "address"
        },
        {
          "internalType": "address",
          "name": "to",
          "type": "address"
        },
        {
          "internalType": "uint256",
          "name": "tokenId",
          "type": "uint256"
        }
      ],
      "name": "transferFrom",
      "outputs": [],
      "stateMutability": "nonpayable",
      "type": "function"
    },
    {
      "inputs": [
        {
          "internalType": "uint256",
          "name": "_listPrice",
          "type": "uint256"
        }
      ],
      "name": "updateListPrice",
      "outputs": [],
      "stateMutability": "payable",
      "type": "function"
    },
    {
      "inputs": [],
      "name": "getListPrice",
      "outputs": [
        {
          "internalType": "uint256",
          "name": "",
          "type": "uint256"
        }
      ],
      "stateMutability": "view",
      "type": "function"
    },
    {
      "inputs": [],
      "name": "getLatestIdToListedToken",
      "outputs": [
        {
          "components": [
            {
              "internalType": "uint256",
              "name": "tokenID",
              "type": "uint256"
            },
            {
              "internalType": "address payable",
              "name": "owner",
              "type": "address"
            },
            {
              "internalType": "address payable",
              "name": "seller",
              "type": "address"
            },
            {
              "internalType": "uint256",
              "name": "price",
              "type": "uint256"
            },
            {
              "internalType": "bool",
              "name": "currentlyListed",
              "type": "bool"
            }
          ],
          "internalType": "struct NFTCollectible.ListedToken",
          "name": "",
          "type": "tuple"
        }
      ],
      "stateMutability": "view",
      "type": "function"
    },
    {
      "inputs": [
        {
          "internalType": "uint256",
          "name": "tokenId",
          "type": "uint256"
        }
      ],
      "name": "getListedForTokenId",
      "outputs": [
        {
          "components": [
            {
              "internalType": "uint256",
              "name": "tokenID",
              "type": "uint256"
            },
            {
              "internalType": "address payable",
              "name": "owner",
              "type": "address"
            },
            {
              "internalType": "address payable",
              "name": "seller",
              "type": "address"
            },
            {
              "internalType": "uint256",
              "name": "price",
              "type": "uint256"
            },
            {
              "internalType": "bool",
              "name": "currentlyListed",
              "type": "bool"
            }
          ],
          "internalType": "struct NFTCollectible.ListedToken",
          "name": "",
          "type": "tuple"
        }
      ],
      "stateMutability": "view",
      "type": "function"
    },
    {
      "inputs": [],
      "name": "getCurrentToken",
      "outputs": [
        {
          "internalType": "uint256",
          "name": "",
          "type": "uint256"
        }
      ],
      "stateMutability": "view",
      "type": "function"
    },
    {
      "inputs": [
        {
          "internalType": "string",
          "name": "tokenURI",
          "type": "string"
        },
        {
          "internalType": "uint256",
          "name": "price",
          "type": "uint256"
        }
      ],
      "name": "createToken",
      "outputs": [
        {
          "internalType": "uint256",
          "name": "",
          "type": "uint256"
        }
      ],
      "stateMutability": "payable",
      "type": "function"
    },
    {
      "inputs": [],
      "name": "getAllNFTs",
      "outputs": [
        {
          "components": [
            {
              "internalType": "uint256",
              "name": "tokenID",
              "type": "uint256"
            },
            {
              "internalType": "address payable",
              "name": "owner",
              "type": "address"
            },
            {
              "internalType": "address payable",
              "name": "seller",
              "type": "address"
            },
            {
              "internalType": "uint256",
              "name": "price",
              "type": "uint256"
            },
            {
              "internalType": "bool",
              "name": "currentlyListed",
              "type": "bool"
            }
          ],
          "internalType": "struct NFTCollectible.ListedToken[]",
          "name": "",
          "type": "tuple[]"
        }
      ],
      "stateMutability": "view",
      "type": "function"
    },
    {
      "inputs": [],
      "name": "getAllMyNFTs",
      "outputs": [
        {
          "components": [
            {
              "internalType": "uint256",
              "name": "tokenID",
              "type": "uint256"
            },
            {
              "internalType": "address payable",
              "name": "owner",
              "type": "address"
            },
            {
              "internalType": "address payable",
              "name": "seller",
              "type": "address"
            },
            {
              "internalType": "uint256",
              "name": "price",
              "type": "uint256"
            },
            {
              "internalType": "bool",
              "name": "currentlyListed",
              "type": "bool"
            }
          ],
          "internalType": "struct NFTCollectible.ListedToken[]",
          "name": "",
          "type": "tuple[]"
        }
      ],
      "stateMutability": "view",
      "type": "function"
    },
    {
      "inputs": [
        {
          "internalType": "uint256",
          "name": "tokenId",
          "type": "uint256"
        }
      ],
      "name": "executeSale",
      "outputs": [],
      "stateMutability": "payable",
      "type": "function"
    }
  ],
  "bytecode": "0x6080604052662386f26fc10000600a553480156200001c57600080fd5b506040518060400160405280600e81526020017f4e4654436f6c6c65637469626c650000000000000000000000000000000000008152506040518060400160405280600481526020017f4e4654430000000000000000000000000000000000000000000000000000000081525081600090816200009a919062000370565b508060019081620000ac919062000370565b50505033600760006101000a81548173ffffffffffffffffffffffffffffffffffffffff021916908373ffffffffffffffffffffffffffffffffffffffff16021790555062000457565b600081519050919050565b7f4e487b7100000000000000000000000000000000000000000000000000000000600052604160045260246000fd5b7f4e487b7100000000000000000000000000000000000000000000000000000000600052602260045260246000fd5b600060028204905060018216806200017857607f821691505b6020821081036200018e576200018d62000130565b5b50919050565b60008190508160005260206000209050919050565b60006020601f8301049050919050565b600082821b905092915050565b600060088302620001f87fffffffffffffffffffffffffffffffffffffffffffffffffffffffffffffffff82620001b9565b620002048683620001b9565b95508019841693508086168417925050509392505050565b6000819050919050565b6000819050919050565b6000620002516200024b62000245846200021c565b62000226565b6200021c565b9050919050565b6000819050919050565b6200026d8362000230565b620002856200027c8262000258565b848454620001c6565b825550505050565b600090565b6200029c6200028d565b620002a981848462000262565b505050565b5b81811015620002d157620002c560008262000292565b600181019050620002af565b5050565b601f8211156200032057620002ea8162000194565b620002f584620001a9565b8101602085101562000305578190505b6200031d6200031485620001a9565b830182620002ae565b50505b505050565b600082821c905092915050565b6000620003456000198460080262000325565b1980831691505092915050565b600062000360838362000332565b9150826002028217905092915050565b6200037b82620000f6565b67ffffffffffffffff81111562000397576200039662000101565b5b620003a382546200015f565b620003b0828285620002d5565b600060209050601f831160018114620003e85760008415620003d3578287015190505b620003df858262000352565b8655506200044f565b601f198416620003f88662000194565b60005b828110156200042257848901518255600182019150602085019450602081019050620003fb565b868310156200044257848901516200043e601f89168262000332565b8355505b6001600288020188555050505b505050505050565b613f2580620004676000396000f3fe6080604052600436106101355760003560e01c806398c3df16116100ab578063c322579c1161006f578063c322579c14610430578063c87b56dd1461044c578063d1a88ae514610489578063e0391b09146104b4578063e985e9c5146104df578063ef2d17461461051c57610135565b806398c3df161461035a5780639b1225c414610397578063a22cb465146103b3578063b88d4fde146103dc578063c0ab5abc1461040557610135565b806342842e0e116100fd57806342842e0e146102315780636352211e1461025a57806368f1945f1461029757806370a08231146102c257806372b3b620146102ff57806395d89b411461032f57610135565b806301ffc9a71461013a57806306fdde0314610177578063081812fc146101a2578063095ea7b3146101df57806323b872dd14610208575b600080fd5b34801561014657600080fd5b50610161600480360381019061015c919061291d565b610547565b60405161016e9190612965565b60405180910390f35b34801561018357600080fd5b5061018c6105a8565b6040516101999190612a10565b60405180910390f35b3480156101ae57600080fd5b506101c960048036038101906101c49190612a68565b61063a565b6040516101d69190612ad6565b60405180910390f35b3480156101eb57600080fd5b5061020660048036038101906102019190612b1d565b610680565b005b34801561021457600080fd5b5061022f600480360381019061022a9190612b5d565b610797565b005b34801561023d57600080fd5b5061025860048036038101906102539190612b5d565b6107f7565b005b34801561026657600080fd5b50610281600480360381019061027c9190612a68565b610817565b60405161028e9190612ad6565b60405180910390f35b3480156102a357600080fd5b506102ac61089d565b6040516102b99190612bbf565b60405180910390f35b3480156102ce57600080fd5b506102e960048036038101906102e49190612bda565b6108a7565b6040516102f69190612bbf565b60405180910390f35b61031960048036038101906103149190612d3c565b61095e565b6040516103269190612bbf565b60405180910390f35b34801561033b57600080fd5b50610344610a27565b6040516103519190612a10565b60405180910390f35b34801561036657600080fd5b50610381600480360381019061037c9190612a68565b610ab9565b60405161038e9190612e3f565b60405180910390f35b6103b160048036038101906103ac9190612a68565b610bc1565b005b3480156103bf57600080fd5b506103da60048036038101906103d59190612e86565b610da9565b005b3480156103e857600080fd5b5061040360048036038101906103fe9190612f67565b610dbf565b005b34801561041157600080fd5b5061041a610e21565b6040516104279190613101565b60405180910390f35b61044a60048036038101906104459190612a68565b611202565b005b34801561045857600080fd5b50610473600480360381019061046e9190612a68565b61129c565b6040516104809190612a10565b60405180910390f35b34801561049557600080fd5b5061049e6113ae565b6040516104ab9190612e3f565b60405180910390f35b3480156104c057600080fd5b506104c96114c3565b6040516104d69190613101565b60405180910390f35b3480156104eb57600080fd5b5061050660048036038101906105019190613123565b611692565b6040516105139190612965565b60405180910390f35b34801561052857600080fd5b50610531611726565b60405161053e9190612bbf565b60405180910390f35b6000634906490660e01b7bffffffffffffffffffffffffffffffffffffffffffffffffffffffff1916827bffffffffffffffffffffffffffffffffffffffffffffffffffffffff191614806105a157506105a082611737565b5b9050919050565b6060600080546105b790613192565b80601f01602080910402602001604051908101604052809291908181526020018280546105e390613192565b80156106305780601f1061060557610100808354040283529160200191610630565b820191906000526020600020905b81548152906001019060200180831161061357829003601f168201915b5050505050905090565b600061064582611819565b6004600083815260200190815260200160002060009054906101000a900473ffffffffffffffffffffffffffffffffffffffff169050919050565b600061068b82610817565b90508073ffffffffffffffffffffffffffffffffffffffff168373ffffffffffffffffffffffffffffffffffffffff16036106fb576040517f08c379a00000000000000000000000000000000000000000000000000000000081526004016106f290613235565b60405180910390fd5b8073ffffffffffffffffffffffffffffffffffffffff1661071a611864565b73ffffffffffffffffffffffffffffffffffffffff161480610749575061074881610743611864565b611692565b5b610788576040517f08c379a000000000000000000000000000000000000000000000000000000000815260040161077f906132c7565b60405180910390fd5b610792838361186c565b505050565b6107a86107a2611864565b82611925565b6107e7576040517f08c379a00000000000000000000000000000000000000000000000000000000081526004016107de90613359565b60405180910390fd5b6107f28383836119ba565b505050565b61081283838360405180602001604052806000815250610dbf565b505050565b60008061082383611cb3565b9050600073ffffffffffffffffffffffffffffffffffffffff168173ffffffffffffffffffffffffffffffffffffffff1603610894576040517f08c379a000000000000000000000000000000000000000000000000000000000815260040161088b906133c5565b60405180910390fd5b80915050919050565b6000600a54905090565b60008073ffffffffffffffffffffffffffffffffffffffff168273ffffffffffffffffffffffffffffffffffffffff1603610917576040517f08c379a000000000000000000000000000000000000000000000000000000000815260040161090e90613457565b60405180910390fd5b600360008373ffffffffffffffffffffffffffffffffffffffff1673ffffffffffffffffffffffffffffffffffffffff168152602001908152602001600020549050919050565b6000600a5434146109a4576040517f08c379a000000000000000000000000000000000000000000000000000000000815260040161099b906134c3565b60405180910390fd5b600082116109e7576040517f08c379a00000000000000000000000000000000000000000000000000000000081526004016109de90613555565b60405180910390fd5b6109f16008611cf0565b60006109fd6008611d06565b9050610a093382611d14565b610a138185611d32565b610a1d8184611dd6565b8091505092915050565b606060018054610a3690613192565b80601f0160208091040260200160405190810160405280929190818152602001828054610a6290613192565b8015610aaf5780601f10610a8457610100808354040283529160200191610aaf565b820191906000526020600020905b815481529060010190602001808311610a9257829003601f168201915b5050505050905090565b610ac1612854565b600b60008381526020019081526020016000206040518060a0016040529081600082015481526020016001820160009054906101000a900473ffffffffffffffffffffffffffffffffffffffff1673ffffffffffffffffffffffffffffffffffffffff1673ffffffffffffffffffffffffffffffffffffffff1681526020016002820160009054906101000a900473ffffffffffffffffffffffffffffffffffffffff1673ffffffffffffffffffffffffffffffffffffffff1673ffffffffffffffffffffffffffffffffffffffff168152602001600382015481526020016004820160009054906101000a900460ff1615151515815250509050919050565b6000600b60008381526020019081526020016000206003015490506000600b600084815260200190815260200160002060020160009054906101000a900473ffffffffffffffffffffffffffffffffffffffff169050813414610c59576040517f08c379a0000000000000000000000000000000000000000000000000000000008152600401610c50906135e7565b60405180910390fd5b6001600b600085815260200190815260200160002060040160006101000a81548160ff02191690831515021790555033600b600085815260200190815260200160002060020160006101000a81548173ffffffffffffffffffffffffffffffffffffffff021916908373ffffffffffffffffffffffffffffffffffffffff160217905550610ce83033856119ba565b610cf23084610680565b600760009054906101000a900473ffffffffffffffffffffffffffffffffffffffff1673ffffffffffffffffffffffffffffffffffffffff166108fc600a549081150290604051600060405180830381858888f19350505050158015610d5c573d6000803e3d6000fd5b508073ffffffffffffffffffffffffffffffffffffffff166108fc349081150290604051600060405180830381858888f19350505050158015610da3573d6000803e3d6000fd5b50505050565b610dbb610db4611864565b8383611f13565b5050565b610dd0610dca611864565b83611925565b610e0f576040517f08c379a0000000000000000000000000000000000000000000000000000000008152600401610e0690613359565b60405180910390fd5b610e1b8484848461207f565b50505050565b60606000610e2f6008611d06565b9050600080600080600090505b84811015610f55573373ffffffffffffffffffffffffffffffffffffffff16600b6000600184610e6c9190613636565b815260200190815260200160002060010160009054906101000a900473ffffffffffffffffffffffffffffffffffffffff1673ffffffffffffffffffffffffffffffffffffffff161480610f2d57503373ffffffffffffffffffffffffffffffffffffffff16600b6000600184610ee39190613636565b815260200190815260200160002060020160009054906101000a900473ffffffffffffffffffffffffffffffffffffffff1673ffffffffffffffffffffffffffffffffffffffff16145b15610f4257600184610f3f9190613636565b93505b8080610f4d9061366a565b915050610e3c565b5060008367ffffffffffffffff811115610f7257610f71612c11565b5b604051908082528060200260200182016040528015610fab57816020015b610f98612854565b815260200190600190039081610f905790505b50905060005b858110156111f6573373ffffffffffffffffffffffffffffffffffffffff16600b6000600184610fe19190613636565b815260200190815260200160002060010160009054906101000a900473ffffffffffffffffffffffffffffffffffffffff1673ffffffffffffffffffffffffffffffffffffffff1614806110a257503373ffffffffffffffffffffffffffffffffffffffff16600b60006001846110589190613636565b815260200190815260200160002060020160009054906101000a900473ffffffffffffffffffffffffffffffffffffffff1673ffffffffffffffffffffffffffffffffffffffff16145b156111e3576001816110b49190613636565b92506000600b60008581526020019081526020016000209050806040518060a0016040529081600082015481526020016001820160009054906101000a900473ffffffffffffffffffffffffffffffffffffffff1673ffffffffffffffffffffffffffffffffffffffff1673ffffffffffffffffffffffffffffffffffffffff1681526020016002820160009054906101000a900473ffffffffffffffffffffffffffffffffffffffff1673ffffffffffffffffffffffffffffffffffffffff1673ffffffffffffffffffffffffffffffffffffffff168152602001600382015481526020016004820160009054906101000a900460ff1615151515815250508386815181106111c7576111c66136b2565b5b60200260200101819052506001856111df9190613636565b9450505b80806111ee9061366a565b915050610fb1565b50809550505050505090565b3373ffffffffffffffffffffffffffffffffffffffff16600760009054906101000a900473ffffffffffffffffffffffffffffffffffffffff1673ffffffffffffffffffffffffffffffffffffffff1614611292576040517f08c379a000000000000000000000000000000000000000000000000000000000815260040161128990613753565b60405180910390fd5b80600a8190555050565b60606112a782611819565b60006006600084815260200190815260200160002080546112c790613192565b80601f01602080910402602001604051908101604052809291908181526020018280546112f390613192565b80156113405780601f1061131557610100808354040283529160200191611340565b820191906000526020600020905b81548152906001019060200180831161132357829003601f168201915b5050505050905060006113516120db565b905060008151036113665781925050506113a9565b60008251111561139b5780826040516020016113839291906137af565b604051602081830303815290604052925050506113a9565b6113a4846120f2565b925050505b919050565b6113b6612854565b60006113c26008611d06565b9050600b60008281526020019081526020016000206040518060a0016040529081600082015481526020016001820160009054906101000a900473ffffffffffffffffffffffffffffffffffffffff1673ffffffffffffffffffffffffffffffffffffffff1673ffffffffffffffffffffffffffffffffffffffff1681526020016002820160009054906101000a900473ffffffffffffffffffffffffffffffffffffffff1673ffffffffffffffffffffffffffffffffffffffff1673ffffffffffffffffffffffffffffffffffffffff168152602001600382015481526020016004820160009054906101000a900460ff16151515158152505091505090565b606060006114d16008611d06565b905060008167ffffffffffffffff8111156114ef576114ee612c11565b5b60405190808252806020026020018201604052801561152857816020015b611515612854565b81526020019060019003908161150d5790505b5090506000805b838110156116885760006001826115469190613636565b90506000600b60008381526020019081526020016000209050806040518060a0016040529081600082015481526020016001820160009054906101000a900473ffffffffffffffffffffffffffffffffffffffff1673ffffffffffffffffffffffffffffffffffffffff1673ffffffffffffffffffffffffffffffffffffffff1681526020016002820160009054906101000a900473ffffffffffffffffffffffffffffffffffffffff1673ffffffffffffffffffffffffffffffffffffffff1673ffffffffffffffffffffffffffffffffffffffff168152602001600382015481526020016004820160009054906101000a900460ff161515151581525050858581518110611659576116586136b2565b5b60200260200101819052506001846116719190613636565b9350505080806116809061366a565b91505061152f565b5081935050505090565b6000600560008473ffffffffffffffffffffffffffffffffffffffff1673ffffffffffffffffffffffffffffffffffffffff16815260200190815260200160002060008373ffffffffffffffffffffffffffffffffffffffff1673ffffffffffffffffffffffffffffffffffffffff16815260200190815260200160002060009054906101000a900460ff16905092915050565b60006117326008611d06565b905090565b60007f80ac58cd000000000000000000000000000000000000000000000000000000007bffffffffffffffffffffffffffffffffffffffffffffffffffffffff1916827bffffffffffffffffffffffffffffffffffffffffffffffffffffffff1916148061180257507f5b5e139f000000000000000000000000000000000000000000000000000000007bffffffffffffffffffffffffffffffffffffffffffffffffffffffff1916827bffffffffffffffffffffffffffffffffffffffffffffffffffffffff1916145b8061181257506118118261215a565b5b9050919050565b611822816121c4565b611861576040517f08c379a0000000000000000000000000000000000000000000000000000000008152600401611858906133c5565b60405180910390fd5b50565b600033905090565b816004600083815260200190815260200160002060006101000a81548173ffffffffffffffffffffffffffffffffffffffff021916908373ffffffffffffffffffffffffffffffffffffffff160217905550808273ffffffffffffffffffffffffffffffffffffffff166118df83610817565b73ffffffffffffffffffffffffffffffffffffffff167f8c5be1e5ebec7d5bd14f71427d1e84f3dd0314c0f7b2291e5b200ac8c7c3b92560405160405180910390a45050565b60008061193183610817565b90508073ffffffffffffffffffffffffffffffffffffffff168473ffffffffffffffffffffffffffffffffffffffff16148061197357506119728185611692565b5b806119b157508373ffffffffffffffffffffffffffffffffffffffff166119998461063a565b73ffffffffffffffffffffffffffffffffffffffff16145b91505092915050565b8273ffffffffffffffffffffffffffffffffffffffff166119da82610817565b73ffffffffffffffffffffffffffffffffffffffff1614611a30576040517f08c379a0000000000000000000000000000000000000000000000000000000008152600401611a2790613845565b60405180910390fd5b600073ffffffffffffffffffffffffffffffffffffffff168273ffffffffffffffffffffffffffffffffffffffff1603611a9f576040517f08c379a0000000000000000000000000000000000000000000000000000000008152600401611a96906138d7565b60405180910390fd5b611aac8383836001612205565b8273ffffffffffffffffffffffffffffffffffffffff16611acc82610817565b73ffffffffffffffffffffffffffffffffffffffff1614611b22576040517f08c379a0000000000000000000000000000000000000000000000000000000008152600401611b1990613845565b60405180910390fd5b6004600082815260200190815260200160002060006101000a81549073ffffffffffffffffffffffffffffffffffffffff02191690556001600360008573ffffffffffffffffffffffffffffffffffffffff1673ffffffffffffffffffffffffffffffffffffffff168152602001908152602001600020600082825403925050819055506001600360008473ffffffffffffffffffffffffffffffffffffffff1673ffffffffffffffffffffffffffffffffffffffff16815260200190815260200160002060008282540192505081905550816002600083815260200190815260200160002060006101000a81548173ffffffffffffffffffffffffffffffffffffffff021916908373ffffffffffffffffffffffffffffffffffffffff160217905550808273ffffffffffffffffffffffffffffffffffffffff168473ffffffffffffffffffffffffffffffffffffffff167fddf252ad1be2c89b69c2b068fc378daa952ba7f163c4a11628f55a4df523b3ef60405160405180910390a4611cae838383600161220b565b505050565b60006002600083815260200190815260200160002060009054906101000a900473ffffffffffffffffffffffffffffffffffffffff169050919050565b6001816000016000828254019250508190555050565b600081600001549050919050565b611d2e828260405180602001604052806000815250612211565b5050565b611d3b826121c4565b611d7a576040517f08c379a0000000000000000000000000000000000000000000000000000000008152600401611d7190613969565b60405180910390fd5b80600660008481526020019081526020016000209081611d9a9190613b35565b507ff8e1a15aba9398e019f0b49df1a4fde98ee17ae345cb5f6b5e2c27f5033e8ce782604051611dca9190612bbf565b60405180910390a15050565b6040518060a001604052808381526020013073ffffffffffffffffffffffffffffffffffffffff1681526020013373ffffffffffffffffffffffffffffffffffffffff16815260200182815260200160011515815250600b60008481526020019081526020016000206000820151816000015560208201518160010160006101000a81548173ffffffffffffffffffffffffffffffffffffffff021916908373ffffffffffffffffffffffffffffffffffffffff16021790555060408201518160020160006101000a81548173ffffffffffffffffffffffffffffffffffffffff021916908373ffffffffffffffffffffffffffffffffffffffff1602179055506060820151816003015560808201518160040160006101000a81548160ff021916908315150217905550905050611f0f3330846119ba565b5050565b8173ffffffffffffffffffffffffffffffffffffffff168373ffffffffffffffffffffffffffffffffffffffff1603611f81576040517f08c379a0000000000000000000000000000000000000000000000000000000008152600401611f7890613c53565b60405180910390fd5b80600560008573ffffffffffffffffffffffffffffffffffffffff1673ffffffffffffffffffffffffffffffffffffffff16815260200190815260200160002060008473ffffffffffffffffffffffffffffffffffffffff1673ffffffffffffffffffffffffffffffffffffffff16815260200190815260200160002060006101000a81548160ff0219169083151502179055508173ffffffffffffffffffffffffffffffffffffffff168373ffffffffffffffffffffffffffffffffffffffff167f17307eab39ab6107e8899845ad3d59bd9653f200f220920489ca2b5937696c31836040516120729190612965565b60405180910390a3505050565b61208a8484846119ba565b6120968484848461226c565b6120d5576040517f08c379a00000000000000000000000000000000000000000000000000000000081526004016120cc90613ce5565b60405180910390fd5b50505050565b606060405180602001604052806000815250905090565b60606120fd82611819565b60006121076120db565b905060008151116121275760405180602001604052806000815250612152565b80612131846123f3565b6040516020016121429291906137af565b6040516020818303038152906040525b915050919050565b60007f01ffc9a7000000000000000000000000000000000000000000000000000000007bffffffffffffffffffffffffffffffffffffffffffffffffffffffff1916827bffffffffffffffffffffffffffffffffffffffffffffffffffffffff1916149050919050565b60008073ffffffffffffffffffffffffffffffffffffffff166121e683611cb3565b73ffffffffffffffffffffffffffffffffffffffff1614159050919050565b50505050565b50505050565b61221b83836124c1565b612228600084848461226c565b612267576040517f08c379a000000000000000000000000000000000000000000000000000000000815260040161225e90613ce5565b60405180910390fd5b505050565b600061228d8473ffffffffffffffffffffffffffffffffffffffff166126de565b156123e6578373ffffffffffffffffffffffffffffffffffffffff1663150b7a026122b6611864565b8786866040518563ffffffff1660e01b81526004016122d89493929190613d5a565b6020604051808303816000875af192505050801561231457506040513d601f19601f820116820180604052508101906123119190613dbb565b60015b612396573d8060008114612344576040519150601f19603f3d011682016040523d82523d6000602084013e612349565b606091505b50600081510361238e576040517f08c379a000000000000000000000000000000000000000000000000000000000815260040161238590613ce5565b60405180910390fd5b805181602001fd5b63150b7a0260e01b7bffffffffffffffffffffffffffffffffffffffffffffffffffffffff1916817bffffffffffffffffffffffffffffffffffffffffffffffffffffffff1916149150506123eb565b600190505b949350505050565b60606000600161240284612701565b01905060008167ffffffffffffffff81111561242157612420612c11565b5b6040519080825280601f01601f1916602001820160405280156124535781602001600182028036833780820191505090505b509050600082602001820190505b6001156124b6578080600190039150507f3031323334353637383961626364656600000000000000000000000000000000600a86061a8153600a85816124aa576124a9613de8565b5b04945060008503612461575b819350505050919050565b600073ffffffffffffffffffffffffffffffffffffffff168273ffffffffffffffffffffffffffffffffffffffff1603612530576040517f08c379a000000000000000000000000000000000000000000000000000000000815260040161252790613e63565b60405180910390fd5b612539816121c4565b15612579576040517f08c379a000000000000000000000000000000000000000000000000000000000815260040161257090613ecf565b60405180910390fd5b612587600083836001612205565b612590816121c4565b156125d0576040517f08c379a00000000000000000000000000000000000000000000000000000000081526004016125c790613ecf565b60405180910390fd5b6001600360008473ffffffffffffffffffffffffffffffffffffffff1673ffffffffffffffffffffffffffffffffffffffff16815260200190815260200160002060008282540192505081905550816002600083815260200190815260200160002060006101000a81548173ffffffffffffffffffffffffffffffffffffffff021916908373ffffffffffffffffffffffffffffffffffffffff160217905550808273ffffffffffffffffffffffffffffffffffffffff16600073ffffffffffffffffffffffffffffffffffffffff167fddf252ad1be2c89b69c2b068fc378daa952ba7f163c4a11628f55a4df523b3ef60405160405180910390a46126da60008383600161220b565b5050565b6000808273ffffffffffffffffffffffffffffffffffffffff163b119050919050565b600080600090507a184f03e93ff9f4daa797ed6e38ed64bf6a1f010000000000000000831061275f577a184f03e93ff9f4daa797ed6e38ed64bf6a1f010000000000000000838161275557612754613de8565b5b0492506040810190505b6d04ee2d6d415b85acef8100000000831061279c576d04ee2d6d415b85acef8100000000838161279257612791613de8565b5b0492506020810190505b662386f26fc1000083106127cb57662386f26fc1000083816127c1576127c0613de8565b5b0492506010810190505b6305f5e10083106127f4576305f5e10083816127ea576127e9613de8565b5b0492506008810190505b612710831061281957612710838161280f5761280e613de8565b5b0492506004810190505b6064831061283c576064838161283257612831613de8565b5b0492506002810190505b600a831061284b576001810190505b80915050919050565b6040518060a0016040528060008152602001600073ffffffffffffffffffffffffffffffffffffffff168152602001600073ffffffffffffffffffffffffffffffffffffffff168152602001600081526020016000151581525090565b6000604051905090565b600080fd5b600080fd5b60007fffffffff0000000000000000000000000000000000000000000000000000000082169050919050565b6128fa816128c5565b811461290557600080fd5b50565b600081359050612917816128f1565b92915050565b600060208284031215612933576129326128bb565b5b600061294184828501612908565b91505092915050565b60008115159050919050565b61295f8161294a565b82525050565b600060208201905061297a6000830184612956565b92915050565b600081519050919050565b600082825260208201905092915050565b60005b838110156129ba57808201518184015260208101905061299f565b60008484015250505050565b6000601f19601f8301169050919050565b60006129e282612980565b6129ec818561298b565b93506129fc81856020860161299c565b612a05816129c6565b840191505092915050565b60006020820190508181036000830152612a2a81846129d7565b905092915050565b6000819050919050565b612a4581612a32565b8114612a5057600080fd5b50565b600081359050612a6281612a3c565b92915050565b600060208284031215612a7e57612a7d6128bb565b5b6000612a8c84828501612a53565b91505092915050565b600073ffffffffffffffffffffffffffffffffffffffff82169050919050565b6000612ac082612a95565b9050919050565b612ad081612ab5565b82525050565b6000602082019050612aeb6000830184612ac7565b92915050565b612afa81612ab5565b8114612b0557600080fd5b50565b600081359050612b1781612af1565b92915050565b60008060408385031215612b3457612b336128bb565b5b6000612b4285828601612b08565b9250506020612b5385828601612a53565b9150509250929050565b600080600060608486031215612b7657612b756128bb565b5b6000612b8486828701612b08565b9350506020612b9586828701612b08565b9250506040612ba686828701612a53565b9150509250925092565b612bb981612a32565b82525050565b6000602082019050612bd46000830184612bb0565b92915050565b600060208284031215612bf057612bef6128bb565b5b6000612bfe84828501612b08565b91505092915050565b600080fd5b600080fd5b7f4e487b7100000000000000000000000000000000000000000000000000000000600052604160045260246000fd5b612c49826129c6565b810181811067ffffffffffffffff82111715612c6857612c67612c11565b5b80604052505050565b6000612c7b6128b1565b9050612c878282612c40565b919050565b600067ffffffffffffffff821115612ca757612ca6612c11565b5b612cb0826129c6565b9050602081019050919050565b82818337600083830152505050565b6000612cdf612cda84612c8c565b612c71565b905082815260208101848484011115612cfb57612cfa612c0c565b5b612d06848285612cbd565b509392505050565b600082601f830112612d2357612d22612c07565b5b8135612d33848260208601612ccc565b91505092915050565b60008060408385031215612d5357612d526128bb565b5b600083013567ffffffffffffffff811115612d7157612d706128c0565b5b612d7d85828601612d0e565b9250506020612d8e85828601612a53565b9150509250929050565b612da181612a32565b82525050565b6000612db282612a95565b9050919050565b612dc281612da7565b82525050565b612dd18161294a565b82525050565b60a082016000820151612ded6000850182612d98565b506020820151612e006020850182612db9565b506040820151612e136040850182612db9565b506060820151612e266060850182612d98565b506080820151612e396080850182612dc8565b50505050565b600060a082019050612e546000830184612dd7565b92915050565b612e638161294a565b8114612e6e57600080fd5b50565b600081359050612e8081612e5a565b92915050565b60008060408385031215612e9d57612e9c6128bb565b5b6000612eab85828601612b08565b9250506020612ebc85828601612e71565b9150509250929050565b600067ffffffffffffffff821115612ee157612ee0612c11565b5b612eea826129c6565b9050602081019050919050565b6000612f0a612f0584612ec6565b612c71565b905082815260208101848484011115612f2657612f25612c0c565b5b612f31848285612cbd565b509392505050565b600082601f830112612f4e57612f4d612c07565b5b8135612f5e848260208601612ef7565b91505092915050565b60008060008060808587031215612f8157612f806128bb565b5b6000612f8f87828801612b08565b9450506020612fa087828801612b08565b9350506040612fb187828801612a53565b925050606085013567ffffffffffffffff811115612fd257612fd16128c0565b5b612fde87828801612f39565b91505092959194509250565b600081519050919050565b600082825260208201905092915050565b6000819050602082019050919050565b60a08201600082015161302c6000850182612d98565b50602082015161303f6020850182612db9565b5060408201516130526040850182612db9565b5060608201516130656060850182612d98565b5060808201516130786080850182612dc8565b50505050565b600061308a8383613016565b60a08301905092915050565b6000602082019050919050565b60006130ae82612fea565b6130b88185612ff5565b93506130c383613006565b8060005b838110156130f45781516130db888261307e565b97506130e683613096565b9250506001810190506130c7565b5085935050505092915050565b6000602082019050818103600083015261311b81846130a3565b905092915050565b6000806040838503121561313a576131396128bb565b5b600061314885828601612b08565b925050602061315985828601612b08565b9150509250929050565b7f4e487b7100000000000000000000000000000000000000000000000000000000600052602260045260246000fd5b600060028204905060018216806131aa57607f821691505b6020821081036131bd576131bc613163565b5b50919050565b7f4552433732313a20617070726f76616c20746f2063757272656e74206f776e6560008201527f7200000000000000000000000000000000000000000000000000000000000000602082015250565b600061321f60218361298b565b915061322a826131c3565b604082019050919050565b6000602082019050818103600083015261324e81613212565b9050919050565b7f4552433732313a20617070726f76652063616c6c6572206973206e6f7420746f60008201527f6b656e206f776e6572206f7220617070726f76656420666f7220616c6c000000602082015250565b60006132b1603d8361298b565b91506132bc82613255565b604082019050919050565b600060208201905081810360008301526132e0816132a4565b9050919050565b7f4552433732313a2063616c6c6572206973206e6f7420746f6b656e206f776e6560008201527f72206f7220617070726f76656400000000000000000000000000000000000000602082015250565b6000613343602d8361298b565b915061334e826132e7565b604082019050919050565b6000602082019050818103600083015261337281613336565b9050919050565b7f4552433732313a20696e76616c696420746f6b656e2049440000000000000000600082015250565b60006133af60188361298b565b91506133ba82613379565b602082019050919050565b600060208201905081810360008301526133de816133a2565b9050919050565b7f4552433732313a2061646472657373207a65726f206973206e6f74206120766160008201527f6c6964206f776e65720000000000000000000000000000000000000000000000602082015250565b600061344160298361298b565b915061344c826133e5565b604082019050919050565b6000602082019050818103600083015261347081613434565b9050919050565b7f53656e6420656e6f75676820657468657220746f206c69737400000000000000600082015250565b60006134ad60198361298b565b91506134b882613477565b602082019050919050565b600060208201905081810360008301526134dc816134a0565b9050919050565b7f4d616b65207375726520746865207072696365206973206e6f74206e6567617460008201527f6976650000000000000000000000000000000000000000000000000000000000602082015250565b600061353f60238361298b565b915061354a826134e3565b604082019050919050565b6000602082019050818103600083015261356e81613532565b9050919050565b7f506c65617365207375626d6974207468652061736b696e67207072696365206960008201527f6e206f7264657220746f20636f6d706c65746520746865207075726368617365602082015250565b60006135d160408361298b565b91506135dc82613575565b604082019050919050565b60006020820190508181036000830152613600816135c4565b9050919050565b7f4e487b7100000000000000000000000000000000000000000000000000000000600052601160045260246000fd5b600061364182612a32565b915061364c83612a32565b925082820190508082111561366457613663613607565b5b92915050565b600061367582612a32565b91507fffffffffffffffffffffffffffffffffffffffffffffffffffffffffffffffff82036136a7576136a6613607565b5b600182019050919050565b7f4e487b7100000000000000000000000000000000000000000000000000000000600052603260045260246000fd5b7f4f6e6c7920746865206f776e65722063616e20706572666f726d20746869732060008201527f616374696f6e0000000000000000000000000000000000000000000000000000602082015250565b600061373d60268361298b565b9150613748826136e1565b604082019050919050565b6000602082019050818103600083015261376c81613730565b9050919050565b600081905092915050565b600061378982612980565b6137938185613773565b93506137a381856020860161299c565b80840191505092915050565b60006137bb828561377e565b91506137c7828461377e565b91508190509392505050565b7f4552433732313a207472616e736665722066726f6d20696e636f72726563742060008201527f6f776e6572000000000000000000000000000000000000000000000000000000602082015250565b600061382f60258361298b565b915061383a826137d3565b604082019050919050565b6000602082019050818103600083015261385e81613822565b9050919050565b7f4552433732313a207472616e7366657220746f20746865207a65726f2061646460008201527f7265737300000000000000000000000000000000000000000000000000000000602082015250565b60006138c160248361298b565b91506138cc82613865565b604082019050919050565b600060208201905081810360008301526138f0816138b4565b9050919050565b7f45524337323155524953746f726167653a2055524920736574206f66206e6f6e60008201527f6578697374656e7420746f6b656e000000000000000000000000000000000000602082015250565b6000613953602e8361298b565b915061395e826138f7565b604082019050919050565b6000602082019050818103600083015261398281613946565b9050919050565b60008190508160005260206000209050919050565b60006020601f8301049050919050565b600082821b905092915050565b6000600883026139eb7fffffffffffffffffffffffffffffffffffffffffffffffffffffffffffffffff826139ae565b6139f586836139ae565b95508019841693508086168417925050509392505050565b6000819050919050565b6000613a32613a2d613a2884612a32565b613a0d565b612a32565b9050919050565b6000819050919050565b613a4c83613a17565b613a60613a5882613a39565b8484546139bb565b825550505050565b600090565b613a75613a68565b613a80818484613a43565b505050565b5b81811015613aa457613a99600082613a6d565b600181019050613a86565b5050565b601f821115613ae957613aba81613989565b613ac38461399e565b81016020851015613ad2578190505b613ae6613ade8561399e565b830182613a85565b50505b505050565b600082821c905092915050565b6000613b0c60001984600802613aee565b1980831691505092915050565b6000613b258383613afb565b9150826002028217905092915050565b613b3e82612980565b67ffffffffffffffff811115613b5757613b56612c11565b5b613b618254613192565b613b6c828285613aa8565b600060209050601f831160018114613b9f5760008415613b8d578287015190505b613b978582613b19565b865550613bff565b601f198416613bad86613989565b60005b82811015613bd557848901518255600182019150602085019450602081019050613bb0565b86831015613bf25784890151613bee601f891682613afb565b8355505b6001600288020188555050505b505050505050565b7f4552433732313a20617070726f766520746f2063616c6c657200000000000000600082015250565b6000613c3d60198361298b565b9150613c4882613c07565b602082019050919050565b60006020820190508181036000830152613c6c81613c30565b9050919050565b7f4552433732313a207472616e7366657220746f206e6f6e20455243373231526560008201527f63656976657220696d706c656d656e7465720000000000000000000000000000602082015250565b6000613ccf60328361298b565b9150613cda82613c73565b604082019050919050565b60006020820190508181036000830152613cfe81613cc2565b9050919050565b600081519050919050565b600082825260208201905092915050565b6000613d2c82613d05565b613d368185613d10565b9350613d4681856020860161299c565b613d4f816129c6565b840191505092915050565b6000608082019050613d6f6000830187612ac7565b613d7c6020830186612ac7565b613d896040830185612bb0565b8181036060830152613d9b8184613d21565b905095945050505050565b600081519050613db5816128f1565b92915050565b600060208284031215613dd157613dd06128bb565b5b6000613ddf84828501613da6565b91505092915050565b7f4e487b7100000000000000000000000000000000000000000000000000000000600052601260045260246000fd5b7f4552433732313a206d696e7420746f20746865207a65726f2061646472657373600082015250565b6000613e4d60208361298b565b9150613e5882613e17565b602082019050919050565b60006020820190508181036000830152613e7c81613e40565b9050919050565b7f4552433732313a20746f6b656e20616c7265616479206d696e74656400000000600082015250565b6000613eb9601c8361298b565b9150613ec482613e83565b602082019050919050565b60006020820190508181036000830152613ee881613eac565b905091905056fea264697066735822122042ccf401747a991a799bc72ec6fe1e19a77802c0254446ef4e6040fd7d4b660664736f6c63430008120033",
  "immutableReferences": {},
  "source": "//SPDX-License-Identifier: Unlicensed\r\npragma solidity ^0.8.0;\r\n\r\nimport \"./../node_modules/@openzeppelin/contracts/token/ERC721/ERC721.sol\"; //TODO: magari si pu chiamare in maniera pi carina\r\nimport \"./../node_modules/@openzeppelin/contracts/token/ERC721//extensions/ERC721URIStorage.sol\"; //TODO: magari si pu chiamare in maniera pi carina\r\nimport \"./../node_modules/@openzeppelin/contracts/utils/Counters.sol\";\r\n\r\n\r\ncontract NFTCollectible is ERC721URIStorage {\r\n\r\n   address payable owner;\r\n   using Counters for Counters.Counter; //It's a datatype\r\n   \r\n   //Keep track of the number of tokens created\r\n   Counters.Counter private _tokenIDs;\r\n\r\n   //Keep track of the number of items sold on the marketplace\r\n   Counters.Counter private _itemsSold;\r\n   \r\n   uint256 listPrice = 0.01 ether; //Fee of the marketplace\r\n\r\n   struct ListedToken {\r\n      uint256 tokenID;\r\n      address payable owner;\r\n      address payable seller;\r\n      uint256 price;\r\n      bool currentlyListed;\r\n   }\r\n\r\n   mapping(uint256 => ListedToken) private idToListedToken; //create a mapping between the id (incremental) and the associated data of the token (listed Token struct)\r\n   \r\n   constructor() ERC721(\"NFTCollectible\",\"NFTC\") {\r\n      owner = payable(msg.sender); //only the owner gets a revenue when the marketplace is used, payable means that this address is eligible to receive some eth\r\n   }\r\n\r\n   // HELPER FUNCTIONS\r\n\r\n   function updateListPrice(uint256 _listPrice) public payable {\r\n      require(owner == msg.sender, \"Only the owner can perform this action\");\r\n      listPrice = _listPrice;\r\n   }\r\n\r\n   function getListPrice() public view returns (uint256) {\r\n      return listPrice;\r\n   }\r\n\r\n   function getLatestIdToListedToken() public view returns (ListedToken memory){    //memory is an instructional keyboard to create a temporary memory allocation\r\n      uint256 currentTokenId = _tokenIDs.current();\r\n      return idToListedToken[currentTokenId];\r\n   }\r\n\r\n   function getListedForTokenId(uint256 tokenId) public view returns (ListedToken memory){    \r\n      return idToListedToken[tokenId];\r\n   }\r\n\r\n   function getCurrentToken() public view returns (uint256) {\r\n      return _tokenIDs.current();\r\n   }\r\n\r\n   //CORE FUNCTIONS\r\n\r\n   //Top level function when creating a token for the first time\r\n   function createToken(string memory tokenURI, uint256 price) public payable returns (uint256) {\r\n      require(msg.value == listPrice, \"Send enough ether to list\");\r\n      require(price > 0, \"Make sure the price is not negative\");\r\n\r\n      _tokenIDs.increment();\r\n      uint256 currentTokenId = _tokenIDs.current();\r\n      _safeMint(msg.sender, currentTokenId);\r\n      _setTokenURI(currentTokenId, tokenURI);\r\n\r\n      createListedToken(currentTokenId, price);\r\n\r\n      return currentTokenId;\r\n   }\r\n\r\n   //Helps create the object of type ListedToken for the NFT and update the idToListedToken mapping\r\n   function createListedToken(uint256 tokenID, uint256 price) private {\r\n\r\n      idToListedToken[tokenID] = ListedToken(tokenID, payable(address(this)), payable(msg.sender), price,true);\r\n      _transfer(msg.sender, address(this), tokenID);\r\n   }\r\n\r\n   //Get all the NFTs currently listed for sale on the marketplace --> DA MODIFICARE\r\n   function getAllNFTs() public view returns (ListedToken[] memory) {\r\n      uint nftCount = _tokenIDs.current();\r\n      ListedToken[] memory tokens = new ListedToken[](nftCount);\r\n\r\n      uint currentIndex = 0;\r\n\r\n      for(uint i=0; i < nftCount; i++)\r\n      {\r\n         uint currentId = i + 1;\r\n         ListedToken storage currentItem = idToListedToken[currentId];\r\n         tokens[currentIndex] = currentItem;\r\n         currentIndex += 1;\r\n      }\r\n      \r\n      return tokens;\r\n   }\r\n\r\n   //Get all the NFTs of the user on the marketplace --> DA MODIFICARE\r\n   function getAllMyNFTs()  public view returns (ListedToken[] memory) {\r\n      uint totalItemCount = _tokenIDs.current();\r\n        uint itemCount = 0;\r\n        uint currentIndex = 0;\r\n        uint currentId;\r\n        //Important to get a count of all the NFTs that belong to the user before we can make an array for them\r\n        for(uint i=0; i < totalItemCount; i++)\r\n        {\r\n            if(idToListedToken[i+1].owner == msg.sender || idToListedToken[i+1].seller == msg.sender){\r\n                itemCount += 1;\r\n            }\r\n        }\r\n\r\n        //Once you have the count of relevant NFTs, create an array then store all the NFTs in it\r\n        ListedToken[] memory items = new ListedToken[](itemCount);\r\n        for(uint i=0; i < totalItemCount; i++) {\r\n            if(idToListedToken[i+1].owner == msg.sender || idToListedToken[i+1].seller == msg.sender) {\r\n                currentId = i+1;\r\n                ListedToken storage currentItem = idToListedToken[currentId];\r\n                items[currentIndex] = currentItem;\r\n                currentIndex += 1;\r\n            }\r\n        }\r\n        return items;\r\n   }\r\n\r\n   //The function that executes the sale on the marketplace --> DA MODIFICARE\r\n   function executeSale(uint256 tokenId) public payable {\r\n        uint price = idToListedToken[tokenId].price;\r\n        address seller = idToListedToken[tokenId].seller;\r\n        require(msg.value == price, \"Please submit the asking price in order to complete the purchase\");\r\n\r\n        //update the details of the token\r\n        idToListedToken[tokenId].currentlyListed = true;\r\n        idToListedToken[tokenId].seller = payable(msg.sender);\r\n        //_itemsSold.increment();\r\n\r\n        //Actually transfer the token to the new owner\r\n        _transfer(address(this), msg.sender, tokenId);\r\n        //approve the marketplace to sell NFTs on your behalf\r\n        approve(address(this), tokenId);\r\n\r\n        //Transfer the listing fee to the marketplace creator\r\n        payable(owner).transfer(listPrice);\r\n        //Transfer the proceeds from the sale to the seller of the NFT\r\n        payable(seller).transfer(msg.value);\r\n    }\r\n}\r\n",
  "sourcePath": "C:\\Users\\Giacomo\\Desktop\\Blockchain\\blockchain-authenticator\\project\\truffle\\contracts\\NFTMarketplace.sol",
  "compiler": {
    "name": "solc",
    "version": "0.8.18+commit.87f61d96.Emscripten.clang"
  },
  "schemaVersion": "3.4.14",
  "updatedAt": "2023-07-04T20:13:07.266Z",
  "devdoc": {
    "events": {
      "Approval(address,address,uint256)": {
        "details": "Emitted when `owner` enables `approved` to manage the `tokenId` token."
      },
      "ApprovalForAll(address,address,bool)": {
        "details": "Emitted when `owner` enables or disables (`approved`) `operator` to manage all of its assets."
      },
      "BatchMetadataUpdate(uint256,uint256)": {
        "details": "This event emits when the metadata of a range of tokens is changed. So that the third-party platforms such as NFT market could timely update the images and related attributes of the NFTs."
      },
      "MetadataUpdate(uint256)": {
        "details": "This event emits when the metadata of a token is changed. So that the third-party platforms such as NFT market could timely update the images and related attributes of the NFT."
      },
      "Transfer(address,address,uint256)": {
        "details": "Emitted when `tokenId` token is transferred from `from` to `to`."
      }
    },
    "kind": "dev",
    "methods": {
      "approve(address,uint256)": {
        "details": "See {IERC721-approve}."
      },
      "balanceOf(address)": {
        "details": "See {IERC721-balanceOf}."
      },
      "getApproved(uint256)": {
        "details": "See {IERC721-getApproved}."
      },
      "isApprovedForAll(address,address)": {
        "details": "See {IERC721-isApprovedForAll}."
      },
      "name()": {
        "details": "See {IERC721Metadata-name}."
      },
      "ownerOf(uint256)": {
        "details": "See {IERC721-ownerOf}."
      },
      "safeTransferFrom(address,address,uint256)": {
        "details": "See {IERC721-safeTransferFrom}."
      },
      "safeTransferFrom(address,address,uint256,bytes)": {
        "details": "See {IERC721-safeTransferFrom}."
      },
      "setApprovalForAll(address,bool)": {
        "details": "See {IERC721-setApprovalForAll}."
      },
      "supportsInterface(bytes4)": {
        "details": "See {IERC165-supportsInterface}"
      },
      "symbol()": {
        "details": "See {IERC721Metadata-symbol}."
      },
      "tokenURI(uint256)": {
        "details": "See {IERC721Metadata-tokenURI}."
      },
      "transferFrom(address,address,uint256)": {
        "details": "See {IERC721-transferFrom}."
      }
    },
    "version": 1
  },
  "userdoc": {
    "kind": "user",
    "methods": {},
    "version": 1
  }
}