{
  "contractName": "NFTCollectible",
  "abi": [
    {
      "inputs": [],
      "stateMutability": "nonpayable",
      "type": "constructor"
    },
    {
      "anonymous": false,
      "inputs": [
        {
          "indexed": true,
          "internalType": "address",
          "name": "owner",
          "type": "address"
        },
        {
          "indexed": true,
          "internalType": "address",
          "name": "approved",
          "type": "address"
        },
        {
          "indexed": true,
          "internalType": "uint256",
          "name": "tokenId",
          "type": "uint256"
        }
      ],
      "name": "Approval",
      "type": "event"
    },
    {
      "anonymous": false,
      "inputs": [
        {
          "indexed": true,
          "internalType": "address",
          "name": "owner",
          "type": "address"
        },
        {
          "indexed": true,
          "internalType": "address",
          "name": "operator",
          "type": "address"
        },
        {
          "indexed": false,
          "internalType": "bool",
          "name": "approved",
          "type": "bool"
        }
      ],
      "name": "ApprovalForAll",
      "type": "event"
    },
    {
      "anonymous": false,
      "inputs": [
        {
          "indexed": false,
          "internalType": "uint256",
          "name": "_fromTokenId",
          "type": "uint256"
        },
        {
          "indexed": false,
          "internalType": "uint256",
          "name": "_toTokenId",
          "type": "uint256"
        }
      ],
      "name": "BatchMetadataUpdate",
      "type": "event"
    },
    {
      "anonymous": false,
      "inputs": [
        {
          "indexed": true,
          "internalType": "address",
          "name": "user",
          "type": "address"
        },
        {
          "indexed": false,
          "internalType": "string",
          "name": "name",
          "type": "string"
        },
        {
          "indexed": false,
          "internalType": "uint256",
          "name": "grade",
          "type": "uint256"
        },
        {
          "indexed": false,
          "internalType": "string",
          "name": "condition",
          "type": "string"
        }
      ],
      "name": "CardRegistered",
      "type": "event"
    },
    {
      "anonymous": false,
      "inputs": [
        {
          "indexed": true,
          "internalType": "address",
          "name": "from",
          "type": "address"
        },
        {
          "indexed": true,
          "internalType": "address",
          "name": "to",
          "type": "address"
        },
        {
          "indexed": false,
          "internalType": "uint256",
          "name": "cardIndex",
          "type": "uint256"
        }
      ],
      "name": "CardTransferred",
      "type": "event"
    },
    {
      "anonymous": false,
      "inputs": [
        {
          "indexed": false,
          "internalType": "uint256",
          "name": "_tokenId",
          "type": "uint256"
        }
      ],
      "name": "MetadataUpdate",
      "type": "event"
    },
    {
      "anonymous": false,
      "inputs": [
        {
          "indexed": true,
          "internalType": "uint256",
          "name": "tokenId",
          "type": "uint256"
        },
        {
          "indexed": false,
          "internalType": "address",
          "name": "owner",
          "type": "address"
        },
        {
          "indexed": false,
          "internalType": "address",
          "name": "seller",
          "type": "address"
        },
        {
          "indexed": false,
          "internalType": "uint256",
          "name": "price",
          "type": "uint256"
        },
        {
          "indexed": false,
          "internalType": "bool",
          "name": "currentlyListed",
          "type": "bool"
        }
      ],
      "name": "TokenListedSuccess",
      "type": "event"
    },
    {
      "anonymous": false,
      "inputs": [
        {
          "indexed": true,
          "internalType": "address",
          "name": "from",
          "type": "address"
        },
        {
          "indexed": true,
          "internalType": "address",
          "name": "to",
          "type": "address"
        },
        {
          "indexed": true,
          "internalType": "uint256",
          "name": "tokenId",
          "type": "uint256"
        }
      ],
      "name": "Transfer",
      "type": "event"
    },
    {
      "inputs": [
        {
          "internalType": "address",
          "name": "to",
          "type": "address"
        },
        {
          "internalType": "uint256",
          "name": "tokenId",
          "type": "uint256"
        }
      ],
      "name": "approve",
      "outputs": [],
      "stateMutability": "nonpayable",
      "type": "function"
    },
    {
      "inputs": [
        {
          "internalType": "address",
          "name": "owner",
          "type": "address"
        }
      ],
      "name": "balanceOf",
      "outputs": [
        {
          "internalType": "uint256",
          "name": "",
          "type": "uint256"
        }
      ],
      "stateMutability": "view",
      "type": "function"
    },
    {
      "inputs": [
        {
          "internalType": "uint256",
          "name": "tokenId",
          "type": "uint256"
        }
      ],
      "name": "getApproved",
      "outputs": [
        {
          "internalType": "address",
          "name": "",
          "type": "address"
        }
      ],
      "stateMutability": "view",
      "type": "function"
    },
    {
      "inputs": [
        {
          "internalType": "address",
          "name": "owner",
          "type": "address"
        },
        {
          "internalType": "address",
          "name": "operator",
          "type": "address"
        }
      ],
      "name": "isApprovedForAll",
      "outputs": [
        {
          "internalType": "bool",
          "name": "",
          "type": "bool"
        }
      ],
      "stateMutability": "view",
      "type": "function"
    },
    {
      "inputs": [],
      "name": "name",
      "outputs": [
        {
          "internalType": "string",
          "name": "",
          "type": "string"
        }
      ],
      "stateMutability": "view",
      "type": "function"
    },
    {
      "inputs": [
        {
          "internalType": "uint256",
          "name": "tokenId",
          "type": "uint256"
        }
      ],
      "name": "ownerOf",
      "outputs": [
        {
          "internalType": "address",
          "name": "",
          "type": "address"
        }
      ],
      "stateMutability": "view",
      "type": "function"
    },
    {
      "inputs": [
        {
          "internalType": "address",
          "name": "from",
          "type": "address"
        },
        {
          "internalType": "address",
          "name": "to",
          "type": "address"
        },
        {
          "internalType": "uint256",
          "name": "tokenId",
          "type": "uint256"
        }
      ],
      "name": "safeTransferFrom",
      "outputs": [],
      "stateMutability": "nonpayable",
      "type": "function"
    },
    {
      "inputs": [
        {
          "internalType": "address",
          "name": "from",
          "type": "address"
        },
        {
          "internalType": "address",
          "name": "to",
          "type": "address"
        },
        {
          "internalType": "uint256",
          "name": "tokenId",
          "type": "uint256"
        },
        {
          "internalType": "bytes",
          "name": "data",
          "type": "bytes"
        }
      ],
      "name": "safeTransferFrom",
      "outputs": [],
      "stateMutability": "nonpayable",
      "type": "function"
    },
    {
      "inputs": [
        {
          "internalType": "address",
          "name": "operator",
          "type": "address"
        },
        {
          "internalType": "bool",
          "name": "approved",
          "type": "bool"
        }
      ],
      "name": "setApprovalForAll",
      "outputs": [],
      "stateMutability": "nonpayable",
      "type": "function"
    },
    {
      "inputs": [
        {
          "internalType": "bytes4",
          "name": "interfaceId",
          "type": "bytes4"
        }
      ],
      "name": "supportsInterface",
      "outputs": [
        {
          "internalType": "bool",
          "name": "",
          "type": "bool"
        }
      ],
      "stateMutability": "view",
      "type": "function"
    },
    {
      "inputs": [],
      "name": "symbol",
      "outputs": [
        {
          "internalType": "string",
          "name": "",
          "type": "string"
        }
      ],
      "stateMutability": "view",
      "type": "function"
    },
    {
      "inputs": [
        {
          "internalType": "uint256",
          "name": "tokenId",
          "type": "uint256"
        }
      ],
      "name": "tokenURI",
      "outputs": [
        {
          "internalType": "string",
          "name": "",
          "type": "string"
        }
      ],
      "stateMutability": "view",
      "type": "function"
    },
    {
      "inputs": [
        {
          "internalType": "address",
          "name": "from",
          "type": "address"
        },
        {
          "internalType": "address",
          "name": "to",
          "type": "address"
        },
        {
          "internalType": "uint256",
          "name": "tokenId",
          "type": "uint256"
        }
      ],
      "name": "transferFrom",
      "outputs": [],
      "stateMutability": "nonpayable",
      "type": "function"
    },
    {
      "inputs": [
        {
          "internalType": "uint256",
          "name": "_listPrice",
          "type": "uint256"
        }
      ],
      "name": "updateListPrice",
      "outputs": [],
      "stateMutability": "payable",
      "type": "function"
    },
    {
      "inputs": [],
      "name": "getListPrice",
      "outputs": [
        {
          "internalType": "uint256",
          "name": "",
          "type": "uint256"
        }
      ],
      "stateMutability": "view",
      "type": "function"
    },
    {
      "inputs": [],
      "name": "getLatestIdToListedToken",
      "outputs": [
        {
          "components": [
            {
              "internalType": "uint256",
              "name": "tokenID",
              "type": "uint256"
            },
            {
              "internalType": "address payable",
              "name": "owner",
              "type": "address"
            },
            {
              "internalType": "address payable",
              "name": "seller",
              "type": "address"
            },
            {
              "internalType": "uint256",
              "name": "price",
              "type": "uint256"
            },
            {
              "internalType": "bool",
              "name": "currentlyListed",
              "type": "bool"
            }
          ],
          "internalType": "struct NFTCollectible.ListedToken",
          "name": "",
          "type": "tuple"
        }
      ],
      "stateMutability": "view",
      "type": "function"
    },
    {
      "inputs": [
        {
          "internalType": "uint256",
          "name": "tokenId",
          "type": "uint256"
        }
      ],
      "name": "getListedForTokenId",
      "outputs": [
        {
          "components": [
            {
              "internalType": "uint256",
              "name": "tokenID",
              "type": "uint256"
            },
            {
              "internalType": "address payable",
              "name": "owner",
              "type": "address"
            },
            {
              "internalType": "address payable",
              "name": "seller",
              "type": "address"
            },
            {
              "internalType": "uint256",
              "name": "price",
              "type": "uint256"
            },
            {
              "internalType": "bool",
              "name": "currentlyListed",
              "type": "bool"
            }
          ],
          "internalType": "struct NFTCollectible.ListedToken",
          "name": "",
          "type": "tuple"
        }
      ],
      "stateMutability": "view",
      "type": "function"
    },
    {
      "inputs": [],
      "name": "getCurrentToken",
      "outputs": [
        {
          "internalType": "uint256",
          "name": "",
          "type": "uint256"
        }
      ],
      "stateMutability": "view",
      "type": "function"
    },
    {
      "inputs": [
        {
          "internalType": "address",
          "name": "_user",
          "type": "address"
        }
      ],
      "name": "getCardCount",
      "outputs": [
        {
          "internalType": "uint256",
          "name": "",
          "type": "uint256"
        }
      ],
      "stateMutability": "view",
      "type": "function"
    },
    {
      "inputs": [
        {
          "internalType": "address",
          "name": "_to",
          "type": "address"
        },
        {
          "internalType": "uint256",
          "name": "_cardIndex",
          "type": "uint256"
        }
      ],
      "name": "transferCard",
      "outputs": [],
      "stateMutability": "nonpayable",
      "type": "function"
    },
    {
      "inputs": [
        {
          "internalType": "address",
          "name": "_user",
          "type": "address"
        }
      ],
      "name": "getUserCards",
      "outputs": [
        {
          "components": [
            {
              "internalType": "string",
              "name": "name",
              "type": "string"
            },
            {
              "internalType": "uint256",
              "name": "grade",
              "type": "uint256"
            },
            {
              "internalType": "string",
              "name": "condition",
              "type": "string"
            }
          ],
          "internalType": "struct NFTCollectible.Card[]",
          "name": "",
          "type": "tuple[]"
        }
      ],
      "stateMutability": "view",
      "type": "function"
    },
    {
      "inputs": [
        {
          "internalType": "string",
          "name": "tokenURI",
          "type": "string"
        },
        {
          "internalType": "uint256",
          "name": "price",
          "type": "uint256"
        }
      ],
      "name": "createToken",
      "outputs": [
        {
          "internalType": "uint256",
          "name": "",
          "type": "uint256"
        }
      ],
      "stateMutability": "payable",
      "type": "function"
    },
    {
      "inputs": [
        {
          "internalType": "string",
          "name": "_name",
          "type": "string"
        },
        {
          "internalType": "uint256",
          "name": "_grade",
          "type": "uint256"
        },
        {
          "internalType": "string",
          "name": "_condition",
          "type": "string"
        }
      ],
      "name": "registerCard",
      "outputs": [],
      "stateMutability": "nonpayable",
      "type": "function"
    },
    {
      "inputs": [],
      "name": "getAllNFTs",
      "outputs": [
        {
          "components": [
            {
              "internalType": "uint256",
              "name": "tokenID",
              "type": "uint256"
            },
            {
              "internalType": "address payable",
              "name": "owner",
              "type": "address"
            },
            {
              "internalType": "address payable",
              "name": "seller",
              "type": "address"
            },
            {
              "internalType": "uint256",
              "name": "price",
              "type": "uint256"
            },
            {
              "internalType": "bool",
              "name": "currentlyListed",
              "type": "bool"
            }
          ],
          "internalType": "struct NFTCollectible.ListedToken[]",
          "name": "",
          "type": "tuple[]"
        }
      ],
      "stateMutability": "view",
      "type": "function"
    },
    {
      "inputs": [],
      "name": "getAllMyNFTs",
      "outputs": [
        {
          "components": [
            {
              "internalType": "uint256",
              "name": "tokenID",
              "type": "uint256"
            },
            {
              "internalType": "address payable",
              "name": "owner",
              "type": "address"
            },
            {
              "internalType": "address payable",
              "name": "seller",
              "type": "address"
            },
            {
              "internalType": "uint256",
              "name": "price",
              "type": "uint256"
            },
            {
              "internalType": "bool",
              "name": "currentlyListed",
              "type": "bool"
            }
          ],
          "internalType": "struct NFTCollectible.ListedToken[]",
          "name": "",
          "type": "tuple[]"
        }
      ],
      "stateMutability": "view",
      "type": "function"
    },
    {
      "inputs": [
        {
          "internalType": "uint256",
          "name": "tokenId",
          "type": "uint256"
        }
      ],
      "name": "executeSale",
      "outputs": [],
      "stateMutability": "payable",
      "type": "function"
    }
  ],
  "bytecode": "0x6080604052662386f26fc10000600c553480156200001c57600080fd5b506040518060400160405280600e81526020017f4e4654436f6c6c65637469626c650000000000000000000000000000000000008152506040518060400160405280600481526020017f4e4654430000000000000000000000000000000000000000000000000000000081525081600090816200009a919062000370565b508060019081620000ac919062000370565b50505033600960006101000a81548173ffffffffffffffffffffffffffffffffffffffff021916908373ffffffffffffffffffffffffffffffffffffffff16021790555062000457565b600081519050919050565b7f4e487b7100000000000000000000000000000000000000000000000000000000600052604160045260246000fd5b7f4e487b7100000000000000000000000000000000000000000000000000000000600052602260045260246000fd5b600060028204905060018216806200017857607f821691505b6020821081036200018e576200018d62000130565b5b50919050565b60008190508160005260206000209050919050565b60006020601f8301049050919050565b600082821b905092915050565b600060088302620001f87fffffffffffffffffffffffffffffffffffffffffffffffffffffffffffffffff82620001b9565b620002048683620001b9565b95508019841693508086168417925050509392505050565b6000819050919050565b6000819050919050565b6000620002516200024b62000245846200021c565b62000226565b6200021c565b9050919050565b6000819050919050565b6200026d8362000230565b620002856200027c8262000258565b848454620001c6565b825550505050565b600090565b6200029c6200028d565b620002a981848462000262565b505050565b5b81811015620002d157620002c560008262000292565b600181019050620002af565b5050565b601f8211156200032057620002ea8162000194565b620002f584620001a9565b8101602085101562000305578190505b6200031d6200031485620001a9565b830182620002ae565b50505b505050565b600082821c905092915050565b6000620003456000198460080262000325565b1980831691505092915050565b600062000360838362000332565b9150826002028217905092915050565b6200037b82620000f6565b67ffffffffffffffff81111562000397576200039662000101565b5b620003a382546200015f565b620003b0828285620002d5565b600060209050601f831160018114620003e85760008415620003d3578287015190505b620003df858262000352565b8655506200044f565b601f198416620003f88662000194565b60005b828110156200042257848901518255600182019150602085019450602081019050620003fb565b868310156200044257848901516200043e601f89168262000332565b8355505b6001600288020188555050505b505050505050565b614fe380620004676000396000f3fe6080604052600436106101815760003560e01c80639b1225c4116100d1578063c322579c1161008a578063dce0b58611610064578063dce0b5861461058f578063e0391b09146105cc578063e985e9c5146105f7578063ef2d17461461063457610181565b8063c322579c1461050b578063c87b56dd14610527578063d1a88ae51461056457610181565b80639b1225c4146104205780639b81a3591461043c578063a22cb46514610465578063b88d4fde1461048e578063b931f047146104b7578063c0ab5abc146104e057610181565b80636352211e1161013e57806372b3b6201161011857806372b3b6201461034b57806388d9f40d1461037b57806395d89b41146103b857806398c3df16146103e357610181565b80636352211e146102a657806368f1945f146102e357806370a082311461030e57610181565b806301ffc9a71461018657806306fdde03146101c3578063081812fc146101ee578063095ea7b31461022b57806323b872dd1461025457806342842e0e1461027d575b600080fd5b34801561019257600080fd5b506101ad60048036038101906101a891906134b9565b61065f565b6040516101ba9190613501565b60405180910390f35b3480156101cf57600080fd5b506101d86106c0565b6040516101e591906135ac565b60405180910390f35b3480156101fa57600080fd5b5061021560048036038101906102109190613604565b610752565b6040516102229190613672565b60405180910390f35b34801561023757600080fd5b50610252600480360381019061024d91906136b9565b610798565b005b34801561026057600080fd5b5061027b600480360381019061027691906136f9565b6108af565b005b34801561028957600080fd5b506102a4600480360381019061029f91906136f9565b61090f565b005b3480156102b257600080fd5b506102cd60048036038101906102c89190613604565b61092f565b6040516102da9190613672565b60405180910390f35b3480156102ef57600080fd5b506102f86109b5565b604051610305919061375b565b60405180910390f35b34801561031a57600080fd5b5061033560048036038101906103309190613776565b6109bf565b604051610342919061375b565b60405180910390f35b610365600480360381019061036091906138d8565b610a76565b604051610372919061375b565b60405180910390f35b34801561038757600080fd5b506103a2600480360381019061039d9190613776565b610ab8565b6040516103af9190613aa6565b60405180910390f35b3480156103c457600080fd5b506103cd610c84565b6040516103da91906135ac565b60405180910390f35b3480156103ef57600080fd5b5061040a60048036038101906104059190613604565b610d16565b6040516104179190613b60565b60405180910390f35b61043a60048036038101906104359190613604565b610e1e565b005b34801561044857600080fd5b50610463600480360381019061045e91906136b9565b611006565b005b34801561047157600080fd5b5061048c60048036038101906104879190613ba7565b6113e4565b005b34801561049a57600080fd5b506104b560048036038101906104b09190613c88565b6113fa565b005b3480156104c357600080fd5b506104de60048036038101906104d99190613d0b565b61145c565b005b3480156104ec57600080fd5b506104f56115c9565b6040516105029190613ead565b60405180910390f35b61052560048036038101906105209190613604565b6119aa565b005b34801561053357600080fd5b5061054e60048036038101906105499190613604565b611a44565b60405161055b91906135ac565b60405180910390f35b34801561057057600080fd5b50610579611b56565b6040516105869190613b60565b60405180910390f35b34801561059b57600080fd5b506105b660048036038101906105b19190613776565b611c6b565b6040516105c3919061375b565b60405180910390f35b3480156105d857600080fd5b506105e1611cb4565b6040516105ee9190613ead565b60405180910390f35b34801561060357600080fd5b5061061e60048036038101906106199190613ecf565b611e83565b60405161062b9190613501565b60405180910390f35b34801561064057600080fd5b50610649611f17565b604051610656919061375b565b60405180910390f35b6000634906490660e01b7bffffffffffffffffffffffffffffffffffffffffffffffffffffffff1916827bffffffffffffffffffffffffffffffffffffffffffffffffffffffff191614806106b957506106b882611f28565b5b9050919050565b6060600080546106cf90613f3e565b80601f01602080910402602001604051908101604052809291908181526020018280546106fb90613f3e565b80156107485780601f1061071d57610100808354040283529160200191610748565b820191906000526020600020905b81548152906001019060200180831161072b57829003601f168201915b5050505050905090565b600061075d8261200a565b6004600083815260200190815260200160002060009054906101000a900473ffffffffffffffffffffffffffffffffffffffff169050919050565b60006107a38261092f565b90508073ffffffffffffffffffffffffffffffffffffffff168373ffffffffffffffffffffffffffffffffffffffff1603610813576040517f08c379a000000000000000000000000000000000000000000000000000000000815260040161080a90613fe1565b60405180910390fd5b8073ffffffffffffffffffffffffffffffffffffffff16610832612055565b73ffffffffffffffffffffffffffffffffffffffff16148061086157506108608161085b612055565b611e83565b5b6108a0576040517f08c379a000000000000000000000000000000000000000000000000000000000815260040161089790614073565b60405180910390fd5b6108aa838361205d565b505050565b6108c06108ba612055565b82612116565b6108ff576040517f08c379a00000000000000000000000000000000000000000000000000000000081526004016108f690614105565b60405180910390fd5b61090a8383836121ab565b505050565b61092a838383604051806020016040528060008152506113fa565b505050565b60008061093b836124a4565b9050600073ffffffffffffffffffffffffffffffffffffffff168173ffffffffffffffffffffffffffffffffffffffff16036109ac576040517f08c379a00000000000000000000000000000000000000000000000000000000081526004016109a390614171565b60405180910390fd5b80915050919050565b6000600c54905090565b60008073ffffffffffffffffffffffffffffffffffffffff168273ffffffffffffffffffffffffffffffffffffffff1603610a2f576040517f08c379a0000000000000000000000000000000000000000000000000000000008152600401610a2690614203565b60405180910390fd5b600360008373ffffffffffffffffffffffffffffffffffffffff1673ffffffffffffffffffffffffffffffffffffffff168152602001908152602001600020549050919050565b6000610a82600a6124e1565b6000610a8e600a6124f7565b9050610a9a3382612505565b610aa48185612523565b610aae81846125c7565b8091505092915050565b6060600760008373ffffffffffffffffffffffffffffffffffffffff1673ffffffffffffffffffffffffffffffffffffffff168152602001908152602001600020805480602002602001604051908101604052809291908181526020016000905b82821015610c795783829060005260206000209060030201604051806060016040529081600082018054610b4c90613f3e565b80601f0160208091040260200160405190810160405280929190818152602001828054610b7890613f3e565b8015610bc55780601f10610b9a57610100808354040283529160200191610bc5565b820191906000526020600020905b815481529060010190602001808311610ba857829003601f168201915b5050505050815260200160018201548152602001600282018054610be890613f3e565b80601f0160208091040260200160405190810160405280929190818152602001828054610c1490613f3e565b8015610c615780601f10610c3657610100808354040283529160200191610c61565b820191906000526020600020905b815481529060010190602001808311610c4457829003601f168201915b50505050508152505081526020019060010190610b19565b505050509050919050565b606060018054610c9390613f3e565b80601f0160208091040260200160405190810160405280929190818152602001828054610cbf90613f3e565b8015610d0c5780601f10610ce157610100808354040283529160200191610d0c565b820191906000526020600020905b815481529060010190602001808311610cef57829003601f168201915b5050505050905090565b610d1e613393565b600d60008381526020019081526020016000206040518060a0016040529081600082015481526020016001820160009054906101000a900473ffffffffffffffffffffffffffffffffffffffff1673ffffffffffffffffffffffffffffffffffffffff1673ffffffffffffffffffffffffffffffffffffffff1681526020016002820160009054906101000a900473ffffffffffffffffffffffffffffffffffffffff1673ffffffffffffffffffffffffffffffffffffffff1673ffffffffffffffffffffffffffffffffffffffff168152602001600382015481526020016004820160009054906101000a900460ff1615151515815250509050919050565b6000600d60008381526020019081526020016000206003015490506000600d600084815260200190815260200160002060020160009054906101000a900473ffffffffffffffffffffffffffffffffffffffff169050813414610eb6576040517f08c379a0000000000000000000000000000000000000000000000000000000008152600401610ead90614295565b60405180910390fd5b6001600d600085815260200190815260200160002060040160006101000a81548160ff02191690831515021790555033600d600085815260200190815260200160002060020160006101000a81548173ffffffffffffffffffffffffffffffffffffffff021916908373ffffffffffffffffffffffffffffffffffffffff160217905550610f453033856121ab565b610f4f3084610798565b600960009054906101000a900473ffffffffffffffffffffffffffffffffffffffff1673ffffffffffffffffffffffffffffffffffffffff166108fc600c549081150290604051600060405180830381858888f19350505050158015610fb9573d6000803e3d6000fd5b508073ffffffffffffffffffffffffffffffffffffffff166108fc349081150290604051600060405180830381858888f19350505050158015611000573d6000803e3d6000fd5b50505050565b600760003373ffffffffffffffffffffffffffffffffffffffff1673ffffffffffffffffffffffffffffffffffffffff16815260200190815260200160002080549050811061108a576040517f08c379a000000000000000000000000000000000000000000000000000000000815260040161108190614301565b60405180910390fd5b6000600760003373ffffffffffffffffffffffffffffffffffffffff1673ffffffffffffffffffffffffffffffffffffffff16815260200190815260200160002082815481106110dd576110dc614321565b5b906000526020600020906003020160405180606001604052908160008201805461110690613f3e565b80601f016020809104026020016040519081016040528092919081815260200182805461113290613f3e565b801561117f5780601f106111545761010080835404028352916020019161117f565b820191906000526020600020905b81548152906001019060200180831161116257829003601f168201915b50505050508152602001600182015481526020016002820180546111a290613f3e565b80601f01602080910402602001604051908101604052809291908181526020018280546111ce90613f3e565b801561121b5780601f106111f05761010080835404028352916020019161121b565b820191906000526020600020905b8154815290600101906020018083116111fe57829003601f168201915b5050505050815250509050600760008473ffffffffffffffffffffffffffffffffffffffff1673ffffffffffffffffffffffffffffffffffffffff16815260200190815260200160002081908060018154018082558091505060019003906000526020600020906003020160009091909190915060008201518160000190816112a491906144fc565b506020820151816001015560408201518160020190816112c491906144fc565b505050600860003373ffffffffffffffffffffffffffffffffffffffff1673ffffffffffffffffffffffffffffffffffffffff1681526020019081526020016000206000815480929190611317906145fd565b9190505550600860008473ffffffffffffffffffffffffffffffffffffffff1673ffffffffffffffffffffffffffffffffffffffff168152602001908152602001600020600081548092919061136c90614626565b919050555061137a826127ca565b8273ffffffffffffffffffffffffffffffffffffffff163373ffffffffffffffffffffffffffffffffffffffff167f08c7dc9c65cfe0a446c6b662ec2e35c1966d49c8c50f8a4b78a7e2e0c68217c4846040516113d7919061375b565b60405180910390a3505050565b6113f66113ef612055565b8383612a52565b5050565b61140b611405612055565b83612116565b61144a576040517f08c379a000000000000000000000000000000000000000000000000000000000815260040161144190614105565b60405180910390fd5b61145684848484612bbe565b50505050565b60006040518060600160405280858152602001848152602001838152509050600760003373ffffffffffffffffffffffffffffffffffffffff1673ffffffffffffffffffffffffffffffffffffffff16815260200190815260200160002081908060018154018082558091505060019003906000526020600020906003020160009091909190915060008201518160000190816114f991906144fc565b5060208201518160010155604082015181600201908161151991906144fc565b505050600860003373ffffffffffffffffffffffffffffffffffffffff1673ffffffffffffffffffffffffffffffffffffffff168152602001908152602001600020600081548092919061156c90614626565b91905055503373ffffffffffffffffffffffffffffffffffffffff167fd5ed51683b2822693297735ede880846194bea029d405788e45a05e66b6d96968585856040516115bb9392919061466e565b60405180910390a250505050565b606060006115d7600a6124f7565b9050600080600080600090505b848110156116fd573373ffffffffffffffffffffffffffffffffffffffff16600d600060018461161491906146b3565b815260200190815260200160002060010160009054906101000a900473ffffffffffffffffffffffffffffffffffffffff1673ffffffffffffffffffffffffffffffffffffffff1614806116d557503373ffffffffffffffffffffffffffffffffffffffff16600d600060018461168b91906146b3565b815260200190815260200160002060020160009054906101000a900473ffffffffffffffffffffffffffffffffffffffff1673ffffffffffffffffffffffffffffffffffffffff16145b156116ea576001846116e791906146b3565b93505b80806116f590614626565b9150506115e4565b5060008367ffffffffffffffff81111561171a576117196137ad565b5b60405190808252806020026020018201604052801561175357816020015b611740613393565b8152602001906001900390816117385790505b50905060005b8581101561199e573373ffffffffffffffffffffffffffffffffffffffff16600d600060018461178991906146b3565b815260200190815260200160002060010160009054906101000a900473ffffffffffffffffffffffffffffffffffffffff1673ffffffffffffffffffffffffffffffffffffffff16148061184a57503373ffffffffffffffffffffffffffffffffffffffff16600d600060018461180091906146b3565b815260200190815260200160002060020160009054906101000a900473ffffffffffffffffffffffffffffffffffffffff1673ffffffffffffffffffffffffffffffffffffffff16145b1561198b5760018161185c91906146b3565b92506000600d60008581526020019081526020016000209050806040518060a0016040529081600082015481526020016001820160009054906101000a900473ffffffffffffffffffffffffffffffffffffffff1673ffffffffffffffffffffffffffffffffffffffff1673ffffffffffffffffffffffffffffffffffffffff1681526020016002820160009054906101000a900473ffffffffffffffffffffffffffffffffffffffff1673ffffffffffffffffffffffffffffffffffffffff1673ffffffffffffffffffffffffffffffffffffffff168152602001600382015481526020016004820160009054906101000a900460ff16151515158152505083868151811061196f5761196e614321565b5b602002602001018190525060018561198791906146b3565b9450505b808061199690614626565b915050611759565b50809550505050505090565b3373ffffffffffffffffffffffffffffffffffffffff16600960009054906101000a900473ffffffffffffffffffffffffffffffffffffffff1673ffffffffffffffffffffffffffffffffffffffff1614611a3a576040517f08c379a0000000000000000000000000000000000000000000000000000000008152600401611a3190614759565b60405180910390fd5b80600c8190555050565b6060611a4f8261200a565b6000600660008481526020019081526020016000208054611a6f90613f3e565b80601f0160208091040260200160405190810160405280929190818152602001828054611a9b90613f3e565b8015611ae85780601f10611abd57610100808354040283529160200191611ae8565b820191906000526020600020905b815481529060010190602001808311611acb57829003601f168201915b505050505090506000611af9612c1a565b90506000815103611b0e578192505050611b51565b600082511115611b43578082604051602001611b2b9291906147b5565b60405160208183030381529060405292505050611b51565b611b4c84612c31565b925050505b919050565b611b5e613393565b6000611b6a600a6124f7565b9050600d60008281526020019081526020016000206040518060a0016040529081600082015481526020016001820160009054906101000a900473ffffffffffffffffffffffffffffffffffffffff1673ffffffffffffffffffffffffffffffffffffffff1673ffffffffffffffffffffffffffffffffffffffff1681526020016002820160009054906101000a900473ffffffffffffffffffffffffffffffffffffffff1673ffffffffffffffffffffffffffffffffffffffff1673ffffffffffffffffffffffffffffffffffffffff168152602001600382015481526020016004820160009054906101000a900460ff16151515158152505091505090565b6000600860008373ffffffffffffffffffffffffffffffffffffffff1673ffffffffffffffffffffffffffffffffffffffff168152602001908152602001600020549050919050565b60606000611cc2600a6124f7565b905060008167ffffffffffffffff811115611ce057611cdf6137ad565b5b604051908082528060200260200182016040528015611d1957816020015b611d06613393565b815260200190600190039081611cfe5790505b5090506000805b83811015611e79576000600182611d3791906146b3565b90506000600d60008381526020019081526020016000209050806040518060a0016040529081600082015481526020016001820160009054906101000a900473ffffffffffffffffffffffffffffffffffffffff1673ffffffffffffffffffffffffffffffffffffffff1673ffffffffffffffffffffffffffffffffffffffff1681526020016002820160009054906101000a900473ffffffffffffffffffffffffffffffffffffffff1673ffffffffffffffffffffffffffffffffffffffff1673ffffffffffffffffffffffffffffffffffffffff168152602001600382015481526020016004820160009054906101000a900460ff161515151581525050858581518110611e4a57611e49614321565b5b6020026020010181905250600184611e6291906146b3565b935050508080611e7190614626565b915050611d20565b5081935050505090565b6000600560008473ffffffffffffffffffffffffffffffffffffffff1673ffffffffffffffffffffffffffffffffffffffff16815260200190815260200160002060008373ffffffffffffffffffffffffffffffffffffffff1673ffffffffffffffffffffffffffffffffffffffff16815260200190815260200160002060009054906101000a900460ff16905092915050565b6000611f23600a6124f7565b905090565b60007f80ac58cd000000000000000000000000000000000000000000000000000000007bffffffffffffffffffffffffffffffffffffffffffffffffffffffff1916827bffffffffffffffffffffffffffffffffffffffffffffffffffffffff19161480611ff357507f5b5e139f000000000000000000000000000000000000000000000000000000007bffffffffffffffffffffffffffffffffffffffffffffffffffffffff1916827bffffffffffffffffffffffffffffffffffffffffffffffffffffffff1916145b80612003575061200282612c99565b5b9050919050565b61201381612d03565b612052576040517f08c379a000000000000000000000000000000000000000000000000000000000815260040161204990614171565b60405180910390fd5b50565b600033905090565b816004600083815260200190815260200160002060006101000a81548173ffffffffffffffffffffffffffffffffffffffff021916908373ffffffffffffffffffffffffffffffffffffffff160217905550808273ffffffffffffffffffffffffffffffffffffffff166120d08361092f565b73ffffffffffffffffffffffffffffffffffffffff167f8c5be1e5ebec7d5bd14f71427d1e84f3dd0314c0f7b2291e5b200ac8c7c3b92560405160405180910390a45050565b6000806121228361092f565b90508073ffffffffffffffffffffffffffffffffffffffff168473ffffffffffffffffffffffffffffffffffffffff16148061216457506121638185611e83565b5b806121a257508373ffffffffffffffffffffffffffffffffffffffff1661218a84610752565b73ffffffffffffffffffffffffffffffffffffffff16145b91505092915050565b8273ffffffffffffffffffffffffffffffffffffffff166121cb8261092f565b73ffffffffffffffffffffffffffffffffffffffff1614612221576040517f08c379a00000000000000000000000000000000000000000000000000000000081526004016122189061484b565b60405180910390fd5b600073ffffffffffffffffffffffffffffffffffffffff168273ffffffffffffffffffffffffffffffffffffffff1603612290576040517f08c379a0000000000000000000000000000000000000000000000000000000008152600401612287906148dd565b60405180910390fd5b61229d8383836001612d44565b8273ffffffffffffffffffffffffffffffffffffffff166122bd8261092f565b73ffffffffffffffffffffffffffffffffffffffff1614612313576040517f08c379a000000000000000000000000000000000000000000000000000000000815260040161230a9061484b565b60405180910390fd5b6004600082815260200190815260200160002060006101000a81549073ffffffffffffffffffffffffffffffffffffffff02191690556001600360008573ffffffffffffffffffffffffffffffffffffffff1673ffffffffffffffffffffffffffffffffffffffff168152602001908152602001600020600082825403925050819055506001600360008473ffffffffffffffffffffffffffffffffffffffff1673ffffffffffffffffffffffffffffffffffffffff16815260200190815260200160002060008282540192505081905550816002600083815260200190815260200160002060006101000a81548173ffffffffffffffffffffffffffffffffffffffff021916908373ffffffffffffffffffffffffffffffffffffffff160217905550808273ffffffffffffffffffffffffffffffffffffffff168473ffffffffffffffffffffffffffffffffffffffff167fddf252ad1be2c89b69c2b068fc378daa952ba7f163c4a11628f55a4df523b3ef60405160405180910390a461249f8383836001612d4a565b505050565b60006002600083815260200190815260200160002060009054906101000a900473ffffffffffffffffffffffffffffffffffffffff169050919050565b6001816000016000828254019250508190555050565b600081600001549050919050565b61251f828260405180602001604052806000815250612d50565b5050565b61252c82612d03565b61256b576040517f08c379a00000000000000000000000000000000000000000000000000000000081526004016125629061496f565b60405180910390fd5b8060066000848152602001908152602001600020908161258b91906144fc565b507ff8e1a15aba9398e019f0b49df1a4fde98ee17ae345cb5f6b5e2c27f5033e8ce7826040516125bb919061375b565b60405180910390a15050565b600c54341461260b576040517f08c379a000000000000000000000000000000000000000000000000000000000815260040161260290614a01565b60405180910390fd5b6000811161264e576040517f08c379a000000000000000000000000000000000000000000000000000000000815260040161264590614a93565b60405180910390fd5b6040518060a001604052808381526020013073ffffffffffffffffffffffffffffffffffffffff1681526020013373ffffffffffffffffffffffffffffffffffffffff16815260200182815260200160011515815250600d60008481526020019081526020016000206000820151816000015560208201518160010160006101000a81548173ffffffffffffffffffffffffffffffffffffffff021916908373ffffffffffffffffffffffffffffffffffffffff16021790555060408201518160020160006101000a81548173ffffffffffffffffffffffffffffffffffffffff021916908373ffffffffffffffffffffffffffffffffffffffff1602179055506060820151816003015560808201518160040160006101000a81548160ff0219169083151502179055509050506127873330846121ab565b817f9339409317fd01fabff48b703019016f49159bacc801ae872d2ca637d226e4c030338460016040516127be9493929190614ab3565b60405180910390a25050565b600760003373ffffffffffffffffffffffffffffffffffffffff1673ffffffffffffffffffffffffffffffffffffffff16815260200190815260200160002080549050811061284e576040517f08c379a000000000000000000000000000000000000000000000000000000000815260040161284590614b44565b60405180910390fd5b60008190505b6001600760003373ffffffffffffffffffffffffffffffffffffffff1673ffffffffffffffffffffffffffffffffffffffff168152602001908152602001600020805490506128a39190614b64565b8110156129be57600760003373ffffffffffffffffffffffffffffffffffffffff1673ffffffffffffffffffffffffffffffffffffffff1681526020019081526020016000206001826128f691906146b3565b8154811061290757612906614321565b5b9060005260206000209060030201600760003373ffffffffffffffffffffffffffffffffffffffff1673ffffffffffffffffffffffffffffffffffffffff168152602001908152602001600020828154811061296657612965614321565b5b9060005260206000209060030201600082018160000190816129889190614bae565b5060018201548160010155600282018160020190816129a79190614bae565b5090505080806129b690614626565b915050612854565b50600760003373ffffffffffffffffffffffffffffffffffffffff1673ffffffffffffffffffffffffffffffffffffffff168152602001908152602001600020805480612a0e57612a0d614c96565b5b600190038181906000526020600020906003020160008082016000612a3391906133f0565b6001820160009055600282016000612a4b91906133f0565b5050905550565b8173ffffffffffffffffffffffffffffffffffffffff168373ffffffffffffffffffffffffffffffffffffffff1603612ac0576040517f08c379a0000000000000000000000000000000000000000000000000000000008152600401612ab790614d11565b60405180910390fd5b80600560008573ffffffffffffffffffffffffffffffffffffffff1673ffffffffffffffffffffffffffffffffffffffff16815260200190815260200160002060008473ffffffffffffffffffffffffffffffffffffffff1673ffffffffffffffffffffffffffffffffffffffff16815260200190815260200160002060006101000a81548160ff0219169083151502179055508173ffffffffffffffffffffffffffffffffffffffff168373ffffffffffffffffffffffffffffffffffffffff167f17307eab39ab6107e8899845ad3d59bd9653f200f220920489ca2b5937696c3183604051612bb19190613501565b60405180910390a3505050565b612bc98484846121ab565b612bd584848484612dab565b612c14576040517f08c379a0000000000000000000000000000000000000000000000000000000008152600401612c0b90614da3565b60405180910390fd5b50505050565b606060405180602001604052806000815250905090565b6060612c3c8261200a565b6000612c46612c1a565b90506000815111612c665760405180602001604052806000815250612c91565b80612c7084612f32565b604051602001612c819291906147b5565b6040516020818303038152906040525b915050919050565b60007f01ffc9a7000000000000000000000000000000000000000000000000000000007bffffffffffffffffffffffffffffffffffffffffffffffffffffffff1916827bffffffffffffffffffffffffffffffffffffffffffffffffffffffff1916149050919050565b60008073ffffffffffffffffffffffffffffffffffffffff16612d25836124a4565b73ffffffffffffffffffffffffffffffffffffffff1614159050919050565b50505050565b50505050565b612d5a8383613000565b612d676000848484612dab565b612da6576040517f08c379a0000000000000000000000000000000000000000000000000000000008152600401612d9d90614da3565b60405180910390fd5b505050565b6000612dcc8473ffffffffffffffffffffffffffffffffffffffff1661321d565b15612f25578373ffffffffffffffffffffffffffffffffffffffff1663150b7a02612df5612055565b8786866040518563ffffffff1660e01b8152600401612e179493929190614e18565b6020604051808303816000875af1925050508015612e5357506040513d601f19601f82011682018060405250810190612e509190614e79565b60015b612ed5573d8060008114612e83576040519150601f19603f3d011682016040523d82523d6000602084013e612e88565b606091505b506000815103612ecd576040517f08c379a0000000000000000000000000000000000000000000000000000000008152600401612ec490614da3565b60405180910390fd5b805181602001fd5b63150b7a0260e01b7bffffffffffffffffffffffffffffffffffffffffffffffffffffffff1916817bffffffffffffffffffffffffffffffffffffffffffffffffffffffff191614915050612f2a565b600190505b949350505050565b606060006001612f4184613240565b01905060008167ffffffffffffffff811115612f6057612f5f6137ad565b5b6040519080825280601f01601f191660200182016040528015612f925781602001600182028036833780820191505090505b509050600082602001820190505b600115612ff5578080600190039150507f3031323334353637383961626364656600000000000000000000000000000000600a86061a8153600a8581612fe957612fe8614ea6565b5b04945060008503612fa0575b819350505050919050565b600073ffffffffffffffffffffffffffffffffffffffff168273ffffffffffffffffffffffffffffffffffffffff160361306f576040517f08c379a000000000000000000000000000000000000000000000000000000000815260040161306690614f21565b60405180910390fd5b61307881612d03565b156130b8576040517f08c379a00000000000000000000000000000000000000000000000000000000081526004016130af90614f8d565b60405180910390fd5b6130c6600083836001612d44565b6130cf81612d03565b1561310f576040517f08c379a000000000000000000000000000000000000000000000000000000000815260040161310690614f8d565b60405180910390fd5b6001600360008473ffffffffffffffffffffffffffffffffffffffff1673ffffffffffffffffffffffffffffffffffffffff16815260200190815260200160002060008282540192505081905550816002600083815260200190815260200160002060006101000a81548173ffffffffffffffffffffffffffffffffffffffff021916908373ffffffffffffffffffffffffffffffffffffffff160217905550808273ffffffffffffffffffffffffffffffffffffffff16600073ffffffffffffffffffffffffffffffffffffffff167fddf252ad1be2c89b69c2b068fc378daa952ba7f163c4a11628f55a4df523b3ef60405160405180910390a4613219600083836001612d4a565b5050565b6000808273ffffffffffffffffffffffffffffffffffffffff163b119050919050565b600080600090507a184f03e93ff9f4daa797ed6e38ed64bf6a1f010000000000000000831061329e577a184f03e93ff9f4daa797ed6e38ed64bf6a1f010000000000000000838161329457613293614ea6565b5b0492506040810190505b6d04ee2d6d415b85acef810000000083106132db576d04ee2d6d415b85acef810000000083816132d1576132d0614ea6565b5b0492506020810190505b662386f26fc10000831061330a57662386f26fc100008381613300576132ff614ea6565b5b0492506010810190505b6305f5e1008310613333576305f5e100838161332957613328614ea6565b5b0492506008810190505b612710831061335857612710838161334e5761334d614ea6565b5b0492506004810190505b6064831061337b576064838161337157613370614ea6565b5b0492506002810190505b600a831061338a576001810190505b80915050919050565b6040518060a0016040528060008152602001600073ffffffffffffffffffffffffffffffffffffffff168152602001600073ffffffffffffffffffffffffffffffffffffffff168152602001600081526020016000151581525090565b5080546133fc90613f3e565b6000825580601f1061340e575061342d565b601f01602090049060005260206000209081019061342c9190613430565b5b50565b5b80821115613449576000816000905550600101613431565b5090565b6000604051905090565b600080fd5b600080fd5b60007fffffffff0000000000000000000000000000000000000000000000000000000082169050919050565b61349681613461565b81146134a157600080fd5b50565b6000813590506134b38161348d565b92915050565b6000602082840312156134cf576134ce613457565b5b60006134dd848285016134a4565b91505092915050565b60008115159050919050565b6134fb816134e6565b82525050565b600060208201905061351660008301846134f2565b92915050565b600081519050919050565b600082825260208201905092915050565b60005b8381101561355657808201518184015260208101905061353b565b60008484015250505050565b6000601f19601f8301169050919050565b600061357e8261351c565b6135888185613527565b9350613598818560208601613538565b6135a181613562565b840191505092915050565b600060208201905081810360008301526135c68184613573565b905092915050565b6000819050919050565b6135e1816135ce565b81146135ec57600080fd5b50565b6000813590506135fe816135d8565b92915050565b60006020828403121561361a57613619613457565b5b6000613628848285016135ef565b91505092915050565b600073ffffffffffffffffffffffffffffffffffffffff82169050919050565b600061365c82613631565b9050919050565b61366c81613651565b82525050565b60006020820190506136876000830184613663565b92915050565b61369681613651565b81146136a157600080fd5b50565b6000813590506136b38161368d565b92915050565b600080604083850312156136d0576136cf613457565b5b60006136de858286016136a4565b92505060206136ef858286016135ef565b9150509250929050565b60008060006060848603121561371257613711613457565b5b6000613720868287016136a4565b9350506020613731868287016136a4565b9250506040613742868287016135ef565b9150509250925092565b613755816135ce565b82525050565b6000602082019050613770600083018461374c565b92915050565b60006020828403121561378c5761378b613457565b5b600061379a848285016136a4565b91505092915050565b600080fd5b600080fd5b7f4e487b7100000000000000000000000000000000000000000000000000000000600052604160045260246000fd5b6137e582613562565b810181811067ffffffffffffffff82111715613804576138036137ad565b5b80604052505050565b600061381761344d565b905061382382826137dc565b919050565b600067ffffffffffffffff821115613843576138426137ad565b5b61384c82613562565b9050602081019050919050565b82818337600083830152505050565b600061387b61387684613828565b61380d565b905082815260208101848484011115613897576138966137a8565b5b6138a2848285613859565b509392505050565b600082601f8301126138bf576138be6137a3565b5b81356138cf848260208601613868565b91505092915050565b600080604083850312156138ef576138ee613457565b5b600083013567ffffffffffffffff81111561390d5761390c61345c565b5b613919858286016138aa565b925050602061392a858286016135ef565b9150509250929050565b600081519050919050565b600082825260208201905092915050565b6000819050602082019050919050565b600082825260208201905092915050565b600061397c8261351c565b6139868185613960565b9350613996818560208601613538565b61399f81613562565b840191505092915050565b6139b3816135ce565b82525050565b600060608301600083015184820360008601526139d68282613971565b91505060208301516139eb60208601826139aa565b5060408301518482036040860152613a038282613971565b9150508091505092915050565b6000613a1c83836139b9565b905092915050565b6000602082019050919050565b6000613a3c82613934565b613a46818561393f565b935083602082028501613a5885613950565b8060005b85811015613a945784840389528151613a758582613a10565b9450613a8083613a24565b925060208a01995050600181019050613a5c565b50829750879550505050505092915050565b60006020820190508181036000830152613ac08184613a31565b905092915050565b6000613ad382613631565b9050919050565b613ae381613ac8565b82525050565b613af2816134e6565b82525050565b60a082016000820151613b0e60008501826139aa565b506020820151613b216020850182613ada565b506040820151613b346040850182613ada565b506060820151613b4760608501826139aa565b506080820151613b5a6080850182613ae9565b50505050565b600060a082019050613b756000830184613af8565b92915050565b613b84816134e6565b8114613b8f57600080fd5b50565b600081359050613ba181613b7b565b92915050565b60008060408385031215613bbe57613bbd613457565b5b6000613bcc858286016136a4565b9250506020613bdd85828601613b92565b9150509250929050565b600067ffffffffffffffff821115613c0257613c016137ad565b5b613c0b82613562565b9050602081019050919050565b6000613c2b613c2684613be7565b61380d565b905082815260208101848484011115613c4757613c466137a8565b5b613c52848285613859565b509392505050565b600082601f830112613c6f57613c6e6137a3565b5b8135613c7f848260208601613c18565b91505092915050565b60008060008060808587031215613ca257613ca1613457565b5b6000613cb0878288016136a4565b9450506020613cc1878288016136a4565b9350506040613cd2878288016135ef565b925050606085013567ffffffffffffffff811115613cf357613cf261345c565b5b613cff87828801613c5a565b91505092959194509250565b600080600060608486031215613d2457613d23613457565b5b600084013567ffffffffffffffff811115613d4257613d4161345c565b5b613d4e868287016138aa565b9350506020613d5f868287016135ef565b925050604084013567ffffffffffffffff811115613d8057613d7f61345c565b5b613d8c868287016138aa565b9150509250925092565b600081519050919050565b600082825260208201905092915050565b6000819050602082019050919050565b60a082016000820151613dd860008501826139aa565b506020820151613deb6020850182613ada565b506040820151613dfe6040850182613ada565b506060820151613e1160608501826139aa565b506080820151613e246080850182613ae9565b50505050565b6000613e368383613dc2565b60a08301905092915050565b6000602082019050919050565b6000613e5a82613d96565b613e648185613da1565b9350613e6f83613db2565b8060005b83811015613ea0578151613e878882613e2a565b9750613e9283613e42565b925050600181019050613e73565b5085935050505092915050565b60006020820190508181036000830152613ec78184613e4f565b905092915050565b60008060408385031215613ee657613ee5613457565b5b6000613ef4858286016136a4565b9250506020613f05858286016136a4565b9150509250929050565b7f4e487b7100000000000000000000000000000000000000000000000000000000600052602260045260246000fd5b60006002820490506001821680613f5657607f821691505b602082108103613f6957613f68613f0f565b5b50919050565b7f4552433732313a20617070726f76616c20746f2063757272656e74206f776e6560008201527f7200000000000000000000000000000000000000000000000000000000000000602082015250565b6000613fcb602183613527565b9150613fd682613f6f565b604082019050919050565b60006020820190508181036000830152613ffa81613fbe565b9050919050565b7f4552433732313a20617070726f76652063616c6c6572206973206e6f7420746f60008201527f6b656e206f776e6572206f7220617070726f76656420666f7220616c6c000000602082015250565b600061405d603d83613527565b915061406882614001565b604082019050919050565b6000602082019050818103600083015261408c81614050565b9050919050565b7f4552433732313a2063616c6c6572206973206e6f7420746f6b656e206f776e6560008201527f72206f7220617070726f76656400000000000000000000000000000000000000602082015250565b60006140ef602d83613527565b91506140fa82614093565b604082019050919050565b6000602082019050818103600083015261411e816140e2565b9050919050565b7f4552433732313a20696e76616c696420746f6b656e2049440000000000000000600082015250565b600061415b601883613527565b915061416682614125565b602082019050919050565b6000602082019050818103600083015261418a8161414e565b9050919050565b7f4552433732313a2061646472657373207a65726f206973206e6f74206120766160008201527f6c6964206f776e65720000000000000000000000000000000000000000000000602082015250565b60006141ed602983613527565b91506141f882614191565b604082019050919050565b6000602082019050818103600083015261421c816141e0565b9050919050565b7f506c65617365207375626d6974207468652061736b696e67207072696365206960008201527f6e206f7264657220746f20636f6d706c65746520746865207075726368617365602082015250565b600061427f604083613527565b915061428a82614223565b604082019050919050565b600060208201905081810360008301526142ae81614272565b9050919050565b7f496e76616c6964206361726420696e6465780000000000000000000000000000600082015250565b60006142eb601283613527565b91506142f6826142b5565b602082019050919050565b6000602082019050818103600083015261431a816142de565b9050919050565b7f4e487b7100000000000000000000000000000000000000000000000000000000600052603260045260246000fd5b60008190508160005260206000209050919050565b60006020601f8301049050919050565b600082821b905092915050565b6000600883026143b27fffffffffffffffffffffffffffffffffffffffffffffffffffffffffffffffff82614375565b6143bc8683614375565b95508019841693508086168417925050509392505050565b6000819050919050565b60006143f96143f46143ef846135ce565b6143d4565b6135ce565b9050919050565b6000819050919050565b614413836143de565b61442761441f82614400565b848454614382565b825550505050565b600090565b61443c61442f565b61444781848461440a565b505050565b5b8181101561446b57614460600082614434565b60018101905061444d565b5050565b601f8211156144b05761448181614350565b61448a84614365565b81016020851015614499578190505b6144ad6144a585614365565b83018261444c565b50505b505050565b600082821c905092915050565b60006144d3600019846008026144b5565b1980831691505092915050565b60006144ec83836144c2565b9150826002028217905092915050565b6145058261351c565b67ffffffffffffffff81111561451e5761451d6137ad565b5b6145288254613f3e565b61453382828561446f565b600060209050601f8311600181146145665760008415614554578287015190505b61455e85826144e0565b8655506145c6565b601f19841661457486614350565b60005b8281101561459c57848901518255600182019150602085019450602081019050614577565b868310156145b957848901516145b5601f8916826144c2565b8355505b6001600288020188555050505b505050505050565b7f4e487b7100000000000000000000000000000000000000000000000000000000600052601160045260246000fd5b6000614608826135ce565b91506000820361461b5761461a6145ce565b5b600182039050919050565b6000614631826135ce565b91507fffffffffffffffffffffffffffffffffffffffffffffffffffffffffffffffff8203614663576146626145ce565b5b600182019050919050565b600060608201905081810360008301526146888186613573565b9050614697602083018561374c565b81810360408301526146a98184613573565b9050949350505050565b60006146be826135ce565b91506146c9836135ce565b92508282019050808211156146e1576146e06145ce565b5b92915050565b7f4f6e6c7920746865206f776e65722063616e20706572666f726d20746869732060008201527f616374696f6e0000000000000000000000000000000000000000000000000000602082015250565b6000614743602683613527565b915061474e826146e7565b604082019050919050565b6000602082019050818103600083015261477281614736565b9050919050565b600081905092915050565b600061478f8261351c565b6147998185614779565b93506147a9818560208601613538565b80840191505092915050565b60006147c18285614784565b91506147cd8284614784565b91508190509392505050565b7f4552433732313a207472616e736665722066726f6d20696e636f72726563742060008201527f6f776e6572000000000000000000000000000000000000000000000000000000602082015250565b6000614835602583613527565b9150614840826147d9565b604082019050919050565b6000602082019050818103600083015261486481614828565b9050919050565b7f4552433732313a207472616e7366657220746f20746865207a65726f2061646460008201527f7265737300000000000000000000000000000000000000000000000000000000602082015250565b60006148c7602483613527565b91506148d28261486b565b604082019050919050565b600060208201905081810360008301526148f6816148ba565b9050919050565b7f45524337323155524953746f726167653a2055524920736574206f66206e6f6e60008201527f6578697374656e7420746f6b656e000000000000000000000000000000000000602082015250565b6000614959602e83613527565b9150614964826148fd565b604082019050919050565b600060208201905081810360008301526149888161494c565b9050919050565b7f486f706566756c6c792073656e64696e672074686520636f727265637420707260008201527f6963650000000000000000000000000000000000000000000000000000000000602082015250565b60006149eb602383613527565b91506149f68261498f565b604082019050919050565b60006020820190508181036000830152614a1a816149de565b9050919050565b7f4d616b652073757265207468652070726963652069736e2774206e656761746960008201527f7665000000000000000000000000000000000000000000000000000000000000602082015250565b6000614a7d602283613527565b9150614a8882614a21565b604082019050919050565b60006020820190508181036000830152614aac81614a70565b9050919050565b6000608082019050614ac86000830187613663565b614ad56020830186613663565b614ae2604083018561374c565b614aef60608301846134f2565b95945050505050565b7f496e646578206f7574206f6620626f756e647300000000000000000000000000600082015250565b6000614b2e601383613527565b9150614b3982614af8565b602082019050919050565b60006020820190508181036000830152614b5d81614b21565b9050919050565b6000614b6f826135ce565b9150614b7a836135ce565b9250828203905081811115614b9257614b916145ce565b5b92915050565b600081549050614ba781613f3e565b9050919050565b818103614bbc575050614c94565b614bc582614b98565b67ffffffffffffffff811115614bde57614bdd6137ad565b5b614be88254613f3e565b614bf382828561446f565b6000601f831160018114614c225760008415614c10578287015490505b614c1a85826144e0565b865550614c8d565b601f198416614c3087614350565b9650614c3b86614350565b60005b82811015614c6357848901548255600182019150600185019450602081019050614c3e565b86831015614c805784890154614c7c601f8916826144c2565b8355505b6001600288020188555050505b5050505050505b565b7f4e487b7100000000000000000000000000000000000000000000000000000000600052603160045260246000fd5b7f4552433732313a20617070726f766520746f2063616c6c657200000000000000600082015250565b6000614cfb601983613527565b9150614d0682614cc5565b602082019050919050565b60006020820190508181036000830152614d2a81614cee565b9050919050565b7f4552433732313a207472616e7366657220746f206e6f6e20455243373231526560008201527f63656976657220696d706c656d656e7465720000000000000000000000000000602082015250565b6000614d8d603283613527565b9150614d9882614d31565b604082019050919050565b60006020820190508181036000830152614dbc81614d80565b9050919050565b600081519050919050565b600082825260208201905092915050565b6000614dea82614dc3565b614df48185614dce565b9350614e04818560208601613538565b614e0d81613562565b840191505092915050565b6000608082019050614e2d6000830187613663565b614e3a6020830186613663565b614e47604083018561374c565b8181036060830152614e598184614ddf565b905095945050505050565b600081519050614e738161348d565b92915050565b600060208284031215614e8f57614e8e613457565b5b6000614e9d84828501614e64565b91505092915050565b7f4e487b7100000000000000000000000000000000000000000000000000000000600052601260045260246000fd5b7f4552433732313a206d696e7420746f20746865207a65726f2061646472657373600082015250565b6000614f0b602083613527565b9150614f1682614ed5565b602082019050919050565b60006020820190508181036000830152614f3a81614efe565b9050919050565b7f4552433732313a20746f6b656e20616c7265616479206d696e74656400000000600082015250565b6000614f77601c83613527565b9150614f8282614f41565b602082019050919050565b60006020820190508181036000830152614fa681614f6a565b905091905056fea264697066735822122022e419a8676deb77421047764849b69479ffc0965df725dd88d21be4f5f855fe64736f6c63430008120033",
  "immutableReferences": {},
  "source": "//SPDX-License-Identifier: Unlicensed\r\npragma solidity ^0.8.0;\r\n\r\nimport \"./../node_modules/@openzeppelin/contracts/token/ERC721/ERC721.sol\"; //TODO: magari si pu chiamare in maniera pi carina\r\nimport \"./../node_modules/@openzeppelin/contracts/token/ERC721//extensions/ERC721URIStorage.sol\"; //TODO: magari si pu chiamare in maniera pi carina\r\nimport \"./../node_modules/@openzeppelin/contracts/utils/Counters.sol\";\r\n\r\ncontract NFTCollectible is ERC721URIStorage {\r\n    struct Card {\r\n        string name;\r\n        uint256 grade;\r\n        string condition;\r\n        // Other variables\r\n    }\r\n\r\n    mapping(address => Card[]) private userCards; // Mapping to register cards for each user\r\n    mapping(address => uint256) private cardCounts; // Mapping to keep track of card counts for each user\r\n\r\n    event CardRegistered(\r\n        address indexed user,\r\n        string name,\r\n        uint256 grade,\r\n        string condition\r\n    );\r\n\r\n    event CardTransferred(\r\n        address indexed from,\r\n        address indexed to,\r\n        uint256 cardIndex\r\n    );\r\n\r\n    address payable owner;\r\n    using Counters for Counters.Counter; //It's a datatype\r\n\r\n    //Keep track of the number of tokens created\r\n    Counters.Counter private _tokenIDs;\r\n\r\n    //Keep track of the number of items sold on the marketplace\r\n    Counters.Counter private _itemsSold;\r\n\r\n    uint256 listPrice = 0.01 ether; //Fee of the marketplace\r\n\r\n    struct ListedToken {\r\n        uint256 tokenID;\r\n        address payable owner;\r\n        address payable seller;\r\n        uint256 price;\r\n        bool currentlyListed;\r\n    }\r\n\r\n    //the event emitted when a token is successfully listed\r\n    event TokenListedSuccess(\r\n        uint256 indexed tokenId,\r\n        address owner,\r\n        address seller,\r\n        uint256 price,\r\n        bool currentlyListed\r\n    );\r\n\r\n    mapping(uint256 => ListedToken) private idToListedToken; //create a mapping between the id (incremental) and the associated data of the token (listed Token struct)\r\n\r\n    constructor() ERC721(\"NFTCollectible\", \"NFTC\") {\r\n        owner = payable(msg.sender); //only the owner gets a revenue when the marketplace is used, payable means that this address is eligible to receive some eth\r\n    }\r\n\r\n    // HELPER FUNCTIONS\r\n\r\n    function updateListPrice(uint256 _listPrice) public payable {\r\n        require(owner == msg.sender, \"Only the owner can perform this action\");\r\n        listPrice = _listPrice;\r\n    }\r\n\r\n    function getListPrice() public view returns (uint256) {\r\n        return listPrice;\r\n    }\r\n\r\n    function getLatestIdToListedToken()\r\n        public\r\n        view\r\n        returns (ListedToken memory)\r\n    {\r\n        //memory is an instructional keyboard to create a temporary memory allocation\r\n        uint256 currentTokenId = _tokenIDs.current();\r\n        return idToListedToken[currentTokenId];\r\n    }\r\n\r\n    function getListedForTokenId(\r\n        uint256 tokenId\r\n    ) public view returns (ListedToken memory) {\r\n        return idToListedToken[tokenId];\r\n    }\r\n\r\n    function getCurrentToken() public view returns (uint256) {\r\n        return _tokenIDs.current();\r\n    }\r\n\r\n    //CORE FUNCTIONS\r\n\r\n    // Function to get card count of a user by address\r\n    function getCardCount(address _user) external view returns (uint256) {\r\n        return cardCounts[_user];\r\n    }\r\n\r\n    // Function to transfer a card from one user to another\r\n    function transferCard(address _to, uint256 _cardIndex) external {\r\n        require( // require is used to validate the inputs to the function and throw error if the condition is not met\r\n            _cardIndex < userCards[msg.sender].length,\r\n            \"Invalid card index\"\r\n        );\r\n        Card memory cardToTransfer = userCards[msg.sender][_cardIndex]; // Get the card to transfer\r\n        userCards[_to].push(cardToTransfer); // Push the card to the user to whom it is being transferred\r\n        cardCounts[msg.sender]--; // Reduce the card count of the user from whom the card is being transferred\r\n        cardCounts[_to]++; // Increase the card count of the user to whom the card is being transferred\r\n        removeElement(_cardIndex); // Delete the card from the user from whom the card is being transferred\r\n        emit CardTransferred(msg.sender, _to, _cardIndex); // Emit the event to notify the transfer\r\n    }\r\n\r\n    // Function to get all cards of a user by address\r\n    function getUserCards(address _user) external view returns (Card[] memory) {\r\n        // view means that this function will not modify the state of the contract\r\n        return userCards[_user];\r\n    }\r\n\r\n    function removeElement(uint256 _cardIndex) internal {\r\n        require(\r\n            _cardIndex < userCards[msg.sender].length,\r\n            \"Index out of bounds\"\r\n        );\r\n\r\n        // Shift elements to the left starting from the element to be removed\r\n        for (uint i = _cardIndex; i < userCards[msg.sender].length - 1; i++) {\r\n            //FORSE USA TROPPO GAS --> da approfondire\r\n            userCards[msg.sender][i] = userCards[msg.sender][i + 1];\r\n        }\r\n\r\n        // Resize the array by deleting the last element\r\n        userCards[msg.sender].pop();\r\n    }\r\n\r\n    //Top level function when creating a token for the first time\r\n    function createToken(\r\n        string memory tokenURI,\r\n        uint256 price\r\n    ) public payable returns (uint) {\r\n        _tokenIDs.increment();\r\n        uint256 currentTokenId = _tokenIDs.current();\r\n        _safeMint(msg.sender, currentTokenId);\r\n        _setTokenURI(currentTokenId, tokenURI);\r\n\r\n        createListedToken(currentTokenId, price);\r\n\r\n        return currentTokenId;\r\n    }\r\n\r\n    function registerCard(\r\n        string memory _name,\r\n        uint256 _grade,\r\n        string memory _condition\r\n    ) external {\r\n        Card memory newCard = Card(_name, _grade, _condition);\r\n        userCards[msg.sender].push(newCard);\r\n        cardCounts[msg.sender]++;\r\n        emit CardRegistered(msg.sender, _name, _grade, _condition);\r\n    }\r\n\r\n    //Helps create the object of type ListedToken for the NFT and update the idToListedToken mapping\r\n    function createListedToken(uint256 tokenID, uint256 price) private {\r\n        require(msg.value == listPrice, \"Hopefully sending the correct price\");\r\n        //Just sanity check\r\n        require(price > 0, \"Make sure the price isn't negative\");\r\n        idToListedToken[tokenID] = ListedToken(\r\n            tokenID,\r\n            payable(address(this)),\r\n            payable(msg.sender),\r\n            price,\r\n            true\r\n        );\r\n        _transfer(msg.sender, address(this), tokenID);\r\n\r\n        emit TokenListedSuccess(\r\n            tokenID,\r\n            address(this),\r\n            msg.sender,\r\n            price,\r\n            true\r\n        );\r\n    }\r\n\r\n    //Get all the NFTs currently listed for sale on the marketplace --> DA MODIFICARE\r\n    function getAllNFTs() public view returns (ListedToken[] memory) {\r\n        uint nftCount = _tokenIDs.current();\r\n        ListedToken[] memory tokens = new ListedToken[](nftCount);\r\n\r\n        uint currentIndex = 0;\r\n\r\n        for (uint i = 0; i < nftCount; i++) {\r\n            uint currentId = i + 1;\r\n            ListedToken storage currentItem = idToListedToken[currentId];\r\n            tokens[currentIndex] = currentItem;\r\n            currentIndex += 1;\r\n        }\r\n\r\n        return tokens;\r\n    }\r\n\r\n    //Get all the NFTs of the user on the marketplace --> DA MODIFICARE\r\n    function getAllMyNFTs() public view returns (ListedToken[] memory) {\r\n        uint totalItemCount = _tokenIDs.current();\r\n        uint itemCount = 0;\r\n        uint currentIndex = 0;\r\n        uint currentId;\r\n        //Important to get a count of all the NFTs that belong to the user before we can make an array for them\r\n        for (uint i = 0; i < totalItemCount; i++) {\r\n            if (\r\n                idToListedToken[i + 1].owner == msg.sender ||\r\n                idToListedToken[i + 1].seller == msg.sender\r\n            ) {\r\n                itemCount += 1;\r\n            }\r\n        }\r\n\r\n        //Once you have the count of relevant NFTs, create an array then store all the NFTs in it\r\n        ListedToken[] memory items = new ListedToken[](itemCount);\r\n        for (uint i = 0; i < totalItemCount; i++) {\r\n            if (\r\n                idToListedToken[i + 1].owner == msg.sender ||\r\n                idToListedToken[i + 1].seller == msg.sender\r\n            ) {\r\n                currentId = i + 1;\r\n                ListedToken storage currentItem = idToListedToken[currentId];\r\n                items[currentIndex] = currentItem;\r\n                currentIndex += 1;\r\n            }\r\n        }\r\n        return items;\r\n    }\r\n\r\n    //The function that executes the sale on the marketplace --> DA MODIFICARE\r\n    function executeSale(uint256 tokenId) public payable {\r\n        uint price = idToListedToken[tokenId].price;\r\n        address seller = idToListedToken[tokenId].seller;\r\n        require(\r\n            msg.value == price,\r\n            \"Please submit the asking price in order to complete the purchase\"\r\n        );\r\n\r\n        //update the details of the token\r\n        idToListedToken[tokenId].currentlyListed = true;\r\n        idToListedToken[tokenId].seller = payable(msg.sender);\r\n        //_itemsSold.increment();\r\n\r\n        //Actually transfer the token to the new owner\r\n        _transfer(address(this), msg.sender, tokenId);\r\n        //approve the marketplace to sell NFTs on your behalf\r\n        approve(address(this), tokenId);\r\n\r\n        //Transfer the listing fee to the marketplace creator\r\n        payable(owner).transfer(listPrice);\r\n        //Transfer the proceeds from the sale to the seller of the NFT\r\n        payable(seller).transfer(msg.value);\r\n    }\r\n}\r\n",
  "sourcePath": "C:\\Users\\Alessandro\\Desktop\\Universita\\Blockchain\\blockchain-authenticator\\project\\truffle\\contracts\\NFTMarketplace.sol",
  "compiler": {
    "name": "solc",
    "version": "0.8.18+commit.87f61d96.Emscripten.clang"
  },
  "schemaVersion": "3.4.14",
  "updatedAt": "2023-07-06T12:33:03.080Z",
  "devdoc": {
    "events": {
      "Approval(address,address,uint256)": {
        "details": "Emitted when `owner` enables `approved` to manage the `tokenId` token."
      },
      "ApprovalForAll(address,address,bool)": {
        "details": "Emitted when `owner` enables or disables (`approved`) `operator` to manage all of its assets."
      },
      "BatchMetadataUpdate(uint256,uint256)": {
        "details": "This event emits when the metadata of a range of tokens is changed. So that the third-party platforms such as NFT market could timely update the images and related attributes of the NFTs."
      },
      "MetadataUpdate(uint256)": {
        "details": "This event emits when the metadata of a token is changed. So that the third-party platforms such as NFT market could timely update the images and related attributes of the NFT."
      },
      "Transfer(address,address,uint256)": {
        "details": "Emitted when `tokenId` token is transferred from `from` to `to`."
      }
    },
    "kind": "dev",
    "methods": {
      "approve(address,uint256)": {
        "details": "See {IERC721-approve}."
      },
      "balanceOf(address)": {
        "details": "See {IERC721-balanceOf}."
      },
      "getApproved(uint256)": {
        "details": "See {IERC721-getApproved}."
      },
      "isApprovedForAll(address,address)": {
        "details": "See {IERC721-isApprovedForAll}."
      },
      "name()": {
        "details": "See {IERC721Metadata-name}."
      },
      "ownerOf(uint256)": {
        "details": "See {IERC721-ownerOf}."
      },
      "safeTransferFrom(address,address,uint256)": {
        "details": "See {IERC721-safeTransferFrom}."
      },
      "safeTransferFrom(address,address,uint256,bytes)": {
        "details": "See {IERC721-safeTransferFrom}."
      },
      "setApprovalForAll(address,bool)": {
        "details": "See {IERC721-setApprovalForAll}."
      },
      "supportsInterface(bytes4)": {
        "details": "See {IERC165-supportsInterface}"
      },
      "symbol()": {
        "details": "See {IERC721Metadata-symbol}."
      },
      "tokenURI(uint256)": {
        "details": "See {IERC721Metadata-tokenURI}."
      },
      "transferFrom(address,address,uint256)": {
        "details": "See {IERC721-transferFrom}."
      }
    },
    "version": 1
  },
  "userdoc": {
    "kind": "user",
    "methods": {},
    "version": 1
  }
}