{
  "contractName": "NFTMarketplace",
  "abi": [
    {
      "inputs": [],
      "stateMutability": "nonpayable",
      "type": "constructor"
    },
    {
      "anonymous": false,
      "inputs": [
        {
          "indexed": true,
          "internalType": "address",
          "name": "owner",
          "type": "address"
        },
        {
          "indexed": true,
          "internalType": "address",
          "name": "approved",
          "type": "address"
        },
        {
          "indexed": true,
          "internalType": "uint256",
          "name": "tokenId",
          "type": "uint256"
        }
      ],
      "name": "Approval",
      "type": "event"
    },
    {
      "anonymous": false,
      "inputs": [
        {
          "indexed": true,
          "internalType": "address",
          "name": "owner",
          "type": "address"
        },
        {
          "indexed": true,
          "internalType": "address",
          "name": "operator",
          "type": "address"
        },
        {
          "indexed": false,
          "internalType": "bool",
          "name": "approved",
          "type": "bool"
        }
      ],
      "name": "ApprovalForAll",
      "type": "event"
    },
    {
      "anonymous": false,
      "inputs": [
        {
          "indexed": false,
          "internalType": "uint256",
          "name": "_fromTokenId",
          "type": "uint256"
        },
        {
          "indexed": false,
          "internalType": "uint256",
          "name": "_toTokenId",
          "type": "uint256"
        }
      ],
      "name": "BatchMetadataUpdate",
      "type": "event"
    },
    {
      "anonymous": false,
      "inputs": [
        {
          "indexed": true,
          "internalType": "address",
          "name": "user",
          "type": "address"
        },
        {
          "indexed": false,
          "internalType": "string",
          "name": "name",
          "type": "string"
        },
        {
          "indexed": false,
          "internalType": "uint256",
          "name": "grade",
          "type": "uint256"
        },
        {
          "indexed": false,
          "internalType": "string",
          "name": "condition",
          "type": "string"
        },
        {
          "indexed": false,
          "internalType": "uint256",
          "name": "cardCode",
          "type": "uint256"
        },
        {
          "indexed": false,
          "internalType": "string[]",
          "name": "owners_history",
          "type": "string[]"
        },
        {
          "indexed": false,
          "internalType": "uint256",
          "name": "owners_count",
          "type": "uint256"
        }
      ],
      "name": "CardRegistered",
      "type": "event"
    },
    {
      "anonymous": false,
      "inputs": [
        {
          "indexed": true,
          "internalType": "address",
          "name": "from",
          "type": "address"
        },
        {
          "indexed": true,
          "internalType": "address",
          "name": "to",
          "type": "address"
        },
        {
          "indexed": false,
          "internalType": "uint256",
          "name": "cardIndex",
          "type": "uint256"
        }
      ],
      "name": "CardTransferred",
      "type": "event"
    },
    {
      "anonymous": false,
      "inputs": [
        {
          "indexed": false,
          "internalType": "uint256",
          "name": "_tokenId",
          "type": "uint256"
        }
      ],
      "name": "MetadataUpdate",
      "type": "event"
    },
    {
      "anonymous": false,
      "inputs": [
        {
          "indexed": true,
          "internalType": "uint256",
          "name": "tokenId",
          "type": "uint256"
        },
        {
          "indexed": false,
          "internalType": "address",
          "name": "owner",
          "type": "address"
        },
        {
          "indexed": false,
          "internalType": "address",
          "name": "seller",
          "type": "address"
        },
        {
          "indexed": false,
          "internalType": "uint256",
          "name": "price",
          "type": "uint256"
        },
        {
          "indexed": false,
          "internalType": "bool",
          "name": "currentlyListed",
          "type": "bool"
        }
      ],
      "name": "TokenListedSuccess",
      "type": "event"
    },
    {
      "anonymous": false,
      "inputs": [
        {
          "indexed": true,
          "internalType": "address",
          "name": "from",
          "type": "address"
        },
        {
          "indexed": true,
          "internalType": "address",
          "name": "to",
          "type": "address"
        },
        {
          "indexed": true,
          "internalType": "uint256",
          "name": "tokenId",
          "type": "uint256"
        }
      ],
      "name": "Transfer",
      "type": "event"
    },
    {
      "inputs": [
        {
          "internalType": "address",
          "name": "to",
          "type": "address"
        },
        {
          "internalType": "uint256",
          "name": "tokenId",
          "type": "uint256"
        }
      ],
      "name": "approve",
      "outputs": [],
      "stateMutability": "nonpayable",
      "type": "function"
    },
    {
      "inputs": [
        {
          "internalType": "address",
          "name": "owner",
          "type": "address"
        }
      ],
      "name": "balanceOf",
      "outputs": [
        {
          "internalType": "uint256",
          "name": "",
          "type": "uint256"
        }
      ],
      "stateMutability": "view",
      "type": "function",
      "constant": true
    },
    {
      "inputs": [
        {
          "internalType": "uint256",
          "name": "tokenId",
          "type": "uint256"
        }
      ],
      "name": "getApproved",
      "outputs": [
        {
          "internalType": "address",
          "name": "",
          "type": "address"
        }
      ],
      "stateMutability": "view",
      "type": "function",
      "constant": true
    },
    {
      "inputs": [
        {
          "internalType": "address",
          "name": "owner",
          "type": "address"
        },
        {
          "internalType": "address",
          "name": "operator",
          "type": "address"
        }
      ],
      "name": "isApprovedForAll",
      "outputs": [
        {
          "internalType": "bool",
          "name": "",
          "type": "bool"
        }
      ],
      "stateMutability": "view",
      "type": "function",
      "constant": true
    },
    {
      "inputs": [],
      "name": "name",
      "outputs": [
        {
          "internalType": "string",
          "name": "",
          "type": "string"
        }
      ],
      "stateMutability": "view",
      "type": "function",
      "constant": true
    },
    {
      "inputs": [
        {
          "internalType": "uint256",
          "name": "tokenId",
          "type": "uint256"
        }
      ],
      "name": "ownerOf",
      "outputs": [
        {
          "internalType": "address",
          "name": "",
          "type": "address"
        }
      ],
      "stateMutability": "view",
      "type": "function",
      "constant": true
    },
    {
      "inputs": [
        {
          "internalType": "address",
          "name": "from",
          "type": "address"
        },
        {
          "internalType": "address",
          "name": "to",
          "type": "address"
        },
        {
          "internalType": "uint256",
          "name": "tokenId",
          "type": "uint256"
        }
      ],
      "name": "safeTransferFrom",
      "outputs": [],
      "stateMutability": "nonpayable",
      "type": "function"
    },
    {
      "inputs": [
        {
          "internalType": "address",
          "name": "from",
          "type": "address"
        },
        {
          "internalType": "address",
          "name": "to",
          "type": "address"
        },
        {
          "internalType": "uint256",
          "name": "tokenId",
          "type": "uint256"
        },
        {
          "internalType": "bytes",
          "name": "data",
          "type": "bytes"
        }
      ],
      "name": "safeTransferFrom",
      "outputs": [],
      "stateMutability": "nonpayable",
      "type": "function"
    },
    {
      "inputs": [
        {
          "internalType": "address",
          "name": "operator",
          "type": "address"
        },
        {
          "internalType": "bool",
          "name": "approved",
          "type": "bool"
        }
      ],
      "name": "setApprovalForAll",
      "outputs": [],
      "stateMutability": "nonpayable",
      "type": "function"
    },
    {
      "inputs": [
        {
          "internalType": "bytes4",
          "name": "interfaceId",
          "type": "bytes4"
        }
      ],
      "name": "supportsInterface",
      "outputs": [
        {
          "internalType": "bool",
          "name": "",
          "type": "bool"
        }
      ],
      "stateMutability": "view",
      "type": "function",
      "constant": true
    },
    {
      "inputs": [],
      "name": "symbol",
      "outputs": [
        {
          "internalType": "string",
          "name": "",
          "type": "string"
        }
      ],
      "stateMutability": "view",
      "type": "function",
      "constant": true
    },
    {
      "inputs": [
        {
          "internalType": "uint256",
          "name": "tokenId",
          "type": "uint256"
        }
      ],
      "name": "tokenURI",
      "outputs": [
        {
          "internalType": "string",
          "name": "",
          "type": "string"
        }
      ],
      "stateMutability": "view",
      "type": "function",
      "constant": true
    },
    {
      "inputs": [
        {
          "internalType": "address",
          "name": "from",
          "type": "address"
        },
        {
          "internalType": "address",
          "name": "to",
          "type": "address"
        },
        {
          "internalType": "uint256",
          "name": "tokenId",
          "type": "uint256"
        }
      ],
      "name": "transferFrom",
      "outputs": [],
      "stateMutability": "nonpayable",
      "type": "function"
    },
    {
      "inputs": [
        {
          "internalType": "uint256",
          "name": "_listPrice",
          "type": "uint256"
        }
      ],
      "name": "updateListPrice",
      "outputs": [],
      "stateMutability": "payable",
      "type": "function",
      "payable": true
    },
    {
      "inputs": [],
      "name": "getListPrice",
      "outputs": [
        {
          "internalType": "uint256",
          "name": "",
          "type": "uint256"
        }
      ],
      "stateMutability": "view",
      "type": "function",
      "constant": true
    },
    {
      "inputs": [],
      "name": "getLatestIdToListedToken",
      "outputs": [
        {
          "components": [
            {
              "internalType": "uint256",
              "name": "tokenID",
              "type": "uint256"
            },
            {
              "internalType": "address payable",
              "name": "owner",
              "type": "address"
            },
            {
              "internalType": "address payable",
              "name": "seller",
              "type": "address"
            },
            {
              "internalType": "uint256",
              "name": "price",
              "type": "uint256"
            },
            {
              "internalType": "bool",
              "name": "currentlyListed",
              "type": "bool"
            }
          ],
          "internalType": "struct NFTMarketplace.ListedToken",
          "name": "",
          "type": "tuple"
        }
      ],
      "stateMutability": "view",
      "type": "function",
      "constant": true
    },
    {
      "inputs": [
        {
          "internalType": "uint256",
          "name": "tokenId",
          "type": "uint256"
        }
      ],
      "name": "getListedForTokenId",
      "outputs": [
        {
          "components": [
            {
              "internalType": "uint256",
              "name": "tokenID",
              "type": "uint256"
            },
            {
              "internalType": "address payable",
              "name": "owner",
              "type": "address"
            },
            {
              "internalType": "address payable",
              "name": "seller",
              "type": "address"
            },
            {
              "internalType": "uint256",
              "name": "price",
              "type": "uint256"
            },
            {
              "internalType": "bool",
              "name": "currentlyListed",
              "type": "bool"
            }
          ],
          "internalType": "struct NFTMarketplace.ListedToken",
          "name": "",
          "type": "tuple"
        }
      ],
      "stateMutability": "view",
      "type": "function",
      "constant": true
    },
    {
      "inputs": [],
      "name": "getCurrentToken",
      "outputs": [
        {
          "internalType": "uint256",
          "name": "",
          "type": "uint256"
        }
      ],
      "stateMutability": "view",
      "type": "function",
      "constant": true
    },
    {
      "inputs": [
        {
          "internalType": "address",
          "name": "_user",
          "type": "address"
        }
      ],
      "name": "getCardCount",
      "outputs": [
        {
          "internalType": "uint256",
          "name": "",
          "type": "uint256"
        }
      ],
      "stateMutability": "view",
      "type": "function",
      "constant": true
    },
    {
      "inputs": [],
      "name": "getAllCardsCount",
      "outputs": [
        {
          "internalType": "uint256",
          "name": "",
          "type": "uint256"
        }
      ],
      "stateMutability": "view",
      "type": "function",
      "constant": true
    },
    {
      "inputs": [
        {
          "internalType": "address",
          "name": "_to",
          "type": "address"
        },
        {
          "internalType": "uint256",
          "name": "_cardIndex",
          "type": "uint256"
        }
      ],
      "name": "transferCard",
      "outputs": [],
      "stateMutability": "nonpayable",
      "type": "function"
    },
    {
      "inputs": [
        {
          "internalType": "address",
          "name": "_user",
          "type": "address"
        }
      ],
      "name": "getUserCards",
      "outputs": [
        {
          "components": [
            {
              "internalType": "string",
              "name": "name",
              "type": "string"
            },
            {
              "internalType": "uint256",
              "name": "grade",
              "type": "uint256"
            },
            {
              "internalType": "string",
              "name": "condition",
              "type": "string"
            },
            {
              "internalType": "uint256",
              "name": "cardCode",
              "type": "uint256"
            },
            {
              "internalType": "string[]",
              "name": "owners_history",
              "type": "string[]"
            },
            {
              "internalType": "uint256",
              "name": "owners_count",
              "type": "uint256"
            }
          ],
          "internalType": "struct NFTMarketplace.Card[]",
          "name": "",
          "type": "tuple[]"
        }
      ],
      "stateMutability": "view",
      "type": "function",
      "constant": true
    },
    {
      "inputs": [],
      "name": "getAllUserCards",
      "outputs": [
        {
          "components": [
            {
              "internalType": "string",
              "name": "name",
              "type": "string"
            },
            {
              "internalType": "uint256",
              "name": "grade",
              "type": "uint256"
            },
            {
              "internalType": "string",
              "name": "condition",
              "type": "string"
            },
            {
              "internalType": "uint256",
              "name": "cardCode",
              "type": "uint256"
            },
            {
              "internalType": "string[]",
              "name": "owners_history",
              "type": "string[]"
            },
            {
              "internalType": "uint256",
              "name": "owners_count",
              "type": "uint256"
            }
          ],
          "internalType": "struct NFTMarketplace.Card[]",
          "name": "",
          "type": "tuple[]"
        }
      ],
      "stateMutability": "view",
      "type": "function",
      "constant": true
    },
    {
      "inputs": [
        {
          "internalType": "string",
          "name": "tokenURI",
          "type": "string"
        },
        {
          "internalType": "uint256",
          "name": "price",
          "type": "uint256"
        }
      ],
      "name": "createToken",
      "outputs": [
        {
          "internalType": "uint256",
          "name": "",
          "type": "uint256"
        }
      ],
      "stateMutability": "payable",
      "type": "function",
      "payable": true
    },
    {
      "inputs": [
        {
          "internalType": "string",
          "name": "_name",
          "type": "string"
        },
        {
          "internalType": "uint256",
          "name": "_grade",
          "type": "uint256"
        },
        {
          "internalType": "string",
          "name": "_condition",
          "type": "string"
        },
        {
          "internalType": "uint256",
          "name": "_cardCode",
          "type": "uint256"
        }
      ],
      "name": "registerCard",
      "outputs": [],
      "stateMutability": "nonpayable",
      "type": "function"
    },
    {
      "inputs": [],
      "name": "getAllNFTs",
      "outputs": [
        {
          "components": [
            {
              "internalType": "uint256",
              "name": "tokenID",
              "type": "uint256"
            },
            {
              "internalType": "address payable",
              "name": "owner",
              "type": "address"
            },
            {
              "internalType": "address payable",
              "name": "seller",
              "type": "address"
            },
            {
              "internalType": "uint256",
              "name": "price",
              "type": "uint256"
            },
            {
              "internalType": "bool",
              "name": "currentlyListed",
              "type": "bool"
            }
          ],
          "internalType": "struct NFTMarketplace.ListedToken[]",
          "name": "",
          "type": "tuple[]"
        }
      ],
      "stateMutability": "view",
      "type": "function",
      "constant": true
    },
    {
      "inputs": [],
      "name": "getAllMyNFTs",
      "outputs": [
        {
          "components": [
            {
              "internalType": "uint256",
              "name": "tokenID",
              "type": "uint256"
            },
            {
              "internalType": "address payable",
              "name": "owner",
              "type": "address"
            },
            {
              "internalType": "address payable",
              "name": "seller",
              "type": "address"
            },
            {
              "internalType": "uint256",
              "name": "price",
              "type": "uint256"
            },
            {
              "internalType": "bool",
              "name": "currentlyListed",
              "type": "bool"
            }
          ],
          "internalType": "struct NFTMarketplace.ListedToken[]",
          "name": "",
          "type": "tuple[]"
        }
      ],
      "stateMutability": "view",
      "type": "function",
      "constant": true
    },
    {
      "inputs": [
        {
          "internalType": "uint256",
          "name": "tokenId",
          "type": "uint256"
        }
      ],
      "name": "executeSale",
      "outputs": [],
      "stateMutability": "payable",
      "type": "function",
      "payable": true
    }
  ],
  "bytecode": "0x6080604052662386f26fc10000600e553480156200001c57600080fd5b506040518060400160405280600e81526020017f4e4654436f6c6c65637469626c650000000000000000000000000000000000008152506040518060400160405280600481526020017f4e4654430000000000000000000000000000000000000000000000000000000081525081600090816200009a919062000370565b508060019081620000ac919062000370565b50505033600b60006101000a81548173ffffffffffffffffffffffffffffffffffffffff021916908373ffffffffffffffffffffffffffffffffffffffff16021790555062000457565b600081519050919050565b7f4e487b7100000000000000000000000000000000000000000000000000000000600052604160045260246000fd5b7f4e487b7100000000000000000000000000000000000000000000000000000000600052602260045260246000fd5b600060028204905060018216806200017857607f821691505b6020821081036200018e576200018d62000130565b5b50919050565b60008190508160005260206000209050919050565b60006020601f8301049050919050565b600082821b905092915050565b600060088302620001f87fffffffffffffffffffffffffffffffffffffffffffffffffffffffffffffffff82620001b9565b620002048683620001b9565b95508019841693508086168417925050509392505050565b6000819050919050565b6000819050919050565b6000620002516200024b62000245846200021c565b62000226565b6200021c565b9050919050565b6000819050919050565b6200026d8362000230565b620002856200027c8262000258565b848454620001c6565b825550505050565b600090565b6200029c6200028d565b620002a981848462000262565b505050565b5b81811015620002d157620002c560008262000292565b600181019050620002af565b5050565b601f8211156200032057620002ea8162000194565b620002f584620001a9565b8101602085101562000305578190505b6200031d6200031485620001a9565b830182620002ae565b50505b505050565b600082821c905092915050565b6000620003456000198460080262000325565b1980831691505092915050565b600062000360838362000332565b9150826002028217905092915050565b6200037b82620000f6565b67ffffffffffffffff81111562000397576200039662000101565b5b620003a382546200015f565b620003b0828285620002d5565b600060209050601f831160018114620003e85760008415620003d3578287015190505b620003df858262000352565b8655506200044f565b601f198416620003f88662000194565b60005b828110156200042257848901518255600182019150602085019450602081019050620003fb565b868310156200044257848901516200043e601f89168262000332565b8355505b6001600288020188555050505b505050505050565b615f7480620004676000396000f3fe6080604052600436106101b75760003560e01c80639b1225c4116100ec578063c87b56dd1161008a578063dce0b58611610064578063dce0b5861461061b578063e0391b0914610658578063e985e9c514610683578063ef2d1746146106c0576101b7565b8063c87b56dd14610588578063c94f23bf146105c5578063d1a88ae5146105f0576101b7565b8063b2260073116100c6578063b2260073146104ed578063b88d4fde14610518578063c0ab5abc14610541578063c322579c1461056c576101b7565b80639b1225c41461047f5780639b81a3591461049b578063a22cb465146104c4576101b7565b80636352211e1161015957806372b3b6201161013357806372b3b620146103aa57806388d9f40d146103da57806395d89b411461041757806398c3df1614610442576101b7565b80636352211e1461030557806368f1945f1461034257806370a082311461036d576101b7565b8063095ea7b311610195578063095ea7b31461026157806323b872dd1461028a57806342842e0e146102b357806354fadade146102dc576101b7565b806301ffc9a7146101bc57806306fdde03146101f9578063081812fc14610224575b600080fd5b3480156101c857600080fd5b506101e360048036038101906101de9190614200565b6106eb565b6040516101f09190614248565b60405180910390f35b34801561020557600080fd5b5061020e61074c565b60405161021b91906142f3565b60405180910390f35b34801561023057600080fd5b5061024b6004803603810190610246919061434b565b6107de565b60405161025891906143b9565b60405180910390f35b34801561026d57600080fd5b5061028860048036038101906102839190614400565b610824565b005b34801561029657600080fd5b506102b160048036038101906102ac9190614440565b61093b565b005b3480156102bf57600080fd5b506102da60048036038101906102d59190614440565b61099b565b005b3480156102e857600080fd5b5061030360048036038101906102fe91906145c8565b6109bb565b005b34801561031157600080fd5b5061032c6004803603810190610327919061434b565b610c9d565b60405161033991906143b9565b60405180910390f35b34801561034e57600080fd5b50610357610d23565b6040516103649190614676565b60405180910390f35b34801561037957600080fd5b50610394600480360381019061038f9190614691565b610d2d565b6040516103a19190614676565b60405180910390f35b6103c460048036038101906103bf91906146be565b610de4565b6040516103d19190614676565b60405180910390f35b3480156103e657600080fd5b5061040160048036038101906103fc9190614691565b610e26565b60405161040e919061498e565b60405180910390f35b34801561042357600080fd5b5061042c6110df565b60405161043991906142f3565b60405180910390f35b34801561044e57600080fd5b506104696004803603810190610464919061434b565b611171565b6040516104769190614a48565b60405180910390f35b6104996004803603810190610494919061434b565b611279565b005b3480156104a757600080fd5b506104c260048036038101906104bd9190614400565b611461565b005b3480156104d057600080fd5b506104eb60048036038101906104e69190614a8f565b611bc3565b005b3480156104f957600080fd5b50610502611bd9565b60405161050f9190614676565b60405180910390f35b34801561052457600080fd5b5061053f600480360381019061053a9190614b70565b611be3565b005b34801561054d57600080fd5b50610556611c45565b6040516105639190614d0a565b60405180910390f35b6105866004803603810190610581919061434b565b612026565b005b34801561059457600080fd5b506105af60048036038101906105aa919061434b565b6120c0565b6040516105bc91906142f3565b60405180910390f35b3480156105d157600080fd5b506105da6121d2565b6040516105e7919061498e565b60405180910390f35b3480156105fc57600080fd5b5061060561244c565b6040516106129190614a48565b60405180910390f35b34801561062757600080fd5b50610642600480360381019061063d9190614691565b612561565b60405161064f9190614676565b60405180910390f35b34801561066457600080fd5b5061066d6125aa565b60405161067a9190614d0a565b60405180910390f35b34801561068f57600080fd5b506106aa60048036038101906106a59190614d2c565b612779565b6040516106b79190614248565b60405180910390f35b3480156106cc57600080fd5b506106d561280d565b6040516106e29190614676565b60405180910390f35b6000634906490660e01b7bffffffffffffffffffffffffffffffffffffffffffffffffffffffff1916827bffffffffffffffffffffffffffffffffffffffffffffffffffffffff1916148061074557506107448261281e565b5b9050919050565b60606000805461075b90614d9b565b80601f016020809104026020016040519081016040528092919081815260200182805461078790614d9b565b80156107d45780601f106107a9576101008083540402835291602001916107d4565b820191906000526020600020905b8154815290600101906020018083116107b757829003601f168201915b5050505050905090565b60006107e982612900565b6004600083815260200190815260200160002060009054906101000a900473ffffffffffffffffffffffffffffffffffffffff169050919050565b600061082f82610c9d565b90508073ffffffffffffffffffffffffffffffffffffffff168373ffffffffffffffffffffffffffffffffffffffff160361089f576040517f08c379a000000000000000000000000000000000000000000000000000000000815260040161089690614e3e565b60405180910390fd5b8073ffffffffffffffffffffffffffffffffffffffff166108be61294b565b73ffffffffffffffffffffffffffffffffffffffff1614806108ed57506108ec816108e761294b565b612779565b5b61092c576040517f08c379a000000000000000000000000000000000000000000000000000000000815260040161092390614ed0565b60405180910390fd5b6109368383612953565b505050565b61094c61094661294b565b82612a0c565b61098b576040517f08c379a000000000000000000000000000000000000000000000000000000000815260040161098290614f62565b60405180910390fd5b610996838383612aa1565b505050565b6109b683838360405180602001604052806000815250611be3565b505050565b6000600167ffffffffffffffff8111156109d8576109d761449d565b5b604051908082528060200260200182016040528015610a0b57816020015b60608152602001906001900390816109f65790505b509050610a1733612d9a565b81600081518110610a2b57610a2a614f82565b5b602002602001018190525060006040518060c0016040528087815260200186815260200185815260200184815260200183815260200160018152509050600760003373ffffffffffffffffffffffffffffffffffffffff1673ffffffffffffffffffffffffffffffffffffffff1681526020019081526020016000208190806001815401808255809150506001900390600052602060002090600602016000909190919091506000820151816000019081610ae6919061515d565b50602082015181600101556040820151816002019081610b06919061515d565b50606082015181600301556080820151816004019080519060200190610b2d929190613fdf565b5060a082015181600501555050600860003373ffffffffffffffffffffffffffffffffffffffff1673ffffffffffffffffffffffffffffffffffffffff1681526020019081526020016000206000815480929190610b8a9061525e565b919050555060098190806001815401808255809150506001900390600052602060002090600602016000909190919091506000820151816000019081610bd0919061515d565b50602082015181600101556040820151816002019081610bf0919061515d565b50606082015181600301556080820151816004019080519060200190610c17929190613fdf565b5060a082015181600501555050600a6000815480929190610c379061525e565b91905055503373ffffffffffffffffffffffffffffffffffffffff167f408e409fecc49505bbf52289698e61b3371b949d8a005a30020701b4f4d33ff987878787876001604051610c8d96959493929190615367565b60405180910390a2505050505050565b600080610ca9836130a5565b9050600073ffffffffffffffffffffffffffffffffffffffff168173ffffffffffffffffffffffffffffffffffffffff1603610d1a576040517f08c379a0000000000000000000000000000000000000000000000000000000008152600401610d1190615429565b60405180910390fd5b80915050919050565b6000600e54905090565b60008073ffffffffffffffffffffffffffffffffffffffff168273ffffffffffffffffffffffffffffffffffffffff1603610d9d576040517f08c379a0000000000000000000000000000000000000000000000000000000008152600401610d94906154bb565b60405180910390fd5b600360008373ffffffffffffffffffffffffffffffffffffffff1673ffffffffffffffffffffffffffffffffffffffff168152602001908152602001600020549050919050565b6000610df0600c6130e2565b6000610dfc600c6130f8565b9050610e083382613106565b610e128185613124565b610e1c81846131c8565b8091505092915050565b6060600760008373ffffffffffffffffffffffffffffffffffffffff1673ffffffffffffffffffffffffffffffffffffffff168152602001908152602001600020805480602002602001604051908101604052809291908181526020016000905b828210156110d457838290600052602060002090600602016040518060c0016040529081600082018054610eba90614d9b565b80601f0160208091040260200160405190810160405280929190818152602001828054610ee690614d9b565b8015610f335780601f10610f0857610100808354040283529160200191610f33565b820191906000526020600020905b815481529060010190602001808311610f1657829003601f168201915b5050505050815260200160018201548152602001600282018054610f5690614d9b565b80601f0160208091040260200160405190810160405280929190818152602001828054610f8290614d9b565b8015610fcf5780601f10610fa457610100808354040283529160200191610fcf565b820191906000526020600020905b815481529060010190602001808311610fb257829003601f168201915b505050505081526020016003820154815260200160048201805480602002602001604051908101604052809291908181526020016000905b828210156110b357838290600052602060002001805461102690614d9b565b80601f016020809104026020016040519081016040528092919081815260200182805461105290614d9b565b801561109f5780601f106110745761010080835404028352916020019161109f565b820191906000526020600020905b81548152906001019060200180831161108257829003601f168201915b505050505081526020019060010190611007565b50505050815260200160058201548152505081526020019060010190610e87565b505050509050919050565b6060600180546110ee90614d9b565b80601f016020809104026020016040519081016040528092919081815260200182805461111a90614d9b565b80156111675780601f1061113c57610100808354040283529160200191611167565b820191906000526020600020905b81548152906001019060200180831161114a57829003601f168201915b5050505050905090565b611179614038565b600f60008381526020019081526020016000206040518060a0016040529081600082015481526020016001820160009054906101000a900473ffffffffffffffffffffffffffffffffffffffff1673ffffffffffffffffffffffffffffffffffffffff1673ffffffffffffffffffffffffffffffffffffffff1681526020016002820160009054906101000a900473ffffffffffffffffffffffffffffffffffffffff1673ffffffffffffffffffffffffffffffffffffffff1673ffffffffffffffffffffffffffffffffffffffff168152602001600382015481526020016004820160009054906101000a900460ff1615151515815250509050919050565b6000600f60008381526020019081526020016000206003015490506000600f600084815260200190815260200160002060020160009054906101000a900473ffffffffffffffffffffffffffffffffffffffff169050813414611311576040517f08c379a00000000000000000000000000000000000000000000000000000000081526004016113089061554d565b60405180910390fd5b6001600f600085815260200190815260200160002060040160006101000a81548160ff02191690831515021790555033600f600085815260200190815260200160002060020160006101000a81548173ffffffffffffffffffffffffffffffffffffffff021916908373ffffffffffffffffffffffffffffffffffffffff1602179055506113a0303385612aa1565b6113aa3084610824565b600b60009054906101000a900473ffffffffffffffffffffffffffffffffffffffff1673ffffffffffffffffffffffffffffffffffffffff166108fc600e549081150290604051600060405180830381858888f19350505050158015611414573d6000803e3d6000fd5b508073ffffffffffffffffffffffffffffffffffffffff166108fc349081150290604051600060405180830381858888f1935050505015801561145b573d6000803e3d6000fd5b50505050565b600760003373ffffffffffffffffffffffffffffffffffffffff1673ffffffffffffffffffffffffffffffffffffffff1681526020019081526020016000208054905081106114e5576040517f08c379a00000000000000000000000000000000000000000000000000000000081526004016114dc906155b9565b60405180910390fd5b600760003373ffffffffffffffffffffffffffffffffffffffff1673ffffffffffffffffffffffffffffffffffffffff168152602001908152602001600020818154811061153657611535614f82565b5b906000526020600020906006020160040161155083612d9a565b908060018154018082558091505060019003906000526020600020016000909190919091509081611581919061515d565b50600760003373ffffffffffffffffffffffffffffffffffffffff1673ffffffffffffffffffffffffffffffffffffffff16815260200190815260200160002081815481106115d3576115d2614f82565b5b906000526020600020906006020160050160008154809291906115f59061525e565b91905055506000600760003373ffffffffffffffffffffffffffffffffffffffff1673ffffffffffffffffffffffffffffffffffffffff168152602001908152602001600020828154811061164d5761164c614f82565b5b906000526020600020906006020160030154905060005b600a5481101561174957816009828154811061168357611682614f82565b5b9060005260206000209060060201600301540361173657600981815481106116ae576116ad614f82565b5b90600052602060002090600602016004016116c885612d9a565b9080600181540180825580915050600190039060005260206000200160009091909190915090816116f9919061515d565b506009818154811061170e5761170d614f82565b5b906000526020600020906006020160050160008154809291906117309061525e565b91905055505b80806117419061525e565b915050611664565b506000600760003373ffffffffffffffffffffffffffffffffffffffff1673ffffffffffffffffffffffffffffffffffffffff168152602001908152602001600020838154811061179d5761179c614f82565b5b90600052602060002090600602016040518060c00160405290816000820180546117c690614d9b565b80601f01602080910402602001604051908101604052809291908181526020018280546117f290614d9b565b801561183f5780601f106118145761010080835404028352916020019161183f565b820191906000526020600020905b81548152906001019060200180831161182257829003601f168201915b505050505081526020016001820154815260200160028201805461186290614d9b565b80601f016020809104026020016040519081016040528092919081815260200182805461188e90614d9b565b80156118db5780601f106118b0576101008083540402835291602001916118db565b820191906000526020600020905b8154815290600101906020018083116118be57829003601f168201915b505050505081526020016003820154815260200160048201805480602002602001604051908101604052809291908181526020016000905b828210156119bf57838290600052602060002001805461193290614d9b565b80601f016020809104026020016040519081016040528092919081815260200182805461195e90614d9b565b80156119ab5780601f10611980576101008083540402835291602001916119ab565b820191906000526020600020905b81548152906001019060200180831161198e57829003601f168201915b505050505081526020019060010190611913565b5050505081526020016005820154815250509050600760008573ffffffffffffffffffffffffffffffffffffffff1673ffffffffffffffffffffffffffffffffffffffff1681526020019081526020016000208190806001815401808255809150506001900390600052602060002090600602016000909190919091506000820151816000019081611a51919061515d565b50602082015181600101556040820151816002019081611a71919061515d565b50606082015181600301556080820151816004019080519060200190611a98929190613fdf565b5060a082015181600501555050600860003373ffffffffffffffffffffffffffffffffffffffff1673ffffffffffffffffffffffffffffffffffffffff1681526020019081526020016000206000815480929190611af5906155d9565b9190505550600860008573ffffffffffffffffffffffffffffffffffffffff1673ffffffffffffffffffffffffffffffffffffffff1681526020019081526020016000206000815480929190611b4a9061525e565b9190505550611b58836133cb565b8373ffffffffffffffffffffffffffffffffffffffff163373ffffffffffffffffffffffffffffffffffffffff167f08c7dc9c65cfe0a446c6b662ec2e35c1966d49c8c50f8a4b78a7e2e0c68217c485604051611bb59190614676565b60405180910390a350505050565b611bd5611bce61294b565b838361369e565b5050565b6000600a54905090565b611bf4611bee61294b565b83612a0c565b611c33576040517f08c379a0000000000000000000000000000000000000000000000000000000008152600401611c2a90614f62565b60405180910390fd5b611c3f8484848461380a565b50505050565b60606000611c53600c6130f8565b9050600080600080600090505b84811015611d79573373ffffffffffffffffffffffffffffffffffffffff16600f6000600184611c909190615602565b815260200190815260200160002060010160009054906101000a900473ffffffffffffffffffffffffffffffffffffffff1673ffffffffffffffffffffffffffffffffffffffff161480611d5157503373ffffffffffffffffffffffffffffffffffffffff16600f6000600184611d079190615602565b815260200190815260200160002060020160009054906101000a900473ffffffffffffffffffffffffffffffffffffffff1673ffffffffffffffffffffffffffffffffffffffff16145b15611d6657600184611d639190615602565b93505b8080611d719061525e565b915050611c60565b5060008367ffffffffffffffff811115611d9657611d9561449d565b5b604051908082528060200260200182016040528015611dcf57816020015b611dbc614038565b815260200190600190039081611db45790505b50905060005b8581101561201a573373ffffffffffffffffffffffffffffffffffffffff16600f6000600184611e059190615602565b815260200190815260200160002060010160009054906101000a900473ffffffffffffffffffffffffffffffffffffffff1673ffffffffffffffffffffffffffffffffffffffff161480611ec657503373ffffffffffffffffffffffffffffffffffffffff16600f6000600184611e7c9190615602565b815260200190815260200160002060020160009054906101000a900473ffffffffffffffffffffffffffffffffffffffff1673ffffffffffffffffffffffffffffffffffffffff16145b1561200757600181611ed89190615602565b92506000600f60008581526020019081526020016000209050806040518060a0016040529081600082015481526020016001820160009054906101000a900473ffffffffffffffffffffffffffffffffffffffff1673ffffffffffffffffffffffffffffffffffffffff1673ffffffffffffffffffffffffffffffffffffffff1681526020016002820160009054906101000a900473ffffffffffffffffffffffffffffffffffffffff1673ffffffffffffffffffffffffffffffffffffffff1673ffffffffffffffffffffffffffffffffffffffff168152602001600382015481526020016004820160009054906101000a900460ff161515151581525050838681518110611feb57611fea614f82565b5b60200260200101819052506001856120039190615602565b9450505b80806120129061525e565b915050611dd5565b50809550505050505090565b3373ffffffffffffffffffffffffffffffffffffffff16600b60009054906101000a900473ffffffffffffffffffffffffffffffffffffffff1673ffffffffffffffffffffffffffffffffffffffff16146120b6576040517f08c379a00000000000000000000000000000000000000000000000000000000081526004016120ad906156a8565b60405180910390fd5b80600e8190555050565b60606120cb82612900565b60006006600084815260200190815260200160002080546120eb90614d9b565b80601f016020809104026020016040519081016040528092919081815260200182805461211790614d9b565b80156121645780601f1061213957610100808354040283529160200191612164565b820191906000526020600020905b81548152906001019060200180831161214757829003601f168201915b505050505090506000612175613866565b9050600081510361218a5781925050506121cd565b6000825111156121bf5780826040516020016121a7929190615704565b604051602081830303815290604052925050506121cd565b6121c88461387d565b925050505b919050565b60606009805480602002602001604051908101604052809291908181526020016000905b8282101561244357838290600052602060002090600602016040518060c001604052908160008201805461222990614d9b565b80601f016020809104026020016040519081016040528092919081815260200182805461225590614d9b565b80156122a25780601f10612277576101008083540402835291602001916122a2565b820191906000526020600020905b81548152906001019060200180831161228557829003601f168201915b50505050508152602001600182015481526020016002820180546122c590614d9b565b80601f01602080910402602001604051908101604052809291908181526020018280546122f190614d9b565b801561233e5780601f106123135761010080835404028352916020019161233e565b820191906000526020600020905b81548152906001019060200180831161232157829003601f168201915b505050505081526020016003820154815260200160048201805480602002602001604051908101604052809291908181526020016000905b8282101561242257838290600052602060002001805461239590614d9b565b80601f01602080910402602001604051908101604052809291908181526020018280546123c190614d9b565b801561240e5780601f106123e35761010080835404028352916020019161240e565b820191906000526020600020905b8154815290600101906020018083116123f157829003601f168201915b505050505081526020019060010190612376565b505050508152602001600582015481525050815260200190600101906121f6565b50505050905090565b612454614038565b6000612460600c6130f8565b9050600f60008281526020019081526020016000206040518060a0016040529081600082015481526020016001820160009054906101000a900473ffffffffffffffffffffffffffffffffffffffff1673ffffffffffffffffffffffffffffffffffffffff1673ffffffffffffffffffffffffffffffffffffffff1681526020016002820160009054906101000a900473ffffffffffffffffffffffffffffffffffffffff1673ffffffffffffffffffffffffffffffffffffffff1673ffffffffffffffffffffffffffffffffffffffff168152602001600382015481526020016004820160009054906101000a900460ff16151515158152505091505090565b6000600860008373ffffffffffffffffffffffffffffffffffffffff1673ffffffffffffffffffffffffffffffffffffffff168152602001908152602001600020549050919050565b606060006125b8600c6130f8565b905060008167ffffffffffffffff8111156125d6576125d561449d565b5b60405190808252806020026020018201604052801561260f57816020015b6125fc614038565b8152602001906001900390816125f45790505b5090506000805b8381101561276f57600060018261262d9190615602565b90506000600f60008381526020019081526020016000209050806040518060a0016040529081600082015481526020016001820160009054906101000a900473ffffffffffffffffffffffffffffffffffffffff1673ffffffffffffffffffffffffffffffffffffffff1673ffffffffffffffffffffffffffffffffffffffff1681526020016002820160009054906101000a900473ffffffffffffffffffffffffffffffffffffffff1673ffffffffffffffffffffffffffffffffffffffff1673ffffffffffffffffffffffffffffffffffffffff168152602001600382015481526020016004820160009054906101000a900460ff1615151515815250508585815181106127405761273f614f82565b5b60200260200101819052506001846127589190615602565b9350505080806127679061525e565b915050612616565b5081935050505090565b6000600560008473ffffffffffffffffffffffffffffffffffffffff1673ffffffffffffffffffffffffffffffffffffffff16815260200190815260200160002060008373ffffffffffffffffffffffffffffffffffffffff1673ffffffffffffffffffffffffffffffffffffffff16815260200190815260200160002060009054906101000a900460ff16905092915050565b6000612819600c6130f8565b905090565b60007f80ac58cd000000000000000000000000000000000000000000000000000000007bffffffffffffffffffffffffffffffffffffffffffffffffffffffff1916827bffffffffffffffffffffffffffffffffffffffffffffffffffffffff191614806128e957507f5b5e139f000000000000000000000000000000000000000000000000000000007bffffffffffffffffffffffffffffffffffffffffffffffffffffffff1916827bffffffffffffffffffffffffffffffffffffffffffffffffffffffff1916145b806128f957506128f8826138e5565b5b9050919050565b6129098161394f565b612948576040517f08c379a000000000000000000000000000000000000000000000000000000000815260040161293f90615429565b60405180910390fd5b50565b600033905090565b816004600083815260200190815260200160002060006101000a81548173ffffffffffffffffffffffffffffffffffffffff021916908373ffffffffffffffffffffffffffffffffffffffff160217905550808273ffffffffffffffffffffffffffffffffffffffff166129c683610c9d565b73ffffffffffffffffffffffffffffffffffffffff167f8c5be1e5ebec7d5bd14f71427d1e84f3dd0314c0f7b2291e5b200ac8c7c3b92560405160405180910390a45050565b600080612a1883610c9d565b90508073ffffffffffffffffffffffffffffffffffffffff168473ffffffffffffffffffffffffffffffffffffffff161480612a5a5750612a598185612779565b5b80612a9857508373ffffffffffffffffffffffffffffffffffffffff16612a80846107de565b73ffffffffffffffffffffffffffffffffffffffff16145b91505092915050565b8273ffffffffffffffffffffffffffffffffffffffff16612ac182610c9d565b73ffffffffffffffffffffffffffffffffffffffff1614612b17576040517f08c379a0000000000000000000000000000000000000000000000000000000008152600401612b0e9061579a565b60405180910390fd5b600073ffffffffffffffffffffffffffffffffffffffff168273ffffffffffffffffffffffffffffffffffffffff1603612b86576040517f08c379a0000000000000000000000000000000000000000000000000000000008152600401612b7d9061582c565b60405180910390fd5b612b938383836001613990565b8273ffffffffffffffffffffffffffffffffffffffff16612bb382610c9d565b73ffffffffffffffffffffffffffffffffffffffff1614612c09576040517f08c379a0000000000000000000000000000000000000000000000000000000008152600401612c009061579a565b60405180910390fd5b6004600082815260200190815260200160002060006101000a81549073ffffffffffffffffffffffffffffffffffffffff02191690556001600360008573ffffffffffffffffffffffffffffffffffffffff1673ffffffffffffffffffffffffffffffffffffffff168152602001908152602001600020600082825403925050819055506001600360008473ffffffffffffffffffffffffffffffffffffffff1673ffffffffffffffffffffffffffffffffffffffff16815260200190815260200160002060008282540192505081905550816002600083815260200190815260200160002060006101000a81548173ffffffffffffffffffffffffffffffffffffffff021916908373ffffffffffffffffffffffffffffffffffffffff160217905550808273ffffffffffffffffffffffffffffffffffffffff168473ffffffffffffffffffffffffffffffffffffffff167fddf252ad1be2c89b69c2b068fc378daa952ba7f163c4a11628f55a4df523b3ef60405160405180910390a4612d958383836001613996565b505050565b606060008273ffffffffffffffffffffffffffffffffffffffff1660001b905060006040518060400160405280601081526020017f303132333435363738396162636465660000000000000000000000000000000081525090506000602a67ffffffffffffffff811115612e1157612e1061449d565b5b6040519080825280601f01601f191660200182016040528015612e435781602001600182028036833780820191505090505b5090507f300000000000000000000000000000000000000000000000000000000000000081600081518110612e7b57612e7a614f82565b5b60200101907effffffffffffffffffffffffffffffffffffffffffffffffffffffffffffff1916908160001a9053507f780000000000000000000000000000000000000000000000000000000000000081600181518110612edf57612ede614f82565b5b60200101907effffffffffffffffffffffffffffffffffffffffffffffffffffffffffffff1916908160001a90535060005b60148110156130995782600485600c84612f2b9190615602565b60208110612f3c57612f3b614f82565b5b1a60f81b7effffffffffffffffffffffffffffffffffffffffffffffffffffffffffffff1916901c60f81c60ff1681518110612f7b57612f7a614f82565b5b602001015160f81c60f81b82600283612f94919061584c565b6002612fa09190615602565b81518110612fb157612fb0614f82565b5b60200101907effffffffffffffffffffffffffffffffffffffffffffffffffffffffffffff1916908160001a90535082600f60f81b85600c84612ff49190615602565b6020811061300557613004614f82565b5b1a60f81b1660f81c60ff168151811061302157613020614f82565b5b602001015160f81c60f81b8260028361303a919061584c565b60036130469190615602565b8151811061305757613056614f82565b5b60200101907effffffffffffffffffffffffffffffffffffffffffffffffffffffffffffff1916908160001a90535080806130919061525e565b915050612f11565b50809350505050919050565b60006002600083815260200190815260200160002060009054906101000a900473ffffffffffffffffffffffffffffffffffffffff169050919050565b6001816000016000828254019250508190555050565b600081600001549050919050565b61312082826040518060200160405280600081525061399c565b5050565b61312d8261394f565b61316c576040517f08c379a000000000000000000000000000000000000000000000000000000000815260040161316390615900565b60405180910390fd5b8060066000848152602001908152602001600020908161318c919061515d565b507ff8e1a15aba9398e019f0b49df1a4fde98ee17ae345cb5f6b5e2c27f5033e8ce7826040516131bc9190614676565b60405180910390a15050565b600e54341461320c576040517f08c379a000000000000000000000000000000000000000000000000000000000815260040161320390615992565b60405180910390fd5b6000811161324f576040517f08c379a000000000000000000000000000000000000000000000000000000000815260040161324690615a24565b60405180910390fd5b6040518060a001604052808381526020013073ffffffffffffffffffffffffffffffffffffffff1681526020013373ffffffffffffffffffffffffffffffffffffffff16815260200182815260200160011515815250600f60008481526020019081526020016000206000820151816000015560208201518160010160006101000a81548173ffffffffffffffffffffffffffffffffffffffff021916908373ffffffffffffffffffffffffffffffffffffffff16021790555060408201518160020160006101000a81548173ffffffffffffffffffffffffffffffffffffffff021916908373ffffffffffffffffffffffffffffffffffffffff1602179055506060820151816003015560808201518160040160006101000a81548160ff021916908315150217905550905050613388333084612aa1565b817f9339409317fd01fabff48b703019016f49159bacc801ae872d2ca637d226e4c030338460016040516133bf9493929190615a44565b60405180910390a25050565b600760003373ffffffffffffffffffffffffffffffffffffffff1673ffffffffffffffffffffffffffffffffffffffff16815260200190815260200160002080549050811061344f576040517f08c379a000000000000000000000000000000000000000000000000000000000815260040161344690615ad5565b60405180910390fd5b60008190505b6001600760003373ffffffffffffffffffffffffffffffffffffffff1673ffffffffffffffffffffffffffffffffffffffff168152602001908152602001600020805490506134a49190615af5565b8110156135ea57600760003373ffffffffffffffffffffffffffffffffffffffff1673ffffffffffffffffffffffffffffffffffffffff1681526020019081526020016000206001826134f79190615602565b8154811061350857613507614f82565b5b9060005260206000209060060201600760003373ffffffffffffffffffffffffffffffffffffffff1673ffffffffffffffffffffffffffffffffffffffff168152602001908152602001600020828154811061356757613566614f82565b5b9060005260206000209060060201600082018160000190816135899190615b3f565b5060018201548160010155600282018160020190816135a89190615b3f565b506003820154816003015560048201816004019080546135c9929190614095565b506005820154816005015590505080806135e29061525e565b915050613455565b50600760003373ffffffffffffffffffffffffffffffffffffffff1673ffffffffffffffffffffffffffffffffffffffff16815260200190815260200160002080548061363a57613639615c27565b5b60019003818190600052602060002090600602016000808201600061365f91906140f2565b600182016000905560028201600061367791906140f2565b600382016000905560048201600061368f9190614132565b60058201600090555050905550565b8173ffffffffffffffffffffffffffffffffffffffff168373ffffffffffffffffffffffffffffffffffffffff160361370c576040517f08c379a000000000000000000000000000000000000000000000000000000000815260040161370390615ca2565b60405180910390fd5b80600560008573ffffffffffffffffffffffffffffffffffffffff1673ffffffffffffffffffffffffffffffffffffffff16815260200190815260200160002060008473ffffffffffffffffffffffffffffffffffffffff1673ffffffffffffffffffffffffffffffffffffffff16815260200190815260200160002060006101000a81548160ff0219169083151502179055508173ffffffffffffffffffffffffffffffffffffffff168373ffffffffffffffffffffffffffffffffffffffff167f17307eab39ab6107e8899845ad3d59bd9653f200f220920489ca2b5937696c31836040516137fd9190614248565b60405180910390a3505050565b613815848484612aa1565b613821848484846139f7565b613860576040517f08c379a000000000000000000000000000000000000000000000000000000000815260040161385790615d34565b60405180910390fd5b50505050565b606060405180602001604052806000815250905090565b606061388882612900565b6000613892613866565b905060008151116138b257604051806020016040528060008152506138dd565b806138bc84613b7e565b6040516020016138cd929190615704565b6040516020818303038152906040525b915050919050565b60007f01ffc9a7000000000000000000000000000000000000000000000000000000007bffffffffffffffffffffffffffffffffffffffffffffffffffffffff1916827bffffffffffffffffffffffffffffffffffffffffffffffffffffffff1916149050919050565b60008073ffffffffffffffffffffffffffffffffffffffff16613971836130a5565b73ffffffffffffffffffffffffffffffffffffffff1614159050919050565b50505050565b50505050565b6139a68383613c4c565b6139b360008484846139f7565b6139f2576040517f08c379a00000000000000000000000000000000000000000000000000000000081526004016139e990615d34565b60405180910390fd5b505050565b6000613a188473ffffffffffffffffffffffffffffffffffffffff16613e69565b15613b71578373ffffffffffffffffffffffffffffffffffffffff1663150b7a02613a4161294b565b8786866040518563ffffffff1660e01b8152600401613a639493929190615da9565b6020604051808303816000875af1925050508015613a9f57506040513d601f19601f82011682018060405250810190613a9c9190615e0a565b60015b613b21573d8060008114613acf576040519150601f19603f3d011682016040523d82523d6000602084013e613ad4565b606091505b506000815103613b19576040517f08c379a0000000000000000000000000000000000000000000000000000000008152600401613b1090615d34565b60405180910390fd5b805181602001fd5b63150b7a0260e01b7bffffffffffffffffffffffffffffffffffffffffffffffffffffffff1916817bffffffffffffffffffffffffffffffffffffffffffffffffffffffff191614915050613b76565b600190505b949350505050565b606060006001613b8d84613e8c565b01905060008167ffffffffffffffff811115613bac57613bab61449d565b5b6040519080825280601f01601f191660200182016040528015613bde5781602001600182028036833780820191505090505b509050600082602001820190505b600115613c41578080600190039150507f3031323334353637383961626364656600000000000000000000000000000000600a86061a8153600a8581613c3557613c34615e37565b5b04945060008503613bec575b819350505050919050565b600073ffffffffffffffffffffffffffffffffffffffff168273ffffffffffffffffffffffffffffffffffffffff1603613cbb576040517f08c379a0000000000000000000000000000000000000000000000000000000008152600401613cb290615eb2565b60405180910390fd5b613cc48161394f565b15613d04576040517f08c379a0000000000000000000000000000000000000000000000000000000008152600401613cfb90615f1e565b60405180910390fd5b613d12600083836001613990565b613d1b8161394f565b15613d5b576040517f08c379a0000000000000000000000000000000000000000000000000000000008152600401613d5290615f1e565b60405180910390fd5b6001600360008473ffffffffffffffffffffffffffffffffffffffff1673ffffffffffffffffffffffffffffffffffffffff16815260200190815260200160002060008282540192505081905550816002600083815260200190815260200160002060006101000a81548173ffffffffffffffffffffffffffffffffffffffff021916908373ffffffffffffffffffffffffffffffffffffffff160217905550808273ffffffffffffffffffffffffffffffffffffffff16600073ffffffffffffffffffffffffffffffffffffffff167fddf252ad1be2c89b69c2b068fc378daa952ba7f163c4a11628f55a4df523b3ef60405160405180910390a4613e65600083836001613996565b5050565b6000808273ffffffffffffffffffffffffffffffffffffffff163b119050919050565b600080600090507a184f03e93ff9f4daa797ed6e38ed64bf6a1f0100000000000000008310613eea577a184f03e93ff9f4daa797ed6e38ed64bf6a1f0100000000000000008381613ee057613edf615e37565b5b0492506040810190505b6d04ee2d6d415b85acef81000000008310613f27576d04ee2d6d415b85acef81000000008381613f1d57613f1c615e37565b5b0492506020810190505b662386f26fc100008310613f5657662386f26fc100008381613f4c57613f4b615e37565b5b0492506010810190505b6305f5e1008310613f7f576305f5e1008381613f7557613f74615e37565b5b0492506008810190505b6127108310613fa4576127108381613f9a57613f99615e37565b5b0492506004810190505b60648310613fc75760648381613fbd57613fbc615e37565b5b0492506002810190505b600a8310613fd6576001810190505b80915050919050565b828054828255906000526020600020908101928215614027579160200282015b82811115614026578251829081614016919061515d565b5091602001919060010190613fff565b5b5090506140349190614153565b5090565b6040518060a0016040528060008152602001600073ffffffffffffffffffffffffffffffffffffffff168152602001600073ffffffffffffffffffffffffffffffffffffffff168152602001600081526020016000151581525090565b8280548282559060005260206000209081019282156140e15760005260206000209182015b828111156140e057828290816140d09190615b3f565b50916001019190600101906140ba565b5b5090506140ee9190614153565b5090565b5080546140fe90614d9b565b6000825580601f10614110575061412f565b601f01602090049060005260206000209081019061412e9190614177565b5b50565b50805460008255906000526020600020908101906141509190614153565b50565b5b80821115614173576000818161416a91906140f2565b50600101614154565b5090565b5b80821115614190576000816000905550600101614178565b5090565b6000604051905090565b600080fd5b600080fd5b60007fffffffff0000000000000000000000000000000000000000000000000000000082169050919050565b6141dd816141a8565b81146141e857600080fd5b50565b6000813590506141fa816141d4565b92915050565b6000602082840312156142165761421561419e565b5b6000614224848285016141eb565b91505092915050565b60008115159050919050565b6142428161422d565b82525050565b600060208201905061425d6000830184614239565b92915050565b600081519050919050565b600082825260208201905092915050565b60005b8381101561429d578082015181840152602081019050614282565b60008484015250505050565b6000601f19601f8301169050919050565b60006142c582614263565b6142cf818561426e565b93506142df81856020860161427f565b6142e8816142a9565b840191505092915050565b6000602082019050818103600083015261430d81846142ba565b905092915050565b6000819050919050565b61432881614315565b811461433357600080fd5b50565b6000813590506143458161431f565b92915050565b6000602082840312156143615761436061419e565b5b600061436f84828501614336565b91505092915050565b600073ffffffffffffffffffffffffffffffffffffffff82169050919050565b60006143a382614378565b9050919050565b6143b381614398565b82525050565b60006020820190506143ce60008301846143aa565b92915050565b6143dd81614398565b81146143e857600080fd5b50565b6000813590506143fa816143d4565b92915050565b600080604083850312156144175761441661419e565b5b6000614425858286016143eb565b925050602061443685828601614336565b9150509250929050565b6000806000606084860312156144595761445861419e565b5b6000614467868287016143eb565b9350506020614478868287016143eb565b925050604061448986828701614336565b9150509250925092565b600080fd5b600080fd5b7f4e487b7100000000000000000000000000000000000000000000000000000000600052604160045260246000fd5b6144d5826142a9565b810181811067ffffffffffffffff821117156144f4576144f361449d565b5b80604052505050565b6000614507614194565b905061451382826144cc565b919050565b600067ffffffffffffffff8211156145335761453261449d565b5b61453c826142a9565b9050602081019050919050565b82818337600083830152505050565b600061456b61456684614518565b6144fd565b90508281526020810184848401111561458757614586614498565b5b614592848285614549565b509392505050565b600082601f8301126145af576145ae614493565b5b81356145bf848260208601614558565b91505092915050565b600080600080608085870312156145e2576145e161419e565b5b600085013567ffffffffffffffff811115614600576145ff6141a3565b5b61460c8782880161459a565b945050602061461d87828801614336565b935050604085013567ffffffffffffffff81111561463e5761463d6141a3565b5b61464a8782880161459a565b925050606061465b87828801614336565b91505092959194509250565b61467081614315565b82525050565b600060208201905061468b6000830184614667565b92915050565b6000602082840312156146a7576146a661419e565b5b60006146b5848285016143eb565b91505092915050565b600080604083850312156146d5576146d461419e565b5b600083013567ffffffffffffffff8111156146f3576146f26141a3565b5b6146ff8582860161459a565b925050602061471085828601614336565b9150509250929050565b600081519050919050565b600082825260208201905092915050565b6000819050602082019050919050565b600082825260208201905092915050565b600061476282614263565b61476c8185614746565b935061477c81856020860161427f565b614785816142a9565b840191505092915050565b61479981614315565b82525050565b600081519050919050565b600082825260208201905092915050565b6000819050602082019050919050565b60006147d78383614757565b905092915050565b6000602082019050919050565b60006147f78261479f565b61480181856147aa565b935083602082028501614813856147bb565b8060005b8581101561484f578484038952815161483085826147cb565b945061483b836147df565b925060208a01995050600181019050614817565b50829750879550505050505092915050565b600060c083016000830151848203600086015261487e8282614757565b91505060208301516148936020860182614790565b50604083015184820360408601526148ab8282614757565b91505060608301516148c06060860182614790565b50608083015184820360808601526148d882826147ec565b91505060a08301516148ed60a0860182614790565b508091505092915050565b60006149048383614861565b905092915050565b6000602082019050919050565b60006149248261471a565b61492e8185614725565b93508360208202850161494085614736565b8060005b8581101561497c578484038952815161495d85826148f8565b94506149688361490c565b925060208a01995050600181019050614944565b50829750879550505050505092915050565b600060208201905081810360008301526149a88184614919565b905092915050565b60006149bb82614378565b9050919050565b6149cb816149b0565b82525050565b6149da8161422d565b82525050565b60a0820160008201516149f66000850182614790565b506020820151614a0960208501826149c2565b506040820151614a1c60408501826149c2565b506060820151614a2f6060850182614790565b506080820151614a4260808501826149d1565b50505050565b600060a082019050614a5d60008301846149e0565b92915050565b614a6c8161422d565b8114614a7757600080fd5b50565b600081359050614a8981614a63565b92915050565b60008060408385031215614aa657614aa561419e565b5b6000614ab4858286016143eb565b9250506020614ac585828601614a7a565b9150509250929050565b600067ffffffffffffffff821115614aea57614ae961449d565b5b614af3826142a9565b9050602081019050919050565b6000614b13614b0e84614acf565b6144fd565b905082815260208101848484011115614b2f57614b2e614498565b5b614b3a848285614549565b509392505050565b600082601f830112614b5757614b56614493565b5b8135614b67848260208601614b00565b91505092915050565b60008060008060808587031215614b8a57614b8961419e565b5b6000614b98878288016143eb565b9450506020614ba9878288016143eb565b9350506040614bba87828801614336565b925050606085013567ffffffffffffffff811115614bdb57614bda6141a3565b5b614be787828801614b42565b91505092959194509250565b600081519050919050565b600082825260208201905092915050565b6000819050602082019050919050565b60a082016000820151614c356000850182614790565b506020820151614c4860208501826149c2565b506040820151614c5b60408501826149c2565b506060820151614c6e6060850182614790565b506080820151614c8160808501826149d1565b50505050565b6000614c938383614c1f565b60a08301905092915050565b6000602082019050919050565b6000614cb782614bf3565b614cc18185614bfe565b9350614ccc83614c0f565b8060005b83811015614cfd578151614ce48882614c87565b9750614cef83614c9f565b925050600181019050614cd0565b5085935050505092915050565b60006020820190508181036000830152614d248184614cac565b905092915050565b60008060408385031215614d4357614d4261419e565b5b6000614d51858286016143eb565b9250506020614d62858286016143eb565b9150509250929050565b7f4e487b7100000000000000000000000000000000000000000000000000000000600052602260045260246000fd5b60006002820490506001821680614db357607f821691505b602082108103614dc657614dc5614d6c565b5b50919050565b7f4552433732313a20617070726f76616c20746f2063757272656e74206f776e6560008201527f7200000000000000000000000000000000000000000000000000000000000000602082015250565b6000614e2860218361426e565b9150614e3382614dcc565b604082019050919050565b60006020820190508181036000830152614e5781614e1b565b9050919050565b7f4552433732313a20617070726f76652063616c6c6572206973206e6f7420746f60008201527f6b656e206f776e6572206f7220617070726f76656420666f7220616c6c000000602082015250565b6000614eba603d8361426e565b9150614ec582614e5e565b604082019050919050565b60006020820190508181036000830152614ee981614ead565b9050919050565b7f4552433732313a2063616c6c6572206973206e6f7420746f6b656e206f776e6560008201527f72206f7220617070726f76656400000000000000000000000000000000000000602082015250565b6000614f4c602d8361426e565b9150614f5782614ef0565b604082019050919050565b60006020820190508181036000830152614f7b81614f3f565b9050919050565b7f4e487b7100000000000000000000000000000000000000000000000000000000600052603260045260246000fd5b60008190508160005260206000209050919050565b60006020601f8301049050919050565b600082821b905092915050565b6000600883026150137fffffffffffffffffffffffffffffffffffffffffffffffffffffffffffffffff82614fd6565b61501d8683614fd6565b95508019841693508086168417925050509392505050565b6000819050919050565b600061505a61505561505084614315565b615035565b614315565b9050919050565b6000819050919050565b6150748361503f565b61508861508082615061565b848454614fe3565b825550505050565b600090565b61509d615090565b6150a881848461506b565b505050565b5b818110156150cc576150c1600082615095565b6001810190506150ae565b5050565b601f821115615111576150e281614fb1565b6150eb84614fc6565b810160208510156150fa578190505b61510e61510685614fc6565b8301826150ad565b50505b505050565b600082821c905092915050565b600061513460001984600802615116565b1980831691505092915050565b600061514d8383615123565b9150826002028217905092915050565b61516682614263565b67ffffffffffffffff81111561517f5761517e61449d565b5b6151898254614d9b565b6151948282856150d0565b600060209050601f8311600181146151c757600084156151b5578287015190505b6151bf8582615141565b865550615227565b601f1984166151d586614fb1565b60005b828110156151fd578489015182556001820191506020850194506020810190506151d8565b8683101561521a5784890151615216601f891682615123565b8355505b6001600288020188555050505b505050505050565b7f4e487b7100000000000000000000000000000000000000000000000000000000600052601160045260246000fd5b600061526982614315565b91507fffffffffffffffffffffffffffffffffffffffffffffffffffffffffffffffff820361529b5761529a61522f565b5b600182019050919050565b600082825260208201905092915050565b60006152c28261479f565b6152cc81856152a6565b9350836020820285016152de856147bb565b8060005b8581101561531a57848403895281516152fb85826147cb565b9450615306836147df565b925060208a019950506001810190506152e2565b50829750879550505050505092915050565b6000819050919050565b600061535161534c6153478461532c565b615035565b614315565b9050919050565b61536181615336565b82525050565b600060c082019050818103600083015261538181896142ba565b90506153906020830188614667565b81810360408301526153a281876142ba565b90506153b16060830186614667565b81810360808301526153c381856152b7565b90506153d260a0830184615358565b979650505050505050565b7f4552433732313a20696e76616c696420746f6b656e2049440000000000000000600082015250565b600061541360188361426e565b915061541e826153dd565b602082019050919050565b6000602082019050818103600083015261544281615406565b9050919050565b7f4552433732313a2061646472657373207a65726f206973206e6f74206120766160008201527f6c6964206f776e65720000000000000000000000000000000000000000000000602082015250565b60006154a560298361426e565b91506154b082615449565b604082019050919050565b600060208201905081810360008301526154d481615498565b9050919050565b7f506c65617365207375626d6974207468652061736b696e67207072696365206960008201527f6e206f7264657220746f20636f6d706c65746520746865207075726368617365602082015250565b600061553760408361426e565b9150615542826154db565b604082019050919050565b600060208201905081810360008301526155668161552a565b9050919050565b7f496e76616c6964206361726420696e6465780000000000000000000000000000600082015250565b60006155a360128361426e565b91506155ae8261556d565b602082019050919050565b600060208201905081810360008301526155d281615596565b9050919050565b60006155e482614315565b9150600082036155f7576155f661522f565b5b600182039050919050565b600061560d82614315565b915061561883614315565b92508282019050808211156156305761562f61522f565b5b92915050565b7f4f6e6c7920746865206f776e65722063616e20706572666f726d20746869732060008201527f616374696f6e0000000000000000000000000000000000000000000000000000602082015250565b600061569260268361426e565b915061569d82615636565b604082019050919050565b600060208201905081810360008301526156c181615685565b9050919050565b600081905092915050565b60006156de82614263565b6156e881856156c8565b93506156f881856020860161427f565b80840191505092915050565b600061571082856156d3565b915061571c82846156d3565b91508190509392505050565b7f4552433732313a207472616e736665722066726f6d20696e636f72726563742060008201527f6f776e6572000000000000000000000000000000000000000000000000000000602082015250565b600061578460258361426e565b915061578f82615728565b604082019050919050565b600060208201905081810360008301526157b381615777565b9050919050565b7f4552433732313a207472616e7366657220746f20746865207a65726f2061646460008201527f7265737300000000000000000000000000000000000000000000000000000000602082015250565b600061581660248361426e565b9150615821826157ba565b604082019050919050565b6000602082019050818103600083015261584581615809565b9050919050565b600061585782614315565b915061586283614315565b925082820261587081614315565b915082820484148315176158875761588661522f565b5b5092915050565b7f45524337323155524953746f726167653a2055524920736574206f66206e6f6e60008201527f6578697374656e7420746f6b656e000000000000000000000000000000000000602082015250565b60006158ea602e8361426e565b91506158f58261588e565b604082019050919050565b60006020820190508181036000830152615919816158dd565b9050919050565b7f486f706566756c6c792073656e64696e672074686520636f727265637420707260008201527f6963650000000000000000000000000000000000000000000000000000000000602082015250565b600061597c60238361426e565b915061598782615920565b604082019050919050565b600060208201905081810360008301526159ab8161596f565b9050919050565b7f4d616b652073757265207468652070726963652069736e2774206e656761746960008201527f7665000000000000000000000000000000000000000000000000000000000000602082015250565b6000615a0e60228361426e565b9150615a19826159b2565b604082019050919050565b60006020820190508181036000830152615a3d81615a01565b9050919050565b6000608082019050615a5960008301876143aa565b615a6660208301866143aa565b615a736040830185614667565b615a806060830184614239565b95945050505050565b7f496e646578206f7574206f6620626f756e647300000000000000000000000000600082015250565b6000615abf60138361426e565b9150615aca82615a89565b602082019050919050565b60006020820190508181036000830152615aee81615ab2565b9050919050565b6000615b0082614315565b9150615b0b83614315565b9250828203905081811115615b2357615b2261522f565b5b92915050565b600081549050615b3881614d9b565b9050919050565b818103615b4d575050615c25565b615b5682615b29565b67ffffffffffffffff811115615b6f57615b6e61449d565b5b615b798254614d9b565b615b848282856150d0565b6000601f831160018114615bb35760008415615ba1578287015490505b615bab8582615141565b865550615c1e565b601f198416615bc187614fb1565b9650615bcc86614fb1565b60005b82811015615bf457848901548255600182019150600185019450602081019050615bcf565b86831015615c115784890154615c0d601f891682615123565b8355505b6001600288020188555050505b5050505050505b565b7f4e487b7100000000000000000000000000000000000000000000000000000000600052603160045260246000fd5b7f4552433732313a20617070726f766520746f2063616c6c657200000000000000600082015250565b6000615c8c60198361426e565b9150615c9782615c56565b602082019050919050565b60006020820190508181036000830152615cbb81615c7f565b9050919050565b7f4552433732313a207472616e7366657220746f206e6f6e20455243373231526560008201527f63656976657220696d706c656d656e7465720000000000000000000000000000602082015250565b6000615d1e60328361426e565b9150615d2982615cc2565b604082019050919050565b60006020820190508181036000830152615d4d81615d11565b9050919050565b600081519050919050565b600082825260208201905092915050565b6000615d7b82615d54565b615d858185615d5f565b9350615d9581856020860161427f565b615d9e816142a9565b840191505092915050565b6000608082019050615dbe60008301876143aa565b615dcb60208301866143aa565b615dd86040830185614667565b8181036060830152615dea8184615d70565b905095945050505050565b600081519050615e04816141d4565b92915050565b600060208284031215615e2057615e1f61419e565b5b6000615e2e84828501615df5565b91505092915050565b7f4e487b7100000000000000000000000000000000000000000000000000000000600052601260045260246000fd5b7f4552433732313a206d696e7420746f20746865207a65726f2061646472657373600082015250565b6000615e9c60208361426e565b9150615ea782615e66565b602082019050919050565b60006020820190508181036000830152615ecb81615e8f565b9050919050565b7f4552433732313a20746f6b656e20616c7265616479206d696e74656400000000600082015250565b6000615f08601c8361426e565b9150615f1382615ed2565b602082019050919050565b60006020820190508181036000830152615f3781615efb565b905091905056fea2646970667358221220bd82144cadad00cf9c8c7af904dbfc57fb44e576d7deec97d0c035cdb9bd166464736f6c63430008120033",
  "immutableReferences": {},
  "source": "//SPDX-License-Identifier: Unlicensed\r\npragma solidity ^0.8.0;\r\n\r\nimport \"./../node_modules/@openzeppelin/contracts/token/ERC721/ERC721.sol\"; //TODO: magari si pu chiamare in maniera pi carina\r\nimport \"./../node_modules/@openzeppelin/contracts/token/ERC721//extensions/ERC721URIStorage.sol\"; //TODO: magari si pu chiamare in maniera pi carina\r\nimport \"./../node_modules/@openzeppelin/contracts/utils/Counters.sol\";\r\n\r\ncontract NFTMarketplace is ERC721URIStorage {\r\n    struct Card {\r\n        string name;\r\n        uint256 grade;\r\n        string condition;\r\n        uint256 cardCode;\r\n        string[] owners_history;\r\n        uint256 owners_count;\r\n    }\r\n\r\n    mapping(address => Card[]) private userCards; // Mapping to register cards for each user\r\n    mapping(address => uint256) private cardCounts; // Mapping to keep track of card counts for each user\r\n\r\n    Card[] private allCards; // Array to keep track of all cards\r\n    uint256 private allCardsCount; // Variable to keep track of total card count\r\n\r\n    event CardRegistered(\r\n        address indexed user,\r\n        string name,\r\n        uint256 grade,\r\n        string condition,\r\n        uint256 cardCode,\r\n        string[] owners_history,\r\n        uint256 owners_count\r\n    );\r\n\r\n    event CardTransferred(\r\n        address indexed from,\r\n        address indexed to,\r\n        uint256 cardIndex\r\n    );\r\n\r\n    address payable owner;\r\n    using Counters for Counters.Counter; //It's a datatype\r\n\r\n    //Keep track of the number of tokens created\r\n    Counters.Counter private _tokenIDs;\r\n\r\n    //Keep track of the number of items sold on the marketplace\r\n    Counters.Counter private _itemsSold;\r\n\r\n    uint256 listPrice = 0.01 ether; //Fee of the marketplace\r\n\r\n    struct ListedToken {\r\n        uint256 tokenID;\r\n        address payable owner;\r\n        address payable seller;\r\n        uint256 price;\r\n        bool currentlyListed;\r\n    }\r\n\r\n    //the event emitted when a token is successfully listed\r\n    event TokenListedSuccess(\r\n        uint256 indexed tokenId,\r\n        address owner,\r\n        address seller,\r\n        uint256 price,\r\n        bool currentlyListed\r\n    );\r\n\r\n    mapping(uint256 => ListedToken) private idToListedToken; //create a mapping between the id (incremental) and the associated data of the token (listed Token struct)\r\n\r\n    constructor() ERC721(\"NFTCollectible\", \"NFTC\") {\r\n        owner = payable(msg.sender); //only the owner gets a revenue when the marketplace is used, payable means that this address is eligible to receive some eth\r\n    }\r\n\r\n    // HELPER FUNCTIONS\r\n\r\n    function updateListPrice(uint256 _listPrice) public payable {\r\n        require(owner == msg.sender, \"Only the owner can perform this action\");\r\n        listPrice = _listPrice;\r\n    }\r\n\r\n    function getListPrice() public view returns (uint256) {\r\n        return listPrice;\r\n    }\r\n\r\n    function getLatestIdToListedToken()\r\n        public\r\n        view\r\n        returns (ListedToken memory)\r\n    {\r\n        //memory is an instructional keyboard to create a temporary memory allocation\r\n        uint256 currentTokenId = _tokenIDs.current();\r\n        return idToListedToken[currentTokenId];\r\n    }\r\n\r\n    function getListedForTokenId(\r\n        uint256 tokenId\r\n    ) public view returns (ListedToken memory) {\r\n        return idToListedToken[tokenId];\r\n    }\r\n\r\n    function getCurrentToken() public view returns (uint256) {\r\n        return _tokenIDs.current();\r\n    }\r\n\r\n    //CORE FUNCTIONS\r\n\r\n    // Function to get card count of a user by address\r\n    function getCardCount(address _user) external view returns (uint256) {\r\n        return cardCounts[_user];\r\n    }\r\n\r\n    //Function to get all cards count\r\n    function getAllCardsCount() external view returns (uint256) {\r\n        return allCardsCount;\r\n    }\r\n\r\n    // Function to transfer a card from one user to another\r\n    function transferCard(address _to, uint256 _cardIndex) external {\r\n        require( // require is used to validate the inputs to the function and throw error if the condition is not met\r\n            _cardIndex < userCards[msg.sender].length,\r\n            \"Invalid card index\"\r\n        );\r\n        \r\n        userCards[msg.sender][_cardIndex].owners_history.push(addressToString(_to)); //TOO MUCH GAS\r\n        userCards[msg.sender][_cardIndex].owners_count++;\r\n\r\n        uint256 cardCode_tmp = userCards[msg.sender][_cardIndex].cardCode;\r\n\r\n        // Update the owners history of the card in allCards array\r\n        for (uint i = 0; i < allCardsCount ; i++) {\r\n            if (allCards[i].cardCode == cardCode_tmp) {\r\n                allCards[i].owners_history.push(addressToString(_to));\r\n                allCards[i].owners_count++;\r\n            }\r\n        }\r\n\r\n        Card memory cardToTransfer = userCards[msg.sender][_cardIndex]; // Get the card to transfer\r\n        userCards[_to].push(cardToTransfer); // Push the card to the user to whom it is being transferred\r\n        cardCounts[msg.sender]--; // Reduce the card count of the user from whom the card is being transferred\r\n        cardCounts[_to]++; // Increase the card count of the user to whom the card is being transferred\r\n        removeElement(_cardIndex); // Delete the card from the user from whom the card is being transferred\r\n        emit CardTransferred(msg.sender, _to, _cardIndex); // Emit the event to notify the transfer\r\n    }\r\n\r\n    // Function to get all cards of a user by address\r\n    function getUserCards(address _user) external view returns (Card[] memory) {\r\n        // view means that this function will not modify the state of the contract\r\n        return userCards[_user];\r\n    }\r\n\r\n    // Function to get all cards of a all users\r\n    function getAllUserCards() external view returns (Card[] memory) {\r\n        return allCards;\r\n    }\r\n\r\n    function removeElement(uint256 _cardIndex) internal {\r\n        require(\r\n            _cardIndex < userCards[msg.sender].length,\r\n            \"Index out of bounds\"\r\n        );\r\n\r\n\r\n        // Shift elements to the left starting from the element to be removed\r\n        for (uint i = _cardIndex; i < userCards[msg.sender].length - 1; i++) {\r\n            \r\n            userCards[msg.sender][i] = userCards[msg.sender][i + 1];\r\n        }\r\n\r\n        // Resize the array by deleting the last element\r\n        userCards[msg.sender].pop();\r\n    }\r\n\r\n    function addressToString(address _address) internal pure returns (string memory) {       //pure means that this function will not modify the state of the contract\r\n        bytes32 value = bytes32(uint256(uint160(_address)));                                //internal function to convert an address to a string\r\n        bytes memory alphabet = \"0123456789abcdef\";\r\n\r\n        bytes memory str = new bytes(42);\r\n        str[0] = '0';\r\n        str[1] = 'x';\r\n        for (uint256 i = 0; i < 20; i++) {\r\n            str[2 + i * 2] = alphabet[uint8(value[i + 12] >> 4)];\r\n            str[3 + i * 2] = alphabet[uint8(value[i + 12] & 0x0f)];\r\n        }\r\n        return string(str);\r\n    }\r\n\r\n    //Top level function when creating a token for the first time\r\n    function createToken(\r\n        string memory tokenURI,\r\n        uint256 price\r\n    ) public payable returns (uint) {\r\n        _tokenIDs.increment();\r\n        uint256 currentTokenId = _tokenIDs.current();\r\n        _safeMint(msg.sender, currentTokenId);\r\n        _setTokenURI(currentTokenId, tokenURI);\r\n\r\n        createListedToken(currentTokenId, price);\r\n\r\n        return currentTokenId;\r\n    }\r\n\r\n    function registerCard(\r\n        string memory _name,\r\n        uint256 _grade,\r\n        string memory _condition,\r\n        uint256 _cardCode\r\n    ) external {\r\n        \r\n        string[] memory _owners_history = new string[](1);\r\n        _owners_history[0] = addressToString(msg.sender);  //TOO MUCH GAS?\r\n        \r\n        Card memory newCard = Card(_name, _grade, _condition, _cardCode, _owners_history,1);\r\n        \r\n        userCards[msg.sender].push(newCard);\r\n        cardCounts[msg.sender]++;\r\n\r\n        allCards.push(newCard);\r\n        allCardsCount++;\r\n        emit CardRegistered(msg.sender, _name, _grade, _condition, _cardCode, _owners_history, 1);\r\n    }\r\n\r\n    //Helps create the object of type ListedToken for the NFT and update the idToListedToken mapping\r\n    function createListedToken(uint256 tokenID, uint256 price) private {\r\n        require(msg.value == listPrice, \"Hopefully sending the correct price\");\r\n        //Just sanity check\r\n        require(price > 0, \"Make sure the price isn't negative\");\r\n        idToListedToken[tokenID] = ListedToken(\r\n            tokenID,\r\n            payable(address(this)),\r\n            payable(msg.sender),\r\n            price,\r\n            true\r\n        );\r\n        _transfer(msg.sender, address(this), tokenID);\r\n\r\n        emit TokenListedSuccess(\r\n            tokenID,\r\n            address(this),\r\n            msg.sender,\r\n            price,\r\n            true\r\n        );\r\n    }\r\n\r\n    //Get all the NFTs currently listed for sale on the marketplace --> DA MODIFICARE\r\n    function getAllNFTs() public view returns (ListedToken[] memory) {\r\n        uint nftCount = _tokenIDs.current();\r\n        ListedToken[] memory tokens = new ListedToken[](nftCount);\r\n\r\n        uint currentIndex = 0;\r\n\r\n        for (uint i = 0; i < nftCount; i++) {\r\n            uint currentId = i + 1;\r\n            ListedToken storage currentItem = idToListedToken[currentId];\r\n            tokens[currentIndex] = currentItem;\r\n            currentIndex += 1;\r\n        }\r\n\r\n        return tokens;\r\n    }\r\n\r\n    //Get all the NFTs of the user on the marketplace --> DA MODIFICARE\r\n    function getAllMyNFTs() public view returns (ListedToken[] memory) {\r\n        uint totalItemCount = _tokenIDs.current();\r\n        uint itemCount = 0;\r\n        uint currentIndex = 0;\r\n        uint currentId;\r\n        //Important to get a count of all the NFTs that belong to the user before we can make an array for them\r\n        for (uint i = 0; i < totalItemCount; i++) {\r\n            if (\r\n                idToListedToken[i + 1].owner == msg.sender ||\r\n                idToListedToken[i + 1].seller == msg.sender\r\n            ) {\r\n                itemCount += 1;\r\n            }\r\n        }\r\n\r\n        //Once you have the count of relevant NFTs, create an array then store all the NFTs in it\r\n        ListedToken[] memory items = new ListedToken[](itemCount);\r\n        for (uint i = 0; i < totalItemCount; i++) {\r\n            if (\r\n                idToListedToken[i + 1].owner == msg.sender ||\r\n                idToListedToken[i + 1].seller == msg.sender\r\n            ) {\r\n                currentId = i + 1;\r\n                ListedToken storage currentItem = idToListedToken[currentId];\r\n                items[currentIndex] = currentItem;\r\n                currentIndex += 1;\r\n            }\r\n        }\r\n        return items;\r\n    }\r\n\r\n    //The function that executes the sale on the marketplace --> DA MODIFICARE\r\n    function executeSale(uint256 tokenId) public payable {\r\n        uint price = idToListedToken[tokenId].price;\r\n        address seller = idToListedToken[tokenId].seller;\r\n        require(\r\n            msg.value == price,\r\n            \"Please submit the asking price in order to complete the purchase\"\r\n        );\r\n\r\n        //update the details of the token\r\n        idToListedToken[tokenId].currentlyListed = true;\r\n        idToListedToken[tokenId].seller = payable(msg.sender);\r\n        //_itemsSold.increment();\r\n\r\n        //Actually transfer the token to the new owner\r\n        _transfer(address(this), msg.sender, tokenId);\r\n        //approve the marketplace to sell NFTs on your behalf\r\n        approve(address(this), tokenId);\r\n\r\n        //Transfer the listing fee to the marketplace creator\r\n        payable(owner).transfer(listPrice);\r\n        //Transfer the proceeds from the sale to the seller of the NFT\r\n        payable(seller).transfer(msg.value);\r\n    }\r\n}\r\n",
  "sourcePath": "C:\\Users\\Giacomo\\Desktop\\Blockchain\\blockchain-authenticator\\project\\truffle\\contracts\\NFTMarketplace.sol",
  "compiler": {
    "name": "solc",
    "version": "0.8.18+commit.87f61d96.Emscripten.clang"
  },
  "schemaVersion": "3.4.14",
  "updatedAt": "2023-07-09T06:24:48.764Z",
  "networkType": "ethereum",
  "devdoc": {
    "events": {
      "Approval(address,address,uint256)": {
        "details": "Emitted when `owner` enables `approved` to manage the `tokenId` token."
      },
      "ApprovalForAll(address,address,bool)": {
        "details": "Emitted when `owner` enables or disables (`approved`) `operator` to manage all of its assets."
      },
      "BatchMetadataUpdate(uint256,uint256)": {
        "details": "This event emits when the metadata of a range of tokens is changed. So that the third-party platforms such as NFT market could timely update the images and related attributes of the NFTs."
      },
      "MetadataUpdate(uint256)": {
        "details": "This event emits when the metadata of a token is changed. So that the third-party platforms such as NFT market could timely update the images and related attributes of the NFT."
      },
      "Transfer(address,address,uint256)": {
        "details": "Emitted when `tokenId` token is transferred from `from` to `to`."
      }
    },
    "kind": "dev",
    "methods": {
      "approve(address,uint256)": {
        "details": "See {IERC721-approve}."
      },
      "balanceOf(address)": {
        "details": "See {IERC721-balanceOf}."
      },
      "getApproved(uint256)": {
        "details": "See {IERC721-getApproved}."
      },
      "isApprovedForAll(address,address)": {
        "details": "See {IERC721-isApprovedForAll}."
      },
      "name()": {
        "details": "See {IERC721Metadata-name}."
      },
      "ownerOf(uint256)": {
        "details": "See {IERC721-ownerOf}."
      },
      "safeTransferFrom(address,address,uint256)": {
        "details": "See {IERC721-safeTransferFrom}."
      },
      "safeTransferFrom(address,address,uint256,bytes)": {
        "details": "See {IERC721-safeTransferFrom}."
      },
      "setApprovalForAll(address,bool)": {
        "details": "See {IERC721-setApprovalForAll}."
      },
      "supportsInterface(bytes4)": {
        "details": "See {IERC165-supportsInterface}"
      },
      "symbol()": {
        "details": "See {IERC721Metadata-symbol}."
      },
      "tokenURI(uint256)": {
        "details": "See {IERC721Metadata-tokenURI}."
      },
      "transferFrom(address,address,uint256)": {
        "details": "See {IERC721-transferFrom}."
      }
    },
    "version": 1
  },
  "userdoc": {
    "kind": "user",
    "methods": {},
    "version": 1
  }
}