{
  "contractName": "NFTMarketplace",
  "abi": [
    {
      "inputs": [],
      "stateMutability": "nonpayable",
      "type": "constructor"
    },
    {
      "anonymous": false,
      "inputs": [
        {
          "indexed": true,
          "internalType": "address",
          "name": "owner",
          "type": "address"
        },
        {
          "indexed": true,
          "internalType": "address",
          "name": "approved",
          "type": "address"
        },
        {
          "indexed": true,
          "internalType": "uint256",
          "name": "tokenId",
          "type": "uint256"
        }
      ],
      "name": "Approval",
      "type": "event"
    },
    {
      "anonymous": false,
      "inputs": [
        {
          "indexed": true,
          "internalType": "address",
          "name": "owner",
          "type": "address"
        },
        {
          "indexed": true,
          "internalType": "address",
          "name": "operator",
          "type": "address"
        },
        {
          "indexed": false,
          "internalType": "bool",
          "name": "approved",
          "type": "bool"
        }
      ],
      "name": "ApprovalForAll",
      "type": "event"
    },
    {
      "anonymous": false,
      "inputs": [
        {
          "indexed": false,
          "internalType": "uint256",
          "name": "_fromTokenId",
          "type": "uint256"
        },
        {
          "indexed": false,
          "internalType": "uint256",
          "name": "_toTokenId",
          "type": "uint256"
        }
      ],
      "name": "BatchMetadataUpdate",
      "type": "event"
    },
    {
      "anonymous": false,
      "inputs": [
        {
          "indexed": true,
          "internalType": "address",
          "name": "user",
          "type": "address"
        },
        {
          "indexed": false,
          "internalType": "string",
          "name": "name",
          "type": "string"
        },
        {
          "indexed": false,
          "internalType": "uint256",
          "name": "grade",
          "type": "uint256"
        },
        {
          "indexed": false,
          "internalType": "string",
          "name": "condition",
          "type": "string"
        },
        {
          "indexed": false,
          "internalType": "uint256",
          "name": "cardCode",
          "type": "uint256"
        },
        {
          "indexed": false,
          "internalType": "string[]",
          "name": "owners_history",
          "type": "string[]"
        },
        {
          "indexed": false,
          "internalType": "uint256",
          "name": "owners_count",
          "type": "uint256"
        }
      ],
      "name": "CardRegistered",
      "type": "event"
    },
    {
      "anonymous": false,
      "inputs": [
        {
          "indexed": true,
          "internalType": "address",
          "name": "from",
          "type": "address"
        },
        {
          "indexed": true,
          "internalType": "address",
          "name": "to",
          "type": "address"
        },
        {
          "indexed": false,
          "internalType": "uint256",
          "name": "cardIndex",
          "type": "uint256"
        }
      ],
      "name": "CardTransferred",
      "type": "event"
    },
    {
      "anonymous": false,
      "inputs": [
        {
          "indexed": false,
          "internalType": "uint256",
          "name": "_tokenId",
          "type": "uint256"
        }
      ],
      "name": "MetadataUpdate",
      "type": "event"
    },
    {
      "anonymous": false,
      "inputs": [
        {
          "indexed": true,
          "internalType": "uint256",
          "name": "tokenId",
          "type": "uint256"
        },
        {
          "indexed": false,
          "internalType": "address",
          "name": "owner",
          "type": "address"
        },
        {
          "indexed": false,
          "internalType": "address",
          "name": "seller",
          "type": "address"
        },
        {
          "indexed": false,
          "internalType": "uint256",
          "name": "price",
          "type": "uint256"
        },
        {
          "indexed": false,
          "internalType": "bool",
          "name": "currentlyListed",
          "type": "bool"
        }
      ],
      "name": "TokenListedSuccess",
      "type": "event"
    },
    {
      "anonymous": false,
      "inputs": [
        {
          "indexed": true,
          "internalType": "address",
          "name": "from",
          "type": "address"
        },
        {
          "indexed": true,
          "internalType": "address",
          "name": "to",
          "type": "address"
        },
        {
          "indexed": true,
          "internalType": "uint256",
          "name": "tokenId",
          "type": "uint256"
        }
      ],
      "name": "Transfer",
      "type": "event"
    },
    {
      "inputs": [
        {
          "internalType": "address",
          "name": "to",
          "type": "address"
        },
        {
          "internalType": "uint256",
          "name": "tokenId",
          "type": "uint256"
        }
      ],
      "name": "approve",
      "outputs": [],
      "stateMutability": "nonpayable",
      "type": "function"
    },
    {
      "inputs": [
        {
          "internalType": "address",
          "name": "owner",
          "type": "address"
        }
      ],
      "name": "balanceOf",
      "outputs": [
        {
          "internalType": "uint256",
          "name": "",
          "type": "uint256"
        }
      ],
      "stateMutability": "view",
      "type": "function",
      "constant": true
    },
    {
      "inputs": [
        {
          "internalType": "uint256",
          "name": "tokenId",
          "type": "uint256"
        }
      ],
      "name": "getApproved",
      "outputs": [
        {
          "internalType": "address",
          "name": "",
          "type": "address"
        }
      ],
      "stateMutability": "view",
      "type": "function",
      "constant": true
    },
    {
      "inputs": [
        {
          "internalType": "address",
          "name": "owner",
          "type": "address"
        },
        {
          "internalType": "address",
          "name": "operator",
          "type": "address"
        }
      ],
      "name": "isApprovedForAll",
      "outputs": [
        {
          "internalType": "bool",
          "name": "",
          "type": "bool"
        }
      ],
      "stateMutability": "view",
      "type": "function",
      "constant": true
    },
    {
      "inputs": [],
      "name": "name",
      "outputs": [
        {
          "internalType": "string",
          "name": "",
          "type": "string"
        }
      ],
      "stateMutability": "view",
      "type": "function",
      "constant": true
    },
    {
      "inputs": [
        {
          "internalType": "uint256",
          "name": "tokenId",
          "type": "uint256"
        }
      ],
      "name": "ownerOf",
      "outputs": [
        {
          "internalType": "address",
          "name": "",
          "type": "address"
        }
      ],
      "stateMutability": "view",
      "type": "function",
      "constant": true
    },
    {
      "inputs": [
        {
          "internalType": "address",
          "name": "from",
          "type": "address"
        },
        {
          "internalType": "address",
          "name": "to",
          "type": "address"
        },
        {
          "internalType": "uint256",
          "name": "tokenId",
          "type": "uint256"
        }
      ],
      "name": "safeTransferFrom",
      "outputs": [],
      "stateMutability": "nonpayable",
      "type": "function"
    },
    {
      "inputs": [
        {
          "internalType": "address",
          "name": "from",
          "type": "address"
        },
        {
          "internalType": "address",
          "name": "to",
          "type": "address"
        },
        {
          "internalType": "uint256",
          "name": "tokenId",
          "type": "uint256"
        },
        {
          "internalType": "bytes",
          "name": "data",
          "type": "bytes"
        }
      ],
      "name": "safeTransferFrom",
      "outputs": [],
      "stateMutability": "nonpayable",
      "type": "function"
    },
    {
      "inputs": [
        {
          "internalType": "address",
          "name": "operator",
          "type": "address"
        },
        {
          "internalType": "bool",
          "name": "approved",
          "type": "bool"
        }
      ],
      "name": "setApprovalForAll",
      "outputs": [],
      "stateMutability": "nonpayable",
      "type": "function"
    },
    {
      "inputs": [
        {
          "internalType": "bytes4",
          "name": "interfaceId",
          "type": "bytes4"
        }
      ],
      "name": "supportsInterface",
      "outputs": [
        {
          "internalType": "bool",
          "name": "",
          "type": "bool"
        }
      ],
      "stateMutability": "view",
      "type": "function",
      "constant": true
    },
    {
      "inputs": [],
      "name": "symbol",
      "outputs": [
        {
          "internalType": "string",
          "name": "",
          "type": "string"
        }
      ],
      "stateMutability": "view",
      "type": "function",
      "constant": true
    },
    {
      "inputs": [
        {
          "internalType": "uint256",
          "name": "tokenId",
          "type": "uint256"
        }
      ],
      "name": "tokenURI",
      "outputs": [
        {
          "internalType": "string",
          "name": "",
          "type": "string"
        }
      ],
      "stateMutability": "view",
      "type": "function",
      "constant": true
    },
    {
      "inputs": [
        {
          "internalType": "address",
          "name": "from",
          "type": "address"
        },
        {
          "internalType": "address",
          "name": "to",
          "type": "address"
        },
        {
          "internalType": "uint256",
          "name": "tokenId",
          "type": "uint256"
        }
      ],
      "name": "transferFrom",
      "outputs": [],
      "stateMutability": "nonpayable",
      "type": "function"
    },
    {
      "inputs": [
        {
          "internalType": "uint256",
          "name": "_listPrice",
          "type": "uint256"
        }
      ],
      "name": "updateListPrice",
      "outputs": [],
      "stateMutability": "payable",
      "type": "function",
      "payable": true
    },
    {
      "inputs": [],
      "name": "getListPrice",
      "outputs": [
        {
          "internalType": "uint256",
          "name": "",
          "type": "uint256"
        }
      ],
      "stateMutability": "view",
      "type": "function",
      "constant": true
    },
    {
      "inputs": [],
      "name": "getLatestIdToListedToken",
      "outputs": [
        {
          "components": [
            {
              "internalType": "uint256",
              "name": "tokenID",
              "type": "uint256"
            },
            {
              "internalType": "address payable",
              "name": "owner",
              "type": "address"
            },
            {
              "internalType": "address payable",
              "name": "seller",
              "type": "address"
            },
            {
              "internalType": "uint256",
              "name": "price",
              "type": "uint256"
            },
            {
              "internalType": "bool",
              "name": "currentlyListed",
              "type": "bool"
            }
          ],
          "internalType": "struct NFTMarketplace.ListedToken",
          "name": "",
          "type": "tuple"
        }
      ],
      "stateMutability": "view",
      "type": "function",
      "constant": true
    },
    {
      "inputs": [
        {
          "internalType": "uint256",
          "name": "tokenId",
          "type": "uint256"
        }
      ],
      "name": "getListedForTokenId",
      "outputs": [
        {
          "components": [
            {
              "internalType": "uint256",
              "name": "tokenID",
              "type": "uint256"
            },
            {
              "internalType": "address payable",
              "name": "owner",
              "type": "address"
            },
            {
              "internalType": "address payable",
              "name": "seller",
              "type": "address"
            },
            {
              "internalType": "uint256",
              "name": "price",
              "type": "uint256"
            },
            {
              "internalType": "bool",
              "name": "currentlyListed",
              "type": "bool"
            }
          ],
          "internalType": "struct NFTMarketplace.ListedToken",
          "name": "",
          "type": "tuple"
        }
      ],
      "stateMutability": "view",
      "type": "function",
      "constant": true
    },
    {
      "inputs": [],
      "name": "getCurrentToken",
      "outputs": [
        {
          "internalType": "uint256",
          "name": "",
          "type": "uint256"
        }
      ],
      "stateMutability": "view",
      "type": "function",
      "constant": true
    },
    {
      "inputs": [
        {
          "internalType": "address",
          "name": "_user",
          "type": "address"
        }
      ],
      "name": "getCardCount",
      "outputs": [
        {
          "internalType": "uint256",
          "name": "",
          "type": "uint256"
        }
      ],
      "stateMutability": "view",
      "type": "function",
      "constant": true
    },
    {
      "inputs": [],
      "name": "getAllCardsCount",
      "outputs": [
        {
          "internalType": "uint256",
          "name": "",
          "type": "uint256"
        }
      ],
      "stateMutability": "view",
      "type": "function",
      "constant": true
    },
    {
      "inputs": [
        {
          "internalType": "address",
          "name": "_to",
          "type": "address"
        },
        {
          "internalType": "uint256",
          "name": "_cardIndex",
          "type": "uint256"
        }
      ],
      "name": "transferCard",
      "outputs": [],
      "stateMutability": "nonpayable",
      "type": "function"
    },
    {
      "inputs": [
        {
          "internalType": "address",
          "name": "_user",
          "type": "address"
        }
      ],
      "name": "getUserCards",
      "outputs": [
        {
          "components": [
            {
              "internalType": "string",
              "name": "name",
              "type": "string"
            },
            {
              "internalType": "uint256",
              "name": "grade",
              "type": "uint256"
            },
            {
              "internalType": "string",
              "name": "condition",
              "type": "string"
            },
            {
              "internalType": "uint256",
              "name": "cardCode",
              "type": "uint256"
            },
            {
              "internalType": "string[]",
              "name": "owners_history",
              "type": "string[]"
            },
            {
              "internalType": "uint256",
              "name": "owners_count",
              "type": "uint256"
            }
          ],
          "internalType": "struct NFTMarketplace.Card[]",
          "name": "",
          "type": "tuple[]"
        }
      ],
      "stateMutability": "view",
      "type": "function",
      "constant": true
    },
    {
      "inputs": [],
      "name": "getAllUserCards",
      "outputs": [
        {
          "components": [
            {
              "internalType": "string",
              "name": "name",
              "type": "string"
            },
            {
              "internalType": "uint256",
              "name": "grade",
              "type": "uint256"
            },
            {
              "internalType": "string",
              "name": "condition",
              "type": "string"
            },
            {
              "internalType": "uint256",
              "name": "cardCode",
              "type": "uint256"
            },
            {
              "internalType": "string[]",
              "name": "owners_history",
              "type": "string[]"
            },
            {
              "internalType": "uint256",
              "name": "owners_count",
              "type": "uint256"
            }
          ],
          "internalType": "struct NFTMarketplace.Card[]",
          "name": "",
          "type": "tuple[]"
        }
      ],
      "stateMutability": "view",
      "type": "function",
      "constant": true
    },
    {
      "inputs": [
        {
          "internalType": "uint256",
          "name": "_cardCode",
          "type": "uint256"
        }
      ],
      "name": "getOwner",
      "outputs": [
        {
          "internalType": "string",
          "name": "",
          "type": "string"
        }
      ],
      "stateMutability": "view",
      "type": "function",
      "constant": true
    },
    {
      "inputs": [
        {
          "internalType": "string",
          "name": "tokenURI",
          "type": "string"
        },
        {
          "internalType": "uint256",
          "name": "price",
          "type": "uint256"
        }
      ],
      "name": "createToken",
      "outputs": [
        {
          "internalType": "uint256",
          "name": "",
          "type": "uint256"
        }
      ],
      "stateMutability": "payable",
      "type": "function",
      "payable": true
    },
    {
      "inputs": [
        {
          "internalType": "string",
          "name": "_name",
          "type": "string"
        },
        {
          "internalType": "uint256",
          "name": "_grade",
          "type": "uint256"
        },
        {
          "internalType": "string",
          "name": "_condition",
          "type": "string"
        },
        {
          "internalType": "uint256",
          "name": "_cardCode",
          "type": "uint256"
        }
      ],
      "name": "registerCard",
      "outputs": [],
      "stateMutability": "nonpayable",
      "type": "function"
    },
    {
      "inputs": [],
      "name": "getAllNFTs",
      "outputs": [
        {
          "components": [
            {
              "internalType": "uint256",
              "name": "tokenID",
              "type": "uint256"
            },
            {
              "internalType": "address payable",
              "name": "owner",
              "type": "address"
            },
            {
              "internalType": "address payable",
              "name": "seller",
              "type": "address"
            },
            {
              "internalType": "uint256",
              "name": "price",
              "type": "uint256"
            },
            {
              "internalType": "bool",
              "name": "currentlyListed",
              "type": "bool"
            }
          ],
          "internalType": "struct NFTMarketplace.ListedToken[]",
          "name": "",
          "type": "tuple[]"
        }
      ],
      "stateMutability": "view",
      "type": "function",
      "constant": true
    },
    {
      "inputs": [],
      "name": "getAllMyNFTs",
      "outputs": [
        {
          "components": [
            {
              "internalType": "uint256",
              "name": "tokenID",
              "type": "uint256"
            },
            {
              "internalType": "address payable",
              "name": "owner",
              "type": "address"
            },
            {
              "internalType": "address payable",
              "name": "seller",
              "type": "address"
            },
            {
              "internalType": "uint256",
              "name": "price",
              "type": "uint256"
            },
            {
              "internalType": "bool",
              "name": "currentlyListed",
              "type": "bool"
            }
          ],
          "internalType": "struct NFTMarketplace.ListedToken[]",
          "name": "",
          "type": "tuple[]"
        }
      ],
      "stateMutability": "view",
      "type": "function",
      "constant": true
    }
  ],
  "bytecode": "0x6080604052662386f26fc10000600e553480156200001c57600080fd5b506040518060400160405280600e81526020017f4e4654436f6c6c65637469626c650000000000000000000000000000000000008152506040518060400160405280600481526020017f4e4654430000000000000000000000000000000000000000000000000000000081525081600090816200009a919062000370565b508060019081620000ac919062000370565b50505033600b60006101000a81548173ffffffffffffffffffffffffffffffffffffffff021916908373ffffffffffffffffffffffffffffffffffffffff16021790555062000457565b600081519050919050565b7f4e487b7100000000000000000000000000000000000000000000000000000000600052604160045260246000fd5b7f4e487b7100000000000000000000000000000000000000000000000000000000600052602260045260246000fd5b600060028204905060018216806200017857607f821691505b6020821081036200018e576200018d62000130565b5b50919050565b60008190508160005260206000209050919050565b60006020601f8301049050919050565b600082821b905092915050565b600060088302620001f87fffffffffffffffffffffffffffffffffffffffffffffffffffffffffffffffff82620001b9565b620002048683620001b9565b95508019841693508086168417925050509392505050565b6000819050919050565b6000819050919050565b6000620002516200024b62000245846200021c565b62000226565b6200021c565b9050919050565b6000819050919050565b6200026d8362000230565b620002856200027c8262000258565b848454620001c6565b825550505050565b600090565b6200029c6200028d565b620002a981848462000262565b505050565b5b81811015620002d157620002c560008262000292565b600181019050620002af565b5050565b601f8211156200032057620002ea8162000194565b620002f584620001a9565b8101602085101562000305578190505b6200031d6200031485620001a9565b830182620002ae565b50505b505050565b600082821c905092915050565b6000620003456000198460080262000325565b1980831691505092915050565b600062000360838362000332565b9150826002028217905092915050565b6200037b82620000f6565b67ffffffffffffffff81111562000397576200039662000101565b5b620003a382546200015f565b620003b0828285620002d5565b600060209050601f831160018114620003e85760008415620003d3578287015190505b620003df858262000352565b8655506200044f565b601f198416620003f88662000194565b60005b828110156200042257848901518255600182019150602085019450602081019050620003fb565b868310156200044257848901516200043e601f89168262000332565b8355505b6001600288020188555050505b505050505050565b615eab80620004676000396000f3fe6080604052600436106101b75760003560e01c80639b81a359116100ec578063c87b56dd1161008a578063dce0b58611610064578063dce0b5861461063c578063e0391b0914610679578063e985e9c5146106a4578063ef2d1746146106e1576101b7565b8063c87b56dd146105a9578063c94f23bf146105e6578063d1a88ae514610611576101b7565b8063b88d4fde116100c6578063b88d4fde146104fc578063c0ab5abc14610525578063c322579c14610550578063c41a360a1461056c576101b7565b80639b81a3591461047f578063a22cb465146104a8578063b2260073146104d1576101b7565b80636352211e1161015957806372b3b6201161013357806372b3b620146103aa57806388d9f40d146103da57806395d89b411461041757806398c3df1614610442576101b7565b80636352211e1461030557806368f1945f1461034257806370a082311461036d576101b7565b8063095ea7b311610195578063095ea7b31461026157806323b872dd1461028a57806342842e0e146102b357806354fadade146102dc576101b7565b806301ffc9a7146101bc57806306fdde03146101f9578063081812fc14610224575b600080fd5b3480156101c857600080fd5b506101e360048036038101906101de91906141c9565b61070c565b6040516101f09190614211565b60405180910390f35b34801561020557600080fd5b5061020e61076d565b60405161021b91906142bc565b60405180910390f35b34801561023057600080fd5b5061024b60048036038101906102469190614314565b6107ff565b6040516102589190614382565b60405180910390f35b34801561026d57600080fd5b50610288600480360381019061028391906143c9565b610845565b005b34801561029657600080fd5b506102b160048036038101906102ac9190614409565b61095c565b005b3480156102bf57600080fd5b506102da60048036038101906102d59190614409565b6109bc565b005b3480156102e857600080fd5b5061030360048036038101906102fe9190614591565b6109dc565b005b34801561031157600080fd5b5061032c60048036038101906103279190614314565b610cbe565b6040516103399190614382565b60405180910390f35b34801561034e57600080fd5b50610357610d44565b604051610364919061463f565b60405180910390f35b34801561037957600080fd5b50610394600480360381019061038f919061465a565b610d4e565b6040516103a1919061463f565b60405180910390f35b6103c460048036038101906103bf9190614687565b610e05565b6040516103d1919061463f565b60405180910390f35b3480156103e657600080fd5b5061040160048036038101906103fc919061465a565b610e47565b60405161040e9190614957565b60405180910390f35b34801561042357600080fd5b5061042c611100565b60405161043991906142bc565b60405180910390f35b34801561044e57600080fd5b5061046960048036038101906104649190614314565b611192565b6040516104769190614a11565b60405180910390f35b34801561048b57600080fd5b506104a660048036038101906104a191906143c9565b61129a565b005b3480156104b457600080fd5b506104cf60048036038101906104ca9190614a58565b6119fc565b005b3480156104dd57600080fd5b506104e6611a12565b6040516104f3919061463f565b60405180910390f35b34801561050857600080fd5b50610523600480360381019061051e9190614b39565b611a1c565b005b34801561053157600080fd5b5061053a611a7e565b6040516105479190614cd3565b60405180910390f35b61056a60048036038101906105659190614314565b611e5f565b005b34801561057857600080fd5b50610593600480360381019061058e9190614314565b611ef9565b6040516105a091906142bc565b60405180910390f35b3480156105b557600080fd5b506105d060048036038101906105cb9190614314565b612089565b6040516105dd91906142bc565b60405180910390f35b3480156105f257600080fd5b506105fb61219b565b6040516106089190614957565b60405180910390f35b34801561061d57600080fd5b50610626612415565b6040516106339190614a11565b60405180910390f35b34801561064857600080fd5b50610663600480360381019061065e919061465a565b61252a565b604051610670919061463f565b60405180910390f35b34801561068557600080fd5b5061068e612573565b60405161069b9190614cd3565b60405180910390f35b3480156106b057600080fd5b506106cb60048036038101906106c69190614cf5565b612742565b6040516106d89190614211565b60405180910390f35b3480156106ed57600080fd5b506106f66127d6565b604051610703919061463f565b60405180910390f35b6000634906490660e01b7bffffffffffffffffffffffffffffffffffffffffffffffffffffffff1916827bffffffffffffffffffffffffffffffffffffffffffffffffffffffff191614806107665750610765826127e7565b5b9050919050565b60606000805461077c90614d64565b80601f01602080910402602001604051908101604052809291908181526020018280546107a890614d64565b80156107f55780601f106107ca576101008083540402835291602001916107f5565b820191906000526020600020905b8154815290600101906020018083116107d857829003601f168201915b5050505050905090565b600061080a826128c9565b6004600083815260200190815260200160002060009054906101000a900473ffffffffffffffffffffffffffffffffffffffff169050919050565b600061085082610cbe565b90508073ffffffffffffffffffffffffffffffffffffffff168373ffffffffffffffffffffffffffffffffffffffff16036108c0576040517f08c379a00000000000000000000000000000000000000000000000000000000081526004016108b790614e07565b60405180910390fd5b8073ffffffffffffffffffffffffffffffffffffffff166108df612914565b73ffffffffffffffffffffffffffffffffffffffff16148061090e575061090d81610908612914565b612742565b5b61094d576040517f08c379a000000000000000000000000000000000000000000000000000000000815260040161094490614e99565b60405180910390fd5b610957838361291c565b505050565b61096d610967612914565b826129d5565b6109ac576040517f08c379a00000000000000000000000000000000000000000000000000000000081526004016109a390614f2b565b60405180910390fd5b6109b7838383612a6a565b505050565b6109d783838360405180602001604052806000815250611a1c565b505050565b6000600167ffffffffffffffff8111156109f9576109f8614466565b5b604051908082528060200260200182016040528015610a2c57816020015b6060815260200190600190039081610a175790505b509050610a3833612d63565b81600081518110610a4c57610a4b614f4b565b5b602002602001018190525060006040518060c0016040528087815260200186815260200185815260200184815260200183815260200160018152509050600760003373ffffffffffffffffffffffffffffffffffffffff1673ffffffffffffffffffffffffffffffffffffffff1681526020019081526020016000208190806001815401808255809150506001900390600052602060002090600602016000909190919091506000820151816000019081610b079190615126565b50602082015181600101556040820151816002019081610b279190615126565b50606082015181600301556080820151816004019080519060200190610b4e929190613fa8565b5060a082015181600501555050600860003373ffffffffffffffffffffffffffffffffffffffff1673ffffffffffffffffffffffffffffffffffffffff1681526020019081526020016000206000815480929190610bab90615227565b919050555060098190806001815401808255809150506001900390600052602060002090600602016000909190919091506000820151816000019081610bf19190615126565b50602082015181600101556040820151816002019081610c119190615126565b50606082015181600301556080820151816004019080519060200190610c38929190613fa8565b5060a082015181600501555050600a6000815480929190610c5890615227565b91905055503373ffffffffffffffffffffffffffffffffffffffff167f408e409fecc49505bbf52289698e61b3371b949d8a005a30020701b4f4d33ff987878787876001604051610cae96959493929190615330565b60405180910390a2505050505050565b600080610cca8361306e565b9050600073ffffffffffffffffffffffffffffffffffffffff168173ffffffffffffffffffffffffffffffffffffffff1603610d3b576040517f08c379a0000000000000000000000000000000000000000000000000000000008152600401610d32906153f2565b60405180910390fd5b80915050919050565b6000600e54905090565b60008073ffffffffffffffffffffffffffffffffffffffff168273ffffffffffffffffffffffffffffffffffffffff1603610dbe576040517f08c379a0000000000000000000000000000000000000000000000000000000008152600401610db590615484565b60405180910390fd5b600360008373ffffffffffffffffffffffffffffffffffffffff1673ffffffffffffffffffffffffffffffffffffffff168152602001908152602001600020549050919050565b6000610e11600c6130ab565b6000610e1d600c6130c1565b9050610e2933826130cf565b610e3381856130ed565b610e3d8184613191565b8091505092915050565b6060600760008373ffffffffffffffffffffffffffffffffffffffff1673ffffffffffffffffffffffffffffffffffffffff168152602001908152602001600020805480602002602001604051908101604052809291908181526020016000905b828210156110f557838290600052602060002090600602016040518060c0016040529081600082018054610edb90614d64565b80601f0160208091040260200160405190810160405280929190818152602001828054610f0790614d64565b8015610f545780601f10610f2957610100808354040283529160200191610f54565b820191906000526020600020905b815481529060010190602001808311610f3757829003601f168201915b5050505050815260200160018201548152602001600282018054610f7790614d64565b80601f0160208091040260200160405190810160405280929190818152602001828054610fa390614d64565b8015610ff05780601f10610fc557610100808354040283529160200191610ff0565b820191906000526020600020905b815481529060010190602001808311610fd357829003601f168201915b505050505081526020016003820154815260200160048201805480602002602001604051908101604052809291908181526020016000905b828210156110d457838290600052602060002001805461104790614d64565b80601f016020809104026020016040519081016040528092919081815260200182805461107390614d64565b80156110c05780601f10611095576101008083540402835291602001916110c0565b820191906000526020600020905b8154815290600101906020018083116110a357829003601f168201915b505050505081526020019060010190611028565b50505050815260200160058201548152505081526020019060010190610ea8565b505050509050919050565b60606001805461110f90614d64565b80601f016020809104026020016040519081016040528092919081815260200182805461113b90614d64565b80156111885780601f1061115d57610100808354040283529160200191611188565b820191906000526020600020905b81548152906001019060200180831161116b57829003601f168201915b5050505050905090565b61119a614001565b600f60008381526020019081526020016000206040518060a0016040529081600082015481526020016001820160009054906101000a900473ffffffffffffffffffffffffffffffffffffffff1673ffffffffffffffffffffffffffffffffffffffff1673ffffffffffffffffffffffffffffffffffffffff1681526020016002820160009054906101000a900473ffffffffffffffffffffffffffffffffffffffff1673ffffffffffffffffffffffffffffffffffffffff1673ffffffffffffffffffffffffffffffffffffffff168152602001600382015481526020016004820160009054906101000a900460ff1615151515815250509050919050565b600760003373ffffffffffffffffffffffffffffffffffffffff1673ffffffffffffffffffffffffffffffffffffffff16815260200190815260200160002080549050811061131e576040517f08c379a0000000000000000000000000000000000000000000000000000000008152600401611315906154f0565b60405180910390fd5b600760003373ffffffffffffffffffffffffffffffffffffffff1673ffffffffffffffffffffffffffffffffffffffff168152602001908152602001600020818154811061136f5761136e614f4b565b5b906000526020600020906006020160040161138983612d63565b9080600181540180825580915050600190039060005260206000200160009091909190915090816113ba9190615126565b50600760003373ffffffffffffffffffffffffffffffffffffffff1673ffffffffffffffffffffffffffffffffffffffff168152602001908152602001600020818154811061140c5761140b614f4b565b5b9060005260206000209060060201600501600081548092919061142e90615227565b91905055506000600760003373ffffffffffffffffffffffffffffffffffffffff1673ffffffffffffffffffffffffffffffffffffffff168152602001908152602001600020828154811061148657611485614f4b565b5b906000526020600020906006020160030154905060005b600a548110156115825781600982815481106114bc576114bb614f4b565b5b9060005260206000209060060201600301540361156f57600981815481106114e7576114e6614f4b565b5b906000526020600020906006020160040161150185612d63565b9080600181540180825580915050600190039060005260206000200160009091909190915090816115329190615126565b506009818154811061154757611546614f4b565b5b9060005260206000209060060201600501600081548092919061156990615227565b91905055505b808061157a90615227565b91505061149d565b506000600760003373ffffffffffffffffffffffffffffffffffffffff1673ffffffffffffffffffffffffffffffffffffffff16815260200190815260200160002083815481106115d6576115d5614f4b565b5b90600052602060002090600602016040518060c00160405290816000820180546115ff90614d64565b80601f016020809104026020016040519081016040528092919081815260200182805461162b90614d64565b80156116785780601f1061164d57610100808354040283529160200191611678565b820191906000526020600020905b81548152906001019060200180831161165b57829003601f168201915b505050505081526020016001820154815260200160028201805461169b90614d64565b80601f01602080910402602001604051908101604052809291908181526020018280546116c790614d64565b80156117145780601f106116e957610100808354040283529160200191611714565b820191906000526020600020905b8154815290600101906020018083116116f757829003601f168201915b505050505081526020016003820154815260200160048201805480602002602001604051908101604052809291908181526020016000905b828210156117f857838290600052602060002001805461176b90614d64565b80601f016020809104026020016040519081016040528092919081815260200182805461179790614d64565b80156117e45780601f106117b9576101008083540402835291602001916117e4565b820191906000526020600020905b8154815290600101906020018083116117c757829003601f168201915b50505050508152602001906001019061174c565b5050505081526020016005820154815250509050600760008573ffffffffffffffffffffffffffffffffffffffff1673ffffffffffffffffffffffffffffffffffffffff168152602001908152602001600020819080600181540180825580915050600190039060005260206000209060060201600090919091909150600082015181600001908161188a9190615126565b506020820151816001015560408201518160020190816118aa9190615126565b506060820151816003015560808201518160040190805190602001906118d1929190613fa8565b5060a082015181600501555050600860003373ffffffffffffffffffffffffffffffffffffffff1673ffffffffffffffffffffffffffffffffffffffff168152602001908152602001600020600081548092919061192e90615510565b9190505550600860008573ffffffffffffffffffffffffffffffffffffffff1673ffffffffffffffffffffffffffffffffffffffff168152602001908152602001600020600081548092919061198390615227565b919050555061199183613394565b8373ffffffffffffffffffffffffffffffffffffffff163373ffffffffffffffffffffffffffffffffffffffff167f08c7dc9c65cfe0a446c6b662ec2e35c1966d49c8c50f8a4b78a7e2e0c68217c4856040516119ee919061463f565b60405180910390a350505050565b611a0e611a07612914565b8383613667565b5050565b6000600a54905090565b611a2d611a27612914565b836129d5565b611a6c576040517f08c379a0000000000000000000000000000000000000000000000000000000008152600401611a6390614f2b565b60405180910390fd5b611a78848484846137d3565b50505050565b60606000611a8c600c6130c1565b9050600080600080600090505b84811015611bb2573373ffffffffffffffffffffffffffffffffffffffff16600f6000600184611ac99190615539565b815260200190815260200160002060010160009054906101000a900473ffffffffffffffffffffffffffffffffffffffff1673ffffffffffffffffffffffffffffffffffffffff161480611b8a57503373ffffffffffffffffffffffffffffffffffffffff16600f6000600184611b409190615539565b815260200190815260200160002060020160009054906101000a900473ffffffffffffffffffffffffffffffffffffffff1673ffffffffffffffffffffffffffffffffffffffff16145b15611b9f57600184611b9c9190615539565b93505b8080611baa90615227565b915050611a99565b5060008367ffffffffffffffff811115611bcf57611bce614466565b5b604051908082528060200260200182016040528015611c0857816020015b611bf5614001565b815260200190600190039081611bed5790505b50905060005b85811015611e53573373ffffffffffffffffffffffffffffffffffffffff16600f6000600184611c3e9190615539565b815260200190815260200160002060010160009054906101000a900473ffffffffffffffffffffffffffffffffffffffff1673ffffffffffffffffffffffffffffffffffffffff161480611cff57503373ffffffffffffffffffffffffffffffffffffffff16600f6000600184611cb59190615539565b815260200190815260200160002060020160009054906101000a900473ffffffffffffffffffffffffffffffffffffffff1673ffffffffffffffffffffffffffffffffffffffff16145b15611e4057600181611d119190615539565b92506000600f60008581526020019081526020016000209050806040518060a0016040529081600082015481526020016001820160009054906101000a900473ffffffffffffffffffffffffffffffffffffffff1673ffffffffffffffffffffffffffffffffffffffff1673ffffffffffffffffffffffffffffffffffffffff1681526020016002820160009054906101000a900473ffffffffffffffffffffffffffffffffffffffff1673ffffffffffffffffffffffffffffffffffffffff1673ffffffffffffffffffffffffffffffffffffffff168152602001600382015481526020016004820160009054906101000a900460ff161515151581525050838681518110611e2457611e23614f4b565b5b6020026020010181905250600185611e3c9190615539565b9450505b8080611e4b90615227565b915050611c0e565b50809550505050505090565b3373ffffffffffffffffffffffffffffffffffffffff16600b60009054906101000a900473ffffffffffffffffffffffffffffffffffffffff1673ffffffffffffffffffffffffffffffffffffffff1614611eef576040517f08c379a0000000000000000000000000000000000000000000000000000000008152600401611ee6906155df565b60405180910390fd5b80600e8190555050565b606060005b600a5481101561204a578260098281548110611f1d57611f1c614f4b565b5b906000526020600020906006020160030154036120375760098181548110611f4857611f47614f4b565b5b9060005260206000209060060201600401600160098381548110611f6f57611f6e614f4b565b5b906000526020600020906006020160050154611f8b91906155ff565b81548110611f9c57611f9b614f4b565b5b906000526020600020018054611fb190614d64565b80601f0160208091040260200160405190810160405280929190818152602001828054611fdd90614d64565b801561202a5780601f10611fff5761010080835404028352916020019161202a565b820191906000526020600020905b81548152906001019060200180831161200d57829003601f168201915b5050505050915050612084565b808061204290615227565b915050611efe565b506040518060400160405280600981526020017f4e6f7420666f756e64000000000000000000000000000000000000000000000081525090505b919050565b6060612094826128c9565b60006006600084815260200190815260200160002080546120b490614d64565b80601f01602080910402602001604051908101604052809291908181526020018280546120e090614d64565b801561212d5780601f106121025761010080835404028352916020019161212d565b820191906000526020600020905b81548152906001019060200180831161211057829003601f168201915b50505050509050600061213e61382f565b90506000815103612153578192505050612196565b60008251111561218857808260405160200161217092919061566f565b60405160208183030381529060405292505050612196565b61219184613846565b925050505b919050565b60606009805480602002602001604051908101604052809291908181526020016000905b8282101561240c57838290600052602060002090600602016040518060c00160405290816000820180546121f290614d64565b80601f016020809104026020016040519081016040528092919081815260200182805461221e90614d64565b801561226b5780601f106122405761010080835404028352916020019161226b565b820191906000526020600020905b81548152906001019060200180831161224e57829003601f168201915b505050505081526020016001820154815260200160028201805461228e90614d64565b80601f01602080910402602001604051908101604052809291908181526020018280546122ba90614d64565b80156123075780601f106122dc57610100808354040283529160200191612307565b820191906000526020600020905b8154815290600101906020018083116122ea57829003601f168201915b505050505081526020016003820154815260200160048201805480602002602001604051908101604052809291908181526020016000905b828210156123eb57838290600052602060002001805461235e90614d64565b80601f016020809104026020016040519081016040528092919081815260200182805461238a90614d64565b80156123d75780601f106123ac576101008083540402835291602001916123d7565b820191906000526020600020905b8154815290600101906020018083116123ba57829003601f168201915b50505050508152602001906001019061233f565b505050508152602001600582015481525050815260200190600101906121bf565b50505050905090565b61241d614001565b6000612429600c6130c1565b9050600f60008281526020019081526020016000206040518060a0016040529081600082015481526020016001820160009054906101000a900473ffffffffffffffffffffffffffffffffffffffff1673ffffffffffffffffffffffffffffffffffffffff1673ffffffffffffffffffffffffffffffffffffffff1681526020016002820160009054906101000a900473ffffffffffffffffffffffffffffffffffffffff1673ffffffffffffffffffffffffffffffffffffffff1673ffffffffffffffffffffffffffffffffffffffff168152602001600382015481526020016004820160009054906101000a900460ff16151515158152505091505090565b6000600860008373ffffffffffffffffffffffffffffffffffffffff1673ffffffffffffffffffffffffffffffffffffffff168152602001908152602001600020549050919050565b60606000612581600c6130c1565b905060008167ffffffffffffffff81111561259f5761259e614466565b5b6040519080825280602002602001820160405280156125d857816020015b6125c5614001565b8152602001906001900390816125bd5790505b5090506000805b838110156127385760006001826125f69190615539565b90506000600f60008381526020019081526020016000209050806040518060a0016040529081600082015481526020016001820160009054906101000a900473ffffffffffffffffffffffffffffffffffffffff1673ffffffffffffffffffffffffffffffffffffffff1673ffffffffffffffffffffffffffffffffffffffff1681526020016002820160009054906101000a900473ffffffffffffffffffffffffffffffffffffffff1673ffffffffffffffffffffffffffffffffffffffff1673ffffffffffffffffffffffffffffffffffffffff168152602001600382015481526020016004820160009054906101000a900460ff16151515158152505085858151811061270957612708614f4b565b5b60200260200101819052506001846127219190615539565b93505050808061273090615227565b9150506125df565b5081935050505090565b6000600560008473ffffffffffffffffffffffffffffffffffffffff1673ffffffffffffffffffffffffffffffffffffffff16815260200190815260200160002060008373ffffffffffffffffffffffffffffffffffffffff1673ffffffffffffffffffffffffffffffffffffffff16815260200190815260200160002060009054906101000a900460ff16905092915050565b60006127e2600c6130c1565b905090565b60007f80ac58cd000000000000000000000000000000000000000000000000000000007bffffffffffffffffffffffffffffffffffffffffffffffffffffffff1916827bffffffffffffffffffffffffffffffffffffffffffffffffffffffff191614806128b257507f5b5e139f000000000000000000000000000000000000000000000000000000007bffffffffffffffffffffffffffffffffffffffffffffffffffffffff1916827bffffffffffffffffffffffffffffffffffffffffffffffffffffffff1916145b806128c257506128c1826138ae565b5b9050919050565b6128d281613918565b612911576040517f08c379a0000000000000000000000000000000000000000000000000000000008152600401612908906153f2565b60405180910390fd5b50565b600033905090565b816004600083815260200190815260200160002060006101000a81548173ffffffffffffffffffffffffffffffffffffffff021916908373ffffffffffffffffffffffffffffffffffffffff160217905550808273ffffffffffffffffffffffffffffffffffffffff1661298f83610cbe565b73ffffffffffffffffffffffffffffffffffffffff167f8c5be1e5ebec7d5bd14f71427d1e84f3dd0314c0f7b2291e5b200ac8c7c3b92560405160405180910390a45050565b6000806129e183610cbe565b90508073ffffffffffffffffffffffffffffffffffffffff168473ffffffffffffffffffffffffffffffffffffffff161480612a235750612a228185612742565b5b80612a6157508373ffffffffffffffffffffffffffffffffffffffff16612a49846107ff565b73ffffffffffffffffffffffffffffffffffffffff16145b91505092915050565b8273ffffffffffffffffffffffffffffffffffffffff16612a8a82610cbe565b73ffffffffffffffffffffffffffffffffffffffff1614612ae0576040517f08c379a0000000000000000000000000000000000000000000000000000000008152600401612ad790615705565b60405180910390fd5b600073ffffffffffffffffffffffffffffffffffffffff168273ffffffffffffffffffffffffffffffffffffffff1603612b4f576040517f08c379a0000000000000000000000000000000000000000000000000000000008152600401612b4690615797565b60405180910390fd5b612b5c8383836001613959565b8273ffffffffffffffffffffffffffffffffffffffff16612b7c82610cbe565b73ffffffffffffffffffffffffffffffffffffffff1614612bd2576040517f08c379a0000000000000000000000000000000000000000000000000000000008152600401612bc990615705565b60405180910390fd5b6004600082815260200190815260200160002060006101000a81549073ffffffffffffffffffffffffffffffffffffffff02191690556001600360008573ffffffffffffffffffffffffffffffffffffffff1673ffffffffffffffffffffffffffffffffffffffff168152602001908152602001600020600082825403925050819055506001600360008473ffffffffffffffffffffffffffffffffffffffff1673ffffffffffffffffffffffffffffffffffffffff16815260200190815260200160002060008282540192505081905550816002600083815260200190815260200160002060006101000a81548173ffffffffffffffffffffffffffffffffffffffff021916908373ffffffffffffffffffffffffffffffffffffffff160217905550808273ffffffffffffffffffffffffffffffffffffffff168473ffffffffffffffffffffffffffffffffffffffff167fddf252ad1be2c89b69c2b068fc378daa952ba7f163c4a11628f55a4df523b3ef60405160405180910390a4612d5e838383600161395f565b505050565b606060008273ffffffffffffffffffffffffffffffffffffffff1660001b905060006040518060400160405280601081526020017f303132333435363738396162636465660000000000000000000000000000000081525090506000602a67ffffffffffffffff811115612dda57612dd9614466565b5b6040519080825280601f01601f191660200182016040528015612e0c5781602001600182028036833780820191505090505b5090507f300000000000000000000000000000000000000000000000000000000000000081600081518110612e4457612e43614f4b565b5b60200101907effffffffffffffffffffffffffffffffffffffffffffffffffffffffffffff1916908160001a9053507f780000000000000000000000000000000000000000000000000000000000000081600181518110612ea857612ea7614f4b565b5b60200101907effffffffffffffffffffffffffffffffffffffffffffffffffffffffffffff1916908160001a90535060005b60148110156130625782600485600c84612ef49190615539565b60208110612f0557612f04614f4b565b5b1a60f81b7effffffffffffffffffffffffffffffffffffffffffffffffffffffffffffff1916901c60f81c60ff1681518110612f4457612f43614f4b565b5b602001015160f81c60f81b82600283612f5d91906157b7565b6002612f699190615539565b81518110612f7a57612f79614f4b565b5b60200101907effffffffffffffffffffffffffffffffffffffffffffffffffffffffffffff1916908160001a90535082600f60f81b85600c84612fbd9190615539565b60208110612fce57612fcd614f4b565b5b1a60f81b1660f81c60ff1681518110612fea57612fe9614f4b565b5b602001015160f81c60f81b8260028361300391906157b7565b600361300f9190615539565b815181106130205761301f614f4b565b5b60200101907effffffffffffffffffffffffffffffffffffffffffffffffffffffffffffff1916908160001a905350808061305a90615227565b915050612eda565b50809350505050919050565b60006002600083815260200190815260200160002060009054906101000a900473ffffffffffffffffffffffffffffffffffffffff169050919050565b6001816000016000828254019250508190555050565b600081600001549050919050565b6130e9828260405180602001604052806000815250613965565b5050565b6130f682613918565b613135576040517f08c379a000000000000000000000000000000000000000000000000000000000815260040161312c9061586b565b60405180910390fd5b806006600084815260200190815260200160002090816131559190615126565b507ff8e1a15aba9398e019f0b49df1a4fde98ee17ae345cb5f6b5e2c27f5033e8ce782604051613185919061463f565b60405180910390a15050565b600e5434146131d5576040517f08c379a00000000000000000000000000000000000000000000000000000000081526004016131cc906158fd565b60405180910390fd5b60008111613218576040517f08c379a000000000000000000000000000000000000000000000000000000000815260040161320f9061598f565b60405180910390fd5b6040518060a001604052808381526020013073ffffffffffffffffffffffffffffffffffffffff1681526020013373ffffffffffffffffffffffffffffffffffffffff16815260200182815260200160011515815250600f60008481526020019081526020016000206000820151816000015560208201518160010160006101000a81548173ffffffffffffffffffffffffffffffffffffffff021916908373ffffffffffffffffffffffffffffffffffffffff16021790555060408201518160020160006101000a81548173ffffffffffffffffffffffffffffffffffffffff021916908373ffffffffffffffffffffffffffffffffffffffff1602179055506060820151816003015560808201518160040160006101000a81548160ff021916908315150217905550905050613351333084612a6a565b817f9339409317fd01fabff48b703019016f49159bacc801ae872d2ca637d226e4c0303384600160405161338894939291906159af565b60405180910390a25050565b600760003373ffffffffffffffffffffffffffffffffffffffff1673ffffffffffffffffffffffffffffffffffffffff168152602001908152602001600020805490508110613418576040517f08c379a000000000000000000000000000000000000000000000000000000000815260040161340f90615a40565b60405180910390fd5b60008190505b6001600760003373ffffffffffffffffffffffffffffffffffffffff1673ffffffffffffffffffffffffffffffffffffffff1681526020019081526020016000208054905061346d91906155ff565b8110156135b357600760003373ffffffffffffffffffffffffffffffffffffffff1673ffffffffffffffffffffffffffffffffffffffff1681526020019081526020016000206001826134c09190615539565b815481106134d1576134d0614f4b565b5b9060005260206000209060060201600760003373ffffffffffffffffffffffffffffffffffffffff1673ffffffffffffffffffffffffffffffffffffffff16815260200190815260200160002082815481106135305761352f614f4b565b5b9060005260206000209060060201600082018160000190816135529190615a76565b5060018201548160010155600282018160020190816135719190615a76565b5060038201548160030155600482018160040190805461359292919061405e565b506005820154816005015590505080806135ab90615227565b91505061341e565b50600760003373ffffffffffffffffffffffffffffffffffffffff1673ffffffffffffffffffffffffffffffffffffffff16815260200190815260200160002080548061360357613602615b5e565b5b60019003818190600052602060002090600602016000808201600061362891906140bb565b600182016000905560028201600061364091906140bb565b600382016000905560048201600061365891906140fb565b60058201600090555050905550565b8173ffffffffffffffffffffffffffffffffffffffff168373ffffffffffffffffffffffffffffffffffffffff16036136d5576040517f08c379a00000000000000000000000000000000000000000000000000000000081526004016136cc90615bd9565b60405180910390fd5b80600560008573ffffffffffffffffffffffffffffffffffffffff1673ffffffffffffffffffffffffffffffffffffffff16815260200190815260200160002060008473ffffffffffffffffffffffffffffffffffffffff1673ffffffffffffffffffffffffffffffffffffffff16815260200190815260200160002060006101000a81548160ff0219169083151502179055508173ffffffffffffffffffffffffffffffffffffffff168373ffffffffffffffffffffffffffffffffffffffff167f17307eab39ab6107e8899845ad3d59bd9653f200f220920489ca2b5937696c31836040516137c69190614211565b60405180910390a3505050565b6137de848484612a6a565b6137ea848484846139c0565b613829576040517f08c379a000000000000000000000000000000000000000000000000000000000815260040161382090615c6b565b60405180910390fd5b50505050565b606060405180602001604052806000815250905090565b6060613851826128c9565b600061385b61382f565b9050600081511161387b57604051806020016040528060008152506138a6565b8061388584613b47565b60405160200161389692919061566f565b6040516020818303038152906040525b915050919050565b60007f01ffc9a7000000000000000000000000000000000000000000000000000000007bffffffffffffffffffffffffffffffffffffffffffffffffffffffff1916827bffffffffffffffffffffffffffffffffffffffffffffffffffffffff1916149050919050565b60008073ffffffffffffffffffffffffffffffffffffffff1661393a8361306e565b73ffffffffffffffffffffffffffffffffffffffff1614159050919050565b50505050565b50505050565b61396f8383613c15565b61397c60008484846139c0565b6139bb576040517f08c379a00000000000000000000000000000000000000000000000000000000081526004016139b290615c6b565b60405180910390fd5b505050565b60006139e18473ffffffffffffffffffffffffffffffffffffffff16613e32565b15613b3a578373ffffffffffffffffffffffffffffffffffffffff1663150b7a02613a0a612914565b8786866040518563ffffffff1660e01b8152600401613a2c9493929190615ce0565b6020604051808303816000875af1925050508015613a6857506040513d601f19601f82011682018060405250810190613a659190615d41565b60015b613aea573d8060008114613a98576040519150601f19603f3d011682016040523d82523d6000602084013e613a9d565b606091505b506000815103613ae2576040517f08c379a0000000000000000000000000000000000000000000000000000000008152600401613ad990615c6b565b60405180910390fd5b805181602001fd5b63150b7a0260e01b7bffffffffffffffffffffffffffffffffffffffffffffffffffffffff1916817bffffffffffffffffffffffffffffffffffffffffffffffffffffffff191614915050613b3f565b600190505b949350505050565b606060006001613b5684613e55565b01905060008167ffffffffffffffff811115613b7557613b74614466565b5b6040519080825280601f01601f191660200182016040528015613ba75781602001600182028036833780820191505090505b509050600082602001820190505b600115613c0a578080600190039150507f3031323334353637383961626364656600000000000000000000000000000000600a86061a8153600a8581613bfe57613bfd615d6e565b5b04945060008503613bb5575b819350505050919050565b600073ffffffffffffffffffffffffffffffffffffffff168273ffffffffffffffffffffffffffffffffffffffff1603613c84576040517f08c379a0000000000000000000000000000000000000000000000000000000008152600401613c7b90615de9565b60405180910390fd5b613c8d81613918565b15613ccd576040517f08c379a0000000000000000000000000000000000000000000000000000000008152600401613cc490615e55565b60405180910390fd5b613cdb600083836001613959565b613ce481613918565b15613d24576040517f08c379a0000000000000000000000000000000000000000000000000000000008152600401613d1b90615e55565b60405180910390fd5b6001600360008473ffffffffffffffffffffffffffffffffffffffff1673ffffffffffffffffffffffffffffffffffffffff16815260200190815260200160002060008282540192505081905550816002600083815260200190815260200160002060006101000a81548173ffffffffffffffffffffffffffffffffffffffff021916908373ffffffffffffffffffffffffffffffffffffffff160217905550808273ffffffffffffffffffffffffffffffffffffffff16600073ffffffffffffffffffffffffffffffffffffffff167fddf252ad1be2c89b69c2b068fc378daa952ba7f163c4a11628f55a4df523b3ef60405160405180910390a4613e2e60008383600161395f565b5050565b6000808273ffffffffffffffffffffffffffffffffffffffff163b119050919050565b600080600090507a184f03e93ff9f4daa797ed6e38ed64bf6a1f0100000000000000008310613eb3577a184f03e93ff9f4daa797ed6e38ed64bf6a1f0100000000000000008381613ea957613ea8615d6e565b5b0492506040810190505b6d04ee2d6d415b85acef81000000008310613ef0576d04ee2d6d415b85acef81000000008381613ee657613ee5615d6e565b5b0492506020810190505b662386f26fc100008310613f1f57662386f26fc100008381613f1557613f14615d6e565b5b0492506010810190505b6305f5e1008310613f48576305f5e1008381613f3e57613f3d615d6e565b5b0492506008810190505b6127108310613f6d576127108381613f6357613f62615d6e565b5b0492506004810190505b60648310613f905760648381613f8657613f85615d6e565b5b0492506002810190505b600a8310613f9f576001810190505b80915050919050565b828054828255906000526020600020908101928215613ff0579160200282015b82811115613fef578251829081613fdf9190615126565b5091602001919060010190613fc8565b5b509050613ffd919061411c565b5090565b6040518060a0016040528060008152602001600073ffffffffffffffffffffffffffffffffffffffff168152602001600073ffffffffffffffffffffffffffffffffffffffff168152602001600081526020016000151581525090565b8280548282559060005260206000209081019282156140aa5760005260206000209182015b828111156140a957828290816140999190615a76565b5091600101919060010190614083565b5b5090506140b7919061411c565b5090565b5080546140c790614d64565b6000825580601f106140d957506140f8565b601f0160209004906000526020600020908101906140f79190614140565b5b50565b5080546000825590600052602060002090810190614119919061411c565b50565b5b8082111561413c576000818161413391906140bb565b5060010161411d565b5090565b5b80821115614159576000816000905550600101614141565b5090565b6000604051905090565b600080fd5b600080fd5b60007fffffffff0000000000000000000000000000000000000000000000000000000082169050919050565b6141a681614171565b81146141b157600080fd5b50565b6000813590506141c38161419d565b92915050565b6000602082840312156141df576141de614167565b5b60006141ed848285016141b4565b91505092915050565b60008115159050919050565b61420b816141f6565b82525050565b60006020820190506142266000830184614202565b92915050565b600081519050919050565b600082825260208201905092915050565b60005b8381101561426657808201518184015260208101905061424b565b60008484015250505050565b6000601f19601f8301169050919050565b600061428e8261422c565b6142988185614237565b93506142a8818560208601614248565b6142b181614272565b840191505092915050565b600060208201905081810360008301526142d68184614283565b905092915050565b6000819050919050565b6142f1816142de565b81146142fc57600080fd5b50565b60008135905061430e816142e8565b92915050565b60006020828403121561432a57614329614167565b5b6000614338848285016142ff565b91505092915050565b600073ffffffffffffffffffffffffffffffffffffffff82169050919050565b600061436c82614341565b9050919050565b61437c81614361565b82525050565b60006020820190506143976000830184614373565b92915050565b6143a681614361565b81146143b157600080fd5b50565b6000813590506143c38161439d565b92915050565b600080604083850312156143e0576143df614167565b5b60006143ee858286016143b4565b92505060206143ff858286016142ff565b9150509250929050565b60008060006060848603121561442257614421614167565b5b6000614430868287016143b4565b9350506020614441868287016143b4565b9250506040614452868287016142ff565b9150509250925092565b600080fd5b600080fd5b7f4e487b7100000000000000000000000000000000000000000000000000000000600052604160045260246000fd5b61449e82614272565b810181811067ffffffffffffffff821117156144bd576144bc614466565b5b80604052505050565b60006144d061415d565b90506144dc8282614495565b919050565b600067ffffffffffffffff8211156144fc576144fb614466565b5b61450582614272565b9050602081019050919050565b82818337600083830152505050565b600061453461452f846144e1565b6144c6565b9050828152602081018484840111156145505761454f614461565b5b61455b848285614512565b509392505050565b600082601f8301126145785761457761445c565b5b8135614588848260208601614521565b91505092915050565b600080600080608085870312156145ab576145aa614167565b5b600085013567ffffffffffffffff8111156145c9576145c861416c565b5b6145d587828801614563565b94505060206145e6878288016142ff565b935050604085013567ffffffffffffffff8111156146075761460661416c565b5b61461387828801614563565b9250506060614624878288016142ff565b91505092959194509250565b614639816142de565b82525050565b60006020820190506146546000830184614630565b92915050565b6000602082840312156146705761466f614167565b5b600061467e848285016143b4565b91505092915050565b6000806040838503121561469e5761469d614167565b5b600083013567ffffffffffffffff8111156146bc576146bb61416c565b5b6146c885828601614563565b92505060206146d9858286016142ff565b9150509250929050565b600081519050919050565b600082825260208201905092915050565b6000819050602082019050919050565b600082825260208201905092915050565b600061472b8261422c565b614735818561470f565b9350614745818560208601614248565b61474e81614272565b840191505092915050565b614762816142de565b82525050565b600081519050919050565b600082825260208201905092915050565b6000819050602082019050919050565b60006147a08383614720565b905092915050565b6000602082019050919050565b60006147c082614768565b6147ca8185614773565b9350836020820285016147dc85614784565b8060005b8581101561481857848403895281516147f98582614794565b9450614804836147a8565b925060208a019950506001810190506147e0565b50829750879550505050505092915050565b600060c08301600083015184820360008601526148478282614720565b915050602083015161485c6020860182614759565b50604083015184820360408601526148748282614720565b91505060608301516148896060860182614759565b50608083015184820360808601526148a182826147b5565b91505060a08301516148b660a0860182614759565b508091505092915050565b60006148cd838361482a565b905092915050565b6000602082019050919050565b60006148ed826146e3565b6148f781856146ee565b935083602082028501614909856146ff565b8060005b85811015614945578484038952815161492685826148c1565b9450614931836148d5565b925060208a0199505060018101905061490d565b50829750879550505050505092915050565b6000602082019050818103600083015261497181846148e2565b905092915050565b600061498482614341565b9050919050565b61499481614979565b82525050565b6149a3816141f6565b82525050565b60a0820160008201516149bf6000850182614759565b5060208201516149d2602085018261498b565b5060408201516149e5604085018261498b565b5060608201516149f86060850182614759565b506080820151614a0b608085018261499a565b50505050565b600060a082019050614a2660008301846149a9565b92915050565b614a35816141f6565b8114614a4057600080fd5b50565b600081359050614a5281614a2c565b92915050565b60008060408385031215614a6f57614a6e614167565b5b6000614a7d858286016143b4565b9250506020614a8e85828601614a43565b9150509250929050565b600067ffffffffffffffff821115614ab357614ab2614466565b5b614abc82614272565b9050602081019050919050565b6000614adc614ad784614a98565b6144c6565b905082815260208101848484011115614af857614af7614461565b5b614b03848285614512565b509392505050565b600082601f830112614b2057614b1f61445c565b5b8135614b30848260208601614ac9565b91505092915050565b60008060008060808587031215614b5357614b52614167565b5b6000614b61878288016143b4565b9450506020614b72878288016143b4565b9350506040614b83878288016142ff565b925050606085013567ffffffffffffffff811115614ba457614ba361416c565b5b614bb087828801614b0b565b91505092959194509250565b600081519050919050565b600082825260208201905092915050565b6000819050602082019050919050565b60a082016000820151614bfe6000850182614759565b506020820151614c11602085018261498b565b506040820151614c24604085018261498b565b506060820151614c376060850182614759565b506080820151614c4a608085018261499a565b50505050565b6000614c5c8383614be8565b60a08301905092915050565b6000602082019050919050565b6000614c8082614bbc565b614c8a8185614bc7565b9350614c9583614bd8565b8060005b83811015614cc6578151614cad8882614c50565b9750614cb883614c68565b925050600181019050614c99565b5085935050505092915050565b60006020820190508181036000830152614ced8184614c75565b905092915050565b60008060408385031215614d0c57614d0b614167565b5b6000614d1a858286016143b4565b9250506020614d2b858286016143b4565b9150509250929050565b7f4e487b7100000000000000000000000000000000000000000000000000000000600052602260045260246000fd5b60006002820490506001821680614d7c57607f821691505b602082108103614d8f57614d8e614d35565b5b50919050565b7f4552433732313a20617070726f76616c20746f2063757272656e74206f776e6560008201527f7200000000000000000000000000000000000000000000000000000000000000602082015250565b6000614df1602183614237565b9150614dfc82614d95565b604082019050919050565b60006020820190508181036000830152614e2081614de4565b9050919050565b7f4552433732313a20617070726f76652063616c6c6572206973206e6f7420746f60008201527f6b656e206f776e6572206f7220617070726f76656420666f7220616c6c000000602082015250565b6000614e83603d83614237565b9150614e8e82614e27565b604082019050919050565b60006020820190508181036000830152614eb281614e76565b9050919050565b7f4552433732313a2063616c6c6572206973206e6f7420746f6b656e206f776e6560008201527f72206f7220617070726f76656400000000000000000000000000000000000000602082015250565b6000614f15602d83614237565b9150614f2082614eb9565b604082019050919050565b60006020820190508181036000830152614f4481614f08565b9050919050565b7f4e487b7100000000000000000000000000000000000000000000000000000000600052603260045260246000fd5b60008190508160005260206000209050919050565b60006020601f8301049050919050565b600082821b905092915050565b600060088302614fdc7fffffffffffffffffffffffffffffffffffffffffffffffffffffffffffffffff82614f9f565b614fe68683614f9f565b95508019841693508086168417925050509392505050565b6000819050919050565b600061502361501e615019846142de565b614ffe565b6142de565b9050919050565b6000819050919050565b61503d83615008565b6150516150498261502a565b848454614fac565b825550505050565b600090565b615066615059565b615071818484615034565b505050565b5b818110156150955761508a60008261505e565b600181019050615077565b5050565b601f8211156150da576150ab81614f7a565b6150b484614f8f565b810160208510156150c3578190505b6150d76150cf85614f8f565b830182615076565b50505b505050565b600082821c905092915050565b60006150fd600019846008026150df565b1980831691505092915050565b600061511683836150ec565b9150826002028217905092915050565b61512f8261422c565b67ffffffffffffffff81111561514857615147614466565b5b6151528254614d64565b61515d828285615099565b600060209050601f831160018114615190576000841561517e578287015190505b615188858261510a565b8655506151f0565b601f19841661519e86614f7a565b60005b828110156151c6578489015182556001820191506020850194506020810190506151a1565b868310156151e357848901516151df601f8916826150ec565b8355505b6001600288020188555050505b505050505050565b7f4e487b7100000000000000000000000000000000000000000000000000000000600052601160045260246000fd5b6000615232826142de565b91507fffffffffffffffffffffffffffffffffffffffffffffffffffffffffffffffff8203615264576152636151f8565b5b600182019050919050565b600082825260208201905092915050565b600061528b82614768565b615295818561526f565b9350836020820285016152a785614784565b8060005b858110156152e357848403895281516152c48582614794565b94506152cf836147a8565b925060208a019950506001810190506152ab565b50829750879550505050505092915050565b6000819050919050565b600061531a615315615310846152f5565b614ffe565b6142de565b9050919050565b61532a816152ff565b82525050565b600060c082019050818103600083015261534a8189614283565b90506153596020830188614630565b818103604083015261536b8187614283565b905061537a6060830186614630565b818103608083015261538c8185615280565b905061539b60a0830184615321565b979650505050505050565b7f4552433732313a20696e76616c696420746f6b656e2049440000000000000000600082015250565b60006153dc601883614237565b91506153e7826153a6565b602082019050919050565b6000602082019050818103600083015261540b816153cf565b9050919050565b7f4552433732313a2061646472657373207a65726f206973206e6f74206120766160008201527f6c6964206f776e65720000000000000000000000000000000000000000000000602082015250565b600061546e602983614237565b915061547982615412565b604082019050919050565b6000602082019050818103600083015261549d81615461565b9050919050565b7f496e76616c6964206361726420696e6465780000000000000000000000000000600082015250565b60006154da601283614237565b91506154e5826154a4565b602082019050919050565b60006020820190508181036000830152615509816154cd565b9050919050565b600061551b826142de565b91506000820361552e5761552d6151f8565b5b600182039050919050565b6000615544826142de565b915061554f836142de565b9250828201905080821115615567576155666151f8565b5b92915050565b7f4f6e6c7920746865206f776e65722063616e20706572666f726d20746869732060008201527f616374696f6e0000000000000000000000000000000000000000000000000000602082015250565b60006155c9602683614237565b91506155d48261556d565b604082019050919050565b600060208201905081810360008301526155f8816155bc565b9050919050565b600061560a826142de565b9150615615836142de565b925082820390508181111561562d5761562c6151f8565b5b92915050565b600081905092915050565b60006156498261422c565b6156538185615633565b9350615663818560208601614248565b80840191505092915050565b600061567b828561563e565b9150615687828461563e565b91508190509392505050565b7f4552433732313a207472616e736665722066726f6d20696e636f72726563742060008201527f6f776e6572000000000000000000000000000000000000000000000000000000602082015250565b60006156ef602583614237565b91506156fa82615693565b604082019050919050565b6000602082019050818103600083015261571e816156e2565b9050919050565b7f4552433732313a207472616e7366657220746f20746865207a65726f2061646460008201527f7265737300000000000000000000000000000000000000000000000000000000602082015250565b6000615781602483614237565b915061578c82615725565b604082019050919050565b600060208201905081810360008301526157b081615774565b9050919050565b60006157c2826142de565b91506157cd836142de565b92508282026157db816142de565b915082820484148315176157f2576157f16151f8565b5b5092915050565b7f45524337323155524953746f726167653a2055524920736574206f66206e6f6e60008201527f6578697374656e7420746f6b656e000000000000000000000000000000000000602082015250565b6000615855602e83614237565b9150615860826157f9565b604082019050919050565b6000602082019050818103600083015261588481615848565b9050919050565b7f486f706566756c6c792073656e64696e672074686520636f727265637420707260008201527f6963650000000000000000000000000000000000000000000000000000000000602082015250565b60006158e7602383614237565b91506158f28261588b565b604082019050919050565b60006020820190508181036000830152615916816158da565b9050919050565b7f4d616b652073757265207468652070726963652069736e2774206e656761746960008201527f7665000000000000000000000000000000000000000000000000000000000000602082015250565b6000615979602283614237565b91506159848261591d565b604082019050919050565b600060208201905081810360008301526159a88161596c565b9050919050565b60006080820190506159c46000830187614373565b6159d16020830186614373565b6159de6040830185614630565b6159eb6060830184614202565b95945050505050565b7f496e646578206f7574206f6620626f756e647300000000000000000000000000600082015250565b6000615a2a601383614237565b9150615a35826159f4565b602082019050919050565b60006020820190508181036000830152615a5981615a1d565b9050919050565b600081549050615a6f81614d64565b9050919050565b818103615a84575050615b5c565b615a8d82615a60565b67ffffffffffffffff811115615aa657615aa5614466565b5b615ab08254614d64565b615abb828285615099565b6000601f831160018114615aea5760008415615ad8578287015490505b615ae2858261510a565b865550615b55565b601f198416615af887614f7a565b9650615b0386614f7a565b60005b82811015615b2b57848901548255600182019150600185019450602081019050615b06565b86831015615b485784890154615b44601f8916826150ec565b8355505b6001600288020188555050505b5050505050505b565b7f4e487b7100000000000000000000000000000000000000000000000000000000600052603160045260246000fd5b7f4552433732313a20617070726f766520746f2063616c6c657200000000000000600082015250565b6000615bc3601983614237565b9150615bce82615b8d565b602082019050919050565b60006020820190508181036000830152615bf281615bb6565b9050919050565b7f4552433732313a207472616e7366657220746f206e6f6e20455243373231526560008201527f63656976657220696d706c656d656e7465720000000000000000000000000000602082015250565b6000615c55603283614237565b9150615c6082615bf9565b604082019050919050565b60006020820190508181036000830152615c8481615c48565b9050919050565b600081519050919050565b600082825260208201905092915050565b6000615cb282615c8b565b615cbc8185615c96565b9350615ccc818560208601614248565b615cd581614272565b840191505092915050565b6000608082019050615cf56000830187614373565b615d026020830186614373565b615d0f6040830185614630565b8181036060830152615d218184615ca7565b905095945050505050565b600081519050615d3b8161419d565b92915050565b600060208284031215615d5757615d56614167565b5b6000615d6584828501615d2c565b91505092915050565b7f4e487b7100000000000000000000000000000000000000000000000000000000600052601260045260246000fd5b7f4552433732313a206d696e7420746f20746865207a65726f2061646472657373600082015250565b6000615dd3602083614237565b9150615dde82615d9d565b602082019050919050565b60006020820190508181036000830152615e0281615dc6565b9050919050565b7f4552433732313a20746f6b656e20616c7265616479206d696e74656400000000600082015250565b6000615e3f601c83614237565b9150615e4a82615e09565b602082019050919050565b60006020820190508181036000830152615e6e81615e32565b905091905056fea2646970667358221220d87068ff0c4841f4ba62e65755a66f40c3ff4796de83faa8ff117fb42fb9124a64736f6c63430008120033",
  "immutableReferences": {},
  "source": "//SPDX-License-Identifier: Unlicensed\r\npragma solidity ^0.8.0;\r\n\r\nimport \"./../node_modules/@openzeppelin/contracts/token/ERC721/ERC721.sol\"; //TODO: magari si pu chiamare in maniera pi carina\r\nimport \"./../node_modules/@openzeppelin/contracts/token/ERC721//extensions/ERC721URIStorage.sol\"; //TODO: magari si pu chiamare in maniera pi carina\r\nimport \"./../node_modules/@openzeppelin/contracts/utils/Counters.sol\";\r\n\r\ncontract NFTMarketplace is ERC721URIStorage {\r\n    struct Card {\r\n        string name;\r\n        uint256 grade;\r\n        string condition;\r\n        uint256 cardCode;\r\n        string[] owners_history;\r\n        uint256 owners_count;\r\n    }\r\n\r\n    mapping(address => Card[]) private userCards; // Mapping to register cards for each user\r\n    mapping(address => uint256) private cardCounts; // Mapping to keep track of card counts for each user\r\n\r\n    Card[] private allCards; // Array to keep track of all cards\r\n    uint256 private allCardsCount; // Variable to keep track of total card count\r\n\r\n    event CardRegistered(\r\n        address indexed user,\r\n        string name,\r\n        uint256 grade,\r\n        string condition,\r\n        uint256 cardCode,\r\n        string[] owners_history,\r\n        uint256 owners_count\r\n    );\r\n\r\n    event CardTransferred(\r\n        address indexed from,\r\n        address indexed to,\r\n        uint256 cardIndex\r\n    );\r\n\r\n    address payable owner;\r\n    using Counters for Counters.Counter; //It's a datatype\r\n\r\n    //Keep track of the number of tokens created\r\n    Counters.Counter private _tokenIDs;\r\n\r\n    //Keep track of the number of items sold on the marketplace\r\n    Counters.Counter private _itemsSold;\r\n\r\n    uint256 listPrice = 0.01 ether; //Fee of the marketplace\r\n\r\n    struct ListedToken {\r\n        uint256 tokenID;\r\n        address payable owner;\r\n        address payable seller;\r\n        uint256 price;\r\n        bool currentlyListed;\r\n    }\r\n\r\n    //the event emitted when a token is successfully listed\r\n    event TokenListedSuccess(\r\n        uint256 indexed tokenId,\r\n        address owner,\r\n        address seller,\r\n        uint256 price,\r\n        bool currentlyListed\r\n    );\r\n\r\n    mapping(uint256 => ListedToken) private idToListedToken; //create a mapping between the id (incremental) and the associated data of the token (listed Token struct)\r\n\r\n    constructor() ERC721(\"NFTCollectible\", \"NFTC\") {\r\n        owner = payable(msg.sender); //only the owner gets a revenue when the marketplace is used, payable means that this address is eligible to receive some eth\r\n    }\r\n\r\n    // HELPER FUNCTIONS\r\n\r\n    function updateListPrice(uint256 _listPrice) public payable {\r\n        require(owner == msg.sender, \"Only the owner can perform this action\");\r\n        listPrice = _listPrice;\r\n    }\r\n\r\n    function getListPrice() public view returns (uint256) {\r\n        return listPrice;\r\n    }\r\n\r\n    function getLatestIdToListedToken()\r\n        public\r\n        view\r\n        returns (ListedToken memory)\r\n    {\r\n        //memory is an instructional keyboard to create a temporary memory allocation\r\n        uint256 currentTokenId = _tokenIDs.current();\r\n        return idToListedToken[currentTokenId];\r\n    }\r\n\r\n    function getListedForTokenId(\r\n        uint256 tokenId\r\n    ) public view returns (ListedToken memory) {\r\n        return idToListedToken[tokenId];\r\n    }\r\n\r\n    function getCurrentToken() public view returns (uint256) {\r\n        return _tokenIDs.current();\r\n    }\r\n\r\n    //CORE FUNCTIONS\r\n\r\n    // Function to get card count of a user by address\r\n    function getCardCount(address _user) external view returns (uint256) {\r\n        return cardCounts[_user];\r\n    }\r\n\r\n    //Function to get all cards count\r\n    function getAllCardsCount() external view returns (uint256) {\r\n        return allCardsCount;\r\n    }\r\n\r\n    // Function to transfer a card from one user to another\r\n    function transferCard(address _to, uint256 _cardIndex) external {\r\n        require( // require is used to validate the inputs to the function and throw error if the condition is not met\r\n            _cardIndex < userCards[msg.sender].length,\r\n            \"Invalid card index\"\r\n        );\r\n        \r\n        userCards[msg.sender][_cardIndex].owners_history.push(addressToString(_to)); //TOO MUCH GAS\r\n        userCards[msg.sender][_cardIndex].owners_count++;\r\n\r\n        uint256 cardCode_tmp = userCards[msg.sender][_cardIndex].cardCode;\r\n\r\n        // Update the owners history of the card in allCards array\r\n        for (uint i = 0; i < allCardsCount ; i++) {\r\n            if (allCards[i].cardCode == cardCode_tmp) {\r\n                allCards[i].owners_history.push(addressToString(_to));\r\n                allCards[i].owners_count++;\r\n            }\r\n        }\r\n\r\n        Card memory cardToTransfer = userCards[msg.sender][_cardIndex]; // Get the card to transfer\r\n        userCards[_to].push(cardToTransfer); // Push the card to the user to whom it is being transferred\r\n        cardCounts[msg.sender]--; // Reduce the card count of the user from whom the card is being transferred\r\n        cardCounts[_to]++; // Increase the card count of the user to whom the card is being transferred\r\n        removeElement(_cardIndex); // Delete the card from the user from whom the card is being transferred\r\n        emit CardTransferred(msg.sender, _to, _cardIndex); // Emit the event to notify the transfer\r\n    }\r\n\r\n    // Function to get all cards of a user by address\r\n    function getUserCards(address _user) external view returns (Card[] memory) {\r\n        // view means that this function will not modify the state of the contract\r\n        return userCards[_user];\r\n    }\r\n\r\n    // Function to get all cards of a all users\r\n    function getAllUserCards() external view returns (Card[] memory) {\r\n        return allCards;\r\n    }\r\n\r\n    // Function to get all cards of a all users\r\n    function getOwner(uint256 _cardCode) external view returns (string memory) {\r\n        for (uint i = 0; i < allCardsCount ; i++) {\r\n            if (allCards[i].cardCode == _cardCode) {\r\n                return allCards[i].owners_history[allCards[i].owners_count-1];\r\n            }\r\n        }\r\n        return \"Not found\";\r\n    }\r\n\r\n    function removeElement(uint256 _cardIndex) internal {\r\n        require(\r\n            _cardIndex < userCards[msg.sender].length,\r\n            \"Index out of bounds\"\r\n        );\r\n\r\n\r\n        // Shift elements to the left starting from the element to be removed\r\n        for (uint i = _cardIndex; i < userCards[msg.sender].length - 1; i++) {\r\n            \r\n            userCards[msg.sender][i] = userCards[msg.sender][i + 1];\r\n        }\r\n\r\n        // Resize the array by deleting the last element\r\n        userCards[msg.sender].pop();\r\n    }\r\n\r\n    function addressToString(address _address) internal pure returns (string memory) {       //pure means that this function will not modify the state of the contract\r\n        bytes32 value = bytes32(uint256(uint160(_address)));                                //internal function to convert an address to a string\r\n        bytes memory alphabet = \"0123456789abcdef\";\r\n\r\n        bytes memory str = new bytes(42);\r\n        str[0] = '0';\r\n        str[1] = 'x';\r\n        for (uint256 i = 0; i < 20; i++) {\r\n            str[2 + i * 2] = alphabet[uint8(value[i + 12] >> 4)];\r\n            str[3 + i * 2] = alphabet[uint8(value[i + 12] & 0x0f)];\r\n        }\r\n        return string(str);\r\n    }\r\n\r\n    //Top level function when creating a token for the first time\r\n    function createToken(\r\n        string memory tokenURI,\r\n        uint256 price\r\n    ) public payable returns (uint) {\r\n        _tokenIDs.increment();\r\n        uint256 currentTokenId = _tokenIDs.current();\r\n        _safeMint(msg.sender, currentTokenId);\r\n        _setTokenURI(currentTokenId, tokenURI);\r\n\r\n        createListedToken(currentTokenId, price);\r\n\r\n        return currentTokenId;\r\n    }\r\n\r\n    function registerCard(\r\n        string memory _name,\r\n        uint256 _grade,\r\n        string memory _condition,\r\n        uint256 _cardCode\r\n    ) external {\r\n        \r\n        string[] memory _owners_history = new string[](1);\r\n        _owners_history[0] = addressToString(msg.sender);  //TOO MUCH GAS?\r\n        \r\n        Card memory newCard = Card(_name, _grade, _condition, _cardCode, _owners_history,1);\r\n        \r\n        userCards[msg.sender].push(newCard);\r\n        cardCounts[msg.sender]++;\r\n\r\n        allCards.push(newCard);\r\n        allCardsCount++;\r\n        emit CardRegistered(msg.sender, _name, _grade, _condition, _cardCode, _owners_history, 1);\r\n    }\r\n\r\n    //Helps create the object of type ListedToken for the NFT and update the idToListedToken mapping\r\n    function createListedToken(uint256 tokenID, uint256 price) private {\r\n        require(msg.value == listPrice, \"Hopefully sending the correct price\");\r\n        //Just sanity check\r\n        require(price > 0, \"Make sure the price isn't negative\");\r\n        idToListedToken[tokenID] = ListedToken(\r\n            tokenID,\r\n            payable(address(this)),\r\n            payable(msg.sender),\r\n            price,\r\n            true\r\n        );\r\n        _transfer(msg.sender, address(this), tokenID);\r\n\r\n        emit TokenListedSuccess(\r\n            tokenID,\r\n            address(this),\r\n            msg.sender,\r\n            price,\r\n            true\r\n        );\r\n    }\r\n\r\n    //Get all the NFTs currently listed for sale on the marketplace --> DA MODIFICARE\r\n    function getAllNFTs() public view returns (ListedToken[] memory) {\r\n        uint nftCount = _tokenIDs.current();\r\n        ListedToken[] memory tokens = new ListedToken[](nftCount);\r\n\r\n        uint currentIndex = 0;\r\n\r\n        for (uint i = 0; i < nftCount; i++) {\r\n            uint currentId = i + 1;\r\n            ListedToken storage currentItem = idToListedToken[currentId];\r\n            tokens[currentIndex] = currentItem;\r\n            currentIndex += 1;\r\n        }\r\n\r\n        return tokens;\r\n    }\r\n\r\n    //Get all the NFTs of the user on the marketplace --> DA MODIFICARE\r\n    function getAllMyNFTs() public view returns (ListedToken[] memory) {\r\n        uint totalItemCount = _tokenIDs.current();\r\n        uint itemCount = 0;\r\n        uint currentIndex = 0;\r\n        uint currentId;\r\n        //Important to get a count of all the NFTs that belong to the user before we can make an array for them\r\n        for (uint i = 0; i < totalItemCount; i++) {\r\n            if (\r\n                idToListedToken[i + 1].owner == msg.sender ||\r\n                idToListedToken[i + 1].seller == msg.sender\r\n            ) {\r\n                itemCount += 1;\r\n            }\r\n        }\r\n\r\n        //Once you have the count of relevant NFTs, create an array then store all the NFTs in it\r\n        ListedToken[] memory items = new ListedToken[](itemCount);\r\n        for (uint i = 0; i < totalItemCount; i++) {\r\n            if (\r\n                idToListedToken[i + 1].owner == msg.sender ||\r\n                idToListedToken[i + 1].seller == msg.sender\r\n            ) {\r\n                currentId = i + 1;\r\n                ListedToken storage currentItem = idToListedToken[currentId];\r\n                items[currentIndex] = currentItem;\r\n                currentIndex += 1;\r\n            }\r\n        }\r\n        return items;\r\n    }\r\n\r\n    /*The function that executes the sale on the marketplace --> DA MODIFICARE\r\n    function executeSale(uint256 tokenId) public payable {\r\n        uint price = idToListedToken[tokenId].price;\r\n        address seller = idToListedToken[tokenId].seller;\r\n        require(\r\n            msg.value == price,\r\n            \"Please submit the asking price in order to complete the purchase\"\r\n        );\r\n\r\n        //update the details of the token\r\n        idToListedToken[tokenId].currentlyListed = true;\r\n        idToListedToken[tokenId].seller = payable(msg.sender);\r\n        //_itemsSold.increment();\r\n\r\n        //Actually transfer the token to the new owner\r\n        _transfer(address(this), msg.sender, tokenId);\r\n        //approve the marketplace to sell NFTs on your behalf\r\n        approve(address(this), tokenId);\r\n\r\n        //Transfer the listing fee to the marketplace creator\r\n        payable(owner).transfer(listPrice);\r\n        //Transfer the proceeds from the sale to the seller of the NFT\r\n        payable(seller).transfer(msg.value);\r\n    }\r\n    */\r\n}\r\n",
  "sourcePath": "C:\\Users\\Giacomo\\Desktop\\Blockchain\\blockchain-authenticator\\project\\truffle\\contracts\\NFTMarketplace.sol",
  "compiler": {
    "name": "solc",
    "version": "0.8.18+commit.87f61d96.Emscripten.clang"
  },
  "schemaVersion": "3.4.14",
  "updatedAt": "2023-07-09T09:58:58.543Z",
  "networkType": "ethereum",
  "devdoc": {
    "events": {
      "Approval(address,address,uint256)": {
        "details": "Emitted when `owner` enables `approved` to manage the `tokenId` token."
      },
      "ApprovalForAll(address,address,bool)": {
        "details": "Emitted when `owner` enables or disables (`approved`) `operator` to manage all of its assets."
      },
      "BatchMetadataUpdate(uint256,uint256)": {
        "details": "This event emits when the metadata of a range of tokens is changed. So that the third-party platforms such as NFT market could timely update the images and related attributes of the NFTs."
      },
      "MetadataUpdate(uint256)": {
        "details": "This event emits when the metadata of a token is changed. So that the third-party platforms such as NFT market could timely update the images and related attributes of the NFT."
      },
      "Transfer(address,address,uint256)": {
        "details": "Emitted when `tokenId` token is transferred from `from` to `to`."
      }
    },
    "kind": "dev",
    "methods": {
      "approve(address,uint256)": {
        "details": "See {IERC721-approve}."
      },
      "balanceOf(address)": {
        "details": "See {IERC721-balanceOf}."
      },
      "getApproved(uint256)": {
        "details": "See {IERC721-getApproved}."
      },
      "isApprovedForAll(address,address)": {
        "details": "See {IERC721-isApprovedForAll}."
      },
      "name()": {
        "details": "See {IERC721Metadata-name}."
      },
      "ownerOf(uint256)": {
        "details": "See {IERC721-ownerOf}."
      },
      "safeTransferFrom(address,address,uint256)": {
        "details": "See {IERC721-safeTransferFrom}."
      },
      "safeTransferFrom(address,address,uint256,bytes)": {
        "details": "See {IERC721-safeTransferFrom}."
      },
      "setApprovalForAll(address,bool)": {
        "details": "See {IERC721-setApprovalForAll}."
      },
      "supportsInterface(bytes4)": {
        "details": "See {IERC165-supportsInterface}"
      },
      "symbol()": {
        "details": "See {IERC721Metadata-symbol}."
      },
      "tokenURI(uint256)": {
        "details": "See {IERC721Metadata-tokenURI}."
      },
      "transferFrom(address,address,uint256)": {
        "details": "See {IERC721-transferFrom}."
      }
    },
    "version": 1
  },
  "userdoc": {
    "kind": "user",
    "methods": {},
    "version": 1
  }
}