{
  "contractName": "NFTMarketplace",
  "abi": [
    {
      "inputs": [],
      "stateMutability": "nonpayable",
      "type": "constructor"
    },
    {
      "anonymous": false,
      "inputs": [
        {
          "indexed": true,
          "internalType": "address",
          "name": "owner",
          "type": "address"
        },
        {
          "indexed": true,
          "internalType": "address",
          "name": "approved",
          "type": "address"
        },
        {
          "indexed": true,
          "internalType": "uint256",
          "name": "tokenId",
          "type": "uint256"
        }
      ],
      "name": "Approval",
      "type": "event"
    },
    {
      "anonymous": false,
      "inputs": [
        {
          "indexed": true,
          "internalType": "address",
          "name": "owner",
          "type": "address"
        },
        {
          "indexed": true,
          "internalType": "address",
          "name": "operator",
          "type": "address"
        },
        {
          "indexed": false,
          "internalType": "bool",
          "name": "approved",
          "type": "bool"
        }
      ],
      "name": "ApprovalForAll",
      "type": "event"
    },
    {
      "anonymous": false,
      "inputs": [
        {
          "indexed": false,
          "internalType": "uint256",
          "name": "_fromTokenId",
          "type": "uint256"
        },
        {
          "indexed": false,
          "internalType": "uint256",
          "name": "_toTokenId",
          "type": "uint256"
        }
      ],
      "name": "BatchMetadataUpdate",
      "type": "event"
    },
    {
      "anonymous": false,
      "inputs": [
        {
          "indexed": true,
          "internalType": "address",
          "name": "user",
          "type": "address"
        },
        {
          "indexed": false,
          "internalType": "string",
          "name": "name",
          "type": "string"
        },
        {
          "indexed": false,
          "internalType": "uint256",
          "name": "grade",
          "type": "uint256"
        },
        {
          "indexed": false,
          "internalType": "string",
          "name": "condition",
          "type": "string"
        }
      ],
      "name": "CardRegistered",
      "type": "event"
    },
    {
      "anonymous": false,
      "inputs": [
        {
          "indexed": true,
          "internalType": "address",
          "name": "from",
          "type": "address"
        },
        {
          "indexed": true,
          "internalType": "address",
          "name": "to",
          "type": "address"
        },
        {
          "indexed": false,
          "internalType": "uint256",
          "name": "cardIndex",
          "type": "uint256"
        }
      ],
      "name": "CardTransferred",
      "type": "event"
    },
    {
      "anonymous": false,
      "inputs": [
        {
          "indexed": false,
          "internalType": "uint256",
          "name": "_tokenId",
          "type": "uint256"
        }
      ],
      "name": "MetadataUpdate",
      "type": "event"
    },
    {
      "anonymous": false,
      "inputs": [
        {
          "indexed": true,
          "internalType": "uint256",
          "name": "tokenId",
          "type": "uint256"
        },
        {
          "indexed": false,
          "internalType": "address",
          "name": "owner",
          "type": "address"
        },
        {
          "indexed": false,
          "internalType": "address",
          "name": "seller",
          "type": "address"
        },
        {
          "indexed": false,
          "internalType": "uint256",
          "name": "price",
          "type": "uint256"
        },
        {
          "indexed": false,
          "internalType": "bool",
          "name": "currentlyListed",
          "type": "bool"
        }
      ],
      "name": "TokenListedSuccess",
      "type": "event"
    },
    {
      "anonymous": false,
      "inputs": [
        {
          "indexed": true,
          "internalType": "address",
          "name": "from",
          "type": "address"
        },
        {
          "indexed": true,
          "internalType": "address",
          "name": "to",
          "type": "address"
        },
        {
          "indexed": true,
          "internalType": "uint256",
          "name": "tokenId",
          "type": "uint256"
        }
      ],
      "name": "Transfer",
      "type": "event"
    },
    {
      "inputs": [
        {
          "internalType": "address",
          "name": "to",
          "type": "address"
        },
        {
          "internalType": "uint256",
          "name": "tokenId",
          "type": "uint256"
        }
      ],
      "name": "approve",
      "outputs": [],
      "stateMutability": "nonpayable",
      "type": "function"
    },
    {
      "inputs": [
        {
          "internalType": "address",
          "name": "owner",
          "type": "address"
        }
      ],
      "name": "balanceOf",
      "outputs": [
        {
          "internalType": "uint256",
          "name": "",
          "type": "uint256"
        }
      ],
      "stateMutability": "view",
      "type": "function",
      "constant": true
    },
    {
      "inputs": [
        {
          "internalType": "uint256",
          "name": "tokenId",
          "type": "uint256"
        }
      ],
      "name": "getApproved",
      "outputs": [
        {
          "internalType": "address",
          "name": "",
          "type": "address"
        }
      ],
      "stateMutability": "view",
      "type": "function",
      "constant": true
    },
    {
      "inputs": [
        {
          "internalType": "address",
          "name": "owner",
          "type": "address"
        },
        {
          "internalType": "address",
          "name": "operator",
          "type": "address"
        }
      ],
      "name": "isApprovedForAll",
      "outputs": [
        {
          "internalType": "bool",
          "name": "",
          "type": "bool"
        }
      ],
      "stateMutability": "view",
      "type": "function",
      "constant": true
    },
    {
      "inputs": [],
      "name": "name",
      "outputs": [
        {
          "internalType": "string",
          "name": "",
          "type": "string"
        }
      ],
      "stateMutability": "view",
      "type": "function",
      "constant": true
    },
    {
      "inputs": [
        {
          "internalType": "uint256",
          "name": "tokenId",
          "type": "uint256"
        }
      ],
      "name": "ownerOf",
      "outputs": [
        {
          "internalType": "address",
          "name": "",
          "type": "address"
        }
      ],
      "stateMutability": "view",
      "type": "function",
      "constant": true
    },
    {
      "inputs": [
        {
          "internalType": "address",
          "name": "from",
          "type": "address"
        },
        {
          "internalType": "address",
          "name": "to",
          "type": "address"
        },
        {
          "internalType": "uint256",
          "name": "tokenId",
          "type": "uint256"
        }
      ],
      "name": "safeTransferFrom",
      "outputs": [],
      "stateMutability": "nonpayable",
      "type": "function"
    },
    {
      "inputs": [
        {
          "internalType": "address",
          "name": "from",
          "type": "address"
        },
        {
          "internalType": "address",
          "name": "to",
          "type": "address"
        },
        {
          "internalType": "uint256",
          "name": "tokenId",
          "type": "uint256"
        },
        {
          "internalType": "bytes",
          "name": "data",
          "type": "bytes"
        }
      ],
      "name": "safeTransferFrom",
      "outputs": [],
      "stateMutability": "nonpayable",
      "type": "function"
    },
    {
      "inputs": [
        {
          "internalType": "address",
          "name": "operator",
          "type": "address"
        },
        {
          "internalType": "bool",
          "name": "approved",
          "type": "bool"
        }
      ],
      "name": "setApprovalForAll",
      "outputs": [],
      "stateMutability": "nonpayable",
      "type": "function"
    },
    {
      "inputs": [
        {
          "internalType": "bytes4",
          "name": "interfaceId",
          "type": "bytes4"
        }
      ],
      "name": "supportsInterface",
      "outputs": [
        {
          "internalType": "bool",
          "name": "",
          "type": "bool"
        }
      ],
      "stateMutability": "view",
      "type": "function",
      "constant": true
    },
    {
      "inputs": [],
      "name": "symbol",
      "outputs": [
        {
          "internalType": "string",
          "name": "",
          "type": "string"
        }
      ],
      "stateMutability": "view",
      "type": "function",
      "constant": true
    },
    {
      "inputs": [
        {
          "internalType": "uint256",
          "name": "tokenId",
          "type": "uint256"
        }
      ],
      "name": "tokenURI",
      "outputs": [
        {
          "internalType": "string",
          "name": "",
          "type": "string"
        }
      ],
      "stateMutability": "view",
      "type": "function",
      "constant": true
    },
    {
      "inputs": [
        {
          "internalType": "address",
          "name": "from",
          "type": "address"
        },
        {
          "internalType": "address",
          "name": "to",
          "type": "address"
        },
        {
          "internalType": "uint256",
          "name": "tokenId",
          "type": "uint256"
        }
      ],
      "name": "transferFrom",
      "outputs": [],
      "stateMutability": "nonpayable",
      "type": "function"
    },
    {
      "inputs": [
        {
          "internalType": "uint256",
          "name": "_listPrice",
          "type": "uint256"
        }
      ],
      "name": "updateListPrice",
      "outputs": [],
      "stateMutability": "payable",
      "type": "function",
      "payable": true
    },
    {
      "inputs": [],
      "name": "getListPrice",
      "outputs": [
        {
          "internalType": "uint256",
          "name": "",
          "type": "uint256"
        }
      ],
      "stateMutability": "view",
      "type": "function",
      "constant": true
    },
    {
      "inputs": [],
      "name": "getLatestIdToListedToken",
      "outputs": [
        {
          "components": [
            {
              "internalType": "uint256",
              "name": "tokenId",
              "type": "uint256"
            },
            {
              "internalType": "address payable",
              "name": "owner",
              "type": "address"
            },
            {
              "internalType": "address payable",
              "name": "seller",
              "type": "address"
            },
            {
              "internalType": "uint256",
              "name": "price",
              "type": "uint256"
            },
            {
              "internalType": "bool",
              "name": "currentlyListed",
              "type": "bool"
            }
          ],
          "internalType": "struct NFTMarketplace.ListedToken",
          "name": "",
          "type": "tuple"
        }
      ],
      "stateMutability": "view",
      "type": "function",
      "constant": true
    },
    {
      "inputs": [
        {
          "internalType": "uint256",
          "name": "tokenId",
          "type": "uint256"
        }
      ],
      "name": "getListedTokenForId",
      "outputs": [
        {
          "components": [
            {
              "internalType": "uint256",
              "name": "tokenId",
              "type": "uint256"
            },
            {
              "internalType": "address payable",
              "name": "owner",
              "type": "address"
            },
            {
              "internalType": "address payable",
              "name": "seller",
              "type": "address"
            },
            {
              "internalType": "uint256",
              "name": "price",
              "type": "uint256"
            },
            {
              "internalType": "bool",
              "name": "currentlyListed",
              "type": "bool"
            }
          ],
          "internalType": "struct NFTMarketplace.ListedToken",
          "name": "",
          "type": "tuple"
        }
      ],
      "stateMutability": "view",
      "type": "function",
      "constant": true
    },
    {
      "inputs": [],
      "name": "getCurrentToken",
      "outputs": [
        {
          "internalType": "uint256",
          "name": "",
          "type": "uint256"
        }
      ],
      "stateMutability": "view",
      "type": "function",
      "constant": true
    },
    {
      "inputs": [
        {
          "internalType": "string",
          "name": "tokenURI",
          "type": "string"
        },
        {
          "internalType": "uint256",
          "name": "price",
          "type": "uint256"
        }
      ],
      "name": "createToken",
      "outputs": [
        {
          "internalType": "uint256",
          "name": "",
          "type": "uint256"
        }
      ],
      "stateMutability": "payable",
      "type": "function",
      "payable": true
    },
    {
      "inputs": [],
      "name": "getAllNFTs",
      "outputs": [
        {
          "components": [
            {
              "internalType": "uint256",
              "name": "tokenId",
              "type": "uint256"
            },
            {
              "internalType": "address payable",
              "name": "owner",
              "type": "address"
            },
            {
              "internalType": "address payable",
              "name": "seller",
              "type": "address"
            },
            {
              "internalType": "uint256",
              "name": "price",
              "type": "uint256"
            },
            {
              "internalType": "bool",
              "name": "currentlyListed",
              "type": "bool"
            }
          ],
          "internalType": "struct NFTMarketplace.ListedToken[]",
          "name": "",
          "type": "tuple[]"
        }
      ],
      "stateMutability": "view",
      "type": "function",
      "constant": true
    },
    {
      "inputs": [],
      "name": "getMyNFTs",
      "outputs": [
        {
          "components": [
            {
              "internalType": "uint256",
              "name": "tokenId",
              "type": "uint256"
            },
            {
              "internalType": "address payable",
              "name": "owner",
              "type": "address"
            },
            {
              "internalType": "address payable",
              "name": "seller",
              "type": "address"
            },
            {
              "internalType": "uint256",
              "name": "price",
              "type": "uint256"
            },
            {
              "internalType": "bool",
              "name": "currentlyListed",
              "type": "bool"
            }
          ],
          "internalType": "struct NFTMarketplace.ListedToken[]",
          "name": "",
          "type": "tuple[]"
        }
      ],
      "stateMutability": "view",
      "type": "function",
      "constant": true
    },
    {
      "inputs": [
        {
          "internalType": "uint256",
          "name": "tokenId",
          "type": "uint256"
        }
      ],
      "name": "executeSale",
      "outputs": [],
      "stateMutability": "payable",
      "type": "function",
      "payable": true
    },
    {
      "inputs": [
        {
          "internalType": "string",
          "name": "_name",
          "type": "string"
        },
        {
          "internalType": "uint256",
          "name": "_grade",
          "type": "uint256"
        },
        {
          "internalType": "string",
          "name": "_condition",
          "type": "string"
        }
      ],
      "name": "registerCard",
      "outputs": [],
      "stateMutability": "nonpayable",
      "type": "function"
    },
    {
      "inputs": [
        {
          "internalType": "address",
          "name": "_to",
          "type": "address"
        },
        {
          "internalType": "uint256",
          "name": "_cardIndex",
          "type": "uint256"
        }
      ],
      "name": "transferCard",
      "outputs": [],
      "stateMutability": "nonpayable",
      "type": "function"
    },
    {
      "inputs": [
        {
          "internalType": "address",
          "name": "_user",
          "type": "address"
        }
      ],
      "name": "getUserCards",
      "outputs": [
        {
          "components": [
            {
              "internalType": "string",
              "name": "name",
              "type": "string"
            },
            {
              "internalType": "uint256",
              "name": "grade",
              "type": "uint256"
            },
            {
              "internalType": "string",
              "name": "condition",
              "type": "string"
            }
          ],
          "internalType": "struct NFTMarketplace.Card[]",
          "name": "",
          "type": "tuple[]"
        }
      ],
      "stateMutability": "view",
      "type": "function",
      "constant": true
    },
    {
      "inputs": [
        {
          "internalType": "address",
          "name": "_user",
          "type": "address"
        }
      ],
      "name": "getCardCount",
      "outputs": [
        {
          "internalType": "uint256",
          "name": "",
          "type": "uint256"
        }
      ],
      "stateMutability": "view",
      "type": "function",
      "constant": true
    }
  ],
  "bytecode": "0x6080604052662386f26fc10000600c553480156200001c57600080fd5b506040518060400160405280601281526020017f4e4654436172644d61726b6574706c61636500000000000000000000000000008152506040518060400160405280600481526020017f434152440000000000000000000000000000000000000000000000000000000081525081600090816200009a919062000370565b508060019081620000ac919062000370565b50505033600b60006101000a81548173ffffffffffffffffffffffffffffffffffffffff021916908373ffffffffffffffffffffffffffffffffffffffff16021790555062000457565b600081519050919050565b7f4e487b7100000000000000000000000000000000000000000000000000000000600052604160045260246000fd5b7f4e487b7100000000000000000000000000000000000000000000000000000000600052602260045260246000fd5b600060028204905060018216806200017857607f821691505b6020821081036200018e576200018d62000130565b5b50919050565b60008190508160005260206000209050919050565b60006020601f8301049050919050565b600082821b905092915050565b600060088302620001f87fffffffffffffffffffffffffffffffffffffffffffffffffffffffffffffffff82620001b9565b620002048683620001b9565b95508019841693508086168417925050509392505050565b6000819050919050565b6000819050919050565b6000620002516200024b62000245846200021c565b62000226565b6200021c565b9050919050565b6000819050919050565b6200026d8362000230565b620002856200027c8262000258565b848454620001c6565b825550505050565b600090565b6200029c6200028d565b620002a981848462000262565b505050565b5b81811015620002d157620002c560008262000292565b600181019050620002af565b5050565b601f8211156200032057620002ea8162000194565b620002f584620001a9565b8101602085101562000305578190505b6200031d6200031485620001a9565b830182620002ae565b50505b505050565b600082821c905092915050565b6000620003456000198460080262000325565b1980831691505092915050565b600062000360838362000332565b9150826002028217905092915050565b6200037b82620000f6565b67ffffffffffffffff81111562000397576200039662000101565b5b620003a382546200015f565b620003b0828285620002d5565b600060209050601f831160018114620003e85760008415620003d3578287015190505b620003df858262000352565b8655506200044f565b601f198416620003f88662000194565b60005b828110156200042257848901518255600182019150602085019450602081019050620003fb565b868310156200044257848901516200043e601f89168262000332565b8355505b6001600288020188555050505b505050505050565b614ff080620004676000396000f3fe6080604052600436106101815760003560e01c806395d89b41116100d1578063c322579c1161008a578063dce0b58611610064578063dce0b5861461058f578063e0391b09146105cc578063e985e9c5146105f7578063ef2d17461461063457610181565b8063c322579c1461050b578063c87b56dd14610527578063d1a88ae51461056457610181565b806395d89b41146104205780639b1225c41461044b5780639b81a35914610467578063a22cb46514610490578063b88d4fde146104b9578063b931f047146104e257610181565b8063629cb2e41161013e57806370a082311161011857806370a082311461033957806372b3b6201461037657806388d9f40d146103a65780638e264590146103e357610181565b8063629cb2e4146102a65780636352211e146102d157806368f1945f1461030e57610181565b806301ffc9a71461018657806306fdde03146101c3578063081812fc146101ee578063095ea7b31461022b57806323b872dd1461025457806342842e0e1461027d575b600080fd5b34801561019257600080fd5b506101ad60048036038101906101a891906134c6565b61065f565b6040516101ba919061350e565b60405180910390f35b3480156101cf57600080fd5b506101d86106c0565b6040516101e591906135b9565b60405180910390f35b3480156101fa57600080fd5b5061021560048036038101906102109190613611565b610752565b604051610222919061367f565b60405180910390f35b34801561023757600080fd5b50610252600480360381019061024d91906136c6565b610798565b005b34801561026057600080fd5b5061027b60048036038101906102769190613706565b6108af565b005b34801561028957600080fd5b506102a4600480360381019061029f9190613706565b61090f565b005b3480156102b257600080fd5b506102bb61092f565b6040516102c891906138af565b60405180910390f35b3480156102dd57600080fd5b506102f860048036038101906102f39190613611565b610d10565b604051610305919061367f565b60405180910390f35b34801561031a57600080fd5b50610323610d96565b60405161033091906138e0565b60405180910390f35b34801561034557600080fd5b50610360600480360381019061035b91906138fb565b610da0565b60405161036d91906138e0565b60405180910390f35b610390600480360381019061038b9190613a5d565b610e57565b60405161039d91906138e0565b60405180910390f35b3480156103b257600080fd5b506103cd60048036038101906103c891906138fb565b610e99565b6040516103da9190613c1c565b60405180910390f35b3480156103ef57600080fd5b5061040a60048036038101906104059190613611565b611065565b6040516104179190613ca6565b60405180910390f35b34801561042c57600080fd5b5061043561116d565b60405161044291906135b9565b60405180910390f35b61046560048036038101906104609190613611565b6111ff565b005b34801561047357600080fd5b5061048e600480360381019061048991906136c6565b6113f1565b005b34801561049c57600080fd5b506104b760048036038101906104b29190613ced565b6117cf565b005b3480156104c557600080fd5b506104e060048036038101906104db9190613dce565b6117e5565b005b3480156104ee57600080fd5b5061050960048036038101906105049190613e51565b611847565b005b61052560048036038101906105209190613611565b6119b4565b005b34801561053357600080fd5b5061054e60048036038101906105499190613611565b611a4e565b60405161055b91906135b9565b60405180910390f35b34801561057057600080fd5b50610579611b60565b6040516105869190613ca6565b60405180910390f35b34801561059b57600080fd5b506105b660048036038101906105b191906138fb565b611c75565b6040516105c391906138e0565b60405180910390f35b3480156105d857600080fd5b506105e1611cbe565b6040516105ee91906138af565b60405180910390f35b34801561060357600080fd5b5061061e60048036038101906106199190613edc565b611e90565b60405161062b919061350e565b60405180910390f35b34801561064057600080fd5b50610649611f24565b60405161065691906138e0565b60405180910390f35b6000634906490660e01b7bffffffffffffffffffffffffffffffffffffffffffffffffffffffff1916827bffffffffffffffffffffffffffffffffffffffffffffffffffffffff191614806106b957506106b882611f35565b5b9050919050565b6060600080546106cf90613f4b565b80601f01602080910402602001604051908101604052809291908181526020018280546106fb90613f4b565b80156107485780601f1061071d57610100808354040283529160200191610748565b820191906000526020600020905b81548152906001019060200180831161072b57829003601f168201915b5050505050905090565b600061075d82612017565b6004600083815260200190815260200160002060009054906101000a900473ffffffffffffffffffffffffffffffffffffffff169050919050565b60006107a382610d10565b90508073ffffffffffffffffffffffffffffffffffffffff168373ffffffffffffffffffffffffffffffffffffffff1603610813576040517f08c379a000000000000000000000000000000000000000000000000000000000815260040161080a90613fee565b60405180910390fd5b8073ffffffffffffffffffffffffffffffffffffffff16610832612062565b73ffffffffffffffffffffffffffffffffffffffff16148061086157506108608161085b612062565b611e90565b5b6108a0576040517f08c379a000000000000000000000000000000000000000000000000000000000815260040161089790614080565b60405180910390fd5b6108aa838361206a565b505050565b6108c06108ba612062565b82612123565b6108ff576040517f08c379a00000000000000000000000000000000000000000000000000000000081526004016108f690614112565b60405180910390fd5b61090a8383836121b8565b505050565b61092a838383604051806020016040528060008152506117e5565b505050565b6060600061093d60096124b1565b9050600080600080600090505b84811015610a63573373ffffffffffffffffffffffffffffffffffffffff16600d600060018461097a9190614161565b815260200190815260200160002060010160009054906101000a900473ffffffffffffffffffffffffffffffffffffffff1673ffffffffffffffffffffffffffffffffffffffff161480610a3b57503373ffffffffffffffffffffffffffffffffffffffff16600d60006001846109f19190614161565b815260200190815260200160002060020160009054906101000a900473ffffffffffffffffffffffffffffffffffffffff1673ffffffffffffffffffffffffffffffffffffffff16145b15610a5057600184610a4d9190614161565b93505b8080610a5b90614195565b91505061094a565b5060008367ffffffffffffffff811115610a8057610a7f613932565b5b604051908082528060200260200182016040528015610ab957816020015b610aa66133a0565b815260200190600190039081610a9e5790505b50905060005b85811015610d04573373ffffffffffffffffffffffffffffffffffffffff16600d6000600184610aef9190614161565b815260200190815260200160002060010160009054906101000a900473ffffffffffffffffffffffffffffffffffffffff1673ffffffffffffffffffffffffffffffffffffffff161480610bb057503373ffffffffffffffffffffffffffffffffffffffff16600d6000600184610b669190614161565b815260200190815260200160002060020160009054906101000a900473ffffffffffffffffffffffffffffffffffffffff1673ffffffffffffffffffffffffffffffffffffffff16145b15610cf157600181610bc29190614161565b92506000600d60008581526020019081526020016000209050806040518060a0016040529081600082015481526020016001820160009054906101000a900473ffffffffffffffffffffffffffffffffffffffff1673ffffffffffffffffffffffffffffffffffffffff1673ffffffffffffffffffffffffffffffffffffffff1681526020016002820160009054906101000a900473ffffffffffffffffffffffffffffffffffffffff1673ffffffffffffffffffffffffffffffffffffffff1673ffffffffffffffffffffffffffffffffffffffff168152602001600382015481526020016004820160009054906101000a900460ff161515151581525050838681518110610cd557610cd46141dd565b5b6020026020010181905250600185610ced9190614161565b9450505b8080610cfc90614195565b915050610abf565b50809550505050505090565b600080610d1c836124bf565b9050600073ffffffffffffffffffffffffffffffffffffffff168173ffffffffffffffffffffffffffffffffffffffff1603610d8d576040517f08c379a0000000000000000000000000000000000000000000000000000000008152600401610d8490614258565b60405180910390fd5b80915050919050565b6000600c54905090565b60008073ffffffffffffffffffffffffffffffffffffffff168273ffffffffffffffffffffffffffffffffffffffff1603610e10576040517f08c379a0000000000000000000000000000000000000000000000000000000008152600401610e07906142ea565b60405180910390fd5b600360008373ffffffffffffffffffffffffffffffffffffffff1673ffffffffffffffffffffffffffffffffffffffff168152602001908152602001600020549050919050565b6000610e6360096124fc565b6000610e6f60096124b1565b9050610e7b3382612512565b610e858185612530565b610e8f81846125d4565b8091505092915050565b6060600760008373ffffffffffffffffffffffffffffffffffffffff1673ffffffffffffffffffffffffffffffffffffffff168152602001908152602001600020805480602002602001604051908101604052809291908181526020016000905b8282101561105a5783829060005260206000209060030201604051806060016040529081600082018054610f2d90613f4b565b80601f0160208091040260200160405190810160405280929190818152602001828054610f5990613f4b565b8015610fa65780601f10610f7b57610100808354040283529160200191610fa6565b820191906000526020600020905b815481529060010190602001808311610f8957829003601f168201915b5050505050815260200160018201548152602001600282018054610fc990613f4b565b80601f0160208091040260200160405190810160405280929190818152602001828054610ff590613f4b565b80156110425780601f1061101757610100808354040283529160200191611042565b820191906000526020600020905b81548152906001019060200180831161102557829003601f168201915b50505050508152505081526020019060010190610efa565b505050509050919050565b61106d6133a0565b600d60008381526020019081526020016000206040518060a0016040529081600082015481526020016001820160009054906101000a900473ffffffffffffffffffffffffffffffffffffffff1673ffffffffffffffffffffffffffffffffffffffff1673ffffffffffffffffffffffffffffffffffffffff1681526020016002820160009054906101000a900473ffffffffffffffffffffffffffffffffffffffff1673ffffffffffffffffffffffffffffffffffffffff1673ffffffffffffffffffffffffffffffffffffffff168152602001600382015481526020016004820160009054906101000a900460ff1615151515815250509050919050565b60606001805461117c90613f4b565b80601f01602080910402602001604051908101604052809291908181526020018280546111a890613f4b565b80156111f55780601f106111ca576101008083540402835291602001916111f5565b820191906000526020600020905b8154815290600101906020018083116111d857829003601f168201915b5050505050905090565b6000600d60008381526020019081526020016000206003015490506000600d600084815260200190815260200160002060020160009054906101000a900473ffffffffffffffffffffffffffffffffffffffff169050813414611297576040517f08c379a000000000000000000000000000000000000000000000000000000000815260040161128e9061437c565b60405180910390fd5b6001600d600085815260200190815260200160002060040160006101000a81548160ff02191690831515021790555033600d600085815260200190815260200160002060020160006101000a81548173ffffffffffffffffffffffffffffffffffffffff021916908373ffffffffffffffffffffffffffffffffffffffff160217905550611325600a6124fc565b6113303033856121b8565b61133a3084610798565b600b60009054906101000a900473ffffffffffffffffffffffffffffffffffffffff1673ffffffffffffffffffffffffffffffffffffffff166108fc600c549081150290604051600060405180830381858888f193505050501580156113a4573d6000803e3d6000fd5b508073ffffffffffffffffffffffffffffffffffffffff166108fc349081150290604051600060405180830381858888f193505050501580156113eb573d6000803e3d6000fd5b50505050565b600760003373ffffffffffffffffffffffffffffffffffffffff1673ffffffffffffffffffffffffffffffffffffffff168152602001908152602001600020805490508110611475576040517f08c379a000000000000000000000000000000000000000000000000000000000815260040161146c906143e8565b60405180910390fd5b6000600760003373ffffffffffffffffffffffffffffffffffffffff1673ffffffffffffffffffffffffffffffffffffffff16815260200190815260200160002082815481106114c8576114c76141dd565b5b90600052602060002090600302016040518060600160405290816000820180546114f190613f4b565b80601f016020809104026020016040519081016040528092919081815260200182805461151d90613f4b565b801561156a5780601f1061153f5761010080835404028352916020019161156a565b820191906000526020600020905b81548152906001019060200180831161154d57829003601f168201915b505050505081526020016001820154815260200160028201805461158d90613f4b565b80601f01602080910402602001604051908101604052809291908181526020018280546115b990613f4b565b80156116065780601f106115db57610100808354040283529160200191611606565b820191906000526020600020905b8154815290600101906020018083116115e957829003601f168201915b5050505050815250509050600760008473ffffffffffffffffffffffffffffffffffffffff1673ffffffffffffffffffffffffffffffffffffffff168152602001908152602001600020819080600181540180825580915050600190039060005260206000209060030201600090919091909150600082015181600001908161168f91906145b4565b506020820151816001015560408201518160020190816116af91906145b4565b505050600860003373ffffffffffffffffffffffffffffffffffffffff1673ffffffffffffffffffffffffffffffffffffffff168152602001908152602001600020600081548092919061170290614686565b9190505550600860008473ffffffffffffffffffffffffffffffffffffffff1673ffffffffffffffffffffffffffffffffffffffff168152602001908152602001600020600081548092919061175790614195565b9190505550611765826127d7565b8273ffffffffffffffffffffffffffffffffffffffff163373ffffffffffffffffffffffffffffffffffffffff167f08c7dc9c65cfe0a446c6b662ec2e35c1966d49c8c50f8a4b78a7e2e0c68217c4846040516117c291906138e0565b60405180910390a3505050565b6117e16117da612062565b8383612a5f565b5050565b6117f66117f0612062565b83612123565b611835576040517f08c379a000000000000000000000000000000000000000000000000000000000815260040161182c90614112565b60405180910390fd5b61184184848484612bcb565b50505050565b60006040518060600160405280858152602001848152602001838152509050600760003373ffffffffffffffffffffffffffffffffffffffff1673ffffffffffffffffffffffffffffffffffffffff16815260200190815260200160002081908060018154018082558091505060019003906000526020600020906003020160009091909190915060008201518160000190816118e491906145b4565b5060208201518160010155604082015181600201908161190491906145b4565b505050600860003373ffffffffffffffffffffffffffffffffffffffff1673ffffffffffffffffffffffffffffffffffffffff168152602001908152602001600020600081548092919061195790614195565b91905055503373ffffffffffffffffffffffffffffffffffffffff167fd5ed51683b2822693297735ede880846194bea029d405788e45a05e66b6d96968585856040516119a6939291906146af565b60405180910390a250505050565b3373ffffffffffffffffffffffffffffffffffffffff16600b60009054906101000a900473ffffffffffffffffffffffffffffffffffffffff1673ffffffffffffffffffffffffffffffffffffffff1614611a44576040517f08c379a0000000000000000000000000000000000000000000000000000000008152600401611a3b90614766565b60405180910390fd5b80600c8190555050565b6060611a5982612017565b6000600660008481526020019081526020016000208054611a7990613f4b565b80601f0160208091040260200160405190810160405280929190818152602001828054611aa590613f4b565b8015611af25780601f10611ac757610100808354040283529160200191611af2565b820191906000526020600020905b815481529060010190602001808311611ad557829003601f168201915b505050505090506000611b03612c27565b90506000815103611b18578192505050611b5b565b600082511115611b4d578082604051602001611b359291906147c2565b60405160208183030381529060405292505050611b5b565b611b5684612c3e565b925050505b919050565b611b686133a0565b6000611b7460096124b1565b9050600d60008281526020019081526020016000206040518060a0016040529081600082015481526020016001820160009054906101000a900473ffffffffffffffffffffffffffffffffffffffff1673ffffffffffffffffffffffffffffffffffffffff1673ffffffffffffffffffffffffffffffffffffffff1681526020016002820160009054906101000a900473ffffffffffffffffffffffffffffffffffffffff1673ffffffffffffffffffffffffffffffffffffffff1673ffffffffffffffffffffffffffffffffffffffff168152602001600382015481526020016004820160009054906101000a900460ff16151515158152505091505090565b6000600860008373ffffffffffffffffffffffffffffffffffffffff1673ffffffffffffffffffffffffffffffffffffffff168152602001908152602001600020549050919050565b60606000611ccc60096124b1565b905060008167ffffffffffffffff811115611cea57611ce9613932565b5b604051908082528060200260200182016040528015611d2357816020015b611d106133a0565b815260200190600190039081611d085790505b50905060008080600090505b84811015611e8557600181611d449190614161565b91506000600d60008481526020019081526020016000209050806040518060a0016040529081600082015481526020016001820160009054906101000a900473ffffffffffffffffffffffffffffffffffffffff1673ffffffffffffffffffffffffffffffffffffffff1673ffffffffffffffffffffffffffffffffffffffff1681526020016002820160009054906101000a900473ffffffffffffffffffffffffffffffffffffffff1673ffffffffffffffffffffffffffffffffffffffff1673ffffffffffffffffffffffffffffffffffffffff168152602001600382015481526020016004820160009054906101000a900460ff161515151581525050858581518110611e5757611e566141dd565b5b6020026020010181905250600184611e6f9190614161565b9350508080611e7d90614195565b915050611d2f565b508294505050505090565b6000600560008473ffffffffffffffffffffffffffffffffffffffff1673ffffffffffffffffffffffffffffffffffffffff16815260200190815260200160002060008373ffffffffffffffffffffffffffffffffffffffff1673ffffffffffffffffffffffffffffffffffffffff16815260200190815260200160002060009054906101000a900460ff16905092915050565b6000611f3060096124b1565b905090565b60007f80ac58cd000000000000000000000000000000000000000000000000000000007bffffffffffffffffffffffffffffffffffffffffffffffffffffffff1916827bffffffffffffffffffffffffffffffffffffffffffffffffffffffff1916148061200057507f5b5e139f000000000000000000000000000000000000000000000000000000007bffffffffffffffffffffffffffffffffffffffffffffffffffffffff1916827bffffffffffffffffffffffffffffffffffffffffffffffffffffffff1916145b80612010575061200f82612ca6565b5b9050919050565b61202081612d10565b61205f576040517f08c379a000000000000000000000000000000000000000000000000000000000815260040161205690614258565b60405180910390fd5b50565b600033905090565b816004600083815260200190815260200160002060006101000a81548173ffffffffffffffffffffffffffffffffffffffff021916908373ffffffffffffffffffffffffffffffffffffffff160217905550808273ffffffffffffffffffffffffffffffffffffffff166120dd83610d10565b73ffffffffffffffffffffffffffffffffffffffff167f8c5be1e5ebec7d5bd14f71427d1e84f3dd0314c0f7b2291e5b200ac8c7c3b92560405160405180910390a45050565b60008061212f83610d10565b90508073ffffffffffffffffffffffffffffffffffffffff168473ffffffffffffffffffffffffffffffffffffffff16148061217157506121708185611e90565b5b806121af57508373ffffffffffffffffffffffffffffffffffffffff1661219784610752565b73ffffffffffffffffffffffffffffffffffffffff16145b91505092915050565b8273ffffffffffffffffffffffffffffffffffffffff166121d882610d10565b73ffffffffffffffffffffffffffffffffffffffff161461222e576040517f08c379a000000000000000000000000000000000000000000000000000000000815260040161222590614858565b60405180910390fd5b600073ffffffffffffffffffffffffffffffffffffffff168273ffffffffffffffffffffffffffffffffffffffff160361229d576040517f08c379a0000000000000000000000000000000000000000000000000000000008152600401612294906148ea565b60405180910390fd5b6122aa8383836001612d51565b8273ffffffffffffffffffffffffffffffffffffffff166122ca82610d10565b73ffffffffffffffffffffffffffffffffffffffff1614612320576040517f08c379a000000000000000000000000000000000000000000000000000000000815260040161231790614858565b60405180910390fd5b6004600082815260200190815260200160002060006101000a81549073ffffffffffffffffffffffffffffffffffffffff02191690556001600360008573ffffffffffffffffffffffffffffffffffffffff1673ffffffffffffffffffffffffffffffffffffffff168152602001908152602001600020600082825403925050819055506001600360008473ffffffffffffffffffffffffffffffffffffffff1673ffffffffffffffffffffffffffffffffffffffff16815260200190815260200160002060008282540192505081905550816002600083815260200190815260200160002060006101000a81548173ffffffffffffffffffffffffffffffffffffffff021916908373ffffffffffffffffffffffffffffffffffffffff160217905550808273ffffffffffffffffffffffffffffffffffffffff168473ffffffffffffffffffffffffffffffffffffffff167fddf252ad1be2c89b69c2b068fc378daa952ba7f163c4a11628f55a4df523b3ef60405160405180910390a46124ac8383836001612d57565b505050565b600081600001549050919050565b60006002600083815260200190815260200160002060009054906101000a900473ffffffffffffffffffffffffffffffffffffffff169050919050565b6001816000016000828254019250508190555050565b61252c828260405180602001604052806000815250612d5d565b5050565b61253982612d10565b612578576040517f08c379a000000000000000000000000000000000000000000000000000000000815260040161256f9061497c565b60405180910390fd5b8060066000848152602001908152602001600020908161259891906145b4565b507ff8e1a15aba9398e019f0b49df1a4fde98ee17ae345cb5f6b5e2c27f5033e8ce7826040516125c891906138e0565b60405180910390a15050565b600c543414612618576040517f08c379a000000000000000000000000000000000000000000000000000000000815260040161260f90614a0e565b60405180910390fd5b6000811161265b576040517f08c379a000000000000000000000000000000000000000000000000000000000815260040161265290614aa0565b60405180910390fd5b6040518060a001604052808381526020013073ffffffffffffffffffffffffffffffffffffffff1681526020013373ffffffffffffffffffffffffffffffffffffffff16815260200182815260200160011515815250600d60008481526020019081526020016000206000820151816000015560208201518160010160006101000a81548173ffffffffffffffffffffffffffffffffffffffff021916908373ffffffffffffffffffffffffffffffffffffffff16021790555060408201518160020160006101000a81548173ffffffffffffffffffffffffffffffffffffffff021916908373ffffffffffffffffffffffffffffffffffffffff1602179055506060820151816003015560808201518160040160006101000a81548160ff0219169083151502179055509050506127943330846121b8565b817f9339409317fd01fabff48b703019016f49159bacc801ae872d2ca637d226e4c030338460016040516127cb9493929190614ac0565b60405180910390a25050565b600760003373ffffffffffffffffffffffffffffffffffffffff1673ffffffffffffffffffffffffffffffffffffffff16815260200190815260200160002080549050811061285b576040517f08c379a000000000000000000000000000000000000000000000000000000000815260040161285290614b51565b60405180910390fd5b60008190505b6001600760003373ffffffffffffffffffffffffffffffffffffffff1673ffffffffffffffffffffffffffffffffffffffff168152602001908152602001600020805490506128b09190614b71565b8110156129cb57600760003373ffffffffffffffffffffffffffffffffffffffff1673ffffffffffffffffffffffffffffffffffffffff1681526020019081526020016000206001826129039190614161565b81548110612914576129136141dd565b5b9060005260206000209060030201600760003373ffffffffffffffffffffffffffffffffffffffff1673ffffffffffffffffffffffffffffffffffffffff1681526020019081526020016000208281548110612973576129726141dd565b5b9060005260206000209060030201600082018160000190816129959190614bbb565b5060018201548160010155600282018160020190816129b49190614bbb565b5090505080806129c390614195565b915050612861565b50600760003373ffffffffffffffffffffffffffffffffffffffff1673ffffffffffffffffffffffffffffffffffffffff168152602001908152602001600020805480612a1b57612a1a614ca3565b5b600190038181906000526020600020906003020160008082016000612a4091906133fd565b6001820160009055600282016000612a5891906133fd565b5050905550565b8173ffffffffffffffffffffffffffffffffffffffff168373ffffffffffffffffffffffffffffffffffffffff1603612acd576040517f08c379a0000000000000000000000000000000000000000000000000000000008152600401612ac490614d1e565b60405180910390fd5b80600560008573ffffffffffffffffffffffffffffffffffffffff1673ffffffffffffffffffffffffffffffffffffffff16815260200190815260200160002060008473ffffffffffffffffffffffffffffffffffffffff1673ffffffffffffffffffffffffffffffffffffffff16815260200190815260200160002060006101000a81548160ff0219169083151502179055508173ffffffffffffffffffffffffffffffffffffffff168373ffffffffffffffffffffffffffffffffffffffff167f17307eab39ab6107e8899845ad3d59bd9653f200f220920489ca2b5937696c3183604051612bbe919061350e565b60405180910390a3505050565b612bd68484846121b8565b612be284848484612db8565b612c21576040517f08c379a0000000000000000000000000000000000000000000000000000000008152600401612c1890614db0565b60405180910390fd5b50505050565b606060405180602001604052806000815250905090565b6060612c4982612017565b6000612c53612c27565b90506000815111612c735760405180602001604052806000815250612c9e565b80612c7d84612f3f565b604051602001612c8e9291906147c2565b6040516020818303038152906040525b915050919050565b60007f01ffc9a7000000000000000000000000000000000000000000000000000000007bffffffffffffffffffffffffffffffffffffffffffffffffffffffff1916827bffffffffffffffffffffffffffffffffffffffffffffffffffffffff1916149050919050565b60008073ffffffffffffffffffffffffffffffffffffffff16612d32836124bf565b73ffffffffffffffffffffffffffffffffffffffff1614159050919050565b50505050565b50505050565b612d67838361300d565b612d746000848484612db8565b612db3576040517f08c379a0000000000000000000000000000000000000000000000000000000008152600401612daa90614db0565b60405180910390fd5b505050565b6000612dd98473ffffffffffffffffffffffffffffffffffffffff1661322a565b15612f32578373ffffffffffffffffffffffffffffffffffffffff1663150b7a02612e02612062565b8786866040518563ffffffff1660e01b8152600401612e249493929190614e25565b6020604051808303816000875af1925050508015612e6057506040513d601f19601f82011682018060405250810190612e5d9190614e86565b60015b612ee2573d8060008114612e90576040519150601f19603f3d011682016040523d82523d6000602084013e612e95565b606091505b506000815103612eda576040517f08c379a0000000000000000000000000000000000000000000000000000000008152600401612ed190614db0565b60405180910390fd5b805181602001fd5b63150b7a0260e01b7bffffffffffffffffffffffffffffffffffffffffffffffffffffffff1916817bffffffffffffffffffffffffffffffffffffffffffffffffffffffff191614915050612f37565b600190505b949350505050565b606060006001612f4e8461324d565b01905060008167ffffffffffffffff811115612f6d57612f6c613932565b5b6040519080825280601f01601f191660200182016040528015612f9f5781602001600182028036833780820191505090505b509050600082602001820190505b600115613002578080600190039150507f3031323334353637383961626364656600000000000000000000000000000000600a86061a8153600a8581612ff657612ff5614eb3565b5b04945060008503612fad575b819350505050919050565b600073ffffffffffffffffffffffffffffffffffffffff168273ffffffffffffffffffffffffffffffffffffffff160361307c576040517f08c379a000000000000000000000000000000000000000000000000000000000815260040161307390614f2e565b60405180910390fd5b61308581612d10565b156130c5576040517f08c379a00000000000000000000000000000000000000000000000000000000081526004016130bc90614f9a565b60405180910390fd5b6130d3600083836001612d51565b6130dc81612d10565b1561311c576040517f08c379a000000000000000000000000000000000000000000000000000000000815260040161311390614f9a565b60405180910390fd5b6001600360008473ffffffffffffffffffffffffffffffffffffffff1673ffffffffffffffffffffffffffffffffffffffff16815260200190815260200160002060008282540192505081905550816002600083815260200190815260200160002060006101000a81548173ffffffffffffffffffffffffffffffffffffffff021916908373ffffffffffffffffffffffffffffffffffffffff160217905550808273ffffffffffffffffffffffffffffffffffffffff16600073ffffffffffffffffffffffffffffffffffffffff167fddf252ad1be2c89b69c2b068fc378daa952ba7f163c4a11628f55a4df523b3ef60405160405180910390a4613226600083836001612d57565b5050565b6000808273ffffffffffffffffffffffffffffffffffffffff163b119050919050565b600080600090507a184f03e93ff9f4daa797ed6e38ed64bf6a1f01000000000000000083106132ab577a184f03e93ff9f4daa797ed6e38ed64bf6a1f01000000000000000083816132a1576132a0614eb3565b5b0492506040810190505b6d04ee2d6d415b85acef810000000083106132e8576d04ee2d6d415b85acef810000000083816132de576132dd614eb3565b5b0492506020810190505b662386f26fc10000831061331757662386f26fc10000838161330d5761330c614eb3565b5b0492506010810190505b6305f5e1008310613340576305f5e100838161333657613335614eb3565b5b0492506008810190505b612710831061336557612710838161335b5761335a614eb3565b5b0492506004810190505b60648310613388576064838161337e5761337d614eb3565b5b0492506002810190505b600a8310613397576001810190505b80915050919050565b6040518060a0016040528060008152602001600073ffffffffffffffffffffffffffffffffffffffff168152602001600073ffffffffffffffffffffffffffffffffffffffff168152602001600081526020016000151581525090565b50805461340990613f4b565b6000825580601f1061341b575061343a565b601f016020900490600052602060002090810190613439919061343d565b5b50565b5b8082111561345657600081600090555060010161343e565b5090565b6000604051905090565b600080fd5b600080fd5b60007fffffffff0000000000000000000000000000000000000000000000000000000082169050919050565b6134a38161346e565b81146134ae57600080fd5b50565b6000813590506134c08161349a565b92915050565b6000602082840312156134dc576134db613464565b5b60006134ea848285016134b1565b91505092915050565b60008115159050919050565b613508816134f3565b82525050565b600060208201905061352360008301846134ff565b92915050565b600081519050919050565b600082825260208201905092915050565b60005b83811015613563578082015181840152602081019050613548565b60008484015250505050565b6000601f19601f8301169050919050565b600061358b82613529565b6135958185613534565b93506135a5818560208601613545565b6135ae8161356f565b840191505092915050565b600060208201905081810360008301526135d38184613580565b905092915050565b6000819050919050565b6135ee816135db565b81146135f957600080fd5b50565b60008135905061360b816135e5565b92915050565b60006020828403121561362757613626613464565b5b6000613635848285016135fc565b91505092915050565b600073ffffffffffffffffffffffffffffffffffffffff82169050919050565b60006136698261363e565b9050919050565b6136798161365e565b82525050565b60006020820190506136946000830184613670565b92915050565b6136a38161365e565b81146136ae57600080fd5b50565b6000813590506136c08161369a565b92915050565b600080604083850312156136dd576136dc613464565b5b60006136eb858286016136b1565b92505060206136fc858286016135fc565b9150509250929050565b60008060006060848603121561371f5761371e613464565b5b600061372d868287016136b1565b935050602061373e868287016136b1565b925050604061374f868287016135fc565b9150509250925092565b600081519050919050565b600082825260208201905092915050565b6000819050602082019050919050565b61378e816135db565b82525050565b600061379f8261363e565b9050919050565b6137af81613794565b82525050565b6137be816134f3565b82525050565b60a0820160008201516137da6000850182613785565b5060208201516137ed60208501826137a6565b50604082015161380060408501826137a6565b5060608201516138136060850182613785565b50608082015161382660808501826137b5565b50505050565b600061383883836137c4565b60a08301905092915050565b6000602082019050919050565b600061385c82613759565b6138668185613764565b935061387183613775565b8060005b838110156138a2578151613889888261382c565b975061389483613844565b925050600181019050613875565b5085935050505092915050565b600060208201905081810360008301526138c98184613851565b905092915050565b6138da816135db565b82525050565b60006020820190506138f560008301846138d1565b92915050565b60006020828403121561391157613910613464565b5b600061391f848285016136b1565b91505092915050565b600080fd5b600080fd5b7f4e487b7100000000000000000000000000000000000000000000000000000000600052604160045260246000fd5b61396a8261356f565b810181811067ffffffffffffffff8211171561398957613988613932565b5b80604052505050565b600061399c61345a565b90506139a88282613961565b919050565b600067ffffffffffffffff8211156139c8576139c7613932565b5b6139d18261356f565b9050602081019050919050565b82818337600083830152505050565b6000613a006139fb846139ad565b613992565b905082815260208101848484011115613a1c57613a1b61392d565b5b613a278482856139de565b509392505050565b600082601f830112613a4457613a43613928565b5b8135613a548482602086016139ed565b91505092915050565b60008060408385031215613a7457613a73613464565b5b600083013567ffffffffffffffff811115613a9257613a91613469565b5b613a9e85828601613a2f565b9250506020613aaf858286016135fc565b9150509250929050565b600081519050919050565b600082825260208201905092915050565b6000819050602082019050919050565b600082825260208201905092915050565b6000613b0182613529565b613b0b8185613ae5565b9350613b1b818560208601613545565b613b248161356f565b840191505092915050565b60006060830160008301518482036000860152613b4c8282613af6565b9150506020830151613b616020860182613785565b5060408301518482036040860152613b798282613af6565b9150508091505092915050565b6000613b928383613b2f565b905092915050565b6000602082019050919050565b6000613bb282613ab9565b613bbc8185613ac4565b935083602082028501613bce85613ad5565b8060005b85811015613c0a5784840389528151613beb8582613b86565b9450613bf683613b9a565b925060208a01995050600181019050613bd2565b50829750879550505050505092915050565b60006020820190508181036000830152613c368184613ba7565b905092915050565b60a082016000820151613c546000850182613785565b506020820151613c6760208501826137a6565b506040820151613c7a60408501826137a6565b506060820151613c8d6060850182613785565b506080820151613ca060808501826137b5565b50505050565b600060a082019050613cbb6000830184613c3e565b92915050565b613cca816134f3565b8114613cd557600080fd5b50565b600081359050613ce781613cc1565b92915050565b60008060408385031215613d0457613d03613464565b5b6000613d12858286016136b1565b9250506020613d2385828601613cd8565b9150509250929050565b600067ffffffffffffffff821115613d4857613d47613932565b5b613d518261356f565b9050602081019050919050565b6000613d71613d6c84613d2d565b613992565b905082815260208101848484011115613d8d57613d8c61392d565b5b613d988482856139de565b509392505050565b600082601f830112613db557613db4613928565b5b8135613dc5848260208601613d5e565b91505092915050565b60008060008060808587031215613de857613de7613464565b5b6000613df6878288016136b1565b9450506020613e07878288016136b1565b9350506040613e18878288016135fc565b925050606085013567ffffffffffffffff811115613e3957613e38613469565b5b613e4587828801613da0565b91505092959194509250565b600080600060608486031215613e6a57613e69613464565b5b600084013567ffffffffffffffff811115613e8857613e87613469565b5b613e9486828701613a2f565b9350506020613ea5868287016135fc565b925050604084013567ffffffffffffffff811115613ec657613ec5613469565b5b613ed286828701613a2f565b9150509250925092565b60008060408385031215613ef357613ef2613464565b5b6000613f01858286016136b1565b9250506020613f12858286016136b1565b9150509250929050565b7f4e487b7100000000000000000000000000000000000000000000000000000000600052602260045260246000fd5b60006002820490506001821680613f6357607f821691505b602082108103613f7657613f75613f1c565b5b50919050565b7f4552433732313a20617070726f76616c20746f2063757272656e74206f776e6560008201527f7200000000000000000000000000000000000000000000000000000000000000602082015250565b6000613fd8602183613534565b9150613fe382613f7c565b604082019050919050565b6000602082019050818103600083015261400781613fcb565b9050919050565b7f4552433732313a20617070726f76652063616c6c6572206973206e6f7420746f60008201527f6b656e206f776e6572206f7220617070726f76656420666f7220616c6c000000602082015250565b600061406a603d83613534565b91506140758261400e565b604082019050919050565b600060208201905081810360008301526140998161405d565b9050919050565b7f4552433732313a2063616c6c6572206973206e6f7420746f6b656e206f776e6560008201527f72206f7220617070726f76656400000000000000000000000000000000000000602082015250565b60006140fc602d83613534565b9150614107826140a0565b604082019050919050565b6000602082019050818103600083015261412b816140ef565b9050919050565b7f4e487b7100000000000000000000000000000000000000000000000000000000600052601160045260246000fd5b600061416c826135db565b9150614177836135db565b925082820190508082111561418f5761418e614132565b5b92915050565b60006141a0826135db565b91507fffffffffffffffffffffffffffffffffffffffffffffffffffffffffffffffff82036141d2576141d1614132565b5b600182019050919050565b7f4e487b7100000000000000000000000000000000000000000000000000000000600052603260045260246000fd5b7f4552433732313a20696e76616c696420746f6b656e2049440000000000000000600082015250565b6000614242601883613534565b915061424d8261420c565b602082019050919050565b6000602082019050818103600083015261427181614235565b9050919050565b7f4552433732313a2061646472657373207a65726f206973206e6f74206120766160008201527f6c6964206f776e65720000000000000000000000000000000000000000000000602082015250565b60006142d4602983613534565b91506142df82614278565b604082019050919050565b60006020820190508181036000830152614303816142c7565b9050919050565b7f506c65617365207375626d6974207468652061736b696e67207072696365206960008201527f6e206f7264657220746f20636f6d706c65746520746865207075726368617365602082015250565b6000614366604083613534565b91506143718261430a565b604082019050919050565b6000602082019050818103600083015261439581614359565b9050919050565b7f496e76616c6964206361726420696e6465780000000000000000000000000000600082015250565b60006143d2601283613534565b91506143dd8261439c565b602082019050919050565b60006020820190508181036000830152614401816143c5565b9050919050565b60008190508160005260206000209050919050565b60006020601f8301049050919050565b600082821b905092915050565b60006008830261446a7fffffffffffffffffffffffffffffffffffffffffffffffffffffffffffffffff8261442d565b614474868361442d565b95508019841693508086168417925050509392505050565b6000819050919050565b60006144b16144ac6144a7846135db565b61448c565b6135db565b9050919050565b6000819050919050565b6144cb83614496565b6144df6144d7826144b8565b84845461443a565b825550505050565b600090565b6144f46144e7565b6144ff8184846144c2565b505050565b5b81811015614523576145186000826144ec565b600181019050614505565b5050565b601f8211156145685761453981614408565b6145428461441d565b81016020851015614551578190505b61456561455d8561441d565b830182614504565b50505b505050565b600082821c905092915050565b600061458b6000198460080261456d565b1980831691505092915050565b60006145a4838361457a565b9150826002028217905092915050565b6145bd82613529565b67ffffffffffffffff8111156145d6576145d5613932565b5b6145e08254613f4b565b6145eb828285614527565b600060209050601f83116001811461461e576000841561460c578287015190505b6146168582614598565b86555061467e565b601f19841661462c86614408565b60005b828110156146545784890151825560018201915060208501945060208101905061462f565b86831015614671578489015161466d601f89168261457a565b8355505b6001600288020188555050505b505050505050565b6000614691826135db565b9150600082036146a4576146a3614132565b5b600182039050919050565b600060608201905081810360008301526146c98186613580565b90506146d860208301856138d1565b81810360408301526146ea8184613580565b9050949350505050565b7f4f6e6c79206f776e65722063616e20757064617465206c697374696e6720707260008201527f6963650000000000000000000000000000000000000000000000000000000000602082015250565b6000614750602383613534565b915061475b826146f4565b604082019050919050565b6000602082019050818103600083015261477f81614743565b9050919050565b600081905092915050565b600061479c82613529565b6147a68185614786565b93506147b6818560208601613545565b80840191505092915050565b60006147ce8285614791565b91506147da8284614791565b91508190509392505050565b7f4552433732313a207472616e736665722066726f6d20696e636f72726563742060008201527f6f776e6572000000000000000000000000000000000000000000000000000000602082015250565b6000614842602583613534565b915061484d826147e6565b604082019050919050565b6000602082019050818103600083015261487181614835565b9050919050565b7f4552433732313a207472616e7366657220746f20746865207a65726f2061646460008201527f7265737300000000000000000000000000000000000000000000000000000000602082015250565b60006148d4602483613534565b91506148df82614878565b604082019050919050565b60006020820190508181036000830152614903816148c7565b9050919050565b7f45524337323155524953746f726167653a2055524920736574206f66206e6f6e60008201527f6578697374656e7420746f6b656e000000000000000000000000000000000000602082015250565b6000614966602e83613534565b91506149718261490a565b604082019050919050565b6000602082019050818103600083015261499581614959565b9050919050565b7f486f706566756c6c792073656e64696e672074686520636f727265637420707260008201527f6963650000000000000000000000000000000000000000000000000000000000602082015250565b60006149f8602383613534565b9150614a038261499c565b604082019050919050565b60006020820190508181036000830152614a27816149eb565b9050919050565b7f4d616b652073757265207468652070726963652069736e2774206e656761746960008201527f7665000000000000000000000000000000000000000000000000000000000000602082015250565b6000614a8a602283613534565b9150614a9582614a2e565b604082019050919050565b60006020820190508181036000830152614ab981614a7d565b9050919050565b6000608082019050614ad56000830187613670565b614ae26020830186613670565b614aef60408301856138d1565b614afc60608301846134ff565b95945050505050565b7f496e646578206f7574206f6620626f756e647300000000000000000000000000600082015250565b6000614b3b601383613534565b9150614b4682614b05565b602082019050919050565b60006020820190508181036000830152614b6a81614b2e565b9050919050565b6000614b7c826135db565b9150614b87836135db565b9250828203905081811115614b9f57614b9e614132565b5b92915050565b600081549050614bb481613f4b565b9050919050565b818103614bc9575050614ca1565b614bd282614ba5565b67ffffffffffffffff811115614beb57614bea613932565b5b614bf58254613f4b565b614c00828285614527565b6000601f831160018114614c2f5760008415614c1d578287015490505b614c278582614598565b865550614c9a565b601f198416614c3d87614408565b9650614c4886614408565b60005b82811015614c7057848901548255600182019150600185019450602081019050614c4b565b86831015614c8d5784890154614c89601f89168261457a565b8355505b6001600288020188555050505b5050505050505b565b7f4e487b7100000000000000000000000000000000000000000000000000000000600052603160045260246000fd5b7f4552433732313a20617070726f766520746f2063616c6c657200000000000000600082015250565b6000614d08601983613534565b9150614d1382614cd2565b602082019050919050565b60006020820190508181036000830152614d3781614cfb565b9050919050565b7f4552433732313a207472616e7366657220746f206e6f6e20455243373231526560008201527f63656976657220696d706c656d656e7465720000000000000000000000000000602082015250565b6000614d9a603283613534565b9150614da582614d3e565b604082019050919050565b60006020820190508181036000830152614dc981614d8d565b9050919050565b600081519050919050565b600082825260208201905092915050565b6000614df782614dd0565b614e018185614ddb565b9350614e11818560208601613545565b614e1a8161356f565b840191505092915050565b6000608082019050614e3a6000830187613670565b614e476020830186613670565b614e5460408301856138d1565b8181036060830152614e668184614dec565b905095945050505050565b600081519050614e808161349a565b92915050565b600060208284031215614e9c57614e9b613464565b5b6000614eaa84828501614e71565b91505092915050565b7f4e487b7100000000000000000000000000000000000000000000000000000000600052601260045260246000fd5b7f4552433732313a206d696e7420746f20746865207a65726f2061646472657373600082015250565b6000614f18602083613534565b9150614f2382614ee2565b602082019050919050565b60006020820190508181036000830152614f4781614f0b565b9050919050565b7f4552433732313a20746f6b656e20616c7265616479206d696e74656400000000600082015250565b6000614f84601c83613534565b9150614f8f82614f4e565b602082019050919050565b60006020820190508181036000830152614fb381614f77565b905091905056fea264697066735822122096de469e0a4e324dd1ba6b002f9cd2638db7210e06bb02682f08f8f13e5a2ae664736f6c63430008120033",
  "immutableReferences": {},
  "source": "//SPDX-License-Identifier: Unlicense\r\npragma solidity ^0.8.0;\r\n\r\n//import \"hardhat/console.sol\";\r\nimport \"./../node_modules/@openzeppelin/contracts/utils/Counters.sol\";\r\nimport \"./../node_modules/@openzeppelin/contracts/token/ERC721/extensions/ERC721URIStorage.sol\";\r\nimport \"./../node_modules/@openzeppelin/contracts/token/ERC721/ERC721.sol\";\r\n\r\ncontract NFTMarketplace is ERC721URIStorage {\r\n    struct Card {\r\n        string name;\r\n        uint256 grade;\r\n        string condition;\r\n        // Other variables\r\n    }\r\n\r\n    mapping(address => Card[]) private userCards; // Mapping to register cards for each user\r\n    mapping(address => uint256) private cardCounts; // Mapping to keep track of card counts for each user\r\n\r\n    // Event works as a log to keep track of all the transactions that happened in the contract\r\n    // These logs are stored on blockchain and are accessible using address of the contract till the contract\r\n    // is present on the blockchain. An event generated is not accessible from within contracts,\r\n    // not even the one which have created and emitted them.\r\n\r\n    // Event to notify when a card is registered\r\n    event CardRegistered(\r\n        address indexed user,\r\n        string name,\r\n        uint256 grade,\r\n        string condition\r\n    );\r\n\r\n    // Event to notify when a card is transferred\r\n    event CardTransferred(\r\n        address indexed from,\r\n        address indexed to,\r\n        uint256 cardIndex\r\n    );\r\n    using Counters for Counters.Counter;\r\n    //_tokenIds variable has the most recent minted tokenId\r\n    Counters.Counter private _tokenIds;\r\n    //Keeps track of the number of items sold on the marketplace\r\n    Counters.Counter private _itemsSold;\r\n    //owner is the contract address that created the smart contract\r\n    address payable owner;\r\n    //The fee charged by the marketplace to be allowed to list an NFT\r\n    uint256 listPrice = 0.01 ether;\r\n\r\n    //The structure to store info about a listed token\r\n    struct ListedToken {\r\n        uint256 tokenId;\r\n        address payable owner;\r\n        address payable seller;\r\n        uint256 price;\r\n        bool currentlyListed;\r\n    }\r\n\r\n    //the event emitted when a token is successfully listed\r\n    event TokenListedSuccess(\r\n        uint256 indexed tokenId,\r\n        address owner,\r\n        address seller,\r\n        uint256 price,\r\n        bool currentlyListed\r\n    );\r\n\r\n    //This mapping maps tokenId to token info and is helpful when retrieving details about a tokenId\r\n    mapping(uint256 => ListedToken) private idToListedToken;\r\n\r\n    constructor() ERC721(\"NFTCardMarketplace\", \"CARD\") {\r\n        owner = payable(msg.sender);\r\n    }\r\n\r\n    function updateListPrice(uint256 _listPrice) public payable {\r\n        require(owner == msg.sender, \"Only owner can update listing price\");\r\n        listPrice = _listPrice;\r\n    }\r\n\r\n    function getListPrice() public view returns (uint256) {\r\n        return listPrice;\r\n    }\r\n\r\n    function getLatestIdToListedToken()\r\n        public\r\n        view\r\n        returns (ListedToken memory)\r\n    {\r\n        uint256 currentTokenId = _tokenIds.current();\r\n        return idToListedToken[currentTokenId];\r\n    }\r\n\r\n    function getListedTokenForId(\r\n        uint256 tokenId\r\n    ) public view returns (ListedToken memory) {\r\n        return idToListedToken[tokenId];\r\n    }\r\n\r\n    function getCurrentToken() public view returns (uint256) {\r\n        return _tokenIds.current();\r\n    }\r\n\r\n    //The first time a token is created, it is listed here\r\n    function createToken(\r\n        string memory tokenURI,\r\n        uint256 price\r\n    ) public payable returns (uint256) {\r\n        //Increment the tokenId counter, which is keeping track of the number of minted NFTs\r\n        _tokenIds.increment();\r\n        uint256 newTokenId = _tokenIds.current();\r\n\r\n        //Mint the NFT with tokenId newTokenId to the address who called createToken\r\n        _safeMint(msg.sender, newTokenId);\r\n\r\n        //Map the tokenId to the tokenURI (which is an IPFS URL with the NFT metadata)\r\n        _setTokenURI(newTokenId, tokenURI);\r\n\r\n        //Helper function to update Global variables and emit an event\r\n        createListedToken(newTokenId, price);\r\n\r\n        return newTokenId;\r\n    }\r\n\r\n    function createListedToken(uint256 tokenId, uint256 price) private {\r\n        //Make sure the sender sent enough ETH to pay for listing\r\n        require(msg.value == listPrice, \"Hopefully sending the correct price\");\r\n        //Just sanity check\r\n        require(price > 0, \"Make sure the price isn't negative\");\r\n\r\n        //Update the mapping of tokenId's to Token details, useful for retrieval functions\r\n        idToListedToken[tokenId] = ListedToken(\r\n            tokenId,\r\n            payable(address(this)),\r\n            payable(msg.sender),\r\n            price,\r\n            true\r\n        );\r\n\r\n        _transfer(msg.sender, address(this), tokenId);\r\n        //Emit the event for successful transfer. The frontend parses this message and updates the end user\r\n        emit TokenListedSuccess(\r\n            tokenId,\r\n            address(this),\r\n            msg.sender,\r\n            price,\r\n            true\r\n        );\r\n    }\r\n\r\n    //This will return all the NFTs currently listed to be sold on the marketplace\r\n    function getAllNFTs() public view returns (ListedToken[] memory) {\r\n        uint256 nftCount = _tokenIds.current();\r\n        ListedToken[] memory tokens = new ListedToken[](nftCount);\r\n        uint256 currentIndex = 0;\r\n        uint256 currentId;\r\n        //at the moment currentlyListed is true for all, if it becomes false in the future we will\r\n        //filter out currentlyListed == false over here\r\n        for (uint256 i = 0; i < nftCount; i++) {\r\n            currentId = i + 1;\r\n            ListedToken storage currentItem = idToListedToken[currentId];\r\n            tokens[currentIndex] = currentItem;\r\n            currentIndex += 1;\r\n        }\r\n        //the array 'tokens' has the list of all NFTs in the marketplace\r\n        return tokens;\r\n    }\r\n\r\n    //Returns all the NFTs that the current user is owner or seller in\r\n    function getMyNFTs() public view returns (ListedToken[] memory) {\r\n        uint256 totalItemCount = _tokenIds.current();\r\n        uint256 itemCount = 0;\r\n        uint256 currentIndex = 0;\r\n        uint256 currentId;\r\n        //Important to get a count of all the NFTs that belong to the user before we can make an array for them\r\n        for (uint256 i = 0; i < totalItemCount; i++) {\r\n            if (\r\n                idToListedToken[i + 1].owner == msg.sender ||\r\n                idToListedToken[i + 1].seller == msg.sender\r\n            ) {\r\n                itemCount += 1;\r\n            }\r\n        }\r\n\r\n        //Once you have the count of relevant NFTs, create an array then store all the NFTs in it\r\n        ListedToken[] memory items = new ListedToken[](itemCount);\r\n        for (uint256 i = 0; i < totalItemCount; i++) {\r\n            if (\r\n                idToListedToken[i + 1].owner == msg.sender ||\r\n                idToListedToken[i + 1].seller == msg.sender\r\n            ) {\r\n                currentId = i + 1;\r\n                ListedToken storage currentItem = idToListedToken[currentId];\r\n                items[currentIndex] = currentItem;\r\n                currentIndex += 1;\r\n            }\r\n        }\r\n        return items;\r\n    }\r\n\r\n    //Sell NFT to other address\r\n    function executeSale(uint256 tokenId) public payable {\r\n        uint256 price = idToListedToken[tokenId].price;\r\n        address seller = idToListedToken[tokenId].seller;\r\n        require(\r\n            msg.value == price,\r\n            \"Please submit the asking price in order to complete the purchase\"\r\n        );\r\n\r\n        //update the details of the token\r\n        idToListedToken[tokenId].currentlyListed = true;\r\n        idToListedToken[tokenId].seller = payable(msg.sender);\r\n        _itemsSold.increment();\r\n\r\n        //Actually transfer the token to the new owner\r\n        _transfer(address(this), msg.sender, tokenId);\r\n        //approve the marketplace to sell NFTs on your behalf\r\n        approve(address(this), tokenId);\r\n\r\n        //Transfer the listing fee to the marketplace creator\r\n        payable(owner).transfer(listPrice);\r\n        //Transfer the proceeds from the sale to the seller of the NFT\r\n        payable(seller).transfer(msg.value);\r\n    }\r\n\r\n    // Function to register a card for a user, external means that this function can be called from outside the contract\r\n    function registerCard(\r\n        string memory _name,\r\n        uint256 _grade,\r\n        string memory _condition\r\n    ) external {\r\n        Card memory newCard = Card(_name, _grade, _condition);\r\n        userCards[msg.sender].push(newCard);\r\n        cardCounts[msg.sender]++;\r\n        emit CardRegistered(msg.sender, _name, _grade, _condition);\r\n    }\r\n\r\n    // Function to transfer a card from one user to another\r\n    function transferCard(address _to, uint256 _cardIndex) external {\r\n        require( // require is used to validate the inputs to the function and throw error if the condition is not met\r\n            _cardIndex < userCards[msg.sender].length,\r\n            \"Invalid card index\"\r\n        );\r\n        Card memory cardToTransfer = userCards[msg.sender][_cardIndex]; // Get the card to transfer\r\n        userCards[_to].push(cardToTransfer); // Push the card to the user to whom it is being transferred\r\n        cardCounts[msg.sender]--; // Reduce the card count of the user from whom the card is being transferred\r\n        cardCounts[_to]++; // Increase the card count of the user to whom the card is being transferred\r\n        removeElement(_cardIndex); // Delete the card from the user from whom the card is being transferred\r\n        emit CardTransferred(msg.sender, _to, _cardIndex); // Emit the event to notify the transfer\r\n    }\r\n\r\n    // Function to get all cards of a user by address\r\n    function getUserCards(address _user) external view returns (Card[] memory) {\r\n        // view means that this function will not modify the state of the contract\r\n        return userCards[_user];\r\n    }\r\n\r\n    // Function to get card count of a user by address\r\n    function getCardCount(address _user) external view returns (uint256) {\r\n        return cardCounts[_user];\r\n    }\r\n\r\n    function removeElement(uint256 _cardIndex) internal {\r\n        require(\r\n            _cardIndex < userCards[msg.sender].length,\r\n            \"Index out of bounds\"\r\n        );\r\n\r\n        // Shift elements to the left starting from the element to be removed\r\n        for (uint i = _cardIndex; i < userCards[msg.sender].length - 1; i++) {\r\n            //FORSE USA TROPPO GAS --> da approfondire\r\n            userCards[msg.sender][i] = userCards[msg.sender][i + 1];\r\n        }\r\n\r\n        // Resize the array by deleting the last element\r\n        userCards[msg.sender].pop();\r\n    }\r\n}\r\n",
  "sourcePath": "C:\\Users\\Alessandro\\Desktop\\Universita\\Blockchain\\blockchain-authenticator\\project\\truffle\\contracts\\NFT.sol",
  "compiler": {
    "name": "solc",
    "version": "0.8.18+commit.87f61d96.Emscripten.clang"
  },
  "schemaVersion": "3.4.14",
  "updatedAt": "2023-07-06T14:49:58.869Z",
  "networkType": "ethereum",
  "devdoc": {
    "events": {
      "Approval(address,address,uint256)": {
        "details": "Emitted when `owner` enables `approved` to manage the `tokenId` token."
      },
      "ApprovalForAll(address,address,bool)": {
        "details": "Emitted when `owner` enables or disables (`approved`) `operator` to manage all of its assets."
      },
      "BatchMetadataUpdate(uint256,uint256)": {
        "details": "This event emits when the metadata of a range of tokens is changed. So that the third-party platforms such as NFT market could timely update the images and related attributes of the NFTs."
      },
      "MetadataUpdate(uint256)": {
        "details": "This event emits when the metadata of a token is changed. So that the third-party platforms such as NFT market could timely update the images and related attributes of the NFT."
      },
      "Transfer(address,address,uint256)": {
        "details": "Emitted when `tokenId` token is transferred from `from` to `to`."
      }
    },
    "kind": "dev",
    "methods": {
      "approve(address,uint256)": {
        "details": "See {IERC721-approve}."
      },
      "balanceOf(address)": {
        "details": "See {IERC721-balanceOf}."
      },
      "getApproved(uint256)": {
        "details": "See {IERC721-getApproved}."
      },
      "isApprovedForAll(address,address)": {
        "details": "See {IERC721-isApprovedForAll}."
      },
      "name()": {
        "details": "See {IERC721Metadata-name}."
      },
      "ownerOf(uint256)": {
        "details": "See {IERC721-ownerOf}."
      },
      "safeTransferFrom(address,address,uint256)": {
        "details": "See {IERC721-safeTransferFrom}."
      },
      "safeTransferFrom(address,address,uint256,bytes)": {
        "details": "See {IERC721-safeTransferFrom}."
      },
      "setApprovalForAll(address,bool)": {
        "details": "See {IERC721-setApprovalForAll}."
      },
      "supportsInterface(bytes4)": {
        "details": "See {IERC165-supportsInterface}"
      },
      "symbol()": {
        "details": "See {IERC721Metadata-symbol}."
      },
      "tokenURI(uint256)": {
        "details": "See {IERC721Metadata-tokenURI}."
      },
      "transferFrom(address,address,uint256)": {
        "details": "See {IERC721-transferFrom}."
      }
    },
    "version": 1
  },
  "userdoc": {
    "kind": "user",
    "methods": {},
    "version": 1
  }
}