{
  "contractName": "NFTMarketplace",
  "abi": [
    {
      "inputs": [],
      "stateMutability": "nonpayable",
      "type": "constructor"
    },
    {
      "anonymous": false,
      "inputs": [
        {
          "indexed": true,
          "internalType": "address",
          "name": "owner",
          "type": "address"
        },
        {
          "indexed": true,
          "internalType": "address",
          "name": "approved",
          "type": "address"
        },
        {
          "indexed": true,
          "internalType": "uint256",
          "name": "tokenId",
          "type": "uint256"
        }
      ],
      "name": "Approval",
      "type": "event"
    },
    {
      "anonymous": false,
      "inputs": [
        {
          "indexed": true,
          "internalType": "address",
          "name": "owner",
          "type": "address"
        },
        {
          "indexed": true,
          "internalType": "address",
          "name": "operator",
          "type": "address"
        },
        {
          "indexed": false,
          "internalType": "bool",
          "name": "approved",
          "type": "bool"
        }
      ],
      "name": "ApprovalForAll",
      "type": "event"
    },
    {
      "anonymous": false,
      "inputs": [
        {
          "indexed": false,
          "internalType": "uint256",
          "name": "_fromTokenId",
          "type": "uint256"
        },
        {
          "indexed": false,
          "internalType": "uint256",
          "name": "_toTokenId",
          "type": "uint256"
        }
      ],
      "name": "BatchMetadataUpdate",
      "type": "event"
    },
    {
      "anonymous": false,
      "inputs": [
        {
          "indexed": true,
          "internalType": "address",
          "name": "user",
          "type": "address"
        },
        {
          "indexed": false,
          "internalType": "string",
          "name": "name",
          "type": "string"
        },
        {
          "indexed": false,
          "internalType": "uint256",
          "name": "grade",
          "type": "uint256"
        },
        {
          "indexed": false,
          "internalType": "string",
          "name": "condition",
          "type": "string"
        },
        {
          "indexed": false,
          "internalType": "uint256",
          "name": "cardCode",
          "type": "uint256"
        }
      ],
      "name": "CardRegistered",
      "type": "event"
    },
    {
      "anonymous": false,
      "inputs": [
        {
          "indexed": true,
          "internalType": "address",
          "name": "from",
          "type": "address"
        },
        {
          "indexed": true,
          "internalType": "address",
          "name": "to",
          "type": "address"
        },
        {
          "indexed": false,
          "internalType": "uint256",
          "name": "cardIndex",
          "type": "uint256"
        }
      ],
      "name": "CardTransferred",
      "type": "event"
    },
    {
      "anonymous": false,
      "inputs": [
        {
          "indexed": false,
          "internalType": "uint256",
          "name": "_tokenId",
          "type": "uint256"
        }
      ],
      "name": "MetadataUpdate",
      "type": "event"
    },
    {
      "anonymous": false,
      "inputs": [
        {
          "indexed": true,
          "internalType": "uint256",
          "name": "tokenId",
          "type": "uint256"
        },
        {
          "indexed": false,
          "internalType": "address",
          "name": "owner",
          "type": "address"
        },
        {
          "indexed": false,
          "internalType": "address",
          "name": "seller",
          "type": "address"
        },
        {
          "indexed": false,
          "internalType": "uint256",
          "name": "price",
          "type": "uint256"
        },
        {
          "indexed": false,
          "internalType": "bool",
          "name": "currentlyListed",
          "type": "bool"
        }
      ],
      "name": "TokenListedSuccess",
      "type": "event"
    },
    {
      "anonymous": false,
      "inputs": [
        {
          "indexed": true,
          "internalType": "address",
          "name": "from",
          "type": "address"
        },
        {
          "indexed": true,
          "internalType": "address",
          "name": "to",
          "type": "address"
        },
        {
          "indexed": true,
          "internalType": "uint256",
          "name": "tokenId",
          "type": "uint256"
        }
      ],
      "name": "Transfer",
      "type": "event"
    },
    {
      "inputs": [
        {
          "internalType": "address",
          "name": "to",
          "type": "address"
        },
        {
          "internalType": "uint256",
          "name": "tokenId",
          "type": "uint256"
        }
      ],
      "name": "approve",
      "outputs": [],
      "stateMutability": "nonpayable",
      "type": "function"
    },
    {
      "inputs": [
        {
          "internalType": "address",
          "name": "owner",
          "type": "address"
        }
      ],
      "name": "balanceOf",
      "outputs": [
        {
          "internalType": "uint256",
          "name": "",
          "type": "uint256"
        }
      ],
      "stateMutability": "view",
      "type": "function",
      "constant": true
    },
    {
      "inputs": [
        {
          "internalType": "uint256",
          "name": "tokenId",
          "type": "uint256"
        }
      ],
      "name": "getApproved",
      "outputs": [
        {
          "internalType": "address",
          "name": "",
          "type": "address"
        }
      ],
      "stateMutability": "view",
      "type": "function",
      "constant": true
    },
    {
      "inputs": [
        {
          "internalType": "address",
          "name": "owner",
          "type": "address"
        },
        {
          "internalType": "address",
          "name": "operator",
          "type": "address"
        }
      ],
      "name": "isApprovedForAll",
      "outputs": [
        {
          "internalType": "bool",
          "name": "",
          "type": "bool"
        }
      ],
      "stateMutability": "view",
      "type": "function",
      "constant": true
    },
    {
      "inputs": [],
      "name": "name",
      "outputs": [
        {
          "internalType": "string",
          "name": "",
          "type": "string"
        }
      ],
      "stateMutability": "view",
      "type": "function",
      "constant": true
    },
    {
      "inputs": [
        {
          "internalType": "uint256",
          "name": "tokenId",
          "type": "uint256"
        }
      ],
      "name": "ownerOf",
      "outputs": [
        {
          "internalType": "address",
          "name": "",
          "type": "address"
        }
      ],
      "stateMutability": "view",
      "type": "function",
      "constant": true
    },
    {
      "inputs": [
        {
          "internalType": "address",
          "name": "from",
          "type": "address"
        },
        {
          "internalType": "address",
          "name": "to",
          "type": "address"
        },
        {
          "internalType": "uint256",
          "name": "tokenId",
          "type": "uint256"
        }
      ],
      "name": "safeTransferFrom",
      "outputs": [],
      "stateMutability": "nonpayable",
      "type": "function"
    },
    {
      "inputs": [
        {
          "internalType": "address",
          "name": "from",
          "type": "address"
        },
        {
          "internalType": "address",
          "name": "to",
          "type": "address"
        },
        {
          "internalType": "uint256",
          "name": "tokenId",
          "type": "uint256"
        },
        {
          "internalType": "bytes",
          "name": "data",
          "type": "bytes"
        }
      ],
      "name": "safeTransferFrom",
      "outputs": [],
      "stateMutability": "nonpayable",
      "type": "function"
    },
    {
      "inputs": [
        {
          "internalType": "address",
          "name": "operator",
          "type": "address"
        },
        {
          "internalType": "bool",
          "name": "approved",
          "type": "bool"
        }
      ],
      "name": "setApprovalForAll",
      "outputs": [],
      "stateMutability": "nonpayable",
      "type": "function"
    },
    {
      "inputs": [
        {
          "internalType": "bytes4",
          "name": "interfaceId",
          "type": "bytes4"
        }
      ],
      "name": "supportsInterface",
      "outputs": [
        {
          "internalType": "bool",
          "name": "",
          "type": "bool"
        }
      ],
      "stateMutability": "view",
      "type": "function",
      "constant": true
    },
    {
      "inputs": [],
      "name": "symbol",
      "outputs": [
        {
          "internalType": "string",
          "name": "",
          "type": "string"
        }
      ],
      "stateMutability": "view",
      "type": "function",
      "constant": true
    },
    {
      "inputs": [
        {
          "internalType": "uint256",
          "name": "tokenId",
          "type": "uint256"
        }
      ],
      "name": "tokenURI",
      "outputs": [
        {
          "internalType": "string",
          "name": "",
          "type": "string"
        }
      ],
      "stateMutability": "view",
      "type": "function",
      "constant": true
    },
    {
      "inputs": [
        {
          "internalType": "address",
          "name": "from",
          "type": "address"
        },
        {
          "internalType": "address",
          "name": "to",
          "type": "address"
        },
        {
          "internalType": "uint256",
          "name": "tokenId",
          "type": "uint256"
        }
      ],
      "name": "transferFrom",
      "outputs": [],
      "stateMutability": "nonpayable",
      "type": "function"
    },
    {
      "inputs": [
        {
          "internalType": "uint256",
          "name": "_listPrice",
          "type": "uint256"
        }
      ],
      "name": "updateListPrice",
      "outputs": [],
      "stateMutability": "payable",
      "type": "function",
      "payable": true
    },
    {
      "inputs": [],
      "name": "getListPrice",
      "outputs": [
        {
          "internalType": "uint256",
          "name": "",
          "type": "uint256"
        }
      ],
      "stateMutability": "view",
      "type": "function",
      "constant": true
    },
    {
      "inputs": [],
      "name": "getLatestIdToListedToken",
      "outputs": [
        {
          "components": [
            {
              "internalType": "uint256",
              "name": "tokenID",
              "type": "uint256"
            },
            {
              "internalType": "address payable",
              "name": "owner",
              "type": "address"
            },
            {
              "internalType": "address payable",
              "name": "seller",
              "type": "address"
            },
            {
              "internalType": "uint256",
              "name": "price",
              "type": "uint256"
            },
            {
              "internalType": "bool",
              "name": "currentlyListed",
              "type": "bool"
            }
          ],
          "internalType": "struct NFTMarketplace.ListedToken",
          "name": "",
          "type": "tuple"
        }
      ],
      "stateMutability": "view",
      "type": "function",
      "constant": true
    },
    {
      "inputs": [
        {
          "internalType": "uint256",
          "name": "tokenId",
          "type": "uint256"
        }
      ],
      "name": "getListedForTokenId",
      "outputs": [
        {
          "components": [
            {
              "internalType": "uint256",
              "name": "tokenID",
              "type": "uint256"
            },
            {
              "internalType": "address payable",
              "name": "owner",
              "type": "address"
            },
            {
              "internalType": "address payable",
              "name": "seller",
              "type": "address"
            },
            {
              "internalType": "uint256",
              "name": "price",
              "type": "uint256"
            },
            {
              "internalType": "bool",
              "name": "currentlyListed",
              "type": "bool"
            }
          ],
          "internalType": "struct NFTMarketplace.ListedToken",
          "name": "",
          "type": "tuple"
        }
      ],
      "stateMutability": "view",
      "type": "function",
      "constant": true
    },
    {
      "inputs": [],
      "name": "getCurrentToken",
      "outputs": [
        {
          "internalType": "uint256",
          "name": "",
          "type": "uint256"
        }
      ],
      "stateMutability": "view",
      "type": "function",
      "constant": true
    },
    {
      "inputs": [
        {
          "internalType": "address",
          "name": "_user",
          "type": "address"
        }
      ],
      "name": "getCardCount",
      "outputs": [
        {
          "internalType": "uint256",
          "name": "",
          "type": "uint256"
        }
      ],
      "stateMutability": "view",
      "type": "function",
      "constant": true
    },
    {
      "inputs": [],
      "name": "getAllCardsCount",
      "outputs": [
        {
          "internalType": "uint256",
          "name": "",
          "type": "uint256"
        }
      ],
      "stateMutability": "view",
      "type": "function",
      "constant": true
    },
    {
      "inputs": [
        {
          "internalType": "address",
          "name": "_to",
          "type": "address"
        },
        {
          "internalType": "uint256",
          "name": "_cardIndex",
          "type": "uint256"
        }
      ],
      "name": "transferCard",
      "outputs": [],
      "stateMutability": "nonpayable",
      "type": "function"
    },
    {
      "inputs": [
        {
          "internalType": "address",
          "name": "_user",
          "type": "address"
        }
      ],
      "name": "getUserCards",
      "outputs": [
        {
          "components": [
            {
              "internalType": "string",
              "name": "name",
              "type": "string"
            },
            {
              "internalType": "uint256",
              "name": "grade",
              "type": "uint256"
            },
            {
              "internalType": "string",
              "name": "condition",
              "type": "string"
            },
            {
              "internalType": "uint256",
              "name": "cardCode",
              "type": "uint256"
            }
          ],
          "internalType": "struct NFTMarketplace.Card[]",
          "name": "",
          "type": "tuple[]"
        }
      ],
      "stateMutability": "view",
      "type": "function",
      "constant": true
    },
    {
      "inputs": [],
      "name": "getAllUserCards",
      "outputs": [
        {
          "components": [
            {
              "internalType": "string",
              "name": "name",
              "type": "string"
            },
            {
              "internalType": "uint256",
              "name": "grade",
              "type": "uint256"
            },
            {
              "internalType": "string",
              "name": "condition",
              "type": "string"
            },
            {
              "internalType": "uint256",
              "name": "cardCode",
              "type": "uint256"
            }
          ],
          "internalType": "struct NFTMarketplace.Card[]",
          "name": "",
          "type": "tuple[]"
        }
      ],
      "stateMutability": "view",
      "type": "function",
      "constant": true
    },
    {
      "inputs": [
        {
          "internalType": "string",
          "name": "tokenURI",
          "type": "string"
        },
        {
          "internalType": "uint256",
          "name": "price",
          "type": "uint256"
        }
      ],
      "name": "createToken",
      "outputs": [
        {
          "internalType": "uint256",
          "name": "",
          "type": "uint256"
        }
      ],
      "stateMutability": "payable",
      "type": "function",
      "payable": true
    },
    {
      "inputs": [
        {
          "internalType": "string",
          "name": "_name",
          "type": "string"
        },
        {
          "internalType": "uint256",
          "name": "_grade",
          "type": "uint256"
        },
        {
          "internalType": "string",
          "name": "_condition",
          "type": "string"
        },
        {
          "internalType": "uint256",
          "name": "_cardCode",
          "type": "uint256"
        }
      ],
      "name": "registerCard",
      "outputs": [],
      "stateMutability": "nonpayable",
      "type": "function"
    },
    {
      "inputs": [],
      "name": "getAllNFTs",
      "outputs": [
        {
          "components": [
            {
              "internalType": "uint256",
              "name": "tokenID",
              "type": "uint256"
            },
            {
              "internalType": "address payable",
              "name": "owner",
              "type": "address"
            },
            {
              "internalType": "address payable",
              "name": "seller",
              "type": "address"
            },
            {
              "internalType": "uint256",
              "name": "price",
              "type": "uint256"
            },
            {
              "internalType": "bool",
              "name": "currentlyListed",
              "type": "bool"
            }
          ],
          "internalType": "struct NFTMarketplace.ListedToken[]",
          "name": "",
          "type": "tuple[]"
        }
      ],
      "stateMutability": "view",
      "type": "function",
      "constant": true
    },
    {
      "inputs": [],
      "name": "getAllMyNFTs",
      "outputs": [
        {
          "components": [
            {
              "internalType": "uint256",
              "name": "tokenID",
              "type": "uint256"
            },
            {
              "internalType": "address payable",
              "name": "owner",
              "type": "address"
            },
            {
              "internalType": "address payable",
              "name": "seller",
              "type": "address"
            },
            {
              "internalType": "uint256",
              "name": "price",
              "type": "uint256"
            },
            {
              "internalType": "bool",
              "name": "currentlyListed",
              "type": "bool"
            }
          ],
          "internalType": "struct NFTMarketplace.ListedToken[]",
          "name": "",
          "type": "tuple[]"
        }
      ],
      "stateMutability": "view",
      "type": "function",
      "constant": true
    },
    {
      "inputs": [
        {
          "internalType": "uint256",
          "name": "tokenId",
          "type": "uint256"
        }
      ],
      "name": "executeSale",
      "outputs": [],
      "stateMutability": "payable",
      "type": "function",
      "payable": true
    }
  ],
  "bytecode": "0x6080604052662386f26fc10000600e553480156200001c57600080fd5b506040518060400160405280600e81526020017f4e4654436f6c6c65637469626c650000000000000000000000000000000000008152506040518060400160405280600481526020017f4e4654430000000000000000000000000000000000000000000000000000000081525081600090816200009a919062000370565b508060019081620000ac919062000370565b50505033600b60006101000a81548173ffffffffffffffffffffffffffffffffffffffff021916908373ffffffffffffffffffffffffffffffffffffffff16021790555062000457565b600081519050919050565b7f4e487b7100000000000000000000000000000000000000000000000000000000600052604160045260246000fd5b7f4e487b7100000000000000000000000000000000000000000000000000000000600052602260045260246000fd5b600060028204905060018216806200017857607f821691505b6020821081036200018e576200018d62000130565b5b50919050565b60008190508160005260206000209050919050565b60006020601f8301049050919050565b600082821b905092915050565b600060088302620001f87fffffffffffffffffffffffffffffffffffffffffffffffffffffffffffffffff82620001b9565b620002048683620001b9565b95508019841693508086168417925050509392505050565b6000819050919050565b6000819050919050565b6000620002516200024b62000245846200021c565b62000226565b6200021c565b9050919050565b6000819050919050565b6200026d8362000230565b620002856200027c8262000258565b848454620001c6565b825550505050565b600090565b6200029c6200028d565b620002a981848462000262565b505050565b5b81811015620002d157620002c560008262000292565b600181019050620002af565b5050565b601f8211156200032057620002ea8162000194565b620002f584620001a9565b8101602085101562000305578190505b6200031d6200031485620001a9565b830182620002ae565b50505b505050565b600082821c905092915050565b6000620003456000198460080262000325565b1980831691505092915050565b600062000360838362000332565b9150826002028217905092915050565b6200037b82620000f6565b67ffffffffffffffff81111562000397576200039662000101565b5b620003a382546200015f565b620003b0828285620002d5565b600060209050601f831160018114620003e85760008415620003d3578287015190505b620003df858262000352565b8655506200044f565b601f198416620003f88662000194565b60005b828110156200042257848901518255600182019150602085019450602081019050620003fb565b868310156200044257848901516200043e601f89168262000332565b8355505b6001600288020188555050505b505050505050565b61530e80620004676000396000f3fe6080604052600436106101b75760003560e01c80639b1225c4116100ec578063c87b56dd1161008a578063dce0b58611610064578063dce0b5861461061b578063e0391b0914610658578063e985e9c514610683578063ef2d1746146106c0576101b7565b8063c87b56dd14610588578063c94f23bf146105c5578063d1a88ae5146105f0576101b7565b8063b2260073116100c6578063b2260073146104ed578063b88d4fde14610518578063c0ab5abc14610541578063c322579c1461056c576101b7565b80639b1225c41461047f5780639b81a3591461049b578063a22cb465146104c4576101b7565b80636352211e1161015957806372b3b6201161013357806372b3b620146103aa57806388d9f40d146103da57806395d89b411461041757806398c3df1614610442576101b7565b80636352211e1461030557806368f1945f1461034257806370a082311461036d576101b7565b8063095ea7b311610195578063095ea7b31461026157806323b872dd1461028a57806342842e0e146102b357806354fadade146102dc576101b7565b806301ffc9a7146101bc57806306fdde03146101f9578063081812fc14610224575b600080fd5b3480156101c857600080fd5b506101e360048036038101906101de91906137af565b6106eb565b6040516101f091906137f7565b60405180910390f35b34801561020557600080fd5b5061020e61074c565b60405161021b91906138a2565b60405180910390f35b34801561023057600080fd5b5061024b600480360381019061024691906138fa565b6107de565b6040516102589190613968565b60405180910390f35b34801561026d57600080fd5b50610288600480360381019061028391906139af565b610824565b005b34801561029657600080fd5b506102b160048036038101906102ac91906139ef565b61093b565b005b3480156102bf57600080fd5b506102da60048036038101906102d591906139ef565b61099b565b005b3480156102e857600080fd5b5061030360048036038101906102fe9190613b77565b6109bb565b005b34801561031157600080fd5b5061032c600480360381019061032791906138fa565b610bc1565b6040516103399190613968565b60405180910390f35b34801561034e57600080fd5b50610357610c47565b6040516103649190613c25565b60405180910390f35b34801561037957600080fd5b50610394600480360381019061038f9190613c40565b610c51565b6040516103a19190613c25565b60405180910390f35b6103c460048036038101906103bf9190613c6d565b610d08565b6040516103d19190613c25565b60405180910390f35b3480156103e657600080fd5b5061040160048036038101906103fc9190613c40565b610d4a565b60405161040e9190613e4e565b60405180910390f35b34801561042357600080fd5b5061042c610f20565b60405161043991906138a2565b60405180910390f35b34801561044e57600080fd5b50610469600480360381019061046491906138fa565b610fb2565b6040516104769190613f08565b60405180910390f35b610499600480360381019061049491906138fa565b6110ba565b005b3480156104a757600080fd5b506104c260048036038101906104bd91906139af565b6112a2565b005b3480156104d057600080fd5b506104eb60048036038101906104e69190613f4f565b611694565b005b3480156104f957600080fd5b506105026116aa565b60405161050f9190613c25565b60405180910390f35b34801561052457600080fd5b5061053f600480360381019061053a9190614030565b6116b4565b005b34801561054d57600080fd5b50610556611716565b60405161056391906141ca565b60405180910390f35b610586600480360381019061058191906138fa565b611af7565b005b34801561059457600080fd5b506105af60048036038101906105aa91906138fa565b611b91565b6040516105bc91906138a2565b60405180910390f35b3480156105d157600080fd5b506105da611ca3565b6040516105e79190613e4e565b60405180910390f35b3480156105fc57600080fd5b50610605611e3a565b6040516106129190613f08565b60405180910390f35b34801561062757600080fd5b50610642600480360381019061063d9190613c40565b611f4f565b60405161064f9190613c25565b60405180910390f35b34801561066457600080fd5b5061066d611f98565b60405161067a91906141ca565b60405180910390f35b34801561068f57600080fd5b506106aa60048036038101906106a591906141ec565b612167565b6040516106b791906137f7565b60405180910390f35b3480156106cc57600080fd5b506106d56121fb565b6040516106e29190613c25565b60405180910390f35b6000634906490660e01b7bffffffffffffffffffffffffffffffffffffffffffffffffffffffff1916827bffffffffffffffffffffffffffffffffffffffffffffffffffffffff1916148061074557506107448261220c565b5b9050919050565b60606000805461075b9061425b565b80601f01602080910402602001604051908101604052809291908181526020018280546107879061425b565b80156107d45780601f106107a9576101008083540402835291602001916107d4565b820191906000526020600020905b8154815290600101906020018083116107b757829003601f168201915b5050505050905090565b60006107e9826122ee565b6004600083815260200190815260200160002060009054906101000a900473ffffffffffffffffffffffffffffffffffffffff169050919050565b600061082f82610bc1565b90508073ffffffffffffffffffffffffffffffffffffffff168373ffffffffffffffffffffffffffffffffffffffff160361089f576040517f08c379a0000000000000000000000000000000000000000000000000000000008152600401610896906142fe565b60405180910390fd5b8073ffffffffffffffffffffffffffffffffffffffff166108be612339565b73ffffffffffffffffffffffffffffffffffffffff1614806108ed57506108ec816108e7612339565b612167565b5b61092c576040517f08c379a000000000000000000000000000000000000000000000000000000000815260040161092390614390565b60405180910390fd5b6109368383612341565b505050565b61094c610946612339565b826123fa565b61098b576040517f08c379a000000000000000000000000000000000000000000000000000000000815260040161098290614422565b60405180910390fd5b61099683838361248f565b505050565b6109b6838383604051806020016040528060008152506116b4565b505050565b60006040518060800160405280868152602001858152602001848152602001838152509050600760003373ffffffffffffffffffffffffffffffffffffffff1673ffffffffffffffffffffffffffffffffffffffff1681526020019081526020016000208190806001815401808255809150506001900390600052602060002090600402016000909190919091506000820151816000019081610a5e91906145ee565b50602082015181600101556040820151816002019081610a7e91906145ee565b5060608201518160030155505060098190806001815401808255809150506001900390600052602060002090600402016000909190919091506000820151816000019081610acc91906145ee565b50602082015181600101556040820151816002019081610aec91906145ee565b50606082015181600301555050600a6000815480929190610b0c906146ef565b9190505550600860003373ffffffffffffffffffffffffffffffffffffffff1673ffffffffffffffffffffffffffffffffffffffff1681526020019081526020016000206000815480929190610b61906146ef565b91905055503373ffffffffffffffffffffffffffffffffffffffff167f68d3d09406fd14307953e11d4a9a7463946fd5c3f39e80464be22f34cf3a0b0b86868686604051610bb29493929190614737565b60405180910390a25050505050565b600080610bcd83612788565b9050600073ffffffffffffffffffffffffffffffffffffffff168173ffffffffffffffffffffffffffffffffffffffff1603610c3e576040517f08c379a0000000000000000000000000000000000000000000000000000000008152600401610c35906147d6565b60405180910390fd5b80915050919050565b6000600e54905090565b60008073ffffffffffffffffffffffffffffffffffffffff168273ffffffffffffffffffffffffffffffffffffffff1603610cc1576040517f08c379a0000000000000000000000000000000000000000000000000000000008152600401610cb890614868565b60405180910390fd5b600360008373ffffffffffffffffffffffffffffffffffffffff1673ffffffffffffffffffffffffffffffffffffffff168152602001908152602001600020549050919050565b6000610d14600c6127c5565b6000610d20600c6127db565b9050610d2c33826127e9565b610d368185612807565b610d4081846128ab565b8091505092915050565b6060600760008373ffffffffffffffffffffffffffffffffffffffff1673ffffffffffffffffffffffffffffffffffffffff168152602001908152602001600020805480602002602001604051908101604052809291908181526020016000905b82821015610f155783829060005260206000209060040201604051806080016040529081600082018054610dde9061425b565b80601f0160208091040260200160405190810160405280929190818152602001828054610e0a9061425b565b8015610e575780601f10610e2c57610100808354040283529160200191610e57565b820191906000526020600020905b815481529060010190602001808311610e3a57829003601f168201915b5050505050815260200160018201548152602001600282018054610e7a9061425b565b80601f0160208091040260200160405190810160405280929190818152602001828054610ea69061425b565b8015610ef35780601f10610ec857610100808354040283529160200191610ef3565b820191906000526020600020905b815481529060010190602001808311610ed657829003601f168201915b5050505050815260200160038201548152505081526020019060010190610dab565b505050509050919050565b606060018054610f2f9061425b565b80601f0160208091040260200160405190810160405280929190818152602001828054610f5b9061425b565b8015610fa85780601f10610f7d57610100808354040283529160200191610fa8565b820191906000526020600020905b815481529060010190602001808311610f8b57829003601f168201915b5050505050905090565b610fba613689565b600f60008381526020019081526020016000206040518060a0016040529081600082015481526020016001820160009054906101000a900473ffffffffffffffffffffffffffffffffffffffff1673ffffffffffffffffffffffffffffffffffffffff1673ffffffffffffffffffffffffffffffffffffffff1681526020016002820160009054906101000a900473ffffffffffffffffffffffffffffffffffffffff1673ffffffffffffffffffffffffffffffffffffffff1673ffffffffffffffffffffffffffffffffffffffff168152602001600382015481526020016004820160009054906101000a900460ff1615151515815250509050919050565b6000600f60008381526020019081526020016000206003015490506000600f600084815260200190815260200160002060020160009054906101000a900473ffffffffffffffffffffffffffffffffffffffff169050813414611152576040517f08c379a0000000000000000000000000000000000000000000000000000000008152600401611149906148fa565b60405180910390fd5b6001600f600085815260200190815260200160002060040160006101000a81548160ff02191690831515021790555033600f600085815260200190815260200160002060020160006101000a81548173ffffffffffffffffffffffffffffffffffffffff021916908373ffffffffffffffffffffffffffffffffffffffff1602179055506111e130338561248f565b6111eb3084610824565b600b60009054906101000a900473ffffffffffffffffffffffffffffffffffffffff1673ffffffffffffffffffffffffffffffffffffffff166108fc600e549081150290604051600060405180830381858888f19350505050158015611255573d6000803e3d6000fd5b508073ffffffffffffffffffffffffffffffffffffffff166108fc349081150290604051600060405180830381858888f1935050505015801561129c573d6000803e3d6000fd5b50505050565b600760003373ffffffffffffffffffffffffffffffffffffffff1673ffffffffffffffffffffffffffffffffffffffff168152602001908152602001600020805490508110611326576040517f08c379a000000000000000000000000000000000000000000000000000000000815260040161131d90614966565b60405180910390fd5b6000600760003373ffffffffffffffffffffffffffffffffffffffff1673ffffffffffffffffffffffffffffffffffffffff168152602001908152602001600020828154811061137957611378614986565b5b90600052602060002090600402016040518060800160405290816000820180546113a29061425b565b80601f01602080910402602001604051908101604052809291908181526020018280546113ce9061425b565b801561141b5780601f106113f05761010080835404028352916020019161141b565b820191906000526020600020905b8154815290600101906020018083116113fe57829003601f168201915b505050505081526020016001820154815260200160028201805461143e9061425b565b80601f016020809104026020016040519081016040528092919081815260200182805461146a9061425b565b80156114b75780601f1061148c576101008083540402835291602001916114b7565b820191906000526020600020905b81548152906001019060200180831161149a57829003601f168201915b505050505081526020016003820154815250509050600760008473ffffffffffffffffffffffffffffffffffffffff1673ffffffffffffffffffffffffffffffffffffffff168152602001908152602001600020819080600181540180825580915050600190039060005260206000209060040201600090919091909150600082015181600001908161154a91906145ee565b5060208201518160010155604082015181600201908161156a91906145ee565b50606082015181600301555050600860003373ffffffffffffffffffffffffffffffffffffffff1673ffffffffffffffffffffffffffffffffffffffff16815260200190815260200160002060008154809291906115c7906149b5565b9190505550600860008473ffffffffffffffffffffffffffffffffffffffff1673ffffffffffffffffffffffffffffffffffffffff168152602001908152602001600020600081548092919061161c906146ef565b919050555061162a82612aae565b8273ffffffffffffffffffffffffffffffffffffffff163373ffffffffffffffffffffffffffffffffffffffff167f08c7dc9c65cfe0a446c6b662ec2e35c1966d49c8c50f8a4b78a7e2e0c68217c4846040516116879190613c25565b60405180910390a3505050565b6116a661169f612339565b8383612d48565b5050565b6000600a54905090565b6116c56116bf612339565b836123fa565b611704576040517f08c379a00000000000000000000000000000000000000000000000000000000081526004016116fb90614422565b60405180910390fd5b61171084848484612eb4565b50505050565b60606000611724600c6127db565b9050600080600080600090505b8481101561184a573373ffffffffffffffffffffffffffffffffffffffff16600f600060018461176191906149de565b815260200190815260200160002060010160009054906101000a900473ffffffffffffffffffffffffffffffffffffffff1673ffffffffffffffffffffffffffffffffffffffff16148061182257503373ffffffffffffffffffffffffffffffffffffffff16600f60006001846117d891906149de565b815260200190815260200160002060020160009054906101000a900473ffffffffffffffffffffffffffffffffffffffff1673ffffffffffffffffffffffffffffffffffffffff16145b156118375760018461183491906149de565b93505b8080611842906146ef565b915050611731565b5060008367ffffffffffffffff81111561186757611866613a4c565b5b6040519080825280602002602001820160405280156118a057816020015b61188d613689565b8152602001906001900390816118855790505b50905060005b85811015611aeb573373ffffffffffffffffffffffffffffffffffffffff16600f60006001846118d691906149de565b815260200190815260200160002060010160009054906101000a900473ffffffffffffffffffffffffffffffffffffffff1673ffffffffffffffffffffffffffffffffffffffff16148061199757503373ffffffffffffffffffffffffffffffffffffffff16600f600060018461194d91906149de565b815260200190815260200160002060020160009054906101000a900473ffffffffffffffffffffffffffffffffffffffff1673ffffffffffffffffffffffffffffffffffffffff16145b15611ad8576001816119a991906149de565b92506000600f60008581526020019081526020016000209050806040518060a0016040529081600082015481526020016001820160009054906101000a900473ffffffffffffffffffffffffffffffffffffffff1673ffffffffffffffffffffffffffffffffffffffff1673ffffffffffffffffffffffffffffffffffffffff1681526020016002820160009054906101000a900473ffffffffffffffffffffffffffffffffffffffff1673ffffffffffffffffffffffffffffffffffffffff1673ffffffffffffffffffffffffffffffffffffffff168152602001600382015481526020016004820160009054906101000a900460ff161515151581525050838681518110611abc57611abb614986565b5b6020026020010181905250600185611ad491906149de565b9450505b8080611ae3906146ef565b9150506118a6565b50809550505050505090565b3373ffffffffffffffffffffffffffffffffffffffff16600b60009054906101000a900473ffffffffffffffffffffffffffffffffffffffff1673ffffffffffffffffffffffffffffffffffffffff1614611b87576040517f08c379a0000000000000000000000000000000000000000000000000000000008152600401611b7e90614a84565b60405180910390fd5b80600e8190555050565b6060611b9c826122ee565b6000600660008481526020019081526020016000208054611bbc9061425b565b80601f0160208091040260200160405190810160405280929190818152602001828054611be89061425b565b8015611c355780601f10611c0a57610100808354040283529160200191611c35565b820191906000526020600020905b815481529060010190602001808311611c1857829003601f168201915b505050505090506000611c46612f10565b90506000815103611c5b578192505050611c9e565b600082511115611c90578082604051602001611c78929190614ae0565b60405160208183030381529060405292505050611c9e565b611c9984612f27565b925050505b919050565b60606009805480602002602001604051908101604052809291908181526020016000905b82821015611e315783829060005260206000209060040201604051806080016040529081600082018054611cfa9061425b565b80601f0160208091040260200160405190810160405280929190818152602001828054611d269061425b565b8015611d735780601f10611d4857610100808354040283529160200191611d73565b820191906000526020600020905b815481529060010190602001808311611d5657829003601f168201915b5050505050815260200160018201548152602001600282018054611d969061425b565b80601f0160208091040260200160405190810160405280929190818152602001828054611dc29061425b565b8015611e0f5780601f10611de457610100808354040283529160200191611e0f565b820191906000526020600020905b815481529060010190602001808311611df257829003601f168201915b5050505050815260200160038201548152505081526020019060010190611cc7565b50505050905090565b611e42613689565b6000611e4e600c6127db565b9050600f60008281526020019081526020016000206040518060a0016040529081600082015481526020016001820160009054906101000a900473ffffffffffffffffffffffffffffffffffffffff1673ffffffffffffffffffffffffffffffffffffffff1673ffffffffffffffffffffffffffffffffffffffff1681526020016002820160009054906101000a900473ffffffffffffffffffffffffffffffffffffffff1673ffffffffffffffffffffffffffffffffffffffff1673ffffffffffffffffffffffffffffffffffffffff168152602001600382015481526020016004820160009054906101000a900460ff16151515158152505091505090565b6000600860008373ffffffffffffffffffffffffffffffffffffffff1673ffffffffffffffffffffffffffffffffffffffff168152602001908152602001600020549050919050565b60606000611fa6600c6127db565b905060008167ffffffffffffffff811115611fc457611fc3613a4c565b5b604051908082528060200260200182016040528015611ffd57816020015b611fea613689565b815260200190600190039081611fe25790505b5090506000805b8381101561215d57600060018261201b91906149de565b90506000600f60008381526020019081526020016000209050806040518060a0016040529081600082015481526020016001820160009054906101000a900473ffffffffffffffffffffffffffffffffffffffff1673ffffffffffffffffffffffffffffffffffffffff1673ffffffffffffffffffffffffffffffffffffffff1681526020016002820160009054906101000a900473ffffffffffffffffffffffffffffffffffffffff1673ffffffffffffffffffffffffffffffffffffffff1673ffffffffffffffffffffffffffffffffffffffff168152602001600382015481526020016004820160009054906101000a900460ff16151515158152505085858151811061212e5761212d614986565b5b602002602001018190525060018461214691906149de565b935050508080612155906146ef565b915050612004565b5081935050505090565b6000600560008473ffffffffffffffffffffffffffffffffffffffff1673ffffffffffffffffffffffffffffffffffffffff16815260200190815260200160002060008373ffffffffffffffffffffffffffffffffffffffff1673ffffffffffffffffffffffffffffffffffffffff16815260200190815260200160002060009054906101000a900460ff16905092915050565b6000612207600c6127db565b905090565b60007f80ac58cd000000000000000000000000000000000000000000000000000000007bffffffffffffffffffffffffffffffffffffffffffffffffffffffff1916827bffffffffffffffffffffffffffffffffffffffffffffffffffffffff191614806122d757507f5b5e139f000000000000000000000000000000000000000000000000000000007bffffffffffffffffffffffffffffffffffffffffffffffffffffffff1916827bffffffffffffffffffffffffffffffffffffffffffffffffffffffff1916145b806122e757506122e682612f8f565b5b9050919050565b6122f781612ff9565b612336576040517f08c379a000000000000000000000000000000000000000000000000000000000815260040161232d906147d6565b60405180910390fd5b50565b600033905090565b816004600083815260200190815260200160002060006101000a81548173ffffffffffffffffffffffffffffffffffffffff021916908373ffffffffffffffffffffffffffffffffffffffff160217905550808273ffffffffffffffffffffffffffffffffffffffff166123b483610bc1565b73ffffffffffffffffffffffffffffffffffffffff167f8c5be1e5ebec7d5bd14f71427d1e84f3dd0314c0f7b2291e5b200ac8c7c3b92560405160405180910390a45050565b60008061240683610bc1565b90508073ffffffffffffffffffffffffffffffffffffffff168473ffffffffffffffffffffffffffffffffffffffff16148061244857506124478185612167565b5b8061248657508373ffffffffffffffffffffffffffffffffffffffff1661246e846107de565b73ffffffffffffffffffffffffffffffffffffffff16145b91505092915050565b8273ffffffffffffffffffffffffffffffffffffffff166124af82610bc1565b73ffffffffffffffffffffffffffffffffffffffff1614612505576040517f08c379a00000000000000000000000000000000000000000000000000000000081526004016124fc90614b76565b60405180910390fd5b600073ffffffffffffffffffffffffffffffffffffffff168273ffffffffffffffffffffffffffffffffffffffff1603612574576040517f08c379a000000000000000000000000000000000000000000000000000000000815260040161256b90614c08565b60405180910390fd5b612581838383600161303a565b8273ffffffffffffffffffffffffffffffffffffffff166125a182610bc1565b73ffffffffffffffffffffffffffffffffffffffff16146125f7576040517f08c379a00000000000000000000000000000000000000000000000000000000081526004016125ee90614b76565b60405180910390fd5b6004600082815260200190815260200160002060006101000a81549073ffffffffffffffffffffffffffffffffffffffff02191690556001600360008573ffffffffffffffffffffffffffffffffffffffff1673ffffffffffffffffffffffffffffffffffffffff168152602001908152602001600020600082825403925050819055506001600360008473ffffffffffffffffffffffffffffffffffffffff1673ffffffffffffffffffffffffffffffffffffffff16815260200190815260200160002060008282540192505081905550816002600083815260200190815260200160002060006101000a81548173ffffffffffffffffffffffffffffffffffffffff021916908373ffffffffffffffffffffffffffffffffffffffff160217905550808273ffffffffffffffffffffffffffffffffffffffff168473ffffffffffffffffffffffffffffffffffffffff167fddf252ad1be2c89b69c2b068fc378daa952ba7f163c4a11628f55a4df523b3ef60405160405180910390a46127838383836001613040565b505050565b60006002600083815260200190815260200160002060009054906101000a900473ffffffffffffffffffffffffffffffffffffffff169050919050565b6001816000016000828254019250508190555050565b600081600001549050919050565b612803828260405180602001604052806000815250613046565b5050565b61281082612ff9565b61284f576040517f08c379a000000000000000000000000000000000000000000000000000000000815260040161284690614c9a565b60405180910390fd5b8060066000848152602001908152602001600020908161286f91906145ee565b507ff8e1a15aba9398e019f0b49df1a4fde98ee17ae345cb5f6b5e2c27f5033e8ce78260405161289f9190613c25565b60405180910390a15050565b600e5434146128ef576040517f08c379a00000000000000000000000000000000000000000000000000000000081526004016128e690614d2c565b60405180910390fd5b60008111612932576040517f08c379a000000000000000000000000000000000000000000000000000000000815260040161292990614dbe565b60405180910390fd5b6040518060a001604052808381526020013073ffffffffffffffffffffffffffffffffffffffff1681526020013373ffffffffffffffffffffffffffffffffffffffff16815260200182815260200160011515815250600f60008481526020019081526020016000206000820151816000015560208201518160010160006101000a81548173ffffffffffffffffffffffffffffffffffffffff021916908373ffffffffffffffffffffffffffffffffffffffff16021790555060408201518160020160006101000a81548173ffffffffffffffffffffffffffffffffffffffff021916908373ffffffffffffffffffffffffffffffffffffffff1602179055506060820151816003015560808201518160040160006101000a81548160ff021916908315150217905550905050612a6b33308461248f565b817f9339409317fd01fabff48b703019016f49159bacc801ae872d2ca637d226e4c03033846001604051612aa29493929190614dde565b60405180910390a25050565b600760003373ffffffffffffffffffffffffffffffffffffffff1673ffffffffffffffffffffffffffffffffffffffff168152602001908152602001600020805490508110612b32576040517f08c379a0000000000000000000000000000000000000000000000000000000008152600401612b2990614e6f565b60405180910390fd5b60008190505b6001600760003373ffffffffffffffffffffffffffffffffffffffff1673ffffffffffffffffffffffffffffffffffffffff16815260200190815260200160002080549050612b879190614e8f565b811015612cac57600760003373ffffffffffffffffffffffffffffffffffffffff1673ffffffffffffffffffffffffffffffffffffffff168152602001908152602001600020600182612bda91906149de565b81548110612beb57612bea614986565b5b9060005260206000209060040201600760003373ffffffffffffffffffffffffffffffffffffffff1673ffffffffffffffffffffffffffffffffffffffff1681526020019081526020016000208281548110612c4a57612c49614986565b5b906000526020600020906004020160008201816000019081612c6c9190614ed9565b506001820154816001015560028201816002019081612c8b9190614ed9565b50600382015481600301559050508080612ca4906146ef565b915050612b38565b50600760003373ffffffffffffffffffffffffffffffffffffffff1673ffffffffffffffffffffffffffffffffffffffff168152602001908152602001600020805480612cfc57612cfb614fc1565b5b600190038181906000526020600020906004020160008082016000612d2191906136e6565b6001820160009055600282016000612d3991906136e6565b60038201600090555050905550565b8173ffffffffffffffffffffffffffffffffffffffff168373ffffffffffffffffffffffffffffffffffffffff1603612db6576040517f08c379a0000000000000000000000000000000000000000000000000000000008152600401612dad9061503c565b60405180910390fd5b80600560008573ffffffffffffffffffffffffffffffffffffffff1673ffffffffffffffffffffffffffffffffffffffff16815260200190815260200160002060008473ffffffffffffffffffffffffffffffffffffffff1673ffffffffffffffffffffffffffffffffffffffff16815260200190815260200160002060006101000a81548160ff0219169083151502179055508173ffffffffffffffffffffffffffffffffffffffff168373ffffffffffffffffffffffffffffffffffffffff167f17307eab39ab6107e8899845ad3d59bd9653f200f220920489ca2b5937696c3183604051612ea791906137f7565b60405180910390a3505050565b612ebf84848461248f565b612ecb848484846130a1565b612f0a576040517f08c379a0000000000000000000000000000000000000000000000000000000008152600401612f01906150ce565b60405180910390fd5b50505050565b606060405180602001604052806000815250905090565b6060612f32826122ee565b6000612f3c612f10565b90506000815111612f5c5760405180602001604052806000815250612f87565b80612f6684613228565b604051602001612f77929190614ae0565b6040516020818303038152906040525b915050919050565b60007f01ffc9a7000000000000000000000000000000000000000000000000000000007bffffffffffffffffffffffffffffffffffffffffffffffffffffffff1916827bffffffffffffffffffffffffffffffffffffffffffffffffffffffff1916149050919050565b60008073ffffffffffffffffffffffffffffffffffffffff1661301b83612788565b73ffffffffffffffffffffffffffffffffffffffff1614159050919050565b50505050565b50505050565b61305083836132f6565b61305d60008484846130a1565b61309c576040517f08c379a0000000000000000000000000000000000000000000000000000000008152600401613093906150ce565b60405180910390fd5b505050565b60006130c28473ffffffffffffffffffffffffffffffffffffffff16613513565b1561321b578373ffffffffffffffffffffffffffffffffffffffff1663150b7a026130eb612339565b8786866040518563ffffffff1660e01b815260040161310d9493929190615143565b6020604051808303816000875af192505050801561314957506040513d601f19601f8201168201806040525081019061314691906151a4565b60015b6131cb573d8060008114613179576040519150601f19603f3d011682016040523d82523d6000602084013e61317e565b606091505b5060008151036131c3576040517f08c379a00000000000000000000000000000000000000000000000000000000081526004016131ba906150ce565b60405180910390fd5b805181602001fd5b63150b7a0260e01b7bffffffffffffffffffffffffffffffffffffffffffffffffffffffff1916817bffffffffffffffffffffffffffffffffffffffffffffffffffffffff191614915050613220565b600190505b949350505050565b60606000600161323784613536565b01905060008167ffffffffffffffff81111561325657613255613a4c565b5b6040519080825280601f01601f1916602001820160405280156132885781602001600182028036833780820191505090505b509050600082602001820190505b6001156132eb578080600190039150507f3031323334353637383961626364656600000000000000000000000000000000600a86061a8153600a85816132df576132de6151d1565b5b04945060008503613296575b819350505050919050565b600073ffffffffffffffffffffffffffffffffffffffff168273ffffffffffffffffffffffffffffffffffffffff1603613365576040517f08c379a000000000000000000000000000000000000000000000000000000000815260040161335c9061524c565b60405180910390fd5b61336e81612ff9565b156133ae576040517f08c379a00000000000000000000000000000000000000000000000000000000081526004016133a5906152b8565b60405180910390fd5b6133bc60008383600161303a565b6133c581612ff9565b15613405576040517f08c379a00000000000000000000000000000000000000000000000000000000081526004016133fc906152b8565b60405180910390fd5b6001600360008473ffffffffffffffffffffffffffffffffffffffff1673ffffffffffffffffffffffffffffffffffffffff16815260200190815260200160002060008282540192505081905550816002600083815260200190815260200160002060006101000a81548173ffffffffffffffffffffffffffffffffffffffff021916908373ffffffffffffffffffffffffffffffffffffffff160217905550808273ffffffffffffffffffffffffffffffffffffffff16600073ffffffffffffffffffffffffffffffffffffffff167fddf252ad1be2c89b69c2b068fc378daa952ba7f163c4a11628f55a4df523b3ef60405160405180910390a461350f600083836001613040565b5050565b6000808273ffffffffffffffffffffffffffffffffffffffff163b119050919050565b600080600090507a184f03e93ff9f4daa797ed6e38ed64bf6a1f0100000000000000008310613594577a184f03e93ff9f4daa797ed6e38ed64bf6a1f010000000000000000838161358a576135896151d1565b5b0492506040810190505b6d04ee2d6d415b85acef810000000083106135d1576d04ee2d6d415b85acef810000000083816135c7576135c66151d1565b5b0492506020810190505b662386f26fc10000831061360057662386f26fc1000083816135f6576135f56151d1565b5b0492506010810190505b6305f5e1008310613629576305f5e100838161361f5761361e6151d1565b5b0492506008810190505b612710831061364e576127108381613644576136436151d1565b5b0492506004810190505b606483106136715760648381613667576136666151d1565b5b0492506002810190505b600a8310613680576001810190505b80915050919050565b6040518060a0016040528060008152602001600073ffffffffffffffffffffffffffffffffffffffff168152602001600073ffffffffffffffffffffffffffffffffffffffff168152602001600081526020016000151581525090565b5080546136f29061425b565b6000825580601f106137045750613723565b601f0160209004906000526020600020908101906137229190613726565b5b50565b5b8082111561373f576000816000905550600101613727565b5090565b6000604051905090565b600080fd5b600080fd5b60007fffffffff0000000000000000000000000000000000000000000000000000000082169050919050565b61378c81613757565b811461379757600080fd5b50565b6000813590506137a981613783565b92915050565b6000602082840312156137c5576137c461374d565b5b60006137d38482850161379a565b91505092915050565b60008115159050919050565b6137f1816137dc565b82525050565b600060208201905061380c60008301846137e8565b92915050565b600081519050919050565b600082825260208201905092915050565b60005b8381101561384c578082015181840152602081019050613831565b60008484015250505050565b6000601f19601f8301169050919050565b600061387482613812565b61387e818561381d565b935061388e81856020860161382e565b61389781613858565b840191505092915050565b600060208201905081810360008301526138bc8184613869565b905092915050565b6000819050919050565b6138d7816138c4565b81146138e257600080fd5b50565b6000813590506138f4816138ce565b92915050565b6000602082840312156139105761390f61374d565b5b600061391e848285016138e5565b91505092915050565b600073ffffffffffffffffffffffffffffffffffffffff82169050919050565b600061395282613927565b9050919050565b61396281613947565b82525050565b600060208201905061397d6000830184613959565b92915050565b61398c81613947565b811461399757600080fd5b50565b6000813590506139a981613983565b92915050565b600080604083850312156139c6576139c561374d565b5b60006139d48582860161399a565b92505060206139e5858286016138e5565b9150509250929050565b600080600060608486031215613a0857613a0761374d565b5b6000613a168682870161399a565b9350506020613a278682870161399a565b9250506040613a38868287016138e5565b9150509250925092565b600080fd5b600080fd5b7f4e487b7100000000000000000000000000000000000000000000000000000000600052604160045260246000fd5b613a8482613858565b810181811067ffffffffffffffff82111715613aa357613aa2613a4c565b5b80604052505050565b6000613ab6613743565b9050613ac28282613a7b565b919050565b600067ffffffffffffffff821115613ae257613ae1613a4c565b5b613aeb82613858565b9050602081019050919050565b82818337600083830152505050565b6000613b1a613b1584613ac7565b613aac565b905082815260208101848484011115613b3657613b35613a47565b5b613b41848285613af8565b509392505050565b600082601f830112613b5e57613b5d613a42565b5b8135613b6e848260208601613b07565b91505092915050565b60008060008060808587031215613b9157613b9061374d565b5b600085013567ffffffffffffffff811115613baf57613bae613752565b5b613bbb87828801613b49565b9450506020613bcc878288016138e5565b935050604085013567ffffffffffffffff811115613bed57613bec613752565b5b613bf987828801613b49565b9250506060613c0a878288016138e5565b91505092959194509250565b613c1f816138c4565b82525050565b6000602082019050613c3a6000830184613c16565b92915050565b600060208284031215613c5657613c5561374d565b5b6000613c648482850161399a565b91505092915050565b60008060408385031215613c8457613c8361374d565b5b600083013567ffffffffffffffff811115613ca257613ca1613752565b5b613cae85828601613b49565b9250506020613cbf858286016138e5565b9150509250929050565b600081519050919050565b600082825260208201905092915050565b6000819050602082019050919050565b600082825260208201905092915050565b6000613d1182613812565b613d1b8185613cf5565b9350613d2b81856020860161382e565b613d3481613858565b840191505092915050565b613d48816138c4565b82525050565b60006080830160008301518482036000860152613d6b8282613d06565b9150506020830151613d806020860182613d3f565b5060408301518482036040860152613d988282613d06565b9150506060830151613dad6060860182613d3f565b508091505092915050565b6000613dc48383613d4e565b905092915050565b6000602082019050919050565b6000613de482613cc9565b613dee8185613cd4565b935083602082028501613e0085613ce5565b8060005b85811015613e3c5784840389528151613e1d8582613db8565b9450613e2883613dcc565b925060208a01995050600181019050613e04565b50829750879550505050505092915050565b60006020820190508181036000830152613e688184613dd9565b905092915050565b6000613e7b82613927565b9050919050565b613e8b81613e70565b82525050565b613e9a816137dc565b82525050565b60a082016000820151613eb66000850182613d3f565b506020820151613ec96020850182613e82565b506040820151613edc6040850182613e82565b506060820151613eef6060850182613d3f565b506080820151613f026080850182613e91565b50505050565b600060a082019050613f1d6000830184613ea0565b92915050565b613f2c816137dc565b8114613f3757600080fd5b50565b600081359050613f4981613f23565b92915050565b60008060408385031215613f6657613f6561374d565b5b6000613f748582860161399a565b9250506020613f8585828601613f3a565b9150509250929050565b600067ffffffffffffffff821115613faa57613fa9613a4c565b5b613fb382613858565b9050602081019050919050565b6000613fd3613fce84613f8f565b613aac565b905082815260208101848484011115613fef57613fee613a47565b5b613ffa848285613af8565b509392505050565b600082601f83011261401757614016613a42565b5b8135614027848260208601613fc0565b91505092915050565b6000806000806080858703121561404a5761404961374d565b5b60006140588782880161399a565b94505060206140698782880161399a565b935050604061407a878288016138e5565b925050606085013567ffffffffffffffff81111561409b5761409a613752565b5b6140a787828801614002565b91505092959194509250565b600081519050919050565b600082825260208201905092915050565b6000819050602082019050919050565b60a0820160008201516140f56000850182613d3f565b5060208201516141086020850182613e82565b50604082015161411b6040850182613e82565b50606082015161412e6060850182613d3f565b5060808201516141416080850182613e91565b50505050565b600061415383836140df565b60a08301905092915050565b6000602082019050919050565b6000614177826140b3565b61418181856140be565b935061418c836140cf565b8060005b838110156141bd5781516141a48882614147565b97506141af8361415f565b925050600181019050614190565b5085935050505092915050565b600060208201905081810360008301526141e4818461416c565b905092915050565b600080604083850312156142035761420261374d565b5b60006142118582860161399a565b92505060206142228582860161399a565b9150509250929050565b7f4e487b7100000000000000000000000000000000000000000000000000000000600052602260045260246000fd5b6000600282049050600182168061427357607f821691505b6020821081036142865761428561422c565b5b50919050565b7f4552433732313a20617070726f76616c20746f2063757272656e74206f776e6560008201527f7200000000000000000000000000000000000000000000000000000000000000602082015250565b60006142e860218361381d565b91506142f38261428c565b604082019050919050565b60006020820190508181036000830152614317816142db565b9050919050565b7f4552433732313a20617070726f76652063616c6c6572206973206e6f7420746f60008201527f6b656e206f776e6572206f7220617070726f76656420666f7220616c6c000000602082015250565b600061437a603d8361381d565b91506143858261431e565b604082019050919050565b600060208201905081810360008301526143a98161436d565b9050919050565b7f4552433732313a2063616c6c6572206973206e6f7420746f6b656e206f776e6560008201527f72206f7220617070726f76656400000000000000000000000000000000000000602082015250565b600061440c602d8361381d565b9150614417826143b0565b604082019050919050565b6000602082019050818103600083015261443b816143ff565b9050919050565b60008190508160005260206000209050919050565b60006020601f8301049050919050565b600082821b905092915050565b6000600883026144a47fffffffffffffffffffffffffffffffffffffffffffffffffffffffffffffffff82614467565b6144ae8683614467565b95508019841693508086168417925050509392505050565b6000819050919050565b60006144eb6144e66144e1846138c4565b6144c6565b6138c4565b9050919050565b6000819050919050565b614505836144d0565b614519614511826144f2565b848454614474565b825550505050565b600090565b61452e614521565b6145398184846144fc565b505050565b5b8181101561455d57614552600082614526565b60018101905061453f565b5050565b601f8211156145a25761457381614442565b61457c84614457565b8101602085101561458b578190505b61459f61459785614457565b83018261453e565b50505b505050565b600082821c905092915050565b60006145c5600019846008026145a7565b1980831691505092915050565b60006145de83836145b4565b9150826002028217905092915050565b6145f782613812565b67ffffffffffffffff8111156146105761460f613a4c565b5b61461a825461425b565b614625828285614561565b600060209050601f8311600181146146585760008415614646578287015190505b61465085826145d2565b8655506146b8565b601f19841661466686614442565b60005b8281101561468e57848901518255600182019150602085019450602081019050614669565b868310156146ab57848901516146a7601f8916826145b4565b8355505b6001600288020188555050505b505050505050565b7f4e487b7100000000000000000000000000000000000000000000000000000000600052601160045260246000fd5b60006146fa826138c4565b91507fffffffffffffffffffffffffffffffffffffffffffffffffffffffffffffffff820361472c5761472b6146c0565b5b600182019050919050565b600060808201905081810360008301526147518187613869565b90506147606020830186613c16565b81810360408301526147728185613869565b90506147816060830184613c16565b95945050505050565b7f4552433732313a20696e76616c696420746f6b656e2049440000000000000000600082015250565b60006147c060188361381d565b91506147cb8261478a565b602082019050919050565b600060208201905081810360008301526147ef816147b3565b9050919050565b7f4552433732313a2061646472657373207a65726f206973206e6f74206120766160008201527f6c6964206f776e65720000000000000000000000000000000000000000000000602082015250565b600061485260298361381d565b915061485d826147f6565b604082019050919050565b6000602082019050818103600083015261488181614845565b9050919050565b7f506c65617365207375626d6974207468652061736b696e67207072696365206960008201527f6e206f7264657220746f20636f6d706c65746520746865207075726368617365602082015250565b60006148e460408361381d565b91506148ef82614888565b604082019050919050565b60006020820190508181036000830152614913816148d7565b9050919050565b7f496e76616c6964206361726420696e6465780000000000000000000000000000600082015250565b600061495060128361381d565b915061495b8261491a565b602082019050919050565b6000602082019050818103600083015261497f81614943565b9050919050565b7f4e487b7100000000000000000000000000000000000000000000000000000000600052603260045260246000fd5b60006149c0826138c4565b9150600082036149d3576149d26146c0565b5b600182039050919050565b60006149e9826138c4565b91506149f4836138c4565b9250828201905080821115614a0c57614a0b6146c0565b5b92915050565b7f4f6e6c7920746865206f776e65722063616e20706572666f726d20746869732060008201527f616374696f6e0000000000000000000000000000000000000000000000000000602082015250565b6000614a6e60268361381d565b9150614a7982614a12565b604082019050919050565b60006020820190508181036000830152614a9d81614a61565b9050919050565b600081905092915050565b6000614aba82613812565b614ac48185614aa4565b9350614ad481856020860161382e565b80840191505092915050565b6000614aec8285614aaf565b9150614af88284614aaf565b91508190509392505050565b7f4552433732313a207472616e736665722066726f6d20696e636f72726563742060008201527f6f776e6572000000000000000000000000000000000000000000000000000000602082015250565b6000614b6060258361381d565b9150614b6b82614b04565b604082019050919050565b60006020820190508181036000830152614b8f81614b53565b9050919050565b7f4552433732313a207472616e7366657220746f20746865207a65726f2061646460008201527f7265737300000000000000000000000000000000000000000000000000000000602082015250565b6000614bf260248361381d565b9150614bfd82614b96565b604082019050919050565b60006020820190508181036000830152614c2181614be5565b9050919050565b7f45524337323155524953746f726167653a2055524920736574206f66206e6f6e60008201527f6578697374656e7420746f6b656e000000000000000000000000000000000000602082015250565b6000614c84602e8361381d565b9150614c8f82614c28565b604082019050919050565b60006020820190508181036000830152614cb381614c77565b9050919050565b7f486f706566756c6c792073656e64696e672074686520636f727265637420707260008201527f6963650000000000000000000000000000000000000000000000000000000000602082015250565b6000614d1660238361381d565b9150614d2182614cba565b604082019050919050565b60006020820190508181036000830152614d4581614d09565b9050919050565b7f4d616b652073757265207468652070726963652069736e2774206e656761746960008201527f7665000000000000000000000000000000000000000000000000000000000000602082015250565b6000614da860228361381d565b9150614db382614d4c565b604082019050919050565b60006020820190508181036000830152614dd781614d9b565b9050919050565b6000608082019050614df36000830187613959565b614e006020830186613959565b614e0d6040830185613c16565b614e1a60608301846137e8565b95945050505050565b7f496e646578206f7574206f6620626f756e647300000000000000000000000000600082015250565b6000614e5960138361381d565b9150614e6482614e23565b602082019050919050565b60006020820190508181036000830152614e8881614e4c565b9050919050565b6000614e9a826138c4565b9150614ea5836138c4565b9250828203905081811115614ebd57614ebc6146c0565b5b92915050565b600081549050614ed28161425b565b9050919050565b818103614ee7575050614fbf565b614ef082614ec3565b67ffffffffffffffff811115614f0957614f08613a4c565b5b614f13825461425b565b614f1e828285614561565b6000601f831160018114614f4d5760008415614f3b578287015490505b614f4585826145d2565b865550614fb8565b601f198416614f5b87614442565b9650614f6686614442565b60005b82811015614f8e57848901548255600182019150600185019450602081019050614f69565b86831015614fab5784890154614fa7601f8916826145b4565b8355505b6001600288020188555050505b5050505050505b565b7f4e487b7100000000000000000000000000000000000000000000000000000000600052603160045260246000fd5b7f4552433732313a20617070726f766520746f2063616c6c657200000000000000600082015250565b600061502660198361381d565b915061503182614ff0565b602082019050919050565b6000602082019050818103600083015261505581615019565b9050919050565b7f4552433732313a207472616e7366657220746f206e6f6e20455243373231526560008201527f63656976657220696d706c656d656e7465720000000000000000000000000000602082015250565b60006150b860328361381d565b91506150c38261505c565b604082019050919050565b600060208201905081810360008301526150e7816150ab565b9050919050565b600081519050919050565b600082825260208201905092915050565b6000615115826150ee565b61511f81856150f9565b935061512f81856020860161382e565b61513881613858565b840191505092915050565b60006080820190506151586000830187613959565b6151656020830186613959565b6151726040830185613c16565b8181036060830152615184818461510a565b905095945050505050565b60008151905061519e81613783565b92915050565b6000602082840312156151ba576151b961374d565b5b60006151c88482850161518f565b91505092915050565b7f4e487b7100000000000000000000000000000000000000000000000000000000600052601260045260246000fd5b7f4552433732313a206d696e7420746f20746865207a65726f2061646472657373600082015250565b600061523660208361381d565b915061524182615200565b602082019050919050565b6000602082019050818103600083015261526581615229565b9050919050565b7f4552433732313a20746f6b656e20616c7265616479206d696e74656400000000600082015250565b60006152a2601c8361381d565b91506152ad8261526c565b602082019050919050565b600060208201905081810360008301526152d181615295565b905091905056fea2646970667358221220980397aaf1252b66c9a036fdeeccdc30324048a5dc16d9d3401107e3af75a1e064736f6c63430008120033",
  "immutableReferences": {},
  "source": "//SPDX-License-Identifier: Unlicensed\r\npragma solidity ^0.8.0;\r\n\r\nimport \"./../node_modules/@openzeppelin/contracts/token/ERC721/ERC721.sol\"; //TODO: magari si pu chiamare in maniera pi carina\r\nimport \"./../node_modules/@openzeppelin/contracts/token/ERC721//extensions/ERC721URIStorage.sol\"; //TODO: magari si pu chiamare in maniera pi carina\r\nimport \"./../node_modules/@openzeppelin/contracts/utils/Counters.sol\";\r\n\r\ncontract NFTMarketplace is ERC721URIStorage {\r\n    struct Card {\r\n        string name;\r\n        uint256 grade;\r\n        string condition;\r\n        uint256 cardCode;\r\n        // Other variables\r\n    }\r\n\r\n    mapping(address => Card[]) private userCards; // Mapping to register cards for each user\r\n    mapping(address => uint256) private cardCounts; // Mapping to keep track of card counts for each user\r\n\r\n    Card[] private allCards; // Array to keep track of all cards\r\n    uint256 private allCardsCount; // Variable to keep track of total card count\r\n\r\n    event CardRegistered(\r\n        address indexed user,\r\n        string name,\r\n        uint256 grade,\r\n        string condition,\r\n        uint256 cardCode\r\n    );\r\n\r\n    event CardTransferred(\r\n        address indexed from,\r\n        address indexed to,\r\n        uint256 cardIndex\r\n    );\r\n\r\n    address payable owner;\r\n    using Counters for Counters.Counter; //It's a datatype\r\n\r\n    //Keep track of the number of tokens created\r\n    Counters.Counter private _tokenIDs;\r\n\r\n    //Keep track of the number of items sold on the marketplace\r\n    Counters.Counter private _itemsSold;\r\n\r\n    uint256 listPrice = 0.01 ether; //Fee of the marketplace\r\n\r\n    struct ListedToken {\r\n        uint256 tokenID;\r\n        address payable owner;\r\n        address payable seller;\r\n        uint256 price;\r\n        bool currentlyListed;\r\n    }\r\n\r\n    //the event emitted when a token is successfully listed\r\n    event TokenListedSuccess(\r\n        uint256 indexed tokenId,\r\n        address owner,\r\n        address seller,\r\n        uint256 price,\r\n        bool currentlyListed\r\n    );\r\n\r\n    mapping(uint256 => ListedToken) private idToListedToken; //create a mapping between the id (incremental) and the associated data of the token (listed Token struct)\r\n\r\n    constructor() ERC721(\"NFTCollectible\", \"NFTC\") {\r\n        owner = payable(msg.sender); //only the owner gets a revenue when the marketplace is used, payable means that this address is eligible to receive some eth\r\n    }\r\n\r\n    // HELPER FUNCTIONS\r\n\r\n    function updateListPrice(uint256 _listPrice) public payable {\r\n        require(owner == msg.sender, \"Only the owner can perform this action\");\r\n        listPrice = _listPrice;\r\n    }\r\n\r\n    function getListPrice() public view returns (uint256) {\r\n        return listPrice;\r\n    }\r\n\r\n    function getLatestIdToListedToken()\r\n        public\r\n        view\r\n        returns (ListedToken memory)\r\n    {\r\n        //memory is an instructional keyboard to create a temporary memory allocation\r\n        uint256 currentTokenId = _tokenIDs.current();\r\n        return idToListedToken[currentTokenId];\r\n    }\r\n\r\n    function getListedForTokenId(\r\n        uint256 tokenId\r\n    ) public view returns (ListedToken memory) {\r\n        return idToListedToken[tokenId];\r\n    }\r\n\r\n    function getCurrentToken() public view returns (uint256) {\r\n        return _tokenIDs.current();\r\n    }\r\n\r\n    //CORE FUNCTIONS\r\n\r\n    // Function to get card count of a user by address\r\n    function getCardCount(address _user) external view returns (uint256) {\r\n        return cardCounts[_user];\r\n    }\r\n\r\n    //Function to get all cards count\r\n    function getAllCardsCount() external view returns (uint256) {\r\n        return allCardsCount;\r\n    }\r\n\r\n    // Function to transfer a card from one user to another\r\n    function transferCard(address _to, uint256 _cardIndex) external {\r\n        require( // require is used to validate the inputs to the function and throw error if the condition is not met\r\n            _cardIndex < userCards[msg.sender].length,\r\n            \"Invalid card index\"\r\n        );\r\n        Card memory cardToTransfer = userCards[msg.sender][_cardIndex]; // Get the card to transfer\r\n        userCards[_to].push(cardToTransfer); // Push the card to the user to whom it is being transferred\r\n        cardCounts[msg.sender]--; // Reduce the card count of the user from whom the card is being transferred\r\n        cardCounts[_to]++; // Increase the card count of the user to whom the card is being transferred\r\n        removeElement(_cardIndex); // Delete the card from the user from whom the card is being transferred\r\n        emit CardTransferred(msg.sender, _to, _cardIndex); // Emit the event to notify the transfer\r\n    }\r\n\r\n    // Function to get all cards of a user by address\r\n    function getUserCards(address _user) external view returns (Card[] memory) {\r\n        // view means that this function will not modify the state of the contract\r\n        return userCards[_user];\r\n    }\r\n\r\n    // Function to get all cards of a all users\r\n    function getAllUserCards() external view returns (Card[] memory) {\r\n        return allCards;\r\n    }\r\n\r\n    function removeElement(uint256 _cardIndex) internal {\r\n        require(\r\n            _cardIndex < userCards[msg.sender].length,\r\n            \"Index out of bounds\"\r\n        );\r\n\r\n        // Shift elements to the left starting from the element to be removed\r\n        for (uint i = _cardIndex; i < userCards[msg.sender].length - 1; i++) {\r\n            //FORSE USA TROPPO GAS --> da approfondire\r\n            userCards[msg.sender][i] = userCards[msg.sender][i + 1];\r\n        }\r\n\r\n        // Resize the array by deleting the last element\r\n        userCards[msg.sender].pop();\r\n    }\r\n\r\n    //Top level function when creating a token for the first time\r\n    function createToken(\r\n        string memory tokenURI,\r\n        uint256 price\r\n    ) public payable returns (uint) {\r\n        _tokenIDs.increment();\r\n        uint256 currentTokenId = _tokenIDs.current();\r\n        _safeMint(msg.sender, currentTokenId);\r\n        _setTokenURI(currentTokenId, tokenURI);\r\n\r\n        createListedToken(currentTokenId, price);\r\n\r\n        return currentTokenId;\r\n    }\r\n\r\n    function registerCard(\r\n        string memory _name,\r\n        uint256 _grade,\r\n        string memory _condition,\r\n        uint256 _cardCode\r\n    ) external {\r\n        Card memory newCard = Card(_name, _grade, _condition, _cardCode);\r\n        userCards[msg.sender].push(newCard);\r\n        allCards.push(newCard);\r\n        allCardsCount++;\r\n\r\n        cardCounts[msg.sender]++;\r\n        emit CardRegistered(msg.sender, _name, _grade, _condition, _cardCode);\r\n    }\r\n\r\n    //Helps create the object of type ListedToken for the NFT and update the idToListedToken mapping\r\n    function createListedToken(uint256 tokenID, uint256 price) private {\r\n        require(msg.value == listPrice, \"Hopefully sending the correct price\");\r\n        //Just sanity check\r\n        require(price > 0, \"Make sure the price isn't negative\");\r\n        idToListedToken[tokenID] = ListedToken(\r\n            tokenID,\r\n            payable(address(this)),\r\n            payable(msg.sender),\r\n            price,\r\n            true\r\n        );\r\n        _transfer(msg.sender, address(this), tokenID);\r\n\r\n        emit TokenListedSuccess(\r\n            tokenID,\r\n            address(this),\r\n            msg.sender,\r\n            price,\r\n            true\r\n        );\r\n    }\r\n\r\n    //Get all the NFTs currently listed for sale on the marketplace --> DA MODIFICARE\r\n    function getAllNFTs() public view returns (ListedToken[] memory) {\r\n        uint nftCount = _tokenIDs.current();\r\n        ListedToken[] memory tokens = new ListedToken[](nftCount);\r\n\r\n        uint currentIndex = 0;\r\n\r\n        for (uint i = 0; i < nftCount; i++) {\r\n            uint currentId = i + 1;\r\n            ListedToken storage currentItem = idToListedToken[currentId];\r\n            tokens[currentIndex] = currentItem;\r\n            currentIndex += 1;\r\n        }\r\n\r\n        return tokens;\r\n    }\r\n\r\n    //Get all the NFTs of the user on the marketplace --> DA MODIFICARE\r\n    function getAllMyNFTs() public view returns (ListedToken[] memory) {\r\n        uint totalItemCount = _tokenIDs.current();\r\n        uint itemCount = 0;\r\n        uint currentIndex = 0;\r\n        uint currentId;\r\n        //Important to get a count of all the NFTs that belong to the user before we can make an array for them\r\n        for (uint i = 0; i < totalItemCount; i++) {\r\n            if (\r\n                idToListedToken[i + 1].owner == msg.sender ||\r\n                idToListedToken[i + 1].seller == msg.sender\r\n            ) {\r\n                itemCount += 1;\r\n            }\r\n        }\r\n\r\n        //Once you have the count of relevant NFTs, create an array then store all the NFTs in it\r\n        ListedToken[] memory items = new ListedToken[](itemCount);\r\n        for (uint i = 0; i < totalItemCount; i++) {\r\n            if (\r\n                idToListedToken[i + 1].owner == msg.sender ||\r\n                idToListedToken[i + 1].seller == msg.sender\r\n            ) {\r\n                currentId = i + 1;\r\n                ListedToken storage currentItem = idToListedToken[currentId];\r\n                items[currentIndex] = currentItem;\r\n                currentIndex += 1;\r\n            }\r\n        }\r\n        return items;\r\n    }\r\n\r\n    //The function that executes the sale on the marketplace --> DA MODIFICARE\r\n    function executeSale(uint256 tokenId) public payable {\r\n        uint price = idToListedToken[tokenId].price;\r\n        address seller = idToListedToken[tokenId].seller;\r\n        require(\r\n            msg.value == price,\r\n            \"Please submit the asking price in order to complete the purchase\"\r\n        );\r\n\r\n        //update the details of the token\r\n        idToListedToken[tokenId].currentlyListed = true;\r\n        idToListedToken[tokenId].seller = payable(msg.sender);\r\n        //_itemsSold.increment();\r\n\r\n        //Actually transfer the token to the new owner\r\n        _transfer(address(this), msg.sender, tokenId);\r\n        //approve the marketplace to sell NFTs on your behalf\r\n        approve(address(this), tokenId);\r\n\r\n        //Transfer the listing fee to the marketplace creator\r\n        payable(owner).transfer(listPrice);\r\n        //Transfer the proceeds from the sale to the seller of the NFT\r\n        payable(seller).transfer(msg.value);\r\n    }\r\n}\r\n",
  "sourcePath": "C:\\Users\\Alessandro\\Desktop\\Universita\\Blockchain\\blockchain-authenticator\\project\\truffle\\contracts\\NFTMarketplace.sol",
  "compiler": {
    "name": "solc",
    "version": "0.8.18+commit.87f61d96.Emscripten.clang"
  },
  "schemaVersion": "3.4.14",
  "updatedAt": "2023-07-07T13:33:29.688Z",
  "networkType": "ethereum",
  "devdoc": {
    "events": {
      "Approval(address,address,uint256)": {
        "details": "Emitted when `owner` enables `approved` to manage the `tokenId` token."
      },
      "ApprovalForAll(address,address,bool)": {
        "details": "Emitted when `owner` enables or disables (`approved`) `operator` to manage all of its assets."
      },
      "BatchMetadataUpdate(uint256,uint256)": {
        "details": "This event emits when the metadata of a range of tokens is changed. So that the third-party platforms such as NFT market could timely update the images and related attributes of the NFTs."
      },
      "MetadataUpdate(uint256)": {
        "details": "This event emits when the metadata of a token is changed. So that the third-party platforms such as NFT market could timely update the images and related attributes of the NFT."
      },
      "Transfer(address,address,uint256)": {
        "details": "Emitted when `tokenId` token is transferred from `from` to `to`."
      }
    },
    "kind": "dev",
    "methods": {
      "approve(address,uint256)": {
        "details": "See {IERC721-approve}."
      },
      "balanceOf(address)": {
        "details": "See {IERC721-balanceOf}."
      },
      "getApproved(uint256)": {
        "details": "See {IERC721-getApproved}."
      },
      "isApprovedForAll(address,address)": {
        "details": "See {IERC721-isApprovedForAll}."
      },
      "name()": {
        "details": "See {IERC721Metadata-name}."
      },
      "ownerOf(uint256)": {
        "details": "See {IERC721-ownerOf}."
      },
      "safeTransferFrom(address,address,uint256)": {
        "details": "See {IERC721-safeTransferFrom}."
      },
      "safeTransferFrom(address,address,uint256,bytes)": {
        "details": "See {IERC721-safeTransferFrom}."
      },
      "setApprovalForAll(address,bool)": {
        "details": "See {IERC721-setApprovalForAll}."
      },
      "supportsInterface(bytes4)": {
        "details": "See {IERC165-supportsInterface}"
      },
      "symbol()": {
        "details": "See {IERC721Metadata-symbol}."
      },
      "tokenURI(uint256)": {
        "details": "See {IERC721Metadata-tokenURI}."
      },
      "transferFrom(address,address,uint256)": {
        "details": "See {IERC721-transferFrom}."
      }
    },
    "version": 1
  },
  "userdoc": {
    "kind": "user",
    "methods": {},
    "version": 1
  }
}