{
  "contractName": "NFTMarketplace",
  "abi": [
    {
      "inputs": [],
      "stateMutability": "nonpayable",
      "type": "constructor"
    },
    {
      "anonymous": false,
      "inputs": [
        {
          "indexed": true,
          "internalType": "address",
          "name": "owner",
          "type": "address"
        },
        {
          "indexed": true,
          "internalType": "address",
          "name": "approved",
          "type": "address"
        },
        {
          "indexed": true,
          "internalType": "uint256",
          "name": "tokenId",
          "type": "uint256"
        }
      ],
      "name": "Approval",
      "type": "event"
    },
    {
      "anonymous": false,
      "inputs": [
        {
          "indexed": true,
          "internalType": "address",
          "name": "owner",
          "type": "address"
        },
        {
          "indexed": true,
          "internalType": "address",
          "name": "operator",
          "type": "address"
        },
        {
          "indexed": false,
          "internalType": "bool",
          "name": "approved",
          "type": "bool"
        }
      ],
      "name": "ApprovalForAll",
      "type": "event"
    },
    {
      "anonymous": false,
      "inputs": [
        {
          "indexed": false,
          "internalType": "uint256",
          "name": "_fromTokenId",
          "type": "uint256"
        },
        {
          "indexed": false,
          "internalType": "uint256",
          "name": "_toTokenId",
          "type": "uint256"
        }
      ],
      "name": "BatchMetadataUpdate",
      "type": "event"
    },
    {
      "anonymous": false,
      "inputs": [
        {
          "indexed": false,
          "internalType": "uint256",
          "name": "_tokenId",
          "type": "uint256"
        }
      ],
      "name": "MetadataUpdate",
      "type": "event"
    },
    {
      "anonymous": false,
      "inputs": [
        {
          "indexed": true,
          "internalType": "uint256",
          "name": "tokenId",
          "type": "uint256"
        },
        {
          "indexed": false,
          "internalType": "address",
          "name": "owner",
          "type": "address"
        },
        {
          "indexed": false,
          "internalType": "address",
          "name": "seller",
          "type": "address"
        },
        {
          "indexed": false,
          "internalType": "uint256",
          "name": "price",
          "type": "uint256"
        },
        {
          "indexed": false,
          "internalType": "bool",
          "name": "currentlyListed",
          "type": "bool"
        }
      ],
      "name": "TokenListedSuccess",
      "type": "event"
    },
    {
      "anonymous": false,
      "inputs": [
        {
          "indexed": true,
          "internalType": "address",
          "name": "from",
          "type": "address"
        },
        {
          "indexed": true,
          "internalType": "address",
          "name": "to",
          "type": "address"
        },
        {
          "indexed": true,
          "internalType": "uint256",
          "name": "tokenId",
          "type": "uint256"
        }
      ],
      "name": "Transfer",
      "type": "event"
    },
    {
      "inputs": [
        {
          "internalType": "address",
          "name": "to",
          "type": "address"
        },
        {
          "internalType": "uint256",
          "name": "tokenId",
          "type": "uint256"
        }
      ],
      "name": "approve",
      "outputs": [],
      "stateMutability": "nonpayable",
      "type": "function"
    },
    {
      "inputs": [
        {
          "internalType": "address",
          "name": "owner",
          "type": "address"
        }
      ],
      "name": "balanceOf",
      "outputs": [
        {
          "internalType": "uint256",
          "name": "",
          "type": "uint256"
        }
      ],
      "stateMutability": "view",
      "type": "function",
      "constant": true
    },
    {
      "inputs": [
        {
          "internalType": "uint256",
          "name": "tokenId",
          "type": "uint256"
        }
      ],
      "name": "getApproved",
      "outputs": [
        {
          "internalType": "address",
          "name": "",
          "type": "address"
        }
      ],
      "stateMutability": "view",
      "type": "function",
      "constant": true
    },
    {
      "inputs": [
        {
          "internalType": "address",
          "name": "owner",
          "type": "address"
        },
        {
          "internalType": "address",
          "name": "operator",
          "type": "address"
        }
      ],
      "name": "isApprovedForAll",
      "outputs": [
        {
          "internalType": "bool",
          "name": "",
          "type": "bool"
        }
      ],
      "stateMutability": "view",
      "type": "function",
      "constant": true
    },
    {
      "inputs": [],
      "name": "name",
      "outputs": [
        {
          "internalType": "string",
          "name": "",
          "type": "string"
        }
      ],
      "stateMutability": "view",
      "type": "function",
      "constant": true
    },
    {
      "inputs": [
        {
          "internalType": "uint256",
          "name": "tokenId",
          "type": "uint256"
        }
      ],
      "name": "ownerOf",
      "outputs": [
        {
          "internalType": "address",
          "name": "",
          "type": "address"
        }
      ],
      "stateMutability": "view",
      "type": "function",
      "constant": true
    },
    {
      "inputs": [
        {
          "internalType": "address",
          "name": "from",
          "type": "address"
        },
        {
          "internalType": "address",
          "name": "to",
          "type": "address"
        },
        {
          "internalType": "uint256",
          "name": "tokenId",
          "type": "uint256"
        }
      ],
      "name": "safeTransferFrom",
      "outputs": [],
      "stateMutability": "nonpayable",
      "type": "function"
    },
    {
      "inputs": [
        {
          "internalType": "address",
          "name": "from",
          "type": "address"
        },
        {
          "internalType": "address",
          "name": "to",
          "type": "address"
        },
        {
          "internalType": "uint256",
          "name": "tokenId",
          "type": "uint256"
        },
        {
          "internalType": "bytes",
          "name": "data",
          "type": "bytes"
        }
      ],
      "name": "safeTransferFrom",
      "outputs": [],
      "stateMutability": "nonpayable",
      "type": "function"
    },
    {
      "inputs": [
        {
          "internalType": "address",
          "name": "operator",
          "type": "address"
        },
        {
          "internalType": "bool",
          "name": "approved",
          "type": "bool"
        }
      ],
      "name": "setApprovalForAll",
      "outputs": [],
      "stateMutability": "nonpayable",
      "type": "function"
    },
    {
      "inputs": [
        {
          "internalType": "bytes4",
          "name": "interfaceId",
          "type": "bytes4"
        }
      ],
      "name": "supportsInterface",
      "outputs": [
        {
          "internalType": "bool",
          "name": "",
          "type": "bool"
        }
      ],
      "stateMutability": "view",
      "type": "function",
      "constant": true
    },
    {
      "inputs": [],
      "name": "symbol",
      "outputs": [
        {
          "internalType": "string",
          "name": "",
          "type": "string"
        }
      ],
      "stateMutability": "view",
      "type": "function",
      "constant": true
    },
    {
      "inputs": [
        {
          "internalType": "uint256",
          "name": "tokenId",
          "type": "uint256"
        }
      ],
      "name": "tokenURI",
      "outputs": [
        {
          "internalType": "string",
          "name": "",
          "type": "string"
        }
      ],
      "stateMutability": "view",
      "type": "function",
      "constant": true
    },
    {
      "inputs": [
        {
          "internalType": "address",
          "name": "from",
          "type": "address"
        },
        {
          "internalType": "address",
          "name": "to",
          "type": "address"
        },
        {
          "internalType": "uint256",
          "name": "tokenId",
          "type": "uint256"
        }
      ],
      "name": "transferFrom",
      "outputs": [],
      "stateMutability": "nonpayable",
      "type": "function"
    },
    {
      "inputs": [
        {
          "internalType": "uint256",
          "name": "_listPrice",
          "type": "uint256"
        }
      ],
      "name": "updateListPrice",
      "outputs": [],
      "stateMutability": "payable",
      "type": "function",
      "payable": true
    },
    {
      "inputs": [],
      "name": "getListPrice",
      "outputs": [
        {
          "internalType": "uint256",
          "name": "",
          "type": "uint256"
        }
      ],
      "stateMutability": "view",
      "type": "function",
      "constant": true
    },
    {
      "inputs": [],
      "name": "getLatestIdToListedToken",
      "outputs": [
        {
          "components": [
            {
              "internalType": "uint256",
              "name": "tokenId",
              "type": "uint256"
            },
            {
              "internalType": "address payable",
              "name": "owner",
              "type": "address"
            },
            {
              "internalType": "address payable",
              "name": "seller",
              "type": "address"
            },
            {
              "internalType": "uint256",
              "name": "price",
              "type": "uint256"
            },
            {
              "internalType": "bool",
              "name": "currentlyListed",
              "type": "bool"
            }
          ],
          "internalType": "struct NFTMarketplace.ListedToken",
          "name": "",
          "type": "tuple"
        }
      ],
      "stateMutability": "view",
      "type": "function",
      "constant": true
    },
    {
      "inputs": [
        {
          "internalType": "uint256",
          "name": "tokenId",
          "type": "uint256"
        }
      ],
      "name": "getListedTokenForId",
      "outputs": [
        {
          "components": [
            {
              "internalType": "uint256",
              "name": "tokenId",
              "type": "uint256"
            },
            {
              "internalType": "address payable",
              "name": "owner",
              "type": "address"
            },
            {
              "internalType": "address payable",
              "name": "seller",
              "type": "address"
            },
            {
              "internalType": "uint256",
              "name": "price",
              "type": "uint256"
            },
            {
              "internalType": "bool",
              "name": "currentlyListed",
              "type": "bool"
            }
          ],
          "internalType": "struct NFTMarketplace.ListedToken",
          "name": "",
          "type": "tuple"
        }
      ],
      "stateMutability": "view",
      "type": "function",
      "constant": true
    },
    {
      "inputs": [],
      "name": "getCurrentToken",
      "outputs": [
        {
          "internalType": "uint256",
          "name": "",
          "type": "uint256"
        }
      ],
      "stateMutability": "view",
      "type": "function",
      "constant": true
    },
    {
      "inputs": [
        {
          "internalType": "string",
          "name": "tokenURI",
          "type": "string"
        },
        {
          "internalType": "uint256",
          "name": "price",
          "type": "uint256"
        }
      ],
      "name": "createToken",
      "outputs": [
        {
          "internalType": "uint256",
          "name": "",
          "type": "uint256"
        }
      ],
      "stateMutability": "payable",
      "type": "function",
      "payable": true
    },
    {
      "inputs": [],
      "name": "getAllNFTs",
      "outputs": [
        {
          "components": [
            {
              "internalType": "uint256",
              "name": "tokenId",
              "type": "uint256"
            },
            {
              "internalType": "address payable",
              "name": "owner",
              "type": "address"
            },
            {
              "internalType": "address payable",
              "name": "seller",
              "type": "address"
            },
            {
              "internalType": "uint256",
              "name": "price",
              "type": "uint256"
            },
            {
              "internalType": "bool",
              "name": "currentlyListed",
              "type": "bool"
            }
          ],
          "internalType": "struct NFTMarketplace.ListedToken[]",
          "name": "",
          "type": "tuple[]"
        }
      ],
      "stateMutability": "view",
      "type": "function",
      "constant": true
    },
    {
      "inputs": [],
      "name": "getMyNFTs",
      "outputs": [
        {
          "components": [
            {
              "internalType": "uint256",
              "name": "tokenId",
              "type": "uint256"
            },
            {
              "internalType": "address payable",
              "name": "owner",
              "type": "address"
            },
            {
              "internalType": "address payable",
              "name": "seller",
              "type": "address"
            },
            {
              "internalType": "uint256",
              "name": "price",
              "type": "uint256"
            },
            {
              "internalType": "bool",
              "name": "currentlyListed",
              "type": "bool"
            }
          ],
          "internalType": "struct NFTMarketplace.ListedToken[]",
          "name": "",
          "type": "tuple[]"
        }
      ],
      "stateMutability": "view",
      "type": "function",
      "constant": true
    },
    {
      "inputs": [
        {
          "internalType": "uint256",
          "name": "tokenId",
          "type": "uint256"
        }
      ],
      "name": "executeSale",
      "outputs": [],
      "stateMutability": "payable",
      "type": "function",
      "payable": true
    }
  ],
  "bytecode": "0x6080604052662386f26fc10000600a553480156200001c57600080fd5b506040518060400160405280601281526020017f4e4654436172644d61726b6574706c61636500000000000000000000000000008152506040518060400160405280600481526020017f434152440000000000000000000000000000000000000000000000000000000081525081600090816200009a919062000370565b508060019081620000ac919062000370565b50505033600960006101000a81548173ffffffffffffffffffffffffffffffffffffffff021916908373ffffffffffffffffffffffffffffffffffffffff16021790555062000457565b600081519050919050565b7f4e487b7100000000000000000000000000000000000000000000000000000000600052604160045260246000fd5b7f4e487b7100000000000000000000000000000000000000000000000000000000600052602260045260246000fd5b600060028204905060018216806200017857607f821691505b6020821081036200018e576200018d62000130565b5b50919050565b60008190508160005260206000209050919050565b60006020601f8301049050919050565b600082821b905092915050565b600060088302620001f87fffffffffffffffffffffffffffffffffffffffffffffffffffffffffffffffff82620001b9565b620002048683620001b9565b95508019841693508086168417925050509392505050565b6000819050919050565b6000819050919050565b6000620002516200024b62000245846200021c565b62000226565b6200021c565b9050919050565b6000819050919050565b6200026d8362000230565b620002856200027c8262000258565b848454620001c6565b825550505050565b600090565b6200029c6200028d565b620002a981848462000262565b505050565b5b81811015620002d157620002c560008262000292565b600181019050620002af565b5050565b601f8211156200032057620002ea8162000194565b620002f584620001a9565b8101602085101562000305578190505b6200031d6200031485620001a9565b830182620002ae565b50505b505050565b600082821c905092915050565b6000620003456000198460080262000325565b1980831691505092915050565b600062000360838362000332565b9150826002028217905092915050565b6200037b82620000f6565b67ffffffffffffffff81111562000397576200039662000101565b5b620003a382546200015f565b620003b0828285620002d5565b600060209050601f831160018114620003e85760008415620003d3578287015190505b620003df858262000352565b8655506200044f565b601f198416620003f88662000194565b60005b828110156200042257848901518255600182019150602085019450602081019050620003fb565b868310156200044257848901516200043e601f89168262000332565b8355505b6001600288020188555050505b505050505050565b613fdc80620004676000396000f3fe6080604052600436106101355760003560e01c80638e264590116100ab578063c322579c1161006f578063c322579c14610430578063c87b56dd1461044c578063d1a88ae514610489578063e0391b09146104b4578063e985e9c5146104df578063ef2d17461461051c57610135565b80638e2645901461035a57806395d89b41146103975780639b1225c4146103c2578063a22cb465146103de578063b88d4fde1461040757610135565b806342842e0e116100fd57806342842e0e14610231578063629cb2e41461025a5780636352211e1461028557806368f1945f146102c257806370a08231146102ed57806372b3b6201461032a57610135565b806301ffc9a71461013a57806306fdde0314610177578063081812fc146101a2578063095ea7b3146101df57806323b872dd14610208575b600080fd5b34801561014657600080fd5b50610161600480360381019061015c9190612969565b610547565b60405161016e91906129b1565b60405180910390f35b34801561018357600080fd5b5061018c6105a8565b6040516101999190612a5c565b60405180910390f35b3480156101ae57600080fd5b506101c960048036038101906101c49190612ab4565b61063a565b6040516101d69190612b22565b60405180910390f35b3480156101eb57600080fd5b5061020660048036038101906102019190612b69565b610680565b005b34801561021457600080fd5b5061022f600480360381019061022a9190612ba9565b610797565b005b34801561023d57600080fd5b5061025860048036038101906102539190612ba9565b6107f7565b005b34801561026657600080fd5b5061026f610817565b60405161027c9190612d52565b60405180910390f35b34801561029157600080fd5b506102ac60048036038101906102a79190612ab4565b610bf8565b6040516102b99190612b22565b60405180910390f35b3480156102ce57600080fd5b506102d7610c7e565b6040516102e49190612d83565b60405180910390f35b3480156102f957600080fd5b50610314600480360381019061030f9190612d9e565b610c88565b6040516103219190612d83565b60405180910390f35b610344600480360381019061033f9190612f00565b610d3f565b6040516103519190612d83565b60405180910390f35b34801561036657600080fd5b50610381600480360381019061037c9190612ab4565b610d81565b60405161038e9190612fc4565b60405180910390f35b3480156103a357600080fd5b506103ac610e89565b6040516103b99190612a5c565b60405180910390f35b6103dc60048036038101906103d79190612ab4565b610f1b565b005b3480156103ea57600080fd5b506104056004803603810190610400919061300b565b61110d565b005b34801561041357600080fd5b5061042e600480360381019061042991906130ec565b611123565b005b61044a60048036038101906104459190612ab4565b611185565b005b34801561045857600080fd5b50610473600480360381019061046e9190612ab4565b61121f565b6040516104809190612a5c565b60405180910390f35b34801561049557600080fd5b5061049e611331565b6040516104ab9190612fc4565b60405180910390f35b3480156104c057600080fd5b506104c9611446565b6040516104d69190612d52565b60405180910390f35b3480156104eb57600080fd5b506105066004803603810190610501919061316f565b611618565b60405161051391906129b1565b60405180910390f35b34801561052857600080fd5b506105316116ac565b60405161053e9190612d83565b60405180910390f35b6000634906490660e01b7bffffffffffffffffffffffffffffffffffffffffffffffffffffffff1916827bffffffffffffffffffffffffffffffffffffffffffffffffffffffff191614806105a157506105a0826116bd565b5b9050919050565b6060600080546105b7906131de565b80601f01602080910402602001604051908101604052809291908181526020018280546105e3906131de565b80156106305780601f1061060557610100808354040283529160200191610630565b820191906000526020600020905b81548152906001019060200180831161061357829003601f168201915b5050505050905090565b60006106458261179f565b6004600083815260200190815260200160002060009054906101000a900473ffffffffffffffffffffffffffffffffffffffff169050919050565b600061068b82610bf8565b90508073ffffffffffffffffffffffffffffffffffffffff168373ffffffffffffffffffffffffffffffffffffffff16036106fb576040517f08c379a00000000000000000000000000000000000000000000000000000000081526004016106f290613281565b60405180910390fd5b8073ffffffffffffffffffffffffffffffffffffffff1661071a6117ea565b73ffffffffffffffffffffffffffffffffffffffff1614806107495750610748816107436117ea565b611618565b5b610788576040517f08c379a000000000000000000000000000000000000000000000000000000000815260040161077f90613313565b60405180910390fd5b61079283836117f2565b505050565b6107a86107a26117ea565b826118ab565b6107e7576040517f08c379a00000000000000000000000000000000000000000000000000000000081526004016107de906133a5565b60405180910390fd5b6107f2838383611940565b505050565b61081283838360405180602001604052806000815250611123565b505050565b606060006108256007611c39565b9050600080600080600090505b8481101561094b573373ffffffffffffffffffffffffffffffffffffffff16600b600060018461086291906133f4565b815260200190815260200160002060010160009054906101000a900473ffffffffffffffffffffffffffffffffffffffff1673ffffffffffffffffffffffffffffffffffffffff16148061092357503373ffffffffffffffffffffffffffffffffffffffff16600b60006001846108d991906133f4565b815260200190815260200160002060020160009054906101000a900473ffffffffffffffffffffffffffffffffffffffff1673ffffffffffffffffffffffffffffffffffffffff16145b156109385760018461093591906133f4565b93505b808061094390613428565b915050610832565b5060008367ffffffffffffffff81111561096857610967612dd5565b5b6040519080825280602002602001820160405280156109a157816020015b61098e6128a0565b8152602001906001900390816109865790505b50905060005b85811015610bec573373ffffffffffffffffffffffffffffffffffffffff16600b60006001846109d791906133f4565b815260200190815260200160002060010160009054906101000a900473ffffffffffffffffffffffffffffffffffffffff1673ffffffffffffffffffffffffffffffffffffffff161480610a9857503373ffffffffffffffffffffffffffffffffffffffff16600b6000600184610a4e91906133f4565b815260200190815260200160002060020160009054906101000a900473ffffffffffffffffffffffffffffffffffffffff1673ffffffffffffffffffffffffffffffffffffffff16145b15610bd957600181610aaa91906133f4565b92506000600b60008581526020019081526020016000209050806040518060a0016040529081600082015481526020016001820160009054906101000a900473ffffffffffffffffffffffffffffffffffffffff1673ffffffffffffffffffffffffffffffffffffffff1673ffffffffffffffffffffffffffffffffffffffff1681526020016002820160009054906101000a900473ffffffffffffffffffffffffffffffffffffffff1673ffffffffffffffffffffffffffffffffffffffff1673ffffffffffffffffffffffffffffffffffffffff168152602001600382015481526020016004820160009054906101000a900460ff161515151581525050838681518110610bbd57610bbc613470565b5b6020026020010181905250600185610bd591906133f4565b9450505b8080610be490613428565b9150506109a7565b50809550505050505090565b600080610c0483611c47565b9050600073ffffffffffffffffffffffffffffffffffffffff168173ffffffffffffffffffffffffffffffffffffffff1603610c75576040517f08c379a0000000000000000000000000000000000000000000000000000000008152600401610c6c906134eb565b60405180910390fd5b80915050919050565b6000600a54905090565b60008073ffffffffffffffffffffffffffffffffffffffff168273ffffffffffffffffffffffffffffffffffffffff1603610cf8576040517f08c379a0000000000000000000000000000000000000000000000000000000008152600401610cef9061357d565b60405180910390fd5b600360008373ffffffffffffffffffffffffffffffffffffffff1673ffffffffffffffffffffffffffffffffffffffff168152602001908152602001600020549050919050565b6000610d4b6007611c84565b6000610d576007611c39565b9050610d633382611c9a565b610d6d8185611cb8565b610d778184611d5c565b8091505092915050565b610d896128a0565b600b60008381526020019081526020016000206040518060a0016040529081600082015481526020016001820160009054906101000a900473ffffffffffffffffffffffffffffffffffffffff1673ffffffffffffffffffffffffffffffffffffffff1673ffffffffffffffffffffffffffffffffffffffff1681526020016002820160009054906101000a900473ffffffffffffffffffffffffffffffffffffffff1673ffffffffffffffffffffffffffffffffffffffff1673ffffffffffffffffffffffffffffffffffffffff168152602001600382015481526020016004820160009054906101000a900460ff1615151515815250509050919050565b606060018054610e98906131de565b80601f0160208091040260200160405190810160405280929190818152602001828054610ec4906131de565b8015610f115780601f10610ee657610100808354040283529160200191610f11565b820191906000526020600020905b815481529060010190602001808311610ef457829003601f168201915b5050505050905090565b6000600b60008381526020019081526020016000206003015490506000600b600084815260200190815260200160002060020160009054906101000a900473ffffffffffffffffffffffffffffffffffffffff169050813414610fb3576040517f08c379a0000000000000000000000000000000000000000000000000000000008152600401610faa9061360f565b60405180910390fd5b6001600b600085815260200190815260200160002060040160006101000a81548160ff02191690831515021790555033600b600085815260200190815260200160002060020160006101000a81548173ffffffffffffffffffffffffffffffffffffffff021916908373ffffffffffffffffffffffffffffffffffffffff1602179055506110416008611c84565b61104c303385611940565b6110563084610680565b600960009054906101000a900473ffffffffffffffffffffffffffffffffffffffff1673ffffffffffffffffffffffffffffffffffffffff166108fc600a549081150290604051600060405180830381858888f193505050501580156110c0573d6000803e3d6000fd5b508073ffffffffffffffffffffffffffffffffffffffff166108fc349081150290604051600060405180830381858888f19350505050158015611107573d6000803e3d6000fd5b50505050565b61111f6111186117ea565b8383611f5f565b5050565b61113461112e6117ea565b836118ab565b611173576040517f08c379a000000000000000000000000000000000000000000000000000000000815260040161116a906133a5565b60405180910390fd5b61117f848484846120cb565b50505050565b3373ffffffffffffffffffffffffffffffffffffffff16600960009054906101000a900473ffffffffffffffffffffffffffffffffffffffff1673ffffffffffffffffffffffffffffffffffffffff1614611215576040517f08c379a000000000000000000000000000000000000000000000000000000000815260040161120c906136a1565b60405180910390fd5b80600a8190555050565b606061122a8261179f565b600060066000848152602001908152602001600020805461124a906131de565b80601f0160208091040260200160405190810160405280929190818152602001828054611276906131de565b80156112c35780601f10611298576101008083540402835291602001916112c3565b820191906000526020600020905b8154815290600101906020018083116112a657829003601f168201915b5050505050905060006112d4612127565b905060008151036112e957819250505061132c565b60008251111561131e5780826040516020016113069291906136fd565b6040516020818303038152906040529250505061132c565b6113278461213e565b925050505b919050565b6113396128a0565b60006113456007611c39565b9050600b60008281526020019081526020016000206040518060a0016040529081600082015481526020016001820160009054906101000a900473ffffffffffffffffffffffffffffffffffffffff1673ffffffffffffffffffffffffffffffffffffffff1673ffffffffffffffffffffffffffffffffffffffff1681526020016002820160009054906101000a900473ffffffffffffffffffffffffffffffffffffffff1673ffffffffffffffffffffffffffffffffffffffff1673ffffffffffffffffffffffffffffffffffffffff168152602001600382015481526020016004820160009054906101000a900460ff16151515158152505091505090565b606060006114546007611c39565b905060008167ffffffffffffffff81111561147257611471612dd5565b5b6040519080825280602002602001820160405280156114ab57816020015b6114986128a0565b8152602001906001900390816114905790505b50905060008080600090505b8481101561160d576001816114cc91906133f4565b91506000600b60008481526020019081526020016000209050806040518060a0016040529081600082015481526020016001820160009054906101000a900473ffffffffffffffffffffffffffffffffffffffff1673ffffffffffffffffffffffffffffffffffffffff1673ffffffffffffffffffffffffffffffffffffffff1681526020016002820160009054906101000a900473ffffffffffffffffffffffffffffffffffffffff1673ffffffffffffffffffffffffffffffffffffffff1673ffffffffffffffffffffffffffffffffffffffff168152602001600382015481526020016004820160009054906101000a900460ff1615151515815250508585815181106115df576115de613470565b5b60200260200101819052506001846115f791906133f4565b935050808061160590613428565b9150506114b7565b508294505050505090565b6000600560008473ffffffffffffffffffffffffffffffffffffffff1673ffffffffffffffffffffffffffffffffffffffff16815260200190815260200160002060008373ffffffffffffffffffffffffffffffffffffffff1673ffffffffffffffffffffffffffffffffffffffff16815260200190815260200160002060009054906101000a900460ff16905092915050565b60006116b86007611c39565b905090565b60007f80ac58cd000000000000000000000000000000000000000000000000000000007bffffffffffffffffffffffffffffffffffffffffffffffffffffffff1916827bffffffffffffffffffffffffffffffffffffffffffffffffffffffff1916148061178857507f5b5e139f000000000000000000000000000000000000000000000000000000007bffffffffffffffffffffffffffffffffffffffffffffffffffffffff1916827bffffffffffffffffffffffffffffffffffffffffffffffffffffffff1916145b806117985750611797826121a6565b5b9050919050565b6117a881612210565b6117e7576040517f08c379a00000000000000000000000000000000000000000000000000000000081526004016117de906134eb565b60405180910390fd5b50565b600033905090565b816004600083815260200190815260200160002060006101000a81548173ffffffffffffffffffffffffffffffffffffffff021916908373ffffffffffffffffffffffffffffffffffffffff160217905550808273ffffffffffffffffffffffffffffffffffffffff1661186583610bf8565b73ffffffffffffffffffffffffffffffffffffffff167f8c5be1e5ebec7d5bd14f71427d1e84f3dd0314c0f7b2291e5b200ac8c7c3b92560405160405180910390a45050565b6000806118b783610bf8565b90508073ffffffffffffffffffffffffffffffffffffffff168473ffffffffffffffffffffffffffffffffffffffff1614806118f957506118f88185611618565b5b8061193757508373ffffffffffffffffffffffffffffffffffffffff1661191f8461063a565b73ffffffffffffffffffffffffffffffffffffffff16145b91505092915050565b8273ffffffffffffffffffffffffffffffffffffffff1661196082610bf8565b73ffffffffffffffffffffffffffffffffffffffff16146119b6576040517f08c379a00000000000000000000000000000000000000000000000000000000081526004016119ad90613793565b60405180910390fd5b600073ffffffffffffffffffffffffffffffffffffffff168273ffffffffffffffffffffffffffffffffffffffff1603611a25576040517f08c379a0000000000000000000000000000000000000000000000000000000008152600401611a1c90613825565b60405180910390fd5b611a328383836001612251565b8273ffffffffffffffffffffffffffffffffffffffff16611a5282610bf8565b73ffffffffffffffffffffffffffffffffffffffff1614611aa8576040517f08c379a0000000000000000000000000000000000000000000000000000000008152600401611a9f90613793565b60405180910390fd5b6004600082815260200190815260200160002060006101000a81549073ffffffffffffffffffffffffffffffffffffffff02191690556001600360008573ffffffffffffffffffffffffffffffffffffffff1673ffffffffffffffffffffffffffffffffffffffff168152602001908152602001600020600082825403925050819055506001600360008473ffffffffffffffffffffffffffffffffffffffff1673ffffffffffffffffffffffffffffffffffffffff16815260200190815260200160002060008282540192505081905550816002600083815260200190815260200160002060006101000a81548173ffffffffffffffffffffffffffffffffffffffff021916908373ffffffffffffffffffffffffffffffffffffffff160217905550808273ffffffffffffffffffffffffffffffffffffffff168473ffffffffffffffffffffffffffffffffffffffff167fddf252ad1be2c89b69c2b068fc378daa952ba7f163c4a11628f55a4df523b3ef60405160405180910390a4611c348383836001612257565b505050565b600081600001549050919050565b60006002600083815260200190815260200160002060009054906101000a900473ffffffffffffffffffffffffffffffffffffffff169050919050565b6001816000016000828254019250508190555050565b611cb482826040518060200160405280600081525061225d565b5050565b611cc182612210565b611d00576040517f08c379a0000000000000000000000000000000000000000000000000000000008152600401611cf7906138b7565b60405180910390fd5b80600660008481526020019081526020016000209081611d209190613a83565b507ff8e1a15aba9398e019f0b49df1a4fde98ee17ae345cb5f6b5e2c27f5033e8ce782604051611d509190612d83565b60405180910390a15050565b600a543414611da0576040517f08c379a0000000000000000000000000000000000000000000000000000000008152600401611d9790613bc7565b60405180910390fd5b60008111611de3576040517f08c379a0000000000000000000000000000000000000000000000000000000008152600401611dda90613c59565b60405180910390fd5b6040518060a001604052808381526020013073ffffffffffffffffffffffffffffffffffffffff1681526020013373ffffffffffffffffffffffffffffffffffffffff16815260200182815260200160011515815250600b60008481526020019081526020016000206000820151816000015560208201518160010160006101000a81548173ffffffffffffffffffffffffffffffffffffffff021916908373ffffffffffffffffffffffffffffffffffffffff16021790555060408201518160020160006101000a81548173ffffffffffffffffffffffffffffffffffffffff021916908373ffffffffffffffffffffffffffffffffffffffff1602179055506060820151816003015560808201518160040160006101000a81548160ff021916908315150217905550905050611f1c333084611940565b817f9339409317fd01fabff48b703019016f49159bacc801ae872d2ca637d226e4c03033846001604051611f539493929190613c79565b60405180910390a25050565b8173ffffffffffffffffffffffffffffffffffffffff168373ffffffffffffffffffffffffffffffffffffffff1603611fcd576040517f08c379a0000000000000000000000000000000000000000000000000000000008152600401611fc490613d0a565b60405180910390fd5b80600560008573ffffffffffffffffffffffffffffffffffffffff1673ffffffffffffffffffffffffffffffffffffffff16815260200190815260200160002060008473ffffffffffffffffffffffffffffffffffffffff1673ffffffffffffffffffffffffffffffffffffffff16815260200190815260200160002060006101000a81548160ff0219169083151502179055508173ffffffffffffffffffffffffffffffffffffffff168373ffffffffffffffffffffffffffffffffffffffff167f17307eab39ab6107e8899845ad3d59bd9653f200f220920489ca2b5937696c31836040516120be91906129b1565b60405180910390a3505050565b6120d6848484611940565b6120e2848484846122b8565b612121576040517f08c379a000000000000000000000000000000000000000000000000000000000815260040161211890613d9c565b60405180910390fd5b50505050565b606060405180602001604052806000815250905090565b60606121498261179f565b6000612153612127565b90506000815111612173576040518060200160405280600081525061219e565b8061217d8461243f565b60405160200161218e9291906136fd565b6040516020818303038152906040525b915050919050565b60007f01ffc9a7000000000000000000000000000000000000000000000000000000007bffffffffffffffffffffffffffffffffffffffffffffffffffffffff1916827bffffffffffffffffffffffffffffffffffffffffffffffffffffffff1916149050919050565b60008073ffffffffffffffffffffffffffffffffffffffff1661223283611c47565b73ffffffffffffffffffffffffffffffffffffffff1614159050919050565b50505050565b50505050565b612267838361250d565b61227460008484846122b8565b6122b3576040517f08c379a00000000000000000000000000000000000000000000000000000000081526004016122aa90613d9c565b60405180910390fd5b505050565b60006122d98473ffffffffffffffffffffffffffffffffffffffff1661272a565b15612432578373ffffffffffffffffffffffffffffffffffffffff1663150b7a026123026117ea565b8786866040518563ffffffff1660e01b81526004016123249493929190613e11565b6020604051808303816000875af192505050801561236057506040513d601f19601f8201168201806040525081019061235d9190613e72565b60015b6123e2573d8060008114612390576040519150601f19603f3d011682016040523d82523d6000602084013e612395565b606091505b5060008151036123da576040517f08c379a00000000000000000000000000000000000000000000000000000000081526004016123d190613d9c565b60405180910390fd5b805181602001fd5b63150b7a0260e01b7bffffffffffffffffffffffffffffffffffffffffffffffffffffffff1916817bffffffffffffffffffffffffffffffffffffffffffffffffffffffff191614915050612437565b600190505b949350505050565b60606000600161244e8461274d565b01905060008167ffffffffffffffff81111561246d5761246c612dd5565b5b6040519080825280601f01601f19166020018201604052801561249f5781602001600182028036833780820191505090505b509050600082602001820190505b600115612502578080600190039150507f3031323334353637383961626364656600000000000000000000000000000000600a86061a8153600a85816124f6576124f5613e9f565b5b049450600085036124ad575b819350505050919050565b600073ffffffffffffffffffffffffffffffffffffffff168273ffffffffffffffffffffffffffffffffffffffff160361257c576040517f08c379a000000000000000000000000000000000000000000000000000000000815260040161257390613f1a565b60405180910390fd5b61258581612210565b156125c5576040517f08c379a00000000000000000000000000000000000000000000000000000000081526004016125bc90613f86565b60405180910390fd5b6125d3600083836001612251565b6125dc81612210565b1561261c576040517f08c379a000000000000000000000000000000000000000000000000000000000815260040161261390613f86565b60405180910390fd5b6001600360008473ffffffffffffffffffffffffffffffffffffffff1673ffffffffffffffffffffffffffffffffffffffff16815260200190815260200160002060008282540192505081905550816002600083815260200190815260200160002060006101000a81548173ffffffffffffffffffffffffffffffffffffffff021916908373ffffffffffffffffffffffffffffffffffffffff160217905550808273ffffffffffffffffffffffffffffffffffffffff16600073ffffffffffffffffffffffffffffffffffffffff167fddf252ad1be2c89b69c2b068fc378daa952ba7f163c4a11628f55a4df523b3ef60405160405180910390a4612726600083836001612257565b5050565b6000808273ffffffffffffffffffffffffffffffffffffffff163b119050919050565b600080600090507a184f03e93ff9f4daa797ed6e38ed64bf6a1f01000000000000000083106127ab577a184f03e93ff9f4daa797ed6e38ed64bf6a1f01000000000000000083816127a1576127a0613e9f565b5b0492506040810190505b6d04ee2d6d415b85acef810000000083106127e8576d04ee2d6d415b85acef810000000083816127de576127dd613e9f565b5b0492506020810190505b662386f26fc10000831061281757662386f26fc10000838161280d5761280c613e9f565b5b0492506010810190505b6305f5e1008310612840576305f5e100838161283657612835613e9f565b5b0492506008810190505b612710831061286557612710838161285b5761285a613e9f565b5b0492506004810190505b60648310612888576064838161287e5761287d613e9f565b5b0492506002810190505b600a8310612897576001810190505b80915050919050565b6040518060a0016040528060008152602001600073ffffffffffffffffffffffffffffffffffffffff168152602001600073ffffffffffffffffffffffffffffffffffffffff168152602001600081526020016000151581525090565b6000604051905090565b600080fd5b600080fd5b60007fffffffff0000000000000000000000000000000000000000000000000000000082169050919050565b61294681612911565b811461295157600080fd5b50565b6000813590506129638161293d565b92915050565b60006020828403121561297f5761297e612907565b5b600061298d84828501612954565b91505092915050565b60008115159050919050565b6129ab81612996565b82525050565b60006020820190506129c660008301846129a2565b92915050565b600081519050919050565b600082825260208201905092915050565b60005b83811015612a065780820151818401526020810190506129eb565b60008484015250505050565b6000601f19601f8301169050919050565b6000612a2e826129cc565b612a3881856129d7565b9350612a488185602086016129e8565b612a5181612a12565b840191505092915050565b60006020820190508181036000830152612a768184612a23565b905092915050565b6000819050919050565b612a9181612a7e565b8114612a9c57600080fd5b50565b600081359050612aae81612a88565b92915050565b600060208284031215612aca57612ac9612907565b5b6000612ad884828501612a9f565b91505092915050565b600073ffffffffffffffffffffffffffffffffffffffff82169050919050565b6000612b0c82612ae1565b9050919050565b612b1c81612b01565b82525050565b6000602082019050612b376000830184612b13565b92915050565b612b4681612b01565b8114612b5157600080fd5b50565b600081359050612b6381612b3d565b92915050565b60008060408385031215612b8057612b7f612907565b5b6000612b8e85828601612b54565b9250506020612b9f85828601612a9f565b9150509250929050565b600080600060608486031215612bc257612bc1612907565b5b6000612bd086828701612b54565b9350506020612be186828701612b54565b9250506040612bf286828701612a9f565b9150509250925092565b600081519050919050565b600082825260208201905092915050565b6000819050602082019050919050565b612c3181612a7e565b82525050565b6000612c4282612ae1565b9050919050565b612c5281612c37565b82525050565b612c6181612996565b82525050565b60a082016000820151612c7d6000850182612c28565b506020820151612c906020850182612c49565b506040820151612ca36040850182612c49565b506060820151612cb66060850182612c28565b506080820151612cc96080850182612c58565b50505050565b6000612cdb8383612c67565b60a08301905092915050565b6000602082019050919050565b6000612cff82612bfc565b612d098185612c07565b9350612d1483612c18565b8060005b83811015612d45578151612d2c8882612ccf565b9750612d3783612ce7565b925050600181019050612d18565b5085935050505092915050565b60006020820190508181036000830152612d6c8184612cf4565b905092915050565b612d7d81612a7e565b82525050565b6000602082019050612d986000830184612d74565b92915050565b600060208284031215612db457612db3612907565b5b6000612dc284828501612b54565b91505092915050565b600080fd5b600080fd5b7f4e487b7100000000000000000000000000000000000000000000000000000000600052604160045260246000fd5b612e0d82612a12565b810181811067ffffffffffffffff82111715612e2c57612e2b612dd5565b5b80604052505050565b6000612e3f6128fd565b9050612e4b8282612e04565b919050565b600067ffffffffffffffff821115612e6b57612e6a612dd5565b5b612e7482612a12565b9050602081019050919050565b82818337600083830152505050565b6000612ea3612e9e84612e50565b612e35565b905082815260208101848484011115612ebf57612ebe612dd0565b5b612eca848285612e81565b509392505050565b600082601f830112612ee757612ee6612dcb565b5b8135612ef7848260208601612e90565b91505092915050565b60008060408385031215612f1757612f16612907565b5b600083013567ffffffffffffffff811115612f3557612f3461290c565b5b612f4185828601612ed2565b9250506020612f5285828601612a9f565b9150509250929050565b60a082016000820151612f726000850182612c28565b506020820151612f856020850182612c49565b506040820151612f986040850182612c49565b506060820151612fab6060850182612c28565b506080820151612fbe6080850182612c58565b50505050565b600060a082019050612fd96000830184612f5c565b92915050565b612fe881612996565b8114612ff357600080fd5b50565b60008135905061300581612fdf565b92915050565b6000806040838503121561302257613021612907565b5b600061303085828601612b54565b925050602061304185828601612ff6565b9150509250929050565b600067ffffffffffffffff82111561306657613065612dd5565b5b61306f82612a12565b9050602081019050919050565b600061308f61308a8461304b565b612e35565b9050828152602081018484840111156130ab576130aa612dd0565b5b6130b6848285612e81565b509392505050565b600082601f8301126130d3576130d2612dcb565b5b81356130e384826020860161307c565b91505092915050565b6000806000806080858703121561310657613105612907565b5b600061311487828801612b54565b945050602061312587828801612b54565b935050604061313687828801612a9f565b925050606085013567ffffffffffffffff8111156131575761315661290c565b5b613163878288016130be565b91505092959194509250565b6000806040838503121561318657613185612907565b5b600061319485828601612b54565b92505060206131a585828601612b54565b9150509250929050565b7f4e487b7100000000000000000000000000000000000000000000000000000000600052602260045260246000fd5b600060028204905060018216806131f657607f821691505b602082108103613209576132086131af565b5b50919050565b7f4552433732313a20617070726f76616c20746f2063757272656e74206f776e6560008201527f7200000000000000000000000000000000000000000000000000000000000000602082015250565b600061326b6021836129d7565b91506132768261320f565b604082019050919050565b6000602082019050818103600083015261329a8161325e565b9050919050565b7f4552433732313a20617070726f76652063616c6c6572206973206e6f7420746f60008201527f6b656e206f776e6572206f7220617070726f76656420666f7220616c6c000000602082015250565b60006132fd603d836129d7565b9150613308826132a1565b604082019050919050565b6000602082019050818103600083015261332c816132f0565b9050919050565b7f4552433732313a2063616c6c6572206973206e6f7420746f6b656e206f776e6560008201527f72206f7220617070726f76656400000000000000000000000000000000000000602082015250565b600061338f602d836129d7565b915061339a82613333565b604082019050919050565b600060208201905081810360008301526133be81613382565b9050919050565b7f4e487b7100000000000000000000000000000000000000000000000000000000600052601160045260246000fd5b60006133ff82612a7e565b915061340a83612a7e565b9250828201905080821115613422576134216133c5565b5b92915050565b600061343382612a7e565b91507fffffffffffffffffffffffffffffffffffffffffffffffffffffffffffffffff8203613465576134646133c5565b5b600182019050919050565b7f4e487b7100000000000000000000000000000000000000000000000000000000600052603260045260246000fd5b7f4552433732313a20696e76616c696420746f6b656e2049440000000000000000600082015250565b60006134d56018836129d7565b91506134e08261349f565b602082019050919050565b60006020820190508181036000830152613504816134c8565b9050919050565b7f4552433732313a2061646472657373207a65726f206973206e6f74206120766160008201527f6c6964206f776e65720000000000000000000000000000000000000000000000602082015250565b60006135676029836129d7565b91506135728261350b565b604082019050919050565b600060208201905081810360008301526135968161355a565b9050919050565b7f506c65617365207375626d6974207468652061736b696e67207072696365206960008201527f6e206f7264657220746f20636f6d706c65746520746865207075726368617365602082015250565b60006135f96040836129d7565b91506136048261359d565b604082019050919050565b60006020820190508181036000830152613628816135ec565b9050919050565b7f4f6e6c79206f776e65722063616e20757064617465206c697374696e6720707260008201527f6963650000000000000000000000000000000000000000000000000000000000602082015250565b600061368b6023836129d7565b91506136968261362f565b604082019050919050565b600060208201905081810360008301526136ba8161367e565b9050919050565b600081905092915050565b60006136d7826129cc565b6136e181856136c1565b93506136f18185602086016129e8565b80840191505092915050565b600061370982856136cc565b915061371582846136cc565b91508190509392505050565b7f4552433732313a207472616e736665722066726f6d20696e636f72726563742060008201527f6f776e6572000000000000000000000000000000000000000000000000000000602082015250565b600061377d6025836129d7565b915061378882613721565b604082019050919050565b600060208201905081810360008301526137ac81613770565b9050919050565b7f4552433732313a207472616e7366657220746f20746865207a65726f2061646460008201527f7265737300000000000000000000000000000000000000000000000000000000602082015250565b600061380f6024836129d7565b915061381a826137b3565b604082019050919050565b6000602082019050818103600083015261383e81613802565b9050919050565b7f45524337323155524953746f726167653a2055524920736574206f66206e6f6e60008201527f6578697374656e7420746f6b656e000000000000000000000000000000000000602082015250565b60006138a1602e836129d7565b91506138ac82613845565b604082019050919050565b600060208201905081810360008301526138d081613894565b9050919050565b60008190508160005260206000209050919050565b60006020601f8301049050919050565b600082821b905092915050565b6000600883026139397fffffffffffffffffffffffffffffffffffffffffffffffffffffffffffffffff826138fc565b61394386836138fc565b95508019841693508086168417925050509392505050565b6000819050919050565b600061398061397b61397684612a7e565b61395b565b612a7e565b9050919050565b6000819050919050565b61399a83613965565b6139ae6139a682613987565b848454613909565b825550505050565b600090565b6139c36139b6565b6139ce818484613991565b505050565b5b818110156139f2576139e76000826139bb565b6001810190506139d4565b5050565b601f821115613a3757613a08816138d7565b613a11846138ec565b81016020851015613a20578190505b613a34613a2c856138ec565b8301826139d3565b50505b505050565b600082821c905092915050565b6000613a5a60001984600802613a3c565b1980831691505092915050565b6000613a738383613a49565b9150826002028217905092915050565b613a8c826129cc565b67ffffffffffffffff811115613aa557613aa4612dd5565b5b613aaf82546131de565b613aba8282856139f6565b600060209050601f831160018114613aed5760008415613adb578287015190505b613ae58582613a67565b865550613b4d565b601f198416613afb866138d7565b60005b82811015613b2357848901518255600182019150602085019450602081019050613afe565b86831015613b405784890151613b3c601f891682613a49565b8355505b6001600288020188555050505b505050505050565b7f486f706566756c6c792073656e64696e672074686520636f727265637420707260008201527f6963650000000000000000000000000000000000000000000000000000000000602082015250565b6000613bb16023836129d7565b9150613bbc82613b55565b604082019050919050565b60006020820190508181036000830152613be081613ba4565b9050919050565b7f4d616b652073757265207468652070726963652069736e2774206e656761746960008201527f7665000000000000000000000000000000000000000000000000000000000000602082015250565b6000613c436022836129d7565b9150613c4e82613be7565b604082019050919050565b60006020820190508181036000830152613c7281613c36565b9050919050565b6000608082019050613c8e6000830187612b13565b613c9b6020830186612b13565b613ca86040830185612d74565b613cb560608301846129a2565b95945050505050565b7f4552433732313a20617070726f766520746f2063616c6c657200000000000000600082015250565b6000613cf46019836129d7565b9150613cff82613cbe565b602082019050919050565b60006020820190508181036000830152613d2381613ce7565b9050919050565b7f4552433732313a207472616e7366657220746f206e6f6e20455243373231526560008201527f63656976657220696d706c656d656e7465720000000000000000000000000000602082015250565b6000613d866032836129d7565b9150613d9182613d2a565b604082019050919050565b60006020820190508181036000830152613db581613d79565b9050919050565b600081519050919050565b600082825260208201905092915050565b6000613de382613dbc565b613ded8185613dc7565b9350613dfd8185602086016129e8565b613e0681612a12565b840191505092915050565b6000608082019050613e266000830187612b13565b613e336020830186612b13565b613e406040830185612d74565b8181036060830152613e528184613dd8565b905095945050505050565b600081519050613e6c8161293d565b92915050565b600060208284031215613e8857613e87612907565b5b6000613e9684828501613e5d565b91505092915050565b7f4e487b7100000000000000000000000000000000000000000000000000000000600052601260045260246000fd5b7f4552433732313a206d696e7420746f20746865207a65726f2061646472657373600082015250565b6000613f046020836129d7565b9150613f0f82613ece565b602082019050919050565b60006020820190508181036000830152613f3381613ef7565b9050919050565b7f4552433732313a20746f6b656e20616c7265616479206d696e74656400000000600082015250565b6000613f70601c836129d7565b9150613f7b82613f3a565b602082019050919050565b60006020820190508181036000830152613f9f81613f63565b905091905056fea26469706673582212209fc82e3800609424fbd00d8f62df365e3d678d9397336ed92e7c412f5f19f23164736f6c63430008120033",
  "immutableReferences": {},
  "source": "//SPDX-License-Identifier: Unlicense\r\npragma solidity ^0.8.0;\r\n\r\n//import \"hardhat/console.sol\";\r\nimport \"@openzeppelin/contracts/utils/Counters.sol\";\r\nimport \"@openzeppelin/contracts/token/ERC721/extensions/ERC721URIStorage.sol\";\r\nimport \"@openzeppelin/contracts/token/ERC721/ERC721.sol\";\r\n\r\ncontract NFTMarketplace is ERC721URIStorage {\r\n    using Counters for Counters.Counter;\r\n    //_tokenIds variable has the most recent minted tokenId\r\n    Counters.Counter private _tokenIds;\r\n    //Keeps track of the number of items sold on the marketplace\r\n    Counters.Counter private _itemsSold;\r\n    //owner is the contract address that created the smart contract\r\n    address payable owner;\r\n    //The fee charged by the marketplace to be allowed to list an NFT\r\n    uint256 listPrice = 0.01 ether;\r\n\r\n    //The structure to store info about a listed token\r\n    struct ListedToken {\r\n        uint256 tokenId;\r\n        address payable owner;\r\n        address payable seller;\r\n        uint256 price;\r\n        bool currentlyListed;\r\n    }\r\n\r\n    //the event emitted when a token is successfully listed\r\n    event TokenListedSuccess(\r\n        uint256 indexed tokenId,\r\n        address owner,\r\n        address seller,\r\n        uint256 price,\r\n        bool currentlyListed\r\n    );\r\n\r\n    //This mapping maps tokenId to token info and is helpful when retrieving details about a tokenId\r\n    mapping(uint256 => ListedToken) private idToListedToken;\r\n\r\n    constructor() ERC721(\"NFTCardMarketplace\", \"CARD\") {\r\n        owner = payable(msg.sender);\r\n    }\r\n\r\n    function updateListPrice(uint256 _listPrice) public payable {\r\n        require(owner == msg.sender, \"Only owner can update listing price\");\r\n        listPrice = _listPrice;\r\n    }\r\n\r\n    function getListPrice() public view returns (uint256) {\r\n        return listPrice;\r\n    }\r\n\r\n    function getLatestIdToListedToken()\r\n        public\r\n        view\r\n        returns (ListedToken memory)\r\n    {\r\n        uint256 currentTokenId = _tokenIds.current();\r\n        return idToListedToken[currentTokenId];\r\n    }\r\n\r\n    function getListedTokenForId(uint256 tokenId)\r\n        public\r\n        view\r\n        returns (ListedToken memory)\r\n    {\r\n        return idToListedToken[tokenId];\r\n    }\r\n\r\n    function getCurrentToken() public view returns (uint256) {\r\n        return _tokenIds.current();\r\n    }\r\n\r\n    //The first time a token is created, it is listed here\r\n    function createToken(string memory tokenURI, uint256 price)\r\n        public\r\n        payable\r\n        returns (uint256)\r\n    {\r\n        //Increment the tokenId counter, which is keeping track of the number of minted NFTs\r\n        _tokenIds.increment();\r\n        uint256 newTokenId = _tokenIds.current();\r\n\r\n        //Mint the NFT with tokenId newTokenId to the address who called createToken\r\n        _safeMint(msg.sender, newTokenId);\r\n\r\n        //Map the tokenId to the tokenURI (which is an IPFS URL with the NFT metadata)\r\n        _setTokenURI(newTokenId, tokenURI);\r\n\r\n        //Helper function to update Global variables and emit an event\r\n        createListedToken(newTokenId, price);\r\n\r\n        return newTokenId;\r\n    }\r\n\r\n    function createListedToken(uint256 tokenId, uint256 price) private {\r\n        //Make sure the sender sent enough ETH to pay for listing\r\n        require(msg.value == listPrice, \"Hopefully sending the correct price\");\r\n        //Just sanity check\r\n        require(price > 0, \"Make sure the price isn't negative\");\r\n\r\n        //Update the mapping of tokenId's to Token details, useful for retrieval functions\r\n        idToListedToken[tokenId] = ListedToken(\r\n            tokenId,\r\n            payable(address(this)),\r\n            payable(msg.sender),\r\n            price,\r\n            true\r\n        );\r\n\r\n        _transfer(msg.sender, address(this), tokenId);\r\n        //Emit the event for successful transfer. The frontend parses this message and updates the end user\r\n        emit TokenListedSuccess(\r\n            tokenId,\r\n            address(this),\r\n            msg.sender,\r\n            price,\r\n            true\r\n        );\r\n    }\r\n\r\n    //This will return all the NFTs currently listed to be sold on the marketplace\r\n    function getAllNFTs() public view returns (ListedToken[] memory) {\r\n        uint256 nftCount = _tokenIds.current();\r\n        ListedToken[] memory tokens = new ListedToken[](nftCount);\r\n        uint256 currentIndex = 0;\r\n        uint256 currentId;\r\n        //at the moment currentlyListed is true for all, if it becomes false in the future we will\r\n        //filter out currentlyListed == false over here\r\n        for (uint256 i = 0; i < nftCount; i++) {\r\n            currentId = i + 1;\r\n            ListedToken storage currentItem = idToListedToken[currentId];\r\n            tokens[currentIndex] = currentItem;\r\n            currentIndex += 1;\r\n        }\r\n        //the array 'tokens' has the list of all NFTs in the marketplace\r\n        return tokens;\r\n    }\r\n\r\n    //Returns all the NFTs that the current user is owner or seller in\r\n    function getMyNFTs() public view returns (ListedToken[] memory) {\r\n        uint256 totalItemCount = _tokenIds.current();\r\n        uint256 itemCount = 0;\r\n        uint256 currentIndex = 0;\r\n        uint256 currentId;\r\n        //Important to get a count of all the NFTs that belong to the user before we can make an array for them\r\n        for (uint256 i = 0; i < totalItemCount; i++) {\r\n            if (\r\n                idToListedToken[i + 1].owner == msg.sender ||\r\n                idToListedToken[i + 1].seller == msg.sender\r\n            ) {\r\n                itemCount += 1;\r\n            }\r\n        }\r\n\r\n        //Once you have the count of relevant NFTs, create an array then store all the NFTs in it\r\n        ListedToken[] memory items = new ListedToken[](itemCount);\r\n        for (uint256 i = 0; i < totalItemCount; i++) {\r\n            if (\r\n                idToListedToken[i + 1].owner == msg.sender ||\r\n                idToListedToken[i + 1].seller == msg.sender\r\n            ) {\r\n                currentId = i + 1;\r\n                ListedToken storage currentItem = idToListedToken[currentId];\r\n                items[currentIndex] = currentItem;\r\n                currentIndex += 1;\r\n            }\r\n        }\r\n        return items;\r\n    }\r\n\r\n    //Sell NFT to other address\r\n    function executeSale(uint256 tokenId) public payable {\r\n        uint256 price = idToListedToken[tokenId].price;\r\n        address seller = idToListedToken[tokenId].seller;\r\n        require(\r\n            msg.value == price,\r\n            \"Please submit the asking price in order to complete the purchase\"\r\n        );\r\n\r\n        //update the details of the token\r\n        idToListedToken[tokenId].currentlyListed = true;\r\n        idToListedToken[tokenId].seller = payable(msg.sender);\r\n        _itemsSold.increment();\r\n\r\n        //Actually transfer the token to the new owner\r\n        _transfer(address(this), msg.sender, tokenId);\r\n        //approve the marketplace to sell NFTs on your behalf\r\n        approve(address(this), tokenId);\r\n\r\n        //Transfer the listing fee to the marketplace creator\r\n        payable(owner).transfer(listPrice);\r\n        //Transfer the proceeds from the sale to the seller of the NFT\r\n        payable(seller).transfer(msg.value);\r\n    }\r\n}",
  "sourcePath": "C:\\Users\\Giacomo\\Desktop\\Blockchain\\blockchain-authenticator\\project\\truffle\\contracts\\NFT.sol",
  "compiler": {
    "name": "solc",
    "version": "0.8.18+commit.87f61d96.Emscripten.clang"
  },
  "schemaVersion": "3.4.14",
  "updatedAt": "2023-07-04T20:13:09.639Z",
  "networkType": "ethereum",
  "devdoc": {
    "events": {
      "Approval(address,address,uint256)": {
        "details": "Emitted when `owner` enables `approved` to manage the `tokenId` token."
      },
      "ApprovalForAll(address,address,bool)": {
        "details": "Emitted when `owner` enables or disables (`approved`) `operator` to manage all of its assets."
      },
      "BatchMetadataUpdate(uint256,uint256)": {
        "details": "This event emits when the metadata of a range of tokens is changed. So that the third-party platforms such as NFT market could timely update the images and related attributes of the NFTs."
      },
      "MetadataUpdate(uint256)": {
        "details": "This event emits when the metadata of a token is changed. So that the third-party platforms such as NFT market could timely update the images and related attributes of the NFT."
      },
      "Transfer(address,address,uint256)": {
        "details": "Emitted when `tokenId` token is transferred from `from` to `to`."
      }
    },
    "kind": "dev",
    "methods": {
      "approve(address,uint256)": {
        "details": "See {IERC721-approve}."
      },
      "balanceOf(address)": {
        "details": "See {IERC721-balanceOf}."
      },
      "getApproved(uint256)": {
        "details": "See {IERC721-getApproved}."
      },
      "isApprovedForAll(address,address)": {
        "details": "See {IERC721-isApprovedForAll}."
      },
      "name()": {
        "details": "See {IERC721Metadata-name}."
      },
      "ownerOf(uint256)": {
        "details": "See {IERC721-ownerOf}."
      },
      "safeTransferFrom(address,address,uint256)": {
        "details": "See {IERC721-safeTransferFrom}."
      },
      "safeTransferFrom(address,address,uint256,bytes)": {
        "details": "See {IERC721-safeTransferFrom}."
      },
      "setApprovalForAll(address,bool)": {
        "details": "See {IERC721-setApprovalForAll}."
      },
      "supportsInterface(bytes4)": {
        "details": "See {IERC165-supportsInterface}"
      },
      "symbol()": {
        "details": "See {IERC721Metadata-symbol}."
      },
      "tokenURI(uint256)": {
        "details": "See {IERC721Metadata-tokenURI}."
      },
      "transferFrom(address,address,uint256)": {
        "details": "See {IERC721-transferFrom}."
      }
    },
    "version": 1
  },
  "userdoc": {
    "kind": "user",
    "methods": {},
    "version": 1
  }
}