{
  "contractName": "NFTMarketplace",
  "abi": [
    {
      "inputs": [],
      "stateMutability": "nonpayable",
      "type": "constructor"
    },
    {
      "anonymous": false,
      "inputs": [
        {
          "indexed": true,
          "internalType": "address",
          "name": "owner",
          "type": "address"
        },
        {
          "indexed": true,
          "internalType": "address",
          "name": "approved",
          "type": "address"
        },
        {
          "indexed": true,
          "internalType": "uint256",
          "name": "tokenId",
          "type": "uint256"
        }
      ],
      "name": "Approval",
      "type": "event"
    },
    {
      "anonymous": false,
      "inputs": [
        {
          "indexed": true,
          "internalType": "address",
          "name": "owner",
          "type": "address"
        },
        {
          "indexed": true,
          "internalType": "address",
          "name": "operator",
          "type": "address"
        },
        {
          "indexed": false,
          "internalType": "bool",
          "name": "approved",
          "type": "bool"
        }
      ],
      "name": "ApprovalForAll",
      "type": "event"
    },
    {
      "anonymous": false,
      "inputs": [
        {
          "indexed": false,
          "internalType": "uint256",
          "name": "_fromTokenId",
          "type": "uint256"
        },
        {
          "indexed": false,
          "internalType": "uint256",
          "name": "_toTokenId",
          "type": "uint256"
        }
      ],
      "name": "BatchMetadataUpdate",
      "type": "event"
    },
    {
      "anonymous": false,
      "inputs": [
        {
          "indexed": true,
          "internalType": "address",
          "name": "user",
          "type": "address"
        },
        {
          "indexed": false,
          "internalType": "string",
          "name": "name",
          "type": "string"
        },
        {
          "indexed": false,
          "internalType": "uint256",
          "name": "grade",
          "type": "uint256"
        },
        {
          "indexed": false,
          "internalType": "string",
          "name": "condition",
          "type": "string"
        },
        {
          "indexed": false,
          "internalType": "uint256",
          "name": "cardCode",
          "type": "uint256"
        }
      ],
      "name": "CardRegistered",
      "type": "event"
    },
    {
      "anonymous": false,
      "inputs": [
        {
          "indexed": true,
          "internalType": "address",
          "name": "from",
          "type": "address"
        },
        {
          "indexed": true,
          "internalType": "address",
          "name": "to",
          "type": "address"
        },
        {
          "indexed": false,
          "internalType": "uint256",
          "name": "cardIndex",
          "type": "uint256"
        }
      ],
      "name": "CardTransferred",
      "type": "event"
    },
    {
      "anonymous": false,
      "inputs": [
        {
          "indexed": false,
          "internalType": "uint256",
          "name": "_tokenId",
          "type": "uint256"
        }
      ],
      "name": "MetadataUpdate",
      "type": "event"
    },
    {
      "anonymous": false,
      "inputs": [
        {
          "indexed": true,
          "internalType": "uint256",
          "name": "tokenId",
          "type": "uint256"
        },
        {
          "indexed": false,
          "internalType": "address",
          "name": "owner",
          "type": "address"
        },
        {
          "indexed": false,
          "internalType": "address",
          "name": "seller",
          "type": "address"
        },
        {
          "indexed": false,
          "internalType": "uint256",
          "name": "price",
          "type": "uint256"
        },
        {
          "indexed": false,
          "internalType": "bool",
          "name": "currentlyListed",
          "type": "bool"
        }
      ],
      "name": "TokenListedSuccess",
      "type": "event"
    },
    {
      "anonymous": false,
      "inputs": [
        {
          "indexed": true,
          "internalType": "address",
          "name": "from",
          "type": "address"
        },
        {
          "indexed": true,
          "internalType": "address",
          "name": "to",
          "type": "address"
        },
        {
          "indexed": true,
          "internalType": "uint256",
          "name": "tokenId",
          "type": "uint256"
        }
      ],
      "name": "Transfer",
      "type": "event"
    },
    {
      "inputs": [
        {
          "internalType": "address",
          "name": "to",
          "type": "address"
        },
        {
          "internalType": "uint256",
          "name": "tokenId",
          "type": "uint256"
        }
      ],
      "name": "approve",
      "outputs": [],
      "stateMutability": "nonpayable",
      "type": "function"
    },
    {
      "inputs": [
        {
          "internalType": "address",
          "name": "owner",
          "type": "address"
        }
      ],
      "name": "balanceOf",
      "outputs": [
        {
          "internalType": "uint256",
          "name": "",
          "type": "uint256"
        }
      ],
      "stateMutability": "view",
      "type": "function",
      "constant": true
    },
    {
      "inputs": [
        {
          "internalType": "uint256",
          "name": "tokenId",
          "type": "uint256"
        }
      ],
      "name": "getApproved",
      "outputs": [
        {
          "internalType": "address",
          "name": "",
          "type": "address"
        }
      ],
      "stateMutability": "view",
      "type": "function",
      "constant": true
    },
    {
      "inputs": [
        {
          "internalType": "address",
          "name": "owner",
          "type": "address"
        },
        {
          "internalType": "address",
          "name": "operator",
          "type": "address"
        }
      ],
      "name": "isApprovedForAll",
      "outputs": [
        {
          "internalType": "bool",
          "name": "",
          "type": "bool"
        }
      ],
      "stateMutability": "view",
      "type": "function",
      "constant": true
    },
    {
      "inputs": [],
      "name": "name",
      "outputs": [
        {
          "internalType": "string",
          "name": "",
          "type": "string"
        }
      ],
      "stateMutability": "view",
      "type": "function",
      "constant": true
    },
    {
      "inputs": [
        {
          "internalType": "uint256",
          "name": "tokenId",
          "type": "uint256"
        }
      ],
      "name": "ownerOf",
      "outputs": [
        {
          "internalType": "address",
          "name": "",
          "type": "address"
        }
      ],
      "stateMutability": "view",
      "type": "function",
      "constant": true
    },
    {
      "inputs": [
        {
          "internalType": "address",
          "name": "from",
          "type": "address"
        },
        {
          "internalType": "address",
          "name": "to",
          "type": "address"
        },
        {
          "internalType": "uint256",
          "name": "tokenId",
          "type": "uint256"
        }
      ],
      "name": "safeTransferFrom",
      "outputs": [],
      "stateMutability": "nonpayable",
      "type": "function"
    },
    {
      "inputs": [
        {
          "internalType": "address",
          "name": "from",
          "type": "address"
        },
        {
          "internalType": "address",
          "name": "to",
          "type": "address"
        },
        {
          "internalType": "uint256",
          "name": "tokenId",
          "type": "uint256"
        },
        {
          "internalType": "bytes",
          "name": "data",
          "type": "bytes"
        }
      ],
      "name": "safeTransferFrom",
      "outputs": [],
      "stateMutability": "nonpayable",
      "type": "function"
    },
    {
      "inputs": [
        {
          "internalType": "address",
          "name": "operator",
          "type": "address"
        },
        {
          "internalType": "bool",
          "name": "approved",
          "type": "bool"
        }
      ],
      "name": "setApprovalForAll",
      "outputs": [],
      "stateMutability": "nonpayable",
      "type": "function"
    },
    {
      "inputs": [
        {
          "internalType": "bytes4",
          "name": "interfaceId",
          "type": "bytes4"
        }
      ],
      "name": "supportsInterface",
      "outputs": [
        {
          "internalType": "bool",
          "name": "",
          "type": "bool"
        }
      ],
      "stateMutability": "view",
      "type": "function",
      "constant": true
    },
    {
      "inputs": [],
      "name": "symbol",
      "outputs": [
        {
          "internalType": "string",
          "name": "",
          "type": "string"
        }
      ],
      "stateMutability": "view",
      "type": "function",
      "constant": true
    },
    {
      "inputs": [
        {
          "internalType": "uint256",
          "name": "tokenId",
          "type": "uint256"
        }
      ],
      "name": "tokenURI",
      "outputs": [
        {
          "internalType": "string",
          "name": "",
          "type": "string"
        }
      ],
      "stateMutability": "view",
      "type": "function",
      "constant": true
    },
    {
      "inputs": [
        {
          "internalType": "address",
          "name": "from",
          "type": "address"
        },
        {
          "internalType": "address",
          "name": "to",
          "type": "address"
        },
        {
          "internalType": "uint256",
          "name": "tokenId",
          "type": "uint256"
        }
      ],
      "name": "transferFrom",
      "outputs": [],
      "stateMutability": "nonpayable",
      "type": "function"
    },
    {
      "inputs": [
        {
          "internalType": "uint256",
          "name": "_listPrice",
          "type": "uint256"
        }
      ],
      "name": "updateListPrice",
      "outputs": [],
      "stateMutability": "payable",
      "type": "function",
      "payable": true
    },
    {
      "inputs": [],
      "name": "getListPrice",
      "outputs": [
        {
          "internalType": "uint256",
          "name": "",
          "type": "uint256"
        }
      ],
      "stateMutability": "view",
      "type": "function",
      "constant": true
    },
    {
      "inputs": [],
      "name": "getLatestIdToListedToken",
      "outputs": [
        {
          "components": [
            {
              "internalType": "uint256",
              "name": "tokenID",
              "type": "uint256"
            },
            {
              "internalType": "address payable",
              "name": "owner",
              "type": "address"
            },
            {
              "internalType": "address payable",
              "name": "seller",
              "type": "address"
            },
            {
              "internalType": "uint256",
              "name": "price",
              "type": "uint256"
            },
            {
              "internalType": "bool",
              "name": "currentlyListed",
              "type": "bool"
            }
          ],
          "internalType": "struct NFTMarketplace.ListedToken",
          "name": "",
          "type": "tuple"
        }
      ],
      "stateMutability": "view",
      "type": "function",
      "constant": true
    },
    {
      "inputs": [
        {
          "internalType": "uint256",
          "name": "tokenId",
          "type": "uint256"
        }
      ],
      "name": "getListedForTokenId",
      "outputs": [
        {
          "components": [
            {
              "internalType": "uint256",
              "name": "tokenID",
              "type": "uint256"
            },
            {
              "internalType": "address payable",
              "name": "owner",
              "type": "address"
            },
            {
              "internalType": "address payable",
              "name": "seller",
              "type": "address"
            },
            {
              "internalType": "uint256",
              "name": "price",
              "type": "uint256"
            },
            {
              "internalType": "bool",
              "name": "currentlyListed",
              "type": "bool"
            }
          ],
          "internalType": "struct NFTMarketplace.ListedToken",
          "name": "",
          "type": "tuple"
        }
      ],
      "stateMutability": "view",
      "type": "function",
      "constant": true
    },
    {
      "inputs": [],
      "name": "getCurrentToken",
      "outputs": [
        {
          "internalType": "uint256",
          "name": "",
          "type": "uint256"
        }
      ],
      "stateMutability": "view",
      "type": "function",
      "constant": true
    },
    {
      "inputs": [
        {
          "internalType": "address",
          "name": "_user",
          "type": "address"
        }
      ],
      "name": "getCardCount",
      "outputs": [
        {
          "internalType": "uint256",
          "name": "",
          "type": "uint256"
        }
      ],
      "stateMutability": "view",
      "type": "function",
      "constant": true
    },
    {
      "inputs": [
        {
          "internalType": "address",
          "name": "_to",
          "type": "address"
        },
        {
          "internalType": "uint256",
          "name": "_cardIndex",
          "type": "uint256"
        }
      ],
      "name": "transferCard",
      "outputs": [],
      "stateMutability": "nonpayable",
      "type": "function"
    },
    {
      "inputs": [
        {
          "internalType": "address",
          "name": "_user",
          "type": "address"
        }
      ],
      "name": "getUserCards",
      "outputs": [
        {
          "components": [
            {
              "internalType": "string",
              "name": "name",
              "type": "string"
            },
            {
              "internalType": "uint256",
              "name": "grade",
              "type": "uint256"
            },
            {
              "internalType": "string",
              "name": "condition",
              "type": "string"
            },
            {
              "internalType": "uint256",
              "name": "cardCode",
              "type": "uint256"
            }
          ],
          "internalType": "struct NFTMarketplace.Card[]",
          "name": "",
          "type": "tuple[]"
        }
      ],
      "stateMutability": "view",
      "type": "function",
      "constant": true
    },
    {
      "inputs": [
        {
          "internalType": "string",
          "name": "tokenURI",
          "type": "string"
        },
        {
          "internalType": "uint256",
          "name": "price",
          "type": "uint256"
        }
      ],
      "name": "createToken",
      "outputs": [
        {
          "internalType": "uint256",
          "name": "",
          "type": "uint256"
        }
      ],
      "stateMutability": "payable",
      "type": "function",
      "payable": true
    },
    {
      "inputs": [
        {
          "internalType": "string",
          "name": "_name",
          "type": "string"
        },
        {
          "internalType": "uint256",
          "name": "_grade",
          "type": "uint256"
        },
        {
          "internalType": "string",
          "name": "_condition",
          "type": "string"
        },
        {
          "internalType": "uint256",
          "name": "_cardCode",
          "type": "uint256"
        }
      ],
      "name": "registerCard",
      "outputs": [],
      "stateMutability": "nonpayable",
      "type": "function"
    },
    {
      "inputs": [],
      "name": "getAllNFTs",
      "outputs": [
        {
          "components": [
            {
              "internalType": "uint256",
              "name": "tokenID",
              "type": "uint256"
            },
            {
              "internalType": "address payable",
              "name": "owner",
              "type": "address"
            },
            {
              "internalType": "address payable",
              "name": "seller",
              "type": "address"
            },
            {
              "internalType": "uint256",
              "name": "price",
              "type": "uint256"
            },
            {
              "internalType": "bool",
              "name": "currentlyListed",
              "type": "bool"
            }
          ],
          "internalType": "struct NFTMarketplace.ListedToken[]",
          "name": "",
          "type": "tuple[]"
        }
      ],
      "stateMutability": "view",
      "type": "function",
      "constant": true
    },
    {
      "inputs": [],
      "name": "getAllMyNFTs",
      "outputs": [
        {
          "components": [
            {
              "internalType": "uint256",
              "name": "tokenID",
              "type": "uint256"
            },
            {
              "internalType": "address payable",
              "name": "owner",
              "type": "address"
            },
            {
              "internalType": "address payable",
              "name": "seller",
              "type": "address"
            },
            {
              "internalType": "uint256",
              "name": "price",
              "type": "uint256"
            },
            {
              "internalType": "bool",
              "name": "currentlyListed",
              "type": "bool"
            }
          ],
          "internalType": "struct NFTMarketplace.ListedToken[]",
          "name": "",
          "type": "tuple[]"
        }
      ],
      "stateMutability": "view",
      "type": "function",
      "constant": true
    },
    {
      "inputs": [
        {
          "internalType": "uint256",
          "name": "tokenId",
          "type": "uint256"
        }
      ],
      "name": "executeSale",
      "outputs": [],
      "stateMutability": "payable",
      "type": "function",
      "payable": true
    }
  ],
  "bytecode": "0x6080604052662386f26fc10000600c553480156200001c57600080fd5b506040518060400160405280600e81526020017f4e4654436f6c6c65637469626c650000000000000000000000000000000000008152506040518060400160405280600481526020017f4e4654430000000000000000000000000000000000000000000000000000000081525081600090816200009a919062000370565b508060019081620000ac919062000370565b50505033600960006101000a81548173ffffffffffffffffffffffffffffffffffffffff021916908373ffffffffffffffffffffffffffffffffffffffff16021790555062000457565b600081519050919050565b7f4e487b7100000000000000000000000000000000000000000000000000000000600052604160045260246000fd5b7f4e487b7100000000000000000000000000000000000000000000000000000000600052602260045260246000fd5b600060028204905060018216806200017857607f821691505b6020821081036200018e576200018d62000130565b5b50919050565b60008190508160005260206000209050919050565b60006020601f8301049050919050565b600082821b905092915050565b600060088302620001f87fffffffffffffffffffffffffffffffffffffffffffffffffffffffffffffffff82620001b9565b620002048683620001b9565b95508019841693508086168417925050509392505050565b6000819050919050565b6000819050919050565b6000620002516200024b62000245846200021c565b62000226565b6200021c565b9050919050565b6000819050919050565b6200026d8362000230565b620002856200027c8262000258565b848454620001c6565b825550505050565b600090565b6200029c6200028d565b620002a981848462000262565b505050565b5b81811015620002d157620002c560008262000292565b600181019050620002af565b5050565b601f8211156200032057620002ea8162000194565b620002f584620001a9565b8101602085101562000305578190505b6200031d6200031485620001a9565b830182620002ae565b50505b505050565b600082821c905092915050565b6000620003456000198460080262000325565b1980831691505092915050565b600062000360838362000332565b9150826002028217905092915050565b6200037b82620000f6565b67ffffffffffffffff81111562000397576200039662000101565b5b620003a382546200015f565b620003b0828285620002d5565b600060209050601f831160018114620003e85760008415620003d3578287015190505b620003df858262000352565b8655506200044f565b601f198416620003f88662000194565b60005b828110156200042257848901518255600182019150602085019450602081019050620003fb565b868310156200044257848901516200043e601f89168262000332565b8355505b6001600288020188555050505b505050505050565b61505b80620004676000396000f3fe6080604052600436106101815760003560e01c806398c3df16116100d1578063c322579c1161008a578063dce0b58611610064578063dce0b5861461058f578063e0391b09146105cc578063e985e9c5146105f7578063ef2d17461461063457610181565b8063c322579c1461050b578063c87b56dd14610527578063d1a88ae51461056457610181565b806398c3df161461040c5780639b1225c4146104495780639b81a35914610465578063a22cb4651461048e578063b88d4fde146104b7578063c0ab5abc146104e057610181565b806354fadade1161013e57806370a082311161011857806370a082311461033757806372b3b6201461037457806388d9f40d146103a457806395d89b41146103e157610181565b806354fadade146102a65780636352211e146102cf57806368f1945f1461030c57610181565b806301ffc9a71461018657806306fdde03146101c3578063081812fc146101ee578063095ea7b31461022b57806323b872dd1461025457806342842e0e1461027d575b600080fd5b34801561019257600080fd5b506101ad60048036038101906101a891906134fc565b61065f565b6040516101ba9190613544565b60405180910390f35b3480156101cf57600080fd5b506101d86106c0565b6040516101e591906135ef565b60405180910390f35b3480156101fa57600080fd5b5061021560048036038101906102109190613647565b610752565b60405161022291906136b5565b60405180910390f35b34801561023757600080fd5b50610252600480360381019061024d91906136fc565b610798565b005b34801561026057600080fd5b5061027b6004803603810190610276919061373c565b6108af565b005b34801561028957600080fd5b506102a4600480360381019061029f919061373c565b61090f565b005b3480156102b257600080fd5b506102cd60048036038101906102c891906138c4565b61092f565b005b3480156102db57600080fd5b506102f660048036038101906102f19190613647565b610aaf565b60405161030391906136b5565b60405180910390f35b34801561031857600080fd5b50610321610b35565b60405161032e9190613972565b60405180910390f35b34801561034357600080fd5b5061035e6004803603810190610359919061398d565b610b3f565b60405161036b9190613972565b60405180910390f35b61038e600480360381019061038991906139ba565b610bf6565b60405161039b9190613972565b60405180910390f35b3480156103b057600080fd5b506103cb60048036038101906103c6919061398d565b610c38565b6040516103d89190613b9b565b60405180910390f35b3480156103ed57600080fd5b506103f6610e0e565b60405161040391906135ef565b60405180910390f35b34801561041857600080fd5b50610433600480360381019061042e9190613647565b610ea0565b6040516104409190613c55565b60405180910390f35b610463600480360381019061045e9190613647565b610fa8565b005b34801561047157600080fd5b5061048c600480360381019061048791906136fc565b611190565b005b34801561049a57600080fd5b506104b560048036038101906104b09190613c9c565b611582565b005b3480156104c357600080fd5b506104de60048036038101906104d99190613d7d565b611598565b005b3480156104ec57600080fd5b506104f56115fa565b6040516105029190613f17565b60405180910390f35b61052560048036038101906105209190613647565b6119db565b005b34801561053357600080fd5b5061054e60048036038101906105499190613647565b611a75565b60405161055b91906135ef565b60405180910390f35b34801561057057600080fd5b50610579611b87565b6040516105869190613c55565b60405180910390f35b34801561059b57600080fd5b506105b660048036038101906105b1919061398d565b611c9c565b6040516105c39190613972565b60405180910390f35b3480156105d857600080fd5b506105e1611ce5565b6040516105ee9190613f17565b60405180910390f35b34801561060357600080fd5b5061061e60048036038101906106199190613f39565b611eb4565b60405161062b9190613544565b60405180910390f35b34801561064057600080fd5b50610649611f48565b6040516106569190613972565b60405180910390f35b6000634906490660e01b7bffffffffffffffffffffffffffffffffffffffffffffffffffffffff1916827bffffffffffffffffffffffffffffffffffffffffffffffffffffffff191614806106b957506106b882611f59565b5b9050919050565b6060600080546106cf90613fa8565b80601f01602080910402602001604051908101604052809291908181526020018280546106fb90613fa8565b80156107485780601f1061071d57610100808354040283529160200191610748565b820191906000526020600020905b81548152906001019060200180831161072b57829003601f168201915b5050505050905090565b600061075d8261203b565b6004600083815260200190815260200160002060009054906101000a900473ffffffffffffffffffffffffffffffffffffffff169050919050565b60006107a382610aaf565b90508073ffffffffffffffffffffffffffffffffffffffff168373ffffffffffffffffffffffffffffffffffffffff1603610813576040517f08c379a000000000000000000000000000000000000000000000000000000000815260040161080a9061404b565b60405180910390fd5b8073ffffffffffffffffffffffffffffffffffffffff16610832612086565b73ffffffffffffffffffffffffffffffffffffffff16148061086157506108608161085b612086565b611eb4565b5b6108a0576040517f08c379a0000000000000000000000000000000000000000000000000000000008152600401610897906140dd565b60405180910390fd5b6108aa838361208e565b505050565b6108c06108ba612086565b82612147565b6108ff576040517f08c379a00000000000000000000000000000000000000000000000000000000081526004016108f69061416f565b60405180910390fd5b61090a8383836121dc565b505050565b61092a83838360405180602001604052806000815250611598565b505050565b60006040518060800160405280868152602001858152602001848152602001838152509050600760003373ffffffffffffffffffffffffffffffffffffffff1673ffffffffffffffffffffffffffffffffffffffff16815260200190815260200160002081908060018154018082558091505060019003906000526020600020906004020160009091909190915060008201518160000190816109d2919061433b565b506020820151816001015560408201518160020190816109f2919061433b565b50606082015181600301555050600860003373ffffffffffffffffffffffffffffffffffffffff1673ffffffffffffffffffffffffffffffffffffffff1681526020019081526020016000206000815480929190610a4f9061443c565b91905055503373ffffffffffffffffffffffffffffffffffffffff167f68d3d09406fd14307953e11d4a9a7463946fd5c3f39e80464be22f34cf3a0b0b86868686604051610aa09493929190614484565b60405180910390a25050505050565b600080610abb836124d5565b9050600073ffffffffffffffffffffffffffffffffffffffff168173ffffffffffffffffffffffffffffffffffffffff1603610b2c576040517f08c379a0000000000000000000000000000000000000000000000000000000008152600401610b2390614523565b60405180910390fd5b80915050919050565b6000600c54905090565b60008073ffffffffffffffffffffffffffffffffffffffff168273ffffffffffffffffffffffffffffffffffffffff1603610baf576040517f08c379a0000000000000000000000000000000000000000000000000000000008152600401610ba6906145b5565b60405180910390fd5b600360008373ffffffffffffffffffffffffffffffffffffffff1673ffffffffffffffffffffffffffffffffffffffff168152602001908152602001600020549050919050565b6000610c02600a612512565b6000610c0e600a612528565b9050610c1a3382612536565b610c248185612554565b610c2e81846125f8565b8091505092915050565b6060600760008373ffffffffffffffffffffffffffffffffffffffff1673ffffffffffffffffffffffffffffffffffffffff168152602001908152602001600020805480602002602001604051908101604052809291908181526020016000905b82821015610e035783829060005260206000209060040201604051806080016040529081600082018054610ccc90613fa8565b80601f0160208091040260200160405190810160405280929190818152602001828054610cf890613fa8565b8015610d455780601f10610d1a57610100808354040283529160200191610d45565b820191906000526020600020905b815481529060010190602001808311610d2857829003601f168201915b5050505050815260200160018201548152602001600282018054610d6890613fa8565b80601f0160208091040260200160405190810160405280929190818152602001828054610d9490613fa8565b8015610de15780601f10610db657610100808354040283529160200191610de1565b820191906000526020600020905b815481529060010190602001808311610dc457829003601f168201915b5050505050815260200160038201548152505081526020019060010190610c99565b505050509050919050565b606060018054610e1d90613fa8565b80601f0160208091040260200160405190810160405280929190818152602001828054610e4990613fa8565b8015610e965780601f10610e6b57610100808354040283529160200191610e96565b820191906000526020600020905b815481529060010190602001808311610e7957829003601f168201915b5050505050905090565b610ea86133d6565b600d60008381526020019081526020016000206040518060a0016040529081600082015481526020016001820160009054906101000a900473ffffffffffffffffffffffffffffffffffffffff1673ffffffffffffffffffffffffffffffffffffffff1673ffffffffffffffffffffffffffffffffffffffff1681526020016002820160009054906101000a900473ffffffffffffffffffffffffffffffffffffffff1673ffffffffffffffffffffffffffffffffffffffff1673ffffffffffffffffffffffffffffffffffffffff168152602001600382015481526020016004820160009054906101000a900460ff1615151515815250509050919050565b6000600d60008381526020019081526020016000206003015490506000600d600084815260200190815260200160002060020160009054906101000a900473ffffffffffffffffffffffffffffffffffffffff169050813414611040576040517f08c379a000000000000000000000000000000000000000000000000000000000815260040161103790614647565b60405180910390fd5b6001600d600085815260200190815260200160002060040160006101000a81548160ff02191690831515021790555033600d600085815260200190815260200160002060020160006101000a81548173ffffffffffffffffffffffffffffffffffffffff021916908373ffffffffffffffffffffffffffffffffffffffff1602179055506110cf3033856121dc565b6110d93084610798565b600960009054906101000a900473ffffffffffffffffffffffffffffffffffffffff1673ffffffffffffffffffffffffffffffffffffffff166108fc600c549081150290604051600060405180830381858888f19350505050158015611143573d6000803e3d6000fd5b508073ffffffffffffffffffffffffffffffffffffffff166108fc349081150290604051600060405180830381858888f1935050505015801561118a573d6000803e3d6000fd5b50505050565b600760003373ffffffffffffffffffffffffffffffffffffffff1673ffffffffffffffffffffffffffffffffffffffff168152602001908152602001600020805490508110611214576040517f08c379a000000000000000000000000000000000000000000000000000000000815260040161120b906146b3565b60405180910390fd5b6000600760003373ffffffffffffffffffffffffffffffffffffffff1673ffffffffffffffffffffffffffffffffffffffff1681526020019081526020016000208281548110611267576112666146d3565b5b906000526020600020906004020160405180608001604052908160008201805461129090613fa8565b80601f01602080910402602001604051908101604052809291908181526020018280546112bc90613fa8565b80156113095780601f106112de57610100808354040283529160200191611309565b820191906000526020600020905b8154815290600101906020018083116112ec57829003601f168201915b505050505081526020016001820154815260200160028201805461132c90613fa8565b80601f016020809104026020016040519081016040528092919081815260200182805461135890613fa8565b80156113a55780601f1061137a576101008083540402835291602001916113a5565b820191906000526020600020905b81548152906001019060200180831161138857829003601f168201915b505050505081526020016003820154815250509050600760008473ffffffffffffffffffffffffffffffffffffffff1673ffffffffffffffffffffffffffffffffffffffff1681526020019081526020016000208190806001815401808255809150506001900390600052602060002090600402016000909190919091506000820151816000019081611438919061433b565b50602082015181600101556040820151816002019081611458919061433b565b50606082015181600301555050600860003373ffffffffffffffffffffffffffffffffffffffff1673ffffffffffffffffffffffffffffffffffffffff16815260200190815260200160002060008154809291906114b590614702565b9190505550600860008473ffffffffffffffffffffffffffffffffffffffff1673ffffffffffffffffffffffffffffffffffffffff168152602001908152602001600020600081548092919061150a9061443c565b9190505550611518826127fb565b8273ffffffffffffffffffffffffffffffffffffffff163373ffffffffffffffffffffffffffffffffffffffff167f08c7dc9c65cfe0a446c6b662ec2e35c1966d49c8c50f8a4b78a7e2e0c68217c4846040516115759190613972565b60405180910390a3505050565b61159461158d612086565b8383612a95565b5050565b6115a96115a3612086565b83612147565b6115e8576040517f08c379a00000000000000000000000000000000000000000000000000000000081526004016115df9061416f565b60405180910390fd5b6115f484848484612c01565b50505050565b60606000611608600a612528565b9050600080600080600090505b8481101561172e573373ffffffffffffffffffffffffffffffffffffffff16600d6000600184611645919061472b565b815260200190815260200160002060010160009054906101000a900473ffffffffffffffffffffffffffffffffffffffff1673ffffffffffffffffffffffffffffffffffffffff16148061170657503373ffffffffffffffffffffffffffffffffffffffff16600d60006001846116bc919061472b565b815260200190815260200160002060020160009054906101000a900473ffffffffffffffffffffffffffffffffffffffff1673ffffffffffffffffffffffffffffffffffffffff16145b1561171b57600184611718919061472b565b93505b80806117269061443c565b915050611615565b5060008367ffffffffffffffff81111561174b5761174a613799565b5b60405190808252806020026020018201604052801561178457816020015b6117716133d6565b8152602001906001900390816117695790505b50905060005b858110156119cf573373ffffffffffffffffffffffffffffffffffffffff16600d60006001846117ba919061472b565b815260200190815260200160002060010160009054906101000a900473ffffffffffffffffffffffffffffffffffffffff1673ffffffffffffffffffffffffffffffffffffffff16148061187b57503373ffffffffffffffffffffffffffffffffffffffff16600d6000600184611831919061472b565b815260200190815260200160002060020160009054906101000a900473ffffffffffffffffffffffffffffffffffffffff1673ffffffffffffffffffffffffffffffffffffffff16145b156119bc5760018161188d919061472b565b92506000600d60008581526020019081526020016000209050806040518060a0016040529081600082015481526020016001820160009054906101000a900473ffffffffffffffffffffffffffffffffffffffff1673ffffffffffffffffffffffffffffffffffffffff1673ffffffffffffffffffffffffffffffffffffffff1681526020016002820160009054906101000a900473ffffffffffffffffffffffffffffffffffffffff1673ffffffffffffffffffffffffffffffffffffffff1673ffffffffffffffffffffffffffffffffffffffff168152602001600382015481526020016004820160009054906101000a900460ff1615151515815250508386815181106119a05761199f6146d3565b5b60200260200101819052506001856119b8919061472b565b9450505b80806119c79061443c565b91505061178a565b50809550505050505090565b3373ffffffffffffffffffffffffffffffffffffffff16600960009054906101000a900473ffffffffffffffffffffffffffffffffffffffff1673ffffffffffffffffffffffffffffffffffffffff1614611a6b576040517f08c379a0000000000000000000000000000000000000000000000000000000008152600401611a62906147d1565b60405180910390fd5b80600c8190555050565b6060611a808261203b565b6000600660008481526020019081526020016000208054611aa090613fa8565b80601f0160208091040260200160405190810160405280929190818152602001828054611acc90613fa8565b8015611b195780601f10611aee57610100808354040283529160200191611b19565b820191906000526020600020905b815481529060010190602001808311611afc57829003601f168201915b505050505090506000611b2a612c5d565b90506000815103611b3f578192505050611b82565b600082511115611b74578082604051602001611b5c92919061482d565b60405160208183030381529060405292505050611b82565b611b7d84612c74565b925050505b919050565b611b8f6133d6565b6000611b9b600a612528565b9050600d60008281526020019081526020016000206040518060a0016040529081600082015481526020016001820160009054906101000a900473ffffffffffffffffffffffffffffffffffffffff1673ffffffffffffffffffffffffffffffffffffffff1673ffffffffffffffffffffffffffffffffffffffff1681526020016002820160009054906101000a900473ffffffffffffffffffffffffffffffffffffffff1673ffffffffffffffffffffffffffffffffffffffff1673ffffffffffffffffffffffffffffffffffffffff168152602001600382015481526020016004820160009054906101000a900460ff16151515158152505091505090565b6000600860008373ffffffffffffffffffffffffffffffffffffffff1673ffffffffffffffffffffffffffffffffffffffff168152602001908152602001600020549050919050565b60606000611cf3600a612528565b905060008167ffffffffffffffff811115611d1157611d10613799565b5b604051908082528060200260200182016040528015611d4a57816020015b611d376133d6565b815260200190600190039081611d2f5790505b5090506000805b83811015611eaa576000600182611d68919061472b565b90506000600d60008381526020019081526020016000209050806040518060a0016040529081600082015481526020016001820160009054906101000a900473ffffffffffffffffffffffffffffffffffffffff1673ffffffffffffffffffffffffffffffffffffffff1673ffffffffffffffffffffffffffffffffffffffff1681526020016002820160009054906101000a900473ffffffffffffffffffffffffffffffffffffffff1673ffffffffffffffffffffffffffffffffffffffff1673ffffffffffffffffffffffffffffffffffffffff168152602001600382015481526020016004820160009054906101000a900460ff161515151581525050858581518110611e7b57611e7a6146d3565b5b6020026020010181905250600184611e93919061472b565b935050508080611ea29061443c565b915050611d51565b5081935050505090565b6000600560008473ffffffffffffffffffffffffffffffffffffffff1673ffffffffffffffffffffffffffffffffffffffff16815260200190815260200160002060008373ffffffffffffffffffffffffffffffffffffffff1673ffffffffffffffffffffffffffffffffffffffff16815260200190815260200160002060009054906101000a900460ff16905092915050565b6000611f54600a612528565b905090565b60007f80ac58cd000000000000000000000000000000000000000000000000000000007bffffffffffffffffffffffffffffffffffffffffffffffffffffffff1916827bffffffffffffffffffffffffffffffffffffffffffffffffffffffff1916148061202457507f5b5e139f000000000000000000000000000000000000000000000000000000007bffffffffffffffffffffffffffffffffffffffffffffffffffffffff1916827bffffffffffffffffffffffffffffffffffffffffffffffffffffffff1916145b80612034575061203382612cdc565b5b9050919050565b61204481612d46565b612083576040517f08c379a000000000000000000000000000000000000000000000000000000000815260040161207a90614523565b60405180910390fd5b50565b600033905090565b816004600083815260200190815260200160002060006101000a81548173ffffffffffffffffffffffffffffffffffffffff021916908373ffffffffffffffffffffffffffffffffffffffff160217905550808273ffffffffffffffffffffffffffffffffffffffff1661210183610aaf565b73ffffffffffffffffffffffffffffffffffffffff167f8c5be1e5ebec7d5bd14f71427d1e84f3dd0314c0f7b2291e5b200ac8c7c3b92560405160405180910390a45050565b60008061215383610aaf565b90508073ffffffffffffffffffffffffffffffffffffffff168473ffffffffffffffffffffffffffffffffffffffff16148061219557506121948185611eb4565b5b806121d357508373ffffffffffffffffffffffffffffffffffffffff166121bb84610752565b73ffffffffffffffffffffffffffffffffffffffff16145b91505092915050565b8273ffffffffffffffffffffffffffffffffffffffff166121fc82610aaf565b73ffffffffffffffffffffffffffffffffffffffff1614612252576040517f08c379a0000000000000000000000000000000000000000000000000000000008152600401612249906148c3565b60405180910390fd5b600073ffffffffffffffffffffffffffffffffffffffff168273ffffffffffffffffffffffffffffffffffffffff16036122c1576040517f08c379a00000000000000000000000000000000000000000000000000000000081526004016122b890614955565b60405180910390fd5b6122ce8383836001612d87565b8273ffffffffffffffffffffffffffffffffffffffff166122ee82610aaf565b73ffffffffffffffffffffffffffffffffffffffff1614612344576040517f08c379a000000000000000000000000000000000000000000000000000000000815260040161233b906148c3565b60405180910390fd5b6004600082815260200190815260200160002060006101000a81549073ffffffffffffffffffffffffffffffffffffffff02191690556001600360008573ffffffffffffffffffffffffffffffffffffffff1673ffffffffffffffffffffffffffffffffffffffff168152602001908152602001600020600082825403925050819055506001600360008473ffffffffffffffffffffffffffffffffffffffff1673ffffffffffffffffffffffffffffffffffffffff16815260200190815260200160002060008282540192505081905550816002600083815260200190815260200160002060006101000a81548173ffffffffffffffffffffffffffffffffffffffff021916908373ffffffffffffffffffffffffffffffffffffffff160217905550808273ffffffffffffffffffffffffffffffffffffffff168473ffffffffffffffffffffffffffffffffffffffff167fddf252ad1be2c89b69c2b068fc378daa952ba7f163c4a11628f55a4df523b3ef60405160405180910390a46124d08383836001612d8d565b505050565b60006002600083815260200190815260200160002060009054906101000a900473ffffffffffffffffffffffffffffffffffffffff169050919050565b6001816000016000828254019250508190555050565b600081600001549050919050565b612550828260405180602001604052806000815250612d93565b5050565b61255d82612d46565b61259c576040517f08c379a0000000000000000000000000000000000000000000000000000000008152600401612593906149e7565b60405180910390fd5b806006600084815260200190815260200160002090816125bc919061433b565b507ff8e1a15aba9398e019f0b49df1a4fde98ee17ae345cb5f6b5e2c27f5033e8ce7826040516125ec9190613972565b60405180910390a15050565b600c54341461263c576040517f08c379a000000000000000000000000000000000000000000000000000000000815260040161263390614a79565b60405180910390fd5b6000811161267f576040517f08c379a000000000000000000000000000000000000000000000000000000000815260040161267690614b0b565b60405180910390fd5b6040518060a001604052808381526020013073ffffffffffffffffffffffffffffffffffffffff1681526020013373ffffffffffffffffffffffffffffffffffffffff16815260200182815260200160011515815250600d60008481526020019081526020016000206000820151816000015560208201518160010160006101000a81548173ffffffffffffffffffffffffffffffffffffffff021916908373ffffffffffffffffffffffffffffffffffffffff16021790555060408201518160020160006101000a81548173ffffffffffffffffffffffffffffffffffffffff021916908373ffffffffffffffffffffffffffffffffffffffff1602179055506060820151816003015560808201518160040160006101000a81548160ff0219169083151502179055509050506127b83330846121dc565b817f9339409317fd01fabff48b703019016f49159bacc801ae872d2ca637d226e4c030338460016040516127ef9493929190614b2b565b60405180910390a25050565b600760003373ffffffffffffffffffffffffffffffffffffffff1673ffffffffffffffffffffffffffffffffffffffff16815260200190815260200160002080549050811061287f576040517f08c379a000000000000000000000000000000000000000000000000000000000815260040161287690614bbc565b60405180910390fd5b60008190505b6001600760003373ffffffffffffffffffffffffffffffffffffffff1673ffffffffffffffffffffffffffffffffffffffff168152602001908152602001600020805490506128d49190614bdc565b8110156129f957600760003373ffffffffffffffffffffffffffffffffffffffff1673ffffffffffffffffffffffffffffffffffffffff168152602001908152602001600020600182612927919061472b565b81548110612938576129376146d3565b5b9060005260206000209060040201600760003373ffffffffffffffffffffffffffffffffffffffff1673ffffffffffffffffffffffffffffffffffffffff1681526020019081526020016000208281548110612997576129966146d3565b5b9060005260206000209060040201600082018160000190816129b99190614c26565b5060018201548160010155600282018160020190816129d89190614c26565b506003820154816003015590505080806129f19061443c565b915050612885565b50600760003373ffffffffffffffffffffffffffffffffffffffff1673ffffffffffffffffffffffffffffffffffffffff168152602001908152602001600020805480612a4957612a48614d0e565b5b600190038181906000526020600020906004020160008082016000612a6e9190613433565b6001820160009055600282016000612a869190613433565b60038201600090555050905550565b8173ffffffffffffffffffffffffffffffffffffffff168373ffffffffffffffffffffffffffffffffffffffff1603612b03576040517f08c379a0000000000000000000000000000000000000000000000000000000008152600401612afa90614d89565b60405180910390fd5b80600560008573ffffffffffffffffffffffffffffffffffffffff1673ffffffffffffffffffffffffffffffffffffffff16815260200190815260200160002060008473ffffffffffffffffffffffffffffffffffffffff1673ffffffffffffffffffffffffffffffffffffffff16815260200190815260200160002060006101000a81548160ff0219169083151502179055508173ffffffffffffffffffffffffffffffffffffffff168373ffffffffffffffffffffffffffffffffffffffff167f17307eab39ab6107e8899845ad3d59bd9653f200f220920489ca2b5937696c3183604051612bf49190613544565b60405180910390a3505050565b612c0c8484846121dc565b612c1884848484612dee565b612c57576040517f08c379a0000000000000000000000000000000000000000000000000000000008152600401612c4e90614e1b565b60405180910390fd5b50505050565b606060405180602001604052806000815250905090565b6060612c7f8261203b565b6000612c89612c5d565b90506000815111612ca95760405180602001604052806000815250612cd4565b80612cb384612f75565b604051602001612cc492919061482d565b6040516020818303038152906040525b915050919050565b60007f01ffc9a7000000000000000000000000000000000000000000000000000000007bffffffffffffffffffffffffffffffffffffffffffffffffffffffff1916827bffffffffffffffffffffffffffffffffffffffffffffffffffffffff1916149050919050565b60008073ffffffffffffffffffffffffffffffffffffffff16612d68836124d5565b73ffffffffffffffffffffffffffffffffffffffff1614159050919050565b50505050565b50505050565b612d9d8383613043565b612daa6000848484612dee565b612de9576040517f08c379a0000000000000000000000000000000000000000000000000000000008152600401612de090614e1b565b60405180910390fd5b505050565b6000612e0f8473ffffffffffffffffffffffffffffffffffffffff16613260565b15612f68578373ffffffffffffffffffffffffffffffffffffffff1663150b7a02612e38612086565b8786866040518563ffffffff1660e01b8152600401612e5a9493929190614e90565b6020604051808303816000875af1925050508015612e9657506040513d601f19601f82011682018060405250810190612e939190614ef1565b60015b612f18573d8060008114612ec6576040519150601f19603f3d011682016040523d82523d6000602084013e612ecb565b606091505b506000815103612f10576040517f08c379a0000000000000000000000000000000000000000000000000000000008152600401612f0790614e1b565b60405180910390fd5b805181602001fd5b63150b7a0260e01b7bffffffffffffffffffffffffffffffffffffffffffffffffffffffff1916817bffffffffffffffffffffffffffffffffffffffffffffffffffffffff191614915050612f6d565b600190505b949350505050565b606060006001612f8484613283565b01905060008167ffffffffffffffff811115612fa357612fa2613799565b5b6040519080825280601f01601f191660200182016040528015612fd55781602001600182028036833780820191505090505b509050600082602001820190505b600115613038578080600190039150507f3031323334353637383961626364656600000000000000000000000000000000600a86061a8153600a858161302c5761302b614f1e565b5b04945060008503612fe3575b819350505050919050565b600073ffffffffffffffffffffffffffffffffffffffff168273ffffffffffffffffffffffffffffffffffffffff16036130b2576040517f08c379a00000000000000000000000000000000000000000000000000000000081526004016130a990614f99565b60405180910390fd5b6130bb81612d46565b156130fb576040517f08c379a00000000000000000000000000000000000000000000000000000000081526004016130f290615005565b60405180910390fd5b613109600083836001612d87565b61311281612d46565b15613152576040517f08c379a000000000000000000000000000000000000000000000000000000000815260040161314990615005565b60405180910390fd5b6001600360008473ffffffffffffffffffffffffffffffffffffffff1673ffffffffffffffffffffffffffffffffffffffff16815260200190815260200160002060008282540192505081905550816002600083815260200190815260200160002060006101000a81548173ffffffffffffffffffffffffffffffffffffffff021916908373ffffffffffffffffffffffffffffffffffffffff160217905550808273ffffffffffffffffffffffffffffffffffffffff16600073ffffffffffffffffffffffffffffffffffffffff167fddf252ad1be2c89b69c2b068fc378daa952ba7f163c4a11628f55a4df523b3ef60405160405180910390a461325c600083836001612d8d565b5050565b6000808273ffffffffffffffffffffffffffffffffffffffff163b119050919050565b600080600090507a184f03e93ff9f4daa797ed6e38ed64bf6a1f01000000000000000083106132e1577a184f03e93ff9f4daa797ed6e38ed64bf6a1f01000000000000000083816132d7576132d6614f1e565b5b0492506040810190505b6d04ee2d6d415b85acef8100000000831061331e576d04ee2d6d415b85acef8100000000838161331457613313614f1e565b5b0492506020810190505b662386f26fc10000831061334d57662386f26fc10000838161334357613342614f1e565b5b0492506010810190505b6305f5e1008310613376576305f5e100838161336c5761336b614f1e565b5b0492506008810190505b612710831061339b57612710838161339157613390614f1e565b5b0492506004810190505b606483106133be57606483816133b4576133b3614f1e565b5b0492506002810190505b600a83106133cd576001810190505b80915050919050565b6040518060a0016040528060008152602001600073ffffffffffffffffffffffffffffffffffffffff168152602001600073ffffffffffffffffffffffffffffffffffffffff168152602001600081526020016000151581525090565b50805461343f90613fa8565b6000825580601f106134515750613470565b601f01602090049060005260206000209081019061346f9190613473565b5b50565b5b8082111561348c576000816000905550600101613474565b5090565b6000604051905090565b600080fd5b600080fd5b60007fffffffff0000000000000000000000000000000000000000000000000000000082169050919050565b6134d9816134a4565b81146134e457600080fd5b50565b6000813590506134f6816134d0565b92915050565b6000602082840312156135125761351161349a565b5b6000613520848285016134e7565b91505092915050565b60008115159050919050565b61353e81613529565b82525050565b60006020820190506135596000830184613535565b92915050565b600081519050919050565b600082825260208201905092915050565b60005b8381101561359957808201518184015260208101905061357e565b60008484015250505050565b6000601f19601f8301169050919050565b60006135c18261355f565b6135cb818561356a565b93506135db81856020860161357b565b6135e4816135a5565b840191505092915050565b6000602082019050818103600083015261360981846135b6565b905092915050565b6000819050919050565b61362481613611565b811461362f57600080fd5b50565b6000813590506136418161361b565b92915050565b60006020828403121561365d5761365c61349a565b5b600061366b84828501613632565b91505092915050565b600073ffffffffffffffffffffffffffffffffffffffff82169050919050565b600061369f82613674565b9050919050565b6136af81613694565b82525050565b60006020820190506136ca60008301846136a6565b92915050565b6136d981613694565b81146136e457600080fd5b50565b6000813590506136f6816136d0565b92915050565b600080604083850312156137135761371261349a565b5b6000613721858286016136e7565b925050602061373285828601613632565b9150509250929050565b6000806000606084860312156137555761375461349a565b5b6000613763868287016136e7565b9350506020613774868287016136e7565b925050604061378586828701613632565b9150509250925092565b600080fd5b600080fd5b7f4e487b7100000000000000000000000000000000000000000000000000000000600052604160045260246000fd5b6137d1826135a5565b810181811067ffffffffffffffff821117156137f0576137ef613799565b5b80604052505050565b6000613803613490565b905061380f82826137c8565b919050565b600067ffffffffffffffff82111561382f5761382e613799565b5b613838826135a5565b9050602081019050919050565b82818337600083830152505050565b600061386761386284613814565b6137f9565b90508281526020810184848401111561388357613882613794565b5b61388e848285613845565b509392505050565b600082601f8301126138ab576138aa61378f565b5b81356138bb848260208601613854565b91505092915050565b600080600080608085870312156138de576138dd61349a565b5b600085013567ffffffffffffffff8111156138fc576138fb61349f565b5b61390887828801613896565b945050602061391987828801613632565b935050604085013567ffffffffffffffff81111561393a5761393961349f565b5b61394687828801613896565b925050606061395787828801613632565b91505092959194509250565b61396c81613611565b82525050565b60006020820190506139876000830184613963565b92915050565b6000602082840312156139a3576139a261349a565b5b60006139b1848285016136e7565b91505092915050565b600080604083850312156139d1576139d061349a565b5b600083013567ffffffffffffffff8111156139ef576139ee61349f565b5b6139fb85828601613896565b9250506020613a0c85828601613632565b9150509250929050565b600081519050919050565b600082825260208201905092915050565b6000819050602082019050919050565b600082825260208201905092915050565b6000613a5e8261355f565b613a688185613a42565b9350613a7881856020860161357b565b613a81816135a5565b840191505092915050565b613a9581613611565b82525050565b60006080830160008301518482036000860152613ab88282613a53565b9150506020830151613acd6020860182613a8c565b5060408301518482036040860152613ae58282613a53565b9150506060830151613afa6060860182613a8c565b508091505092915050565b6000613b118383613a9b565b905092915050565b6000602082019050919050565b6000613b3182613a16565b613b3b8185613a21565b935083602082028501613b4d85613a32565b8060005b85811015613b895784840389528151613b6a8582613b05565b9450613b7583613b19565b925060208a01995050600181019050613b51565b50829750879550505050505092915050565b60006020820190508181036000830152613bb58184613b26565b905092915050565b6000613bc882613674565b9050919050565b613bd881613bbd565b82525050565b613be781613529565b82525050565b60a082016000820151613c036000850182613a8c565b506020820151613c166020850182613bcf565b506040820151613c296040850182613bcf565b506060820151613c3c6060850182613a8c565b506080820151613c4f6080850182613bde565b50505050565b600060a082019050613c6a6000830184613bed565b92915050565b613c7981613529565b8114613c8457600080fd5b50565b600081359050613c9681613c70565b92915050565b60008060408385031215613cb357613cb261349a565b5b6000613cc1858286016136e7565b9250506020613cd285828601613c87565b9150509250929050565b600067ffffffffffffffff821115613cf757613cf6613799565b5b613d00826135a5565b9050602081019050919050565b6000613d20613d1b84613cdc565b6137f9565b905082815260208101848484011115613d3c57613d3b613794565b5b613d47848285613845565b509392505050565b600082601f830112613d6457613d6361378f565b5b8135613d74848260208601613d0d565b91505092915050565b60008060008060808587031215613d9757613d9661349a565b5b6000613da5878288016136e7565b9450506020613db6878288016136e7565b9350506040613dc787828801613632565b925050606085013567ffffffffffffffff811115613de857613de761349f565b5b613df487828801613d4f565b91505092959194509250565b600081519050919050565b600082825260208201905092915050565b6000819050602082019050919050565b60a082016000820151613e426000850182613a8c565b506020820151613e556020850182613bcf565b506040820151613e686040850182613bcf565b506060820151613e7b6060850182613a8c565b506080820151613e8e6080850182613bde565b50505050565b6000613ea08383613e2c565b60a08301905092915050565b6000602082019050919050565b6000613ec482613e00565b613ece8185613e0b565b9350613ed983613e1c565b8060005b83811015613f0a578151613ef18882613e94565b9750613efc83613eac565b925050600181019050613edd565b5085935050505092915050565b60006020820190508181036000830152613f318184613eb9565b905092915050565b60008060408385031215613f5057613f4f61349a565b5b6000613f5e858286016136e7565b9250506020613f6f858286016136e7565b9150509250929050565b7f4e487b7100000000000000000000000000000000000000000000000000000000600052602260045260246000fd5b60006002820490506001821680613fc057607f821691505b602082108103613fd357613fd2613f79565b5b50919050565b7f4552433732313a20617070726f76616c20746f2063757272656e74206f776e6560008201527f7200000000000000000000000000000000000000000000000000000000000000602082015250565b600061403560218361356a565b915061404082613fd9565b604082019050919050565b6000602082019050818103600083015261406481614028565b9050919050565b7f4552433732313a20617070726f76652063616c6c6572206973206e6f7420746f60008201527f6b656e206f776e6572206f7220617070726f76656420666f7220616c6c000000602082015250565b60006140c7603d8361356a565b91506140d28261406b565b604082019050919050565b600060208201905081810360008301526140f6816140ba565b9050919050565b7f4552433732313a2063616c6c6572206973206e6f7420746f6b656e206f776e6560008201527f72206f7220617070726f76656400000000000000000000000000000000000000602082015250565b6000614159602d8361356a565b9150614164826140fd565b604082019050919050565b600060208201905081810360008301526141888161414c565b9050919050565b60008190508160005260206000209050919050565b60006020601f8301049050919050565b600082821b905092915050565b6000600883026141f17fffffffffffffffffffffffffffffffffffffffffffffffffffffffffffffffff826141b4565b6141fb86836141b4565b95508019841693508086168417925050509392505050565b6000819050919050565b600061423861423361422e84613611565b614213565b613611565b9050919050565b6000819050919050565b6142528361421d565b61426661425e8261423f565b8484546141c1565b825550505050565b600090565b61427b61426e565b614286818484614249565b505050565b5b818110156142aa5761429f600082614273565b60018101905061428c565b5050565b601f8211156142ef576142c08161418f565b6142c9846141a4565b810160208510156142d8578190505b6142ec6142e4856141a4565b83018261428b565b50505b505050565b600082821c905092915050565b6000614312600019846008026142f4565b1980831691505092915050565b600061432b8383614301565b9150826002028217905092915050565b6143448261355f565b67ffffffffffffffff81111561435d5761435c613799565b5b6143678254613fa8565b6143728282856142ae565b600060209050601f8311600181146143a55760008415614393578287015190505b61439d858261431f565b865550614405565b601f1984166143b38661418f565b60005b828110156143db578489015182556001820191506020850194506020810190506143b6565b868310156143f857848901516143f4601f891682614301565b8355505b6001600288020188555050505b505050505050565b7f4e487b7100000000000000000000000000000000000000000000000000000000600052601160045260246000fd5b600061444782613611565b91507fffffffffffffffffffffffffffffffffffffffffffffffffffffffffffffffff82036144795761447861440d565b5b600182019050919050565b6000608082019050818103600083015261449e81876135b6565b90506144ad6020830186613963565b81810360408301526144bf81856135b6565b90506144ce6060830184613963565b95945050505050565b7f4552433732313a20696e76616c696420746f6b656e2049440000000000000000600082015250565b600061450d60188361356a565b9150614518826144d7565b602082019050919050565b6000602082019050818103600083015261453c81614500565b9050919050565b7f4552433732313a2061646472657373207a65726f206973206e6f74206120766160008201527f6c6964206f776e65720000000000000000000000000000000000000000000000602082015250565b600061459f60298361356a565b91506145aa82614543565b604082019050919050565b600060208201905081810360008301526145ce81614592565b9050919050565b7f506c65617365207375626d6974207468652061736b696e67207072696365206960008201527f6e206f7264657220746f20636f6d706c65746520746865207075726368617365602082015250565b600061463160408361356a565b915061463c826145d5565b604082019050919050565b6000602082019050818103600083015261466081614624565b9050919050565b7f496e76616c6964206361726420696e6465780000000000000000000000000000600082015250565b600061469d60128361356a565b91506146a882614667565b602082019050919050565b600060208201905081810360008301526146cc81614690565b9050919050565b7f4e487b7100000000000000000000000000000000000000000000000000000000600052603260045260246000fd5b600061470d82613611565b9150600082036147205761471f61440d565b5b600182039050919050565b600061473682613611565b915061474183613611565b92508282019050808211156147595761475861440d565b5b92915050565b7f4f6e6c7920746865206f776e65722063616e20706572666f726d20746869732060008201527f616374696f6e0000000000000000000000000000000000000000000000000000602082015250565b60006147bb60268361356a565b91506147c68261475f565b604082019050919050565b600060208201905081810360008301526147ea816147ae565b9050919050565b600081905092915050565b60006148078261355f565b61481181856147f1565b935061482181856020860161357b565b80840191505092915050565b600061483982856147fc565b915061484582846147fc565b91508190509392505050565b7f4552433732313a207472616e736665722066726f6d20696e636f72726563742060008201527f6f776e6572000000000000000000000000000000000000000000000000000000602082015250565b60006148ad60258361356a565b91506148b882614851565b604082019050919050565b600060208201905081810360008301526148dc816148a0565b9050919050565b7f4552433732313a207472616e7366657220746f20746865207a65726f2061646460008201527f7265737300000000000000000000000000000000000000000000000000000000602082015250565b600061493f60248361356a565b915061494a826148e3565b604082019050919050565b6000602082019050818103600083015261496e81614932565b9050919050565b7f45524337323155524953746f726167653a2055524920736574206f66206e6f6e60008201527f6578697374656e7420746f6b656e000000000000000000000000000000000000602082015250565b60006149d1602e8361356a565b91506149dc82614975565b604082019050919050565b60006020820190508181036000830152614a00816149c4565b9050919050565b7f486f706566756c6c792073656e64696e672074686520636f727265637420707260008201527f6963650000000000000000000000000000000000000000000000000000000000602082015250565b6000614a6360238361356a565b9150614a6e82614a07565b604082019050919050565b60006020820190508181036000830152614a9281614a56565b9050919050565b7f4d616b652073757265207468652070726963652069736e2774206e656761746960008201527f7665000000000000000000000000000000000000000000000000000000000000602082015250565b6000614af560228361356a565b9150614b0082614a99565b604082019050919050565b60006020820190508181036000830152614b2481614ae8565b9050919050565b6000608082019050614b4060008301876136a6565b614b4d60208301866136a6565b614b5a6040830185613963565b614b676060830184613535565b95945050505050565b7f496e646578206f7574206f6620626f756e647300000000000000000000000000600082015250565b6000614ba660138361356a565b9150614bb182614b70565b602082019050919050565b60006020820190508181036000830152614bd581614b99565b9050919050565b6000614be782613611565b9150614bf283613611565b9250828203905081811115614c0a57614c0961440d565b5b92915050565b600081549050614c1f81613fa8565b9050919050565b818103614c34575050614d0c565b614c3d82614c10565b67ffffffffffffffff811115614c5657614c55613799565b5b614c608254613fa8565b614c6b8282856142ae565b6000601f831160018114614c9a5760008415614c88578287015490505b614c92858261431f565b865550614d05565b601f198416614ca88761418f565b9650614cb38661418f565b60005b82811015614cdb57848901548255600182019150600185019450602081019050614cb6565b86831015614cf85784890154614cf4601f891682614301565b8355505b6001600288020188555050505b5050505050505b565b7f4e487b7100000000000000000000000000000000000000000000000000000000600052603160045260246000fd5b7f4552433732313a20617070726f766520746f2063616c6c657200000000000000600082015250565b6000614d7360198361356a565b9150614d7e82614d3d565b602082019050919050565b60006020820190508181036000830152614da281614d66565b9050919050565b7f4552433732313a207472616e7366657220746f206e6f6e20455243373231526560008201527f63656976657220696d706c656d656e7465720000000000000000000000000000602082015250565b6000614e0560328361356a565b9150614e1082614da9565b604082019050919050565b60006020820190508181036000830152614e3481614df8565b9050919050565b600081519050919050565b600082825260208201905092915050565b6000614e6282614e3b565b614e6c8185614e46565b9350614e7c81856020860161357b565b614e85816135a5565b840191505092915050565b6000608082019050614ea560008301876136a6565b614eb260208301866136a6565b614ebf6040830185613963565b8181036060830152614ed18184614e57565b905095945050505050565b600081519050614eeb816134d0565b92915050565b600060208284031215614f0757614f0661349a565b5b6000614f1584828501614edc565b91505092915050565b7f4e487b7100000000000000000000000000000000000000000000000000000000600052601260045260246000fd5b7f4552433732313a206d696e7420746f20746865207a65726f2061646472657373600082015250565b6000614f8360208361356a565b9150614f8e82614f4d565b602082019050919050565b60006020820190508181036000830152614fb281614f76565b9050919050565b7f4552433732313a20746f6b656e20616c7265616479206d696e74656400000000600082015250565b6000614fef601c8361356a565b9150614ffa82614fb9565b602082019050919050565b6000602082019050818103600083015261501e81614fe2565b905091905056fea26469706673582212207b3e75024dff7cd039cc517b3bd57f8b88e813cac9799bed896ccea6117c377c64736f6c63430008120033",
  "immutableReferences": {},
  "source": "//SPDX-License-Identifier: Unlicensed\r\npragma solidity ^0.8.0;\r\n\r\nimport \"./../node_modules/@openzeppelin/contracts/token/ERC721/ERC721.sol\"; //TODO: magari si pu chiamare in maniera pi carina\r\nimport \"./../node_modules/@openzeppelin/contracts/token/ERC721//extensions/ERC721URIStorage.sol\"; //TODO: magari si pu chiamare in maniera pi carina\r\nimport \"./../node_modules/@openzeppelin/contracts/utils/Counters.sol\";\r\n\r\ncontract NFTMarketplace is ERC721URIStorage {\r\n    struct Card {\r\n        string name;\r\n        uint256 grade;\r\n        string condition;\r\n        uint256 cardCode;\r\n        // Other variables\r\n    }\r\n\r\n    mapping(address => Card[]) private userCards; // Mapping to register cards for each user\r\n    mapping(address => uint256) private cardCounts; // Mapping to keep track of card counts for each user\r\n\r\n    event CardRegistered(\r\n        address indexed user,\r\n        string name,\r\n        uint256 grade,\r\n        string condition,\r\n        uint256 cardCode\r\n    );\r\n\r\n    event CardTransferred(\r\n        address indexed from,\r\n        address indexed to,\r\n        uint256 cardIndex\r\n    );\r\n\r\n    address payable owner;\r\n    using Counters for Counters.Counter; //It's a datatype\r\n\r\n    //Keep track of the number of tokens created\r\n    Counters.Counter private _tokenIDs;\r\n\r\n    //Keep track of the number of items sold on the marketplace\r\n    Counters.Counter private _itemsSold;\r\n\r\n    uint256 listPrice = 0.01 ether; //Fee of the marketplace\r\n\r\n    struct ListedToken {\r\n        uint256 tokenID;\r\n        address payable owner;\r\n        address payable seller;\r\n        uint256 price;\r\n        bool currentlyListed;\r\n    }\r\n\r\n    //the event emitted when a token is successfully listed\r\n    event TokenListedSuccess(\r\n        uint256 indexed tokenId,\r\n        address owner,\r\n        address seller,\r\n        uint256 price,\r\n        bool currentlyListed\r\n    );\r\n\r\n    mapping(uint256 => ListedToken) private idToListedToken; //create a mapping between the id (incremental) and the associated data of the token (listed Token struct)\r\n\r\n    constructor() ERC721(\"NFTCollectible\", \"NFTC\") {\r\n        owner = payable(msg.sender); //only the owner gets a revenue when the marketplace is used, payable means that this address is eligible to receive some eth\r\n    }\r\n\r\n    // HELPER FUNCTIONS\r\n\r\n    function updateListPrice(uint256 _listPrice) public payable {\r\n        require(owner == msg.sender, \"Only the owner can perform this action\");\r\n        listPrice = _listPrice;\r\n    }\r\n\r\n    function getListPrice() public view returns (uint256) {\r\n        return listPrice;\r\n    }\r\n\r\n    function getLatestIdToListedToken()\r\n        public\r\n        view\r\n        returns (ListedToken memory)\r\n    {\r\n        //memory is an instructional keyboard to create a temporary memory allocation\r\n        uint256 currentTokenId = _tokenIDs.current();\r\n        return idToListedToken[currentTokenId];\r\n    }\r\n\r\n    function getListedForTokenId(\r\n        uint256 tokenId\r\n    ) public view returns (ListedToken memory) {\r\n        return idToListedToken[tokenId];\r\n    }\r\n\r\n    function getCurrentToken() public view returns (uint256) {\r\n        return _tokenIDs.current();\r\n    }\r\n\r\n    //CORE FUNCTIONS\r\n\r\n    // Function to get card count of a user by address\r\n    function getCardCount(address _user) external view returns (uint256) {\r\n        return cardCounts[_user];\r\n    }\r\n\r\n    // Function to transfer a card from one user to another\r\n    function transferCard(address _to, uint256 _cardIndex) external {\r\n        require( // require is used to validate the inputs to the function and throw error if the condition is not met\r\n            _cardIndex < userCards[msg.sender].length,\r\n            \"Invalid card index\"\r\n        );\r\n        Card memory cardToTransfer = userCards[msg.sender][_cardIndex]; // Get the card to transfer\r\n        userCards[_to].push(cardToTransfer); // Push the card to the user to whom it is being transferred\r\n        cardCounts[msg.sender]--; // Reduce the card count of the user from whom the card is being transferred\r\n        cardCounts[_to]++; // Increase the card count of the user to whom the card is being transferred\r\n        removeElement(_cardIndex); // Delete the card from the user from whom the card is being transferred\r\n        emit CardTransferred(msg.sender, _to, _cardIndex); // Emit the event to notify the transfer\r\n    }\r\n\r\n    // Function to get all cards of a user by address\r\n    function getUserCards(address _user) external view returns (Card[] memory) {\r\n        // view means that this function will not modify the state of the contract\r\n        return userCards[_user];\r\n    }\r\n\r\n    function removeElement(uint256 _cardIndex) internal {\r\n        require(\r\n            _cardIndex < userCards[msg.sender].length,\r\n            \"Index out of bounds\"\r\n        );\r\n\r\n        // Shift elements to the left starting from the element to be removed\r\n        for (uint i = _cardIndex; i < userCards[msg.sender].length - 1; i++) {\r\n            //FORSE USA TROPPO GAS --> da approfondire\r\n            userCards[msg.sender][i] = userCards[msg.sender][i + 1];\r\n        }\r\n\r\n        // Resize the array by deleting the last element\r\n        userCards[msg.sender].pop();\r\n    }\r\n\r\n    //Top level function when creating a token for the first time\r\n    function createToken(\r\n        string memory tokenURI,\r\n        uint256 price\r\n    ) public payable returns (uint) {\r\n        _tokenIDs.increment();\r\n        uint256 currentTokenId = _tokenIDs.current();\r\n        _safeMint(msg.sender, currentTokenId);\r\n        _setTokenURI(currentTokenId, tokenURI);\r\n\r\n        createListedToken(currentTokenId, price);\r\n\r\n        return currentTokenId;\r\n    }\r\n\r\n    function registerCard(\r\n        string memory _name,\r\n        uint256 _grade,\r\n        string memory _condition,\r\n        uint256 _cardCode\r\n    ) external {\r\n        Card memory newCard = Card(_name, _grade, _condition, _cardCode);\r\n        userCards[msg.sender].push(newCard);\r\n        cardCounts[msg.sender]++;\r\n        emit CardRegistered(msg.sender, _name, _grade, _condition, _cardCode);\r\n    }\r\n\r\n    //Helps create the object of type ListedToken for the NFT and update the idToListedToken mapping\r\n    function createListedToken(uint256 tokenID, uint256 price) private {\r\n        require(msg.value == listPrice, \"Hopefully sending the correct price\");\r\n        //Just sanity check\r\n        require(price > 0, \"Make sure the price isn't negative\");\r\n        idToListedToken[tokenID] = ListedToken(\r\n            tokenID,\r\n            payable(address(this)),\r\n            payable(msg.sender),\r\n            price,\r\n            true\r\n        );\r\n        _transfer(msg.sender, address(this), tokenID);\r\n\r\n        emit TokenListedSuccess(\r\n            tokenID,\r\n            address(this),\r\n            msg.sender,\r\n            price,\r\n            true\r\n        );\r\n    }\r\n\r\n    //Get all the NFTs currently listed for sale on the marketplace --> DA MODIFICARE\r\n    function getAllNFTs() public view returns (ListedToken[] memory) {\r\n        uint nftCount = _tokenIDs.current();\r\n        ListedToken[] memory tokens = new ListedToken[](nftCount);\r\n\r\n        uint currentIndex = 0;\r\n\r\n        for (uint i = 0; i < nftCount; i++) {\r\n            uint currentId = i + 1;\r\n            ListedToken storage currentItem = idToListedToken[currentId];\r\n            tokens[currentIndex] = currentItem;\r\n            currentIndex += 1;\r\n        }\r\n\r\n        return tokens;\r\n    }\r\n\r\n    //Get all the NFTs of the user on the marketplace --> DA MODIFICARE\r\n    function getAllMyNFTs() public view returns (ListedToken[] memory) {\r\n        uint totalItemCount = _tokenIDs.current();\r\n        uint itemCount = 0;\r\n        uint currentIndex = 0;\r\n        uint currentId;\r\n        //Important to get a count of all the NFTs that belong to the user before we can make an array for them\r\n        for (uint i = 0; i < totalItemCount; i++) {\r\n            if (\r\n                idToListedToken[i + 1].owner == msg.sender ||\r\n                idToListedToken[i + 1].seller == msg.sender\r\n            ) {\r\n                itemCount += 1;\r\n            }\r\n        }\r\n\r\n        //Once you have the count of relevant NFTs, create an array then store all the NFTs in it\r\n        ListedToken[] memory items = new ListedToken[](itemCount);\r\n        for (uint i = 0; i < totalItemCount; i++) {\r\n            if (\r\n                idToListedToken[i + 1].owner == msg.sender ||\r\n                idToListedToken[i + 1].seller == msg.sender\r\n            ) {\r\n                currentId = i + 1;\r\n                ListedToken storage currentItem = idToListedToken[currentId];\r\n                items[currentIndex] = currentItem;\r\n                currentIndex += 1;\r\n            }\r\n        }\r\n        return items;\r\n    }\r\n\r\n    //The function that executes the sale on the marketplace --> DA MODIFICARE\r\n    function executeSale(uint256 tokenId) public payable {\r\n        uint price = idToListedToken[tokenId].price;\r\n        address seller = idToListedToken[tokenId].seller;\r\n        require(\r\n            msg.value == price,\r\n            \"Please submit the asking price in order to complete the purchase\"\r\n        );\r\n\r\n        //update the details of the token\r\n        idToListedToken[tokenId].currentlyListed = true;\r\n        idToListedToken[tokenId].seller = payable(msg.sender);\r\n        //_itemsSold.increment();\r\n\r\n        //Actually transfer the token to the new owner\r\n        _transfer(address(this), msg.sender, tokenId);\r\n        //approve the marketplace to sell NFTs on your behalf\r\n        approve(address(this), tokenId);\r\n\r\n        //Transfer the listing fee to the marketplace creator\r\n        payable(owner).transfer(listPrice);\r\n        //Transfer the proceeds from the sale to the seller of the NFT\r\n        payable(seller).transfer(msg.value);\r\n    }\r\n}\r\n",
  "sourcePath": "C:\\Users\\Giacomo\\Desktop\\Blockchain\\blockchain-authenticator\\project\\truffle\\contracts\\NFTMarketplace.sol",
  "compiler": {
    "name": "solc",
    "version": "0.8.18+commit.87f61d96.Emscripten.clang"
  },
  "schemaVersion": "3.4.14",
  "updatedAt": "2023-07-07T07:59:51.424Z",
  "networkType": "ethereum",
  "devdoc": {
    "events": {
      "Approval(address,address,uint256)": {
        "details": "Emitted when `owner` enables `approved` to manage the `tokenId` token."
      },
      "ApprovalForAll(address,address,bool)": {
        "details": "Emitted when `owner` enables or disables (`approved`) `operator` to manage all of its assets."
      },
      "BatchMetadataUpdate(uint256,uint256)": {
        "details": "This event emits when the metadata of a range of tokens is changed. So that the third-party platforms such as NFT market could timely update the images and related attributes of the NFTs."
      },
      "MetadataUpdate(uint256)": {
        "details": "This event emits when the metadata of a token is changed. So that the third-party platforms such as NFT market could timely update the images and related attributes of the NFT."
      },
      "Transfer(address,address,uint256)": {
        "details": "Emitted when `tokenId` token is transferred from `from` to `to`."
      }
    },
    "kind": "dev",
    "methods": {
      "approve(address,uint256)": {
        "details": "See {IERC721-approve}."
      },
      "balanceOf(address)": {
        "details": "See {IERC721-balanceOf}."
      },
      "getApproved(uint256)": {
        "details": "See {IERC721-getApproved}."
      },
      "isApprovedForAll(address,address)": {
        "details": "See {IERC721-isApprovedForAll}."
      },
      "name()": {
        "details": "See {IERC721Metadata-name}."
      },
      "ownerOf(uint256)": {
        "details": "See {IERC721-ownerOf}."
      },
      "safeTransferFrom(address,address,uint256)": {
        "details": "See {IERC721-safeTransferFrom}."
      },
      "safeTransferFrom(address,address,uint256,bytes)": {
        "details": "See {IERC721-safeTransferFrom}."
      },
      "setApprovalForAll(address,bool)": {
        "details": "See {IERC721-setApprovalForAll}."
      },
      "supportsInterface(bytes4)": {
        "details": "See {IERC165-supportsInterface}"
      },
      "symbol()": {
        "details": "See {IERC721Metadata-symbol}."
      },
      "tokenURI(uint256)": {
        "details": "See {IERC721Metadata-tokenURI}."
      },
      "transferFrom(address,address,uint256)": {
        "details": "See {IERC721-transferFrom}."
      }
    },
    "version": 1
  },
  "userdoc": {
    "kind": "user",
    "methods": {},
    "version": 1
  }
}