{
  "contractName": "NFTMarketplace",
  "abi": [
    {
      "inputs": [],
      "stateMutability": "nonpayable",
      "type": "constructor"
    },
    {
      "anonymous": false,
      "inputs": [
        {
          "indexed": true,
          "internalType": "address",
          "name": "owner",
          "type": "address"
        },
        {
          "indexed": true,
          "internalType": "address",
          "name": "approved",
          "type": "address"
        },
        {
          "indexed": true,
          "internalType": "uint256",
          "name": "tokenId",
          "type": "uint256"
        }
      ],
      "name": "Approval",
      "type": "event"
    },
    {
      "anonymous": false,
      "inputs": [
        {
          "indexed": true,
          "internalType": "address",
          "name": "owner",
          "type": "address"
        },
        {
          "indexed": true,
          "internalType": "address",
          "name": "operator",
          "type": "address"
        },
        {
          "indexed": false,
          "internalType": "bool",
          "name": "approved",
          "type": "bool"
        }
      ],
      "name": "ApprovalForAll",
      "type": "event"
    },
    {
      "anonymous": false,
      "inputs": [
        {
          "indexed": false,
          "internalType": "uint256",
          "name": "_fromTokenId",
          "type": "uint256"
        },
        {
          "indexed": false,
          "internalType": "uint256",
          "name": "_toTokenId",
          "type": "uint256"
        }
      ],
      "name": "BatchMetadataUpdate",
      "type": "event"
    },
    {
      "anonymous": false,
      "inputs": [
        {
          "indexed": true,
          "internalType": "address",
          "name": "user",
          "type": "address"
        },
        {
          "indexed": false,
          "internalType": "string",
          "name": "name",
          "type": "string"
        },
        {
          "indexed": false,
          "internalType": "uint256",
          "name": "grade",
          "type": "uint256"
        },
        {
          "indexed": false,
          "internalType": "string",
          "name": "condition",
          "type": "string"
        },
        {
          "indexed": false,
          "internalType": "uint256",
          "name": "cardCode",
          "type": "uint256"
        }
      ],
      "name": "CardRegistered",
      "type": "event"
    },
    {
      "anonymous": false,
      "inputs": [
        {
          "indexed": true,
          "internalType": "address",
          "name": "from",
          "type": "address"
        },
        {
          "indexed": true,
          "internalType": "address",
          "name": "to",
          "type": "address"
        },
        {
          "indexed": false,
          "internalType": "uint256",
          "name": "cardIndex",
          "type": "uint256"
        }
      ],
      "name": "CardTransferred",
      "type": "event"
    },
    {
      "anonymous": false,
      "inputs": [
        {
          "indexed": false,
          "internalType": "uint256",
          "name": "_tokenId",
          "type": "uint256"
        }
      ],
      "name": "MetadataUpdate",
      "type": "event"
    },
    {
      "anonymous": false,
      "inputs": [
        {
          "indexed": true,
          "internalType": "uint256",
          "name": "tokenId",
          "type": "uint256"
        },
        {
          "indexed": false,
          "internalType": "address",
          "name": "owner",
          "type": "address"
        },
        {
          "indexed": false,
          "internalType": "address",
          "name": "seller",
          "type": "address"
        },
        {
          "indexed": false,
          "internalType": "uint256",
          "name": "price",
          "type": "uint256"
        },
        {
          "indexed": false,
          "internalType": "bool",
          "name": "currentlyListed",
          "type": "bool"
        }
      ],
      "name": "TokenListedSuccess",
      "type": "event"
    },
    {
      "anonymous": false,
      "inputs": [
        {
          "indexed": true,
          "internalType": "address",
          "name": "from",
          "type": "address"
        },
        {
          "indexed": true,
          "internalType": "address",
          "name": "to",
          "type": "address"
        },
        {
          "indexed": true,
          "internalType": "uint256",
          "name": "tokenId",
          "type": "uint256"
        }
      ],
      "name": "Transfer",
      "type": "event"
    },
    {
      "inputs": [
        {
          "internalType": "address",
          "name": "to",
          "type": "address"
        },
        {
          "internalType": "uint256",
          "name": "tokenId",
          "type": "uint256"
        }
      ],
      "name": "approve",
      "outputs": [],
      "stateMutability": "nonpayable",
      "type": "function"
    },
    {
      "inputs": [
        {
          "internalType": "address",
          "name": "owner",
          "type": "address"
        }
      ],
      "name": "balanceOf",
      "outputs": [
        {
          "internalType": "uint256",
          "name": "",
          "type": "uint256"
        }
      ],
      "stateMutability": "view",
      "type": "function",
      "constant": true
    },
    {
      "inputs": [
        {
          "internalType": "uint256",
          "name": "tokenId",
          "type": "uint256"
        }
      ],
      "name": "getApproved",
      "outputs": [
        {
          "internalType": "address",
          "name": "",
          "type": "address"
        }
      ],
      "stateMutability": "view",
      "type": "function",
      "constant": true
    },
    {
      "inputs": [
        {
          "internalType": "address",
          "name": "owner",
          "type": "address"
        },
        {
          "internalType": "address",
          "name": "operator",
          "type": "address"
        }
      ],
      "name": "isApprovedForAll",
      "outputs": [
        {
          "internalType": "bool",
          "name": "",
          "type": "bool"
        }
      ],
      "stateMutability": "view",
      "type": "function",
      "constant": true
    },
    {
      "inputs": [],
      "name": "name",
      "outputs": [
        {
          "internalType": "string",
          "name": "",
          "type": "string"
        }
      ],
      "stateMutability": "view",
      "type": "function",
      "constant": true
    },
    {
      "inputs": [
        {
          "internalType": "uint256",
          "name": "tokenId",
          "type": "uint256"
        }
      ],
      "name": "ownerOf",
      "outputs": [
        {
          "internalType": "address",
          "name": "",
          "type": "address"
        }
      ],
      "stateMutability": "view",
      "type": "function",
      "constant": true
    },
    {
      "inputs": [
        {
          "internalType": "address",
          "name": "from",
          "type": "address"
        },
        {
          "internalType": "address",
          "name": "to",
          "type": "address"
        },
        {
          "internalType": "uint256",
          "name": "tokenId",
          "type": "uint256"
        }
      ],
      "name": "safeTransferFrom",
      "outputs": [],
      "stateMutability": "nonpayable",
      "type": "function"
    },
    {
      "inputs": [
        {
          "internalType": "address",
          "name": "from",
          "type": "address"
        },
        {
          "internalType": "address",
          "name": "to",
          "type": "address"
        },
        {
          "internalType": "uint256",
          "name": "tokenId",
          "type": "uint256"
        },
        {
          "internalType": "bytes",
          "name": "data",
          "type": "bytes"
        }
      ],
      "name": "safeTransferFrom",
      "outputs": [],
      "stateMutability": "nonpayable",
      "type": "function"
    },
    {
      "inputs": [
        {
          "internalType": "address",
          "name": "operator",
          "type": "address"
        },
        {
          "internalType": "bool",
          "name": "approved",
          "type": "bool"
        }
      ],
      "name": "setApprovalForAll",
      "outputs": [],
      "stateMutability": "nonpayable",
      "type": "function"
    },
    {
      "inputs": [
        {
          "internalType": "bytes4",
          "name": "interfaceId",
          "type": "bytes4"
        }
      ],
      "name": "supportsInterface",
      "outputs": [
        {
          "internalType": "bool",
          "name": "",
          "type": "bool"
        }
      ],
      "stateMutability": "view",
      "type": "function",
      "constant": true
    },
    {
      "inputs": [],
      "name": "symbol",
      "outputs": [
        {
          "internalType": "string",
          "name": "",
          "type": "string"
        }
      ],
      "stateMutability": "view",
      "type": "function",
      "constant": true
    },
    {
      "inputs": [
        {
          "internalType": "uint256",
          "name": "tokenId",
          "type": "uint256"
        }
      ],
      "name": "tokenURI",
      "outputs": [
        {
          "internalType": "string",
          "name": "",
          "type": "string"
        }
      ],
      "stateMutability": "view",
      "type": "function",
      "constant": true
    },
    {
      "inputs": [
        {
          "internalType": "address",
          "name": "from",
          "type": "address"
        },
        {
          "internalType": "address",
          "name": "to",
          "type": "address"
        },
        {
          "internalType": "uint256",
          "name": "tokenId",
          "type": "uint256"
        }
      ],
      "name": "transferFrom",
      "outputs": [],
      "stateMutability": "nonpayable",
      "type": "function"
    },
    {
      "inputs": [
        {
          "internalType": "uint256",
          "name": "_listPrice",
          "type": "uint256"
        }
      ],
      "name": "updateListPrice",
      "outputs": [],
      "stateMutability": "payable",
      "type": "function",
      "payable": true
    },
    {
      "inputs": [],
      "name": "getListPrice",
      "outputs": [
        {
          "internalType": "uint256",
          "name": "",
          "type": "uint256"
        }
      ],
      "stateMutability": "view",
      "type": "function",
      "constant": true
    },
    {
      "inputs": [],
      "name": "getLatestIdToListedToken",
      "outputs": [
        {
          "components": [
            {
              "internalType": "uint256",
              "name": "tokenID",
              "type": "uint256"
            },
            {
              "internalType": "address payable",
              "name": "owner",
              "type": "address"
            },
            {
              "internalType": "address payable",
              "name": "seller",
              "type": "address"
            },
            {
              "internalType": "uint256",
              "name": "price",
              "type": "uint256"
            },
            {
              "internalType": "bool",
              "name": "currentlyListed",
              "type": "bool"
            }
          ],
          "internalType": "struct NFTMarketplace.ListedToken",
          "name": "",
          "type": "tuple"
        }
      ],
      "stateMutability": "view",
      "type": "function",
      "constant": true
    },
    {
      "inputs": [
        {
          "internalType": "uint256",
          "name": "tokenId",
          "type": "uint256"
        }
      ],
      "name": "getListedForTokenId",
      "outputs": [
        {
          "components": [
            {
              "internalType": "uint256",
              "name": "tokenID",
              "type": "uint256"
            },
            {
              "internalType": "address payable",
              "name": "owner",
              "type": "address"
            },
            {
              "internalType": "address payable",
              "name": "seller",
              "type": "address"
            },
            {
              "internalType": "uint256",
              "name": "price",
              "type": "uint256"
            },
            {
              "internalType": "bool",
              "name": "currentlyListed",
              "type": "bool"
            }
          ],
          "internalType": "struct NFTMarketplace.ListedToken",
          "name": "",
          "type": "tuple"
        }
      ],
      "stateMutability": "view",
      "type": "function",
      "constant": true
    },
    {
      "inputs": [],
      "name": "getCurrentToken",
      "outputs": [
        {
          "internalType": "uint256",
          "name": "",
          "type": "uint256"
        }
      ],
      "stateMutability": "view",
      "type": "function",
      "constant": true
    },
    {
      "inputs": [
        {
          "internalType": "address",
          "name": "_user",
          "type": "address"
        }
      ],
      "name": "getCardCount",
      "outputs": [
        {
          "internalType": "uint256",
          "name": "",
          "type": "uint256"
        }
      ],
      "stateMutability": "view",
      "type": "function",
      "constant": true
    },
    {
      "inputs": [],
      "name": "getAllCardsCount",
      "outputs": [
        {
          "internalType": "uint256",
          "name": "",
          "type": "uint256"
        }
      ],
      "stateMutability": "view",
      "type": "function",
      "constant": true
    },
    {
      "inputs": [
        {
          "internalType": "address",
          "name": "_to",
          "type": "address"
        },
        {
          "internalType": "uint256",
          "name": "_cardIndex",
          "type": "uint256"
        }
      ],
      "name": "transferCard",
      "outputs": [],
      "stateMutability": "nonpayable",
      "type": "function"
    },
    {
      "inputs": [
        {
          "internalType": "address",
          "name": "_user",
          "type": "address"
        }
      ],
      "name": "getUserCards",
      "outputs": [
        {
          "components": [
            {
              "internalType": "string",
              "name": "name",
              "type": "string"
            },
            {
              "internalType": "uint256",
              "name": "grade",
              "type": "uint256"
            },
            {
              "internalType": "string",
              "name": "condition",
              "type": "string"
            },
            {
              "internalType": "uint256",
              "name": "cardCode",
              "type": "uint256"
            }
          ],
          "internalType": "struct NFTMarketplace.Card[]",
          "name": "",
          "type": "tuple[]"
        }
      ],
      "stateMutability": "view",
      "type": "function",
      "constant": true
    },
    {
      "inputs": [],
      "name": "getAllUserCards",
      "outputs": [
        {
          "components": [
            {
              "internalType": "string",
              "name": "name",
              "type": "string"
            },
            {
              "internalType": "uint256",
              "name": "grade",
              "type": "uint256"
            },
            {
              "internalType": "string",
              "name": "condition",
              "type": "string"
            },
            {
              "internalType": "uint256",
              "name": "cardCode",
              "type": "uint256"
            }
          ],
          "internalType": "struct NFTMarketplace.Card[]",
          "name": "",
          "type": "tuple[]"
        }
      ],
      "stateMutability": "view",
      "type": "function",
      "constant": true
    },
    {
      "inputs": [
        {
          "internalType": "string",
          "name": "tokenURI",
          "type": "string"
        },
        {
          "internalType": "uint256",
          "name": "price",
          "type": "uint256"
        }
      ],
      "name": "createToken",
      "outputs": [
        {
          "internalType": "uint256",
          "name": "",
          "type": "uint256"
        }
      ],
      "stateMutability": "payable",
      "type": "function",
      "payable": true
    },
    {
      "inputs": [
        {
          "internalType": "string",
          "name": "_name",
          "type": "string"
        },
        {
          "internalType": "uint256",
          "name": "_grade",
          "type": "uint256"
        },
        {
          "internalType": "string",
          "name": "_condition",
          "type": "string"
        },
        {
          "internalType": "uint256",
          "name": "_cardCode",
          "type": "uint256"
        }
      ],
      "name": "registerCard",
      "outputs": [],
      "stateMutability": "nonpayable",
      "type": "function"
    },
    {
      "inputs": [],
      "name": "getAllNFTs",
      "outputs": [
        {
          "components": [
            {
              "internalType": "uint256",
              "name": "tokenID",
              "type": "uint256"
            },
            {
              "internalType": "address payable",
              "name": "owner",
              "type": "address"
            },
            {
              "internalType": "address payable",
              "name": "seller",
              "type": "address"
            },
            {
              "internalType": "uint256",
              "name": "price",
              "type": "uint256"
            },
            {
              "internalType": "bool",
              "name": "currentlyListed",
              "type": "bool"
            }
          ],
          "internalType": "struct NFTMarketplace.ListedToken[]",
          "name": "",
          "type": "tuple[]"
        }
      ],
      "stateMutability": "view",
      "type": "function",
      "constant": true
    },
    {
      "inputs": [],
      "name": "getMyNFTs",
      "outputs": [
        {
          "components": [
            {
              "internalType": "uint256",
              "name": "tokenID",
              "type": "uint256"
            },
            {
              "internalType": "address payable",
              "name": "owner",
              "type": "address"
            },
            {
              "internalType": "address payable",
              "name": "seller",
              "type": "address"
            },
            {
              "internalType": "uint256",
              "name": "price",
              "type": "uint256"
            },
            {
              "internalType": "bool",
              "name": "currentlyListed",
              "type": "bool"
            }
          ],
          "internalType": "struct NFTMarketplace.ListedToken[]",
          "name": "",
          "type": "tuple[]"
        }
      ],
      "stateMutability": "view",
      "type": "function",
      "constant": true
    },
    {
      "inputs": [
        {
          "internalType": "uint256",
          "name": "tokenId",
          "type": "uint256"
        }
      ],
      "name": "executeSale",
      "outputs": [],
      "stateMutability": "payable",
      "type": "function",
      "payable": true
    }
  ],
  "bytecode": "0x6080604052662386f26fc10000600e553480156200001c57600080fd5b506040518060400160405280600e81526020017f4e4654436f6c6c65637469626c650000000000000000000000000000000000008152506040518060400160405280600481526020017f4e4654430000000000000000000000000000000000000000000000000000000081525081600090816200009a919062000370565b508060019081620000ac919062000370565b50505033600b60006101000a81548173ffffffffffffffffffffffffffffffffffffffff021916908373ffffffffffffffffffffffffffffffffffffffff16021790555062000457565b600081519050919050565b7f4e487b7100000000000000000000000000000000000000000000000000000000600052604160045260246000fd5b7f4e487b7100000000000000000000000000000000000000000000000000000000600052602260045260246000fd5b600060028204905060018216806200017857607f821691505b6020821081036200018e576200018d62000130565b5b50919050565b60008190508160005260206000209050919050565b60006020601f8301049050919050565b600082821b905092915050565b600060088302620001f87fffffffffffffffffffffffffffffffffffffffffffffffffffffffffffffffff82620001b9565b620002048683620001b9565b95508019841693508086168417925050509392505050565b6000819050919050565b6000819050919050565b6000620002516200024b62000245846200021c565b62000226565b6200021c565b9050919050565b6000819050919050565b6200026d8362000230565b620002856200027c8262000258565b848454620001c6565b825550505050565b600090565b6200029c6200028d565b620002a981848462000262565b505050565b5b81811015620002d157620002c560008262000292565b600181019050620002af565b5050565b601f8211156200032057620002ea8162000194565b620002f584620001a9565b8101602085101562000305578190505b6200031d6200031485620001a9565b830182620002ae565b50505b505050565b600082821c905092915050565b6000620003456000198460080262000325565b1980831691505092915050565b600062000360838362000332565b9150826002028217905092915050565b6200037b82620000f6565b67ffffffffffffffff81111562000397576200039662000101565b5b620003a382546200015f565b620003b0828285620002d5565b600060209050601f831160018114620003e85760008415620003d3578287015190505b620003df858262000352565b8655506200044f565b601f198416620003f88662000194565b60005b828110156200042257848901518255600182019150602085019450602081019050620003fb565b868310156200044257848901516200043e601f89168262000332565b8355505b6001600288020188555050505b505050505050565b61531b80620004676000396000f3fe6080604052600436106101b75760003560e01c806398c3df16116100ec578063c87b56dd1161008a578063dce0b58611610064578063dce0b5861461061b578063e0391b0914610658578063e985e9c514610683578063ef2d1746146106c0576101b7565b8063c87b56dd14610588578063c94f23bf146105c5578063d1a88ae5146105f0576101b7565b8063a22cb465116100c6578063a22cb465146104ef578063b226007314610518578063b88d4fde14610543578063c322579c1461056c576101b7565b806398c3df161461046d5780639b1225c4146104aa5780639b81a359146104c6576101b7565b8063629cb2e41161015957806370a082311161013357806370a082311461039857806372b3b620146103d557806388d9f40d1461040557806395d89b4114610442576101b7565b8063629cb2e4146103055780636352211e1461033057806368f1945f1461036d576101b7565b8063095ea7b311610195578063095ea7b31461026157806323b872dd1461028a57806342842e0e146102b357806354fadade146102dc576101b7565b806301ffc9a7146101bc57806306fdde03146101f9578063081812fc14610224575b600080fd5b3480156101c857600080fd5b506101e360048036038101906101de91906137bc565b6106eb565b6040516101f09190613804565b60405180910390f35b34801561020557600080fd5b5061020e61074c565b60405161021b91906138af565b60405180910390f35b34801561023057600080fd5b5061024b60048036038101906102469190613907565b6107de565b6040516102589190613975565b60405180910390f35b34801561026d57600080fd5b50610288600480360381019061028391906139bc565b610824565b005b34801561029657600080fd5b506102b160048036038101906102ac91906139fc565b61093b565b005b3480156102bf57600080fd5b506102da60048036038101906102d591906139fc565b61099b565b005b3480156102e857600080fd5b5061030360048036038101906102fe9190613b84565b6109bb565b005b34801561031157600080fd5b5061031a610bc1565b6040516103279190613d79565b60405180910390f35b34801561033c57600080fd5b5061035760048036038101906103529190613907565b610fa2565b6040516103649190613975565b60405180910390f35b34801561037957600080fd5b50610382611028565b60405161038f9190613daa565b60405180910390f35b3480156103a457600080fd5b506103bf60048036038101906103ba9190613dc5565b611032565b6040516103cc9190613daa565b60405180910390f35b6103ef60048036038101906103ea9190613df2565b6110e9565b6040516103fc9190613daa565b60405180910390f35b34801561041157600080fd5b5061042c60048036038101906104279190613dc5565b61112b565b6040516104399190613fc4565b60405180910390f35b34801561044e57600080fd5b50610457611301565b60405161046491906138af565b60405180910390f35b34801561047957600080fd5b50610494600480360381019061048f9190613907565b611393565b6040516104a1919061404e565b60405180910390f35b6104c460048036038101906104bf9190613907565b61149b565b005b3480156104d257600080fd5b506104ed60048036038101906104e891906139bc565b61168d565b005b3480156104fb57600080fd5b5061051660048036038101906105119190614095565b611a7f565b005b34801561052457600080fd5b5061052d611a95565b60405161053a9190613daa565b60405180910390f35b34801561054f57600080fd5b5061056a60048036038101906105659190614176565b611a9f565b005b61058660048036038101906105819190613907565b611b01565b005b34801561059457600080fd5b506105af60048036038101906105aa9190613907565b611b9b565b6040516105bc91906138af565b60405180910390f35b3480156105d157600080fd5b506105da611cad565b6040516105e79190613fc4565b60405180910390f35b3480156105fc57600080fd5b50610605611e44565b604051610612919061404e565b60405180910390f35b34801561062757600080fd5b50610642600480360381019061063d9190613dc5565b611f59565b60405161064f9190613daa565b60405180910390f35b34801561066457600080fd5b5061066d611fa2565b60405161067a9190613d79565b60405180910390f35b34801561068f57600080fd5b506106aa60048036038101906106a591906141f9565b612174565b6040516106b79190613804565b60405180910390f35b3480156106cc57600080fd5b506106d5612208565b6040516106e29190613daa565b60405180910390f35b6000634906490660e01b7bffffffffffffffffffffffffffffffffffffffffffffffffffffffff1916827bffffffffffffffffffffffffffffffffffffffffffffffffffffffff19161480610745575061074482612219565b5b9050919050565b60606000805461075b90614268565b80601f016020809104026020016040519081016040528092919081815260200182805461078790614268565b80156107d45780601f106107a9576101008083540402835291602001916107d4565b820191906000526020600020905b8154815290600101906020018083116107b757829003601f168201915b5050505050905090565b60006107e9826122fb565b6004600083815260200190815260200160002060009054906101000a900473ffffffffffffffffffffffffffffffffffffffff169050919050565b600061082f82610fa2565b90508073ffffffffffffffffffffffffffffffffffffffff168373ffffffffffffffffffffffffffffffffffffffff160361089f576040517f08c379a00000000000000000000000000000000000000000000000000000000081526004016108969061430b565b60405180910390fd5b8073ffffffffffffffffffffffffffffffffffffffff166108be612346565b73ffffffffffffffffffffffffffffffffffffffff1614806108ed57506108ec816108e7612346565b612174565b5b61092c576040517f08c379a00000000000000000000000000000000000000000000000000000000081526004016109239061439d565b60405180910390fd5b610936838361234e565b505050565b61094c610946612346565b82612407565b61098b576040517f08c379a00000000000000000000000000000000000000000000000000000000081526004016109829061442f565b60405180910390fd5b61099683838361249c565b505050565b6109b683838360405180602001604052806000815250611a9f565b505050565b60006040518060800160405280868152602001858152602001848152602001838152509050600760003373ffffffffffffffffffffffffffffffffffffffff1673ffffffffffffffffffffffffffffffffffffffff1681526020019081526020016000208190806001815401808255809150506001900390600052602060002090600402016000909190919091506000820151816000019081610a5e91906145fb565b50602082015181600101556040820151816002019081610a7e91906145fb565b5060608201518160030155505060098190806001815401808255809150506001900390600052602060002090600402016000909190919091506000820151816000019081610acc91906145fb565b50602082015181600101556040820151816002019081610aec91906145fb565b50606082015181600301555050600a6000815480929190610b0c906146fc565b9190505550600860003373ffffffffffffffffffffffffffffffffffffffff1673ffffffffffffffffffffffffffffffffffffffff1681526020019081526020016000206000815480929190610b61906146fc565b91905055503373ffffffffffffffffffffffffffffffffffffffff167f68d3d09406fd14307953e11d4a9a7463946fd5c3f39e80464be22f34cf3a0b0b86868686604051610bb29493929190614744565b60405180910390a25050505050565b60606000610bcf600c612795565b9050600080600080600090505b84811015610cf5573373ffffffffffffffffffffffffffffffffffffffff16600f6000600184610c0c9190614797565b815260200190815260200160002060010160009054906101000a900473ffffffffffffffffffffffffffffffffffffffff1673ffffffffffffffffffffffffffffffffffffffff161480610ccd57503373ffffffffffffffffffffffffffffffffffffffff16600f6000600184610c839190614797565b815260200190815260200160002060020160009054906101000a900473ffffffffffffffffffffffffffffffffffffffff1673ffffffffffffffffffffffffffffffffffffffff16145b15610ce257600184610cdf9190614797565b93505b8080610ced906146fc565b915050610bdc565b5060008367ffffffffffffffff811115610d1257610d11613a59565b5b604051908082528060200260200182016040528015610d4b57816020015b610d38613696565b815260200190600190039081610d305790505b50905060005b85811015610f96573373ffffffffffffffffffffffffffffffffffffffff16600f6000600184610d819190614797565b815260200190815260200160002060010160009054906101000a900473ffffffffffffffffffffffffffffffffffffffff1673ffffffffffffffffffffffffffffffffffffffff161480610e4257503373ffffffffffffffffffffffffffffffffffffffff16600f6000600184610df89190614797565b815260200190815260200160002060020160009054906101000a900473ffffffffffffffffffffffffffffffffffffffff1673ffffffffffffffffffffffffffffffffffffffff16145b15610f8357600181610e549190614797565b92506000600f60008581526020019081526020016000209050806040518060a0016040529081600082015481526020016001820160009054906101000a900473ffffffffffffffffffffffffffffffffffffffff1673ffffffffffffffffffffffffffffffffffffffff1673ffffffffffffffffffffffffffffffffffffffff1681526020016002820160009054906101000a900473ffffffffffffffffffffffffffffffffffffffff1673ffffffffffffffffffffffffffffffffffffffff1673ffffffffffffffffffffffffffffffffffffffff168152602001600382015481526020016004820160009054906101000a900460ff161515151581525050838681518110610f6757610f666147cb565b5b6020026020010181905250600185610f7f9190614797565b9450505b8080610f8e906146fc565b915050610d51565b50809550505050505090565b600080610fae836127a3565b9050600073ffffffffffffffffffffffffffffffffffffffff168173ffffffffffffffffffffffffffffffffffffffff160361101f576040517f08c379a000000000000000000000000000000000000000000000000000000000815260040161101690614846565b60405180910390fd5b80915050919050565b6000600e54905090565b60008073ffffffffffffffffffffffffffffffffffffffff168273ffffffffffffffffffffffffffffffffffffffff16036110a2576040517f08c379a0000000000000000000000000000000000000000000000000000000008152600401611099906148d8565b60405180910390fd5b600360008373ffffffffffffffffffffffffffffffffffffffff1673ffffffffffffffffffffffffffffffffffffffff168152602001908152602001600020549050919050565b60006110f5600c6127e0565b6000611101600c612795565b905061110d33826127f6565b6111178185612814565b61112181846128b8565b8091505092915050565b6060600760008373ffffffffffffffffffffffffffffffffffffffff1673ffffffffffffffffffffffffffffffffffffffff168152602001908152602001600020805480602002602001604051908101604052809291908181526020016000905b828210156112f657838290600052602060002090600402016040518060800160405290816000820180546111bf90614268565b80601f01602080910402602001604051908101604052809291908181526020018280546111eb90614268565b80156112385780601f1061120d57610100808354040283529160200191611238565b820191906000526020600020905b81548152906001019060200180831161121b57829003601f168201915b505050505081526020016001820154815260200160028201805461125b90614268565b80601f016020809104026020016040519081016040528092919081815260200182805461128790614268565b80156112d45780601f106112a9576101008083540402835291602001916112d4565b820191906000526020600020905b8154815290600101906020018083116112b757829003601f168201915b505050505081526020016003820154815250508152602001906001019061118c565b505050509050919050565b60606001805461131090614268565b80601f016020809104026020016040519081016040528092919081815260200182805461133c90614268565b80156113895780601f1061135e57610100808354040283529160200191611389565b820191906000526020600020905b81548152906001019060200180831161136c57829003601f168201915b5050505050905090565b61139b613696565b600f60008381526020019081526020016000206040518060a0016040529081600082015481526020016001820160009054906101000a900473ffffffffffffffffffffffffffffffffffffffff1673ffffffffffffffffffffffffffffffffffffffff1673ffffffffffffffffffffffffffffffffffffffff1681526020016002820160009054906101000a900473ffffffffffffffffffffffffffffffffffffffff1673ffffffffffffffffffffffffffffffffffffffff1673ffffffffffffffffffffffffffffffffffffffff168152602001600382015481526020016004820160009054906101000a900460ff1615151515815250509050919050565b6000600f60008381526020019081526020016000206003015490506000600f600084815260200190815260200160002060020160009054906101000a900473ffffffffffffffffffffffffffffffffffffffff169050813414611533576040517f08c379a000000000000000000000000000000000000000000000000000000000815260040161152a9061496a565b60405180910390fd5b6001600f600085815260200190815260200160002060040160006101000a81548160ff02191690831515021790555033600f600085815260200190815260200160002060020160006101000a81548173ffffffffffffffffffffffffffffffffffffffff021916908373ffffffffffffffffffffffffffffffffffffffff1602179055506115c1600d6127e0565b6115cc30338561249c565b6115d63084610824565b600b60009054906101000a900473ffffffffffffffffffffffffffffffffffffffff1673ffffffffffffffffffffffffffffffffffffffff166108fc600e549081150290604051600060405180830381858888f19350505050158015611640573d6000803e3d6000fd5b508073ffffffffffffffffffffffffffffffffffffffff166108fc349081150290604051600060405180830381858888f19350505050158015611687573d6000803e3d6000fd5b50505050565b600760003373ffffffffffffffffffffffffffffffffffffffff1673ffffffffffffffffffffffffffffffffffffffff168152602001908152602001600020805490508110611711576040517f08c379a0000000000000000000000000000000000000000000000000000000008152600401611708906149d6565b60405180910390fd5b6000600760003373ffffffffffffffffffffffffffffffffffffffff1673ffffffffffffffffffffffffffffffffffffffff1681526020019081526020016000208281548110611764576117636147cb565b5b906000526020600020906004020160405180608001604052908160008201805461178d90614268565b80601f01602080910402602001604051908101604052809291908181526020018280546117b990614268565b80156118065780601f106117db57610100808354040283529160200191611806565b820191906000526020600020905b8154815290600101906020018083116117e957829003601f168201915b505050505081526020016001820154815260200160028201805461182990614268565b80601f016020809104026020016040519081016040528092919081815260200182805461185590614268565b80156118a25780601f10611877576101008083540402835291602001916118a2565b820191906000526020600020905b81548152906001019060200180831161188557829003601f168201915b505050505081526020016003820154815250509050600760008473ffffffffffffffffffffffffffffffffffffffff1673ffffffffffffffffffffffffffffffffffffffff168152602001908152602001600020819080600181540180825580915050600190039060005260206000209060040201600090919091909150600082015181600001908161193591906145fb565b5060208201518160010155604082015181600201908161195591906145fb565b50606082015181600301555050600860003373ffffffffffffffffffffffffffffffffffffffff1673ffffffffffffffffffffffffffffffffffffffff16815260200190815260200160002060008154809291906119b2906149f6565b9190505550600860008473ffffffffffffffffffffffffffffffffffffffff1673ffffffffffffffffffffffffffffffffffffffff1681526020019081526020016000206000815480929190611a07906146fc565b9190505550611a1582612abb565b8273ffffffffffffffffffffffffffffffffffffffff163373ffffffffffffffffffffffffffffffffffffffff167f08c7dc9c65cfe0a446c6b662ec2e35c1966d49c8c50f8a4b78a7e2e0c68217c484604051611a729190613daa565b60405180910390a3505050565b611a91611a8a612346565b8383612d55565b5050565b6000600a54905090565b611ab0611aaa612346565b83612407565b611aef576040517f08c379a0000000000000000000000000000000000000000000000000000000008152600401611ae69061442f565b60405180910390fd5b611afb84848484612ec1565b50505050565b3373ffffffffffffffffffffffffffffffffffffffff16600b60009054906101000a900473ffffffffffffffffffffffffffffffffffffffff1673ffffffffffffffffffffffffffffffffffffffff1614611b91576040517f08c379a0000000000000000000000000000000000000000000000000000000008152600401611b8890614a91565b60405180910390fd5b80600e8190555050565b6060611ba6826122fb565b6000600660008481526020019081526020016000208054611bc690614268565b80601f0160208091040260200160405190810160405280929190818152602001828054611bf290614268565b8015611c3f5780601f10611c1457610100808354040283529160200191611c3f565b820191906000526020600020905b815481529060010190602001808311611c2257829003601f168201915b505050505090506000611c50612f1d565b90506000815103611c65578192505050611ca8565b600082511115611c9a578082604051602001611c82929190614aed565b60405160208183030381529060405292505050611ca8565b611ca384612f34565b925050505b919050565b60606009805480602002602001604051908101604052809291908181526020016000905b82821015611e3b5783829060005260206000209060040201604051806080016040529081600082018054611d0490614268565b80601f0160208091040260200160405190810160405280929190818152602001828054611d3090614268565b8015611d7d5780601f10611d5257610100808354040283529160200191611d7d565b820191906000526020600020905b815481529060010190602001808311611d6057829003601f168201915b5050505050815260200160018201548152602001600282018054611da090614268565b80601f0160208091040260200160405190810160405280929190818152602001828054611dcc90614268565b8015611e195780601f10611dee57610100808354040283529160200191611e19565b820191906000526020600020905b815481529060010190602001808311611dfc57829003601f168201915b5050505050815260200160038201548152505081526020019060010190611cd1565b50505050905090565b611e4c613696565b6000611e58600c612795565b9050600f60008281526020019081526020016000206040518060a0016040529081600082015481526020016001820160009054906101000a900473ffffffffffffffffffffffffffffffffffffffff1673ffffffffffffffffffffffffffffffffffffffff1673ffffffffffffffffffffffffffffffffffffffff1681526020016002820160009054906101000a900473ffffffffffffffffffffffffffffffffffffffff1673ffffffffffffffffffffffffffffffffffffffff1673ffffffffffffffffffffffffffffffffffffffff168152602001600382015481526020016004820160009054906101000a900460ff16151515158152505091505090565b6000600860008373ffffffffffffffffffffffffffffffffffffffff1673ffffffffffffffffffffffffffffffffffffffff168152602001908152602001600020549050919050565b60606000611fb0600c612795565b905060008167ffffffffffffffff811115611fce57611fcd613a59565b5b60405190808252806020026020018201604052801561200757816020015b611ff4613696565b815260200190600190039081611fec5790505b50905060008080600090505b84811015612169576001816120289190614797565b91506000600f60008481526020019081526020016000209050806040518060a0016040529081600082015481526020016001820160009054906101000a900473ffffffffffffffffffffffffffffffffffffffff1673ffffffffffffffffffffffffffffffffffffffff1673ffffffffffffffffffffffffffffffffffffffff1681526020016002820160009054906101000a900473ffffffffffffffffffffffffffffffffffffffff1673ffffffffffffffffffffffffffffffffffffffff1673ffffffffffffffffffffffffffffffffffffffff168152602001600382015481526020016004820160009054906101000a900460ff16151515158152505085858151811061213b5761213a6147cb565b5b60200260200101819052506001846121539190614797565b9350508080612161906146fc565b915050612013565b508294505050505090565b6000600560008473ffffffffffffffffffffffffffffffffffffffff1673ffffffffffffffffffffffffffffffffffffffff16815260200190815260200160002060008373ffffffffffffffffffffffffffffffffffffffff1673ffffffffffffffffffffffffffffffffffffffff16815260200190815260200160002060009054906101000a900460ff16905092915050565b6000612214600c612795565b905090565b60007f80ac58cd000000000000000000000000000000000000000000000000000000007bffffffffffffffffffffffffffffffffffffffffffffffffffffffff1916827bffffffffffffffffffffffffffffffffffffffffffffffffffffffff191614806122e457507f5b5e139f000000000000000000000000000000000000000000000000000000007bffffffffffffffffffffffffffffffffffffffffffffffffffffffff1916827bffffffffffffffffffffffffffffffffffffffffffffffffffffffff1916145b806122f457506122f382612f9c565b5b9050919050565b61230481613006565b612343576040517f08c379a000000000000000000000000000000000000000000000000000000000815260040161233a90614846565b60405180910390fd5b50565b600033905090565b816004600083815260200190815260200160002060006101000a81548173ffffffffffffffffffffffffffffffffffffffff021916908373ffffffffffffffffffffffffffffffffffffffff160217905550808273ffffffffffffffffffffffffffffffffffffffff166123c183610fa2565b73ffffffffffffffffffffffffffffffffffffffff167f8c5be1e5ebec7d5bd14f71427d1e84f3dd0314c0f7b2291e5b200ac8c7c3b92560405160405180910390a45050565b60008061241383610fa2565b90508073ffffffffffffffffffffffffffffffffffffffff168473ffffffffffffffffffffffffffffffffffffffff16148061245557506124548185612174565b5b8061249357508373ffffffffffffffffffffffffffffffffffffffff1661247b846107de565b73ffffffffffffffffffffffffffffffffffffffff16145b91505092915050565b8273ffffffffffffffffffffffffffffffffffffffff166124bc82610fa2565b73ffffffffffffffffffffffffffffffffffffffff1614612512576040517f08c379a000000000000000000000000000000000000000000000000000000000815260040161250990614b83565b60405180910390fd5b600073ffffffffffffffffffffffffffffffffffffffff168273ffffffffffffffffffffffffffffffffffffffff1603612581576040517f08c379a000000000000000000000000000000000000000000000000000000000815260040161257890614c15565b60405180910390fd5b61258e8383836001613047565b8273ffffffffffffffffffffffffffffffffffffffff166125ae82610fa2565b73ffffffffffffffffffffffffffffffffffffffff1614612604576040517f08c379a00000000000000000000000000000000000000000000000000000000081526004016125fb90614b83565b60405180910390fd5b6004600082815260200190815260200160002060006101000a81549073ffffffffffffffffffffffffffffffffffffffff02191690556001600360008573ffffffffffffffffffffffffffffffffffffffff1673ffffffffffffffffffffffffffffffffffffffff168152602001908152602001600020600082825403925050819055506001600360008473ffffffffffffffffffffffffffffffffffffffff1673ffffffffffffffffffffffffffffffffffffffff16815260200190815260200160002060008282540192505081905550816002600083815260200190815260200160002060006101000a81548173ffffffffffffffffffffffffffffffffffffffff021916908373ffffffffffffffffffffffffffffffffffffffff160217905550808273ffffffffffffffffffffffffffffffffffffffff168473ffffffffffffffffffffffffffffffffffffffff167fddf252ad1be2c89b69c2b068fc378daa952ba7f163c4a11628f55a4df523b3ef60405160405180910390a4612790838383600161304d565b505050565b600081600001549050919050565b60006002600083815260200190815260200160002060009054906101000a900473ffffffffffffffffffffffffffffffffffffffff169050919050565b6001816000016000828254019250508190555050565b612810828260405180602001604052806000815250613053565b5050565b61281d82613006565b61285c576040517f08c379a000000000000000000000000000000000000000000000000000000000815260040161285390614ca7565b60405180910390fd5b8060066000848152602001908152602001600020908161287c91906145fb565b507ff8e1a15aba9398e019f0b49df1a4fde98ee17ae345cb5f6b5e2c27f5033e8ce7826040516128ac9190613daa565b60405180910390a15050565b600e5434146128fc576040517f08c379a00000000000000000000000000000000000000000000000000000000081526004016128f390614d39565b60405180910390fd5b6000811161293f576040517f08c379a000000000000000000000000000000000000000000000000000000000815260040161293690614dcb565b60405180910390fd5b6040518060a001604052808381526020013073ffffffffffffffffffffffffffffffffffffffff1681526020013373ffffffffffffffffffffffffffffffffffffffff16815260200182815260200160011515815250600f60008481526020019081526020016000206000820151816000015560208201518160010160006101000a81548173ffffffffffffffffffffffffffffffffffffffff021916908373ffffffffffffffffffffffffffffffffffffffff16021790555060408201518160020160006101000a81548173ffffffffffffffffffffffffffffffffffffffff021916908373ffffffffffffffffffffffffffffffffffffffff1602179055506060820151816003015560808201518160040160006101000a81548160ff021916908315150217905550905050612a7833308461249c565b817f9339409317fd01fabff48b703019016f49159bacc801ae872d2ca637d226e4c03033846001604051612aaf9493929190614deb565b60405180910390a25050565b600760003373ffffffffffffffffffffffffffffffffffffffff1673ffffffffffffffffffffffffffffffffffffffff168152602001908152602001600020805490508110612b3f576040517f08c379a0000000000000000000000000000000000000000000000000000000008152600401612b3690614e7c565b60405180910390fd5b60008190505b6001600760003373ffffffffffffffffffffffffffffffffffffffff1673ffffffffffffffffffffffffffffffffffffffff16815260200190815260200160002080549050612b949190614e9c565b811015612cb957600760003373ffffffffffffffffffffffffffffffffffffffff1673ffffffffffffffffffffffffffffffffffffffff168152602001908152602001600020600182612be79190614797565b81548110612bf857612bf76147cb565b5b9060005260206000209060040201600760003373ffffffffffffffffffffffffffffffffffffffff1673ffffffffffffffffffffffffffffffffffffffff1681526020019081526020016000208281548110612c5757612c566147cb565b5b906000526020600020906004020160008201816000019081612c799190614ee6565b506001820154816001015560028201816002019081612c989190614ee6565b50600382015481600301559050508080612cb1906146fc565b915050612b45565b50600760003373ffffffffffffffffffffffffffffffffffffffff1673ffffffffffffffffffffffffffffffffffffffff168152602001908152602001600020805480612d0957612d08614fce565b5b600190038181906000526020600020906004020160008082016000612d2e91906136f3565b6001820160009055600282016000612d4691906136f3565b60038201600090555050905550565b8173ffffffffffffffffffffffffffffffffffffffff168373ffffffffffffffffffffffffffffffffffffffff1603612dc3576040517f08c379a0000000000000000000000000000000000000000000000000000000008152600401612dba90615049565b60405180910390fd5b80600560008573ffffffffffffffffffffffffffffffffffffffff1673ffffffffffffffffffffffffffffffffffffffff16815260200190815260200160002060008473ffffffffffffffffffffffffffffffffffffffff1673ffffffffffffffffffffffffffffffffffffffff16815260200190815260200160002060006101000a81548160ff0219169083151502179055508173ffffffffffffffffffffffffffffffffffffffff168373ffffffffffffffffffffffffffffffffffffffff167f17307eab39ab6107e8899845ad3d59bd9653f200f220920489ca2b5937696c3183604051612eb49190613804565b60405180910390a3505050565b612ecc84848461249c565b612ed8848484846130ae565b612f17576040517f08c379a0000000000000000000000000000000000000000000000000000000008152600401612f0e906150db565b60405180910390fd5b50505050565b606060405180602001604052806000815250905090565b6060612f3f826122fb565b6000612f49612f1d565b90506000815111612f695760405180602001604052806000815250612f94565b80612f7384613235565b604051602001612f84929190614aed565b6040516020818303038152906040525b915050919050565b60007f01ffc9a7000000000000000000000000000000000000000000000000000000007bffffffffffffffffffffffffffffffffffffffffffffffffffffffff1916827bffffffffffffffffffffffffffffffffffffffffffffffffffffffff1916149050919050565b60008073ffffffffffffffffffffffffffffffffffffffff16613028836127a3565b73ffffffffffffffffffffffffffffffffffffffff1614159050919050565b50505050565b50505050565b61305d8383613303565b61306a60008484846130ae565b6130a9576040517f08c379a00000000000000000000000000000000000000000000000000000000081526004016130a0906150db565b60405180910390fd5b505050565b60006130cf8473ffffffffffffffffffffffffffffffffffffffff16613520565b15613228578373ffffffffffffffffffffffffffffffffffffffff1663150b7a026130f8612346565b8786866040518563ffffffff1660e01b815260040161311a9493929190615150565b6020604051808303816000875af192505050801561315657506040513d601f19601f8201168201806040525081019061315391906151b1565b60015b6131d8573d8060008114613186576040519150601f19603f3d011682016040523d82523d6000602084013e61318b565b606091505b5060008151036131d0576040517f08c379a00000000000000000000000000000000000000000000000000000000081526004016131c7906150db565b60405180910390fd5b805181602001fd5b63150b7a0260e01b7bffffffffffffffffffffffffffffffffffffffffffffffffffffffff1916817bffffffffffffffffffffffffffffffffffffffffffffffffffffffff19161491505061322d565b600190505b949350505050565b60606000600161324484613543565b01905060008167ffffffffffffffff81111561326357613262613a59565b5b6040519080825280601f01601f1916602001820160405280156132955781602001600182028036833780820191505090505b509050600082602001820190505b6001156132f8578080600190039150507f3031323334353637383961626364656600000000000000000000000000000000600a86061a8153600a85816132ec576132eb6151de565b5b049450600085036132a3575b819350505050919050565b600073ffffffffffffffffffffffffffffffffffffffff168273ffffffffffffffffffffffffffffffffffffffff1603613372576040517f08c379a000000000000000000000000000000000000000000000000000000000815260040161336990615259565b60405180910390fd5b61337b81613006565b156133bb576040517f08c379a00000000000000000000000000000000000000000000000000000000081526004016133b2906152c5565b60405180910390fd5b6133c9600083836001613047565b6133d281613006565b15613412576040517f08c379a0000000000000000000000000000000000000000000000000000000008152600401613409906152c5565b60405180910390fd5b6001600360008473ffffffffffffffffffffffffffffffffffffffff1673ffffffffffffffffffffffffffffffffffffffff16815260200190815260200160002060008282540192505081905550816002600083815260200190815260200160002060006101000a81548173ffffffffffffffffffffffffffffffffffffffff021916908373ffffffffffffffffffffffffffffffffffffffff160217905550808273ffffffffffffffffffffffffffffffffffffffff16600073ffffffffffffffffffffffffffffffffffffffff167fddf252ad1be2c89b69c2b068fc378daa952ba7f163c4a11628f55a4df523b3ef60405160405180910390a461351c60008383600161304d565b5050565b6000808273ffffffffffffffffffffffffffffffffffffffff163b119050919050565b600080600090507a184f03e93ff9f4daa797ed6e38ed64bf6a1f01000000000000000083106135a1577a184f03e93ff9f4daa797ed6e38ed64bf6a1f0100000000000000008381613597576135966151de565b5b0492506040810190505b6d04ee2d6d415b85acef810000000083106135de576d04ee2d6d415b85acef810000000083816135d4576135d36151de565b5b0492506020810190505b662386f26fc10000831061360d57662386f26fc100008381613603576136026151de565b5b0492506010810190505b6305f5e1008310613636576305f5e100838161362c5761362b6151de565b5b0492506008810190505b612710831061365b576127108381613651576136506151de565b5b0492506004810190505b6064831061367e5760648381613674576136736151de565b5b0492506002810190505b600a831061368d576001810190505b80915050919050565b6040518060a0016040528060008152602001600073ffffffffffffffffffffffffffffffffffffffff168152602001600073ffffffffffffffffffffffffffffffffffffffff168152602001600081526020016000151581525090565b5080546136ff90614268565b6000825580601f106137115750613730565b601f01602090049060005260206000209081019061372f9190613733565b5b50565b5b8082111561374c576000816000905550600101613734565b5090565b6000604051905090565b600080fd5b600080fd5b60007fffffffff0000000000000000000000000000000000000000000000000000000082169050919050565b61379981613764565b81146137a457600080fd5b50565b6000813590506137b681613790565b92915050565b6000602082840312156137d2576137d161375a565b5b60006137e0848285016137a7565b91505092915050565b60008115159050919050565b6137fe816137e9565b82525050565b600060208201905061381960008301846137f5565b92915050565b600081519050919050565b600082825260208201905092915050565b60005b8381101561385957808201518184015260208101905061383e565b60008484015250505050565b6000601f19601f8301169050919050565b60006138818261381f565b61388b818561382a565b935061389b81856020860161383b565b6138a481613865565b840191505092915050565b600060208201905081810360008301526138c98184613876565b905092915050565b6000819050919050565b6138e4816138d1565b81146138ef57600080fd5b50565b600081359050613901816138db565b92915050565b60006020828403121561391d5761391c61375a565b5b600061392b848285016138f2565b91505092915050565b600073ffffffffffffffffffffffffffffffffffffffff82169050919050565b600061395f82613934565b9050919050565b61396f81613954565b82525050565b600060208201905061398a6000830184613966565b92915050565b61399981613954565b81146139a457600080fd5b50565b6000813590506139b681613990565b92915050565b600080604083850312156139d3576139d261375a565b5b60006139e1858286016139a7565b92505060206139f2858286016138f2565b9150509250929050565b600080600060608486031215613a1557613a1461375a565b5b6000613a23868287016139a7565b9350506020613a34868287016139a7565b9250506040613a45868287016138f2565b9150509250925092565b600080fd5b600080fd5b7f4e487b7100000000000000000000000000000000000000000000000000000000600052604160045260246000fd5b613a9182613865565b810181811067ffffffffffffffff82111715613ab057613aaf613a59565b5b80604052505050565b6000613ac3613750565b9050613acf8282613a88565b919050565b600067ffffffffffffffff821115613aef57613aee613a59565b5b613af882613865565b9050602081019050919050565b82818337600083830152505050565b6000613b27613b2284613ad4565b613ab9565b905082815260208101848484011115613b4357613b42613a54565b5b613b4e848285613b05565b509392505050565b600082601f830112613b6b57613b6a613a4f565b5b8135613b7b848260208601613b14565b91505092915050565b60008060008060808587031215613b9e57613b9d61375a565b5b600085013567ffffffffffffffff811115613bbc57613bbb61375f565b5b613bc887828801613b56565b9450506020613bd9878288016138f2565b935050604085013567ffffffffffffffff811115613bfa57613bf961375f565b5b613c0687828801613b56565b9250506060613c17878288016138f2565b91505092959194509250565b600081519050919050565b600082825260208201905092915050565b6000819050602082019050919050565b613c58816138d1565b82525050565b6000613c6982613934565b9050919050565b613c7981613c5e565b82525050565b613c88816137e9565b82525050565b60a082016000820151613ca46000850182613c4f565b506020820151613cb76020850182613c70565b506040820151613cca6040850182613c70565b506060820151613cdd6060850182613c4f565b506080820151613cf06080850182613c7f565b50505050565b6000613d028383613c8e565b60a08301905092915050565b6000602082019050919050565b6000613d2682613c23565b613d308185613c2e565b9350613d3b83613c3f565b8060005b83811015613d6c578151613d538882613cf6565b9750613d5e83613d0e565b925050600181019050613d3f565b5085935050505092915050565b60006020820190508181036000830152613d938184613d1b565b905092915050565b613da4816138d1565b82525050565b6000602082019050613dbf6000830184613d9b565b92915050565b600060208284031215613ddb57613dda61375a565b5b6000613de9848285016139a7565b91505092915050565b60008060408385031215613e0957613e0861375a565b5b600083013567ffffffffffffffff811115613e2757613e2661375f565b5b613e3385828601613b56565b9250506020613e44858286016138f2565b9150509250929050565b600081519050919050565b600082825260208201905092915050565b6000819050602082019050919050565b600082825260208201905092915050565b6000613e968261381f565b613ea08185613e7a565b9350613eb081856020860161383b565b613eb981613865565b840191505092915050565b60006080830160008301518482036000860152613ee18282613e8b565b9150506020830151613ef66020860182613c4f565b5060408301518482036040860152613f0e8282613e8b565b9150506060830151613f236060860182613c4f565b508091505092915050565b6000613f3a8383613ec4565b905092915050565b6000602082019050919050565b6000613f5a82613e4e565b613f648185613e59565b935083602082028501613f7685613e6a565b8060005b85811015613fb25784840389528151613f938582613f2e565b9450613f9e83613f42565b925060208a01995050600181019050613f7a565b50829750879550505050505092915050565b60006020820190508181036000830152613fde8184613f4f565b905092915050565b60a082016000820151613ffc6000850182613c4f565b50602082015161400f6020850182613c70565b5060408201516140226040850182613c70565b5060608201516140356060850182613c4f565b5060808201516140486080850182613c7f565b50505050565b600060a0820190506140636000830184613fe6565b92915050565b614072816137e9565b811461407d57600080fd5b50565b60008135905061408f81614069565b92915050565b600080604083850312156140ac576140ab61375a565b5b60006140ba858286016139a7565b92505060206140cb85828601614080565b9150509250929050565b600067ffffffffffffffff8211156140f0576140ef613a59565b5b6140f982613865565b9050602081019050919050565b6000614119614114846140d5565b613ab9565b90508281526020810184848401111561413557614134613a54565b5b614140848285613b05565b509392505050565b600082601f83011261415d5761415c613a4f565b5b813561416d848260208601614106565b91505092915050565b600080600080608085870312156141905761418f61375a565b5b600061419e878288016139a7565b94505060206141af878288016139a7565b93505060406141c0878288016138f2565b925050606085013567ffffffffffffffff8111156141e1576141e061375f565b5b6141ed87828801614148565b91505092959194509250565b600080604083850312156142105761420f61375a565b5b600061421e858286016139a7565b925050602061422f858286016139a7565b9150509250929050565b7f4e487b7100000000000000000000000000000000000000000000000000000000600052602260045260246000fd5b6000600282049050600182168061428057607f821691505b60208210810361429357614292614239565b5b50919050565b7f4552433732313a20617070726f76616c20746f2063757272656e74206f776e6560008201527f7200000000000000000000000000000000000000000000000000000000000000602082015250565b60006142f560218361382a565b915061430082614299565b604082019050919050565b60006020820190508181036000830152614324816142e8565b9050919050565b7f4552433732313a20617070726f76652063616c6c6572206973206e6f7420746f60008201527f6b656e206f776e6572206f7220617070726f76656420666f7220616c6c000000602082015250565b6000614387603d8361382a565b91506143928261432b565b604082019050919050565b600060208201905081810360008301526143b68161437a565b9050919050565b7f4552433732313a2063616c6c6572206973206e6f7420746f6b656e206f776e6560008201527f72206f7220617070726f76656400000000000000000000000000000000000000602082015250565b6000614419602d8361382a565b9150614424826143bd565b604082019050919050565b600060208201905081810360008301526144488161440c565b9050919050565b60008190508160005260206000209050919050565b60006020601f8301049050919050565b600082821b905092915050565b6000600883026144b17fffffffffffffffffffffffffffffffffffffffffffffffffffffffffffffffff82614474565b6144bb8683614474565b95508019841693508086168417925050509392505050565b6000819050919050565b60006144f86144f36144ee846138d1565b6144d3565b6138d1565b9050919050565b6000819050919050565b614512836144dd565b61452661451e826144ff565b848454614481565b825550505050565b600090565b61453b61452e565b614546818484614509565b505050565b5b8181101561456a5761455f600082614533565b60018101905061454c565b5050565b601f8211156145af576145808161444f565b61458984614464565b81016020851015614598578190505b6145ac6145a485614464565b83018261454b565b50505b505050565b600082821c905092915050565b60006145d2600019846008026145b4565b1980831691505092915050565b60006145eb83836145c1565b9150826002028217905092915050565b6146048261381f565b67ffffffffffffffff81111561461d5761461c613a59565b5b6146278254614268565b61463282828561456e565b600060209050601f8311600181146146655760008415614653578287015190505b61465d85826145df565b8655506146c5565b601f1984166146738661444f565b60005b8281101561469b57848901518255600182019150602085019450602081019050614676565b868310156146b857848901516146b4601f8916826145c1565b8355505b6001600288020188555050505b505050505050565b7f4e487b7100000000000000000000000000000000000000000000000000000000600052601160045260246000fd5b6000614707826138d1565b91507fffffffffffffffffffffffffffffffffffffffffffffffffffffffffffffffff8203614739576147386146cd565b5b600182019050919050565b6000608082019050818103600083015261475e8187613876565b905061476d6020830186613d9b565b818103604083015261477f8185613876565b905061478e6060830184613d9b565b95945050505050565b60006147a2826138d1565b91506147ad836138d1565b92508282019050808211156147c5576147c46146cd565b5b92915050565b7f4e487b7100000000000000000000000000000000000000000000000000000000600052603260045260246000fd5b7f4552433732313a20696e76616c696420746f6b656e2049440000000000000000600082015250565b600061483060188361382a565b915061483b826147fa565b602082019050919050565b6000602082019050818103600083015261485f81614823565b9050919050565b7f4552433732313a2061646472657373207a65726f206973206e6f74206120766160008201527f6c6964206f776e65720000000000000000000000000000000000000000000000602082015250565b60006148c260298361382a565b91506148cd82614866565b604082019050919050565b600060208201905081810360008301526148f1816148b5565b9050919050565b7f506c65617365207375626d6974207468652061736b696e67207072696365206960008201527f6e206f7264657220746f20636f6d706c65746520746865207075726368617365602082015250565b600061495460408361382a565b915061495f826148f8565b604082019050919050565b6000602082019050818103600083015261498381614947565b9050919050565b7f496e76616c6964206361726420696e6465780000000000000000000000000000600082015250565b60006149c060128361382a565b91506149cb8261498a565b602082019050919050565b600060208201905081810360008301526149ef816149b3565b9050919050565b6000614a01826138d1565b915060008203614a1457614a136146cd565b5b600182039050919050565b7f4f6e6c7920746865206f776e65722063616e20706572666f726d20746869732060008201527f616374696f6e0000000000000000000000000000000000000000000000000000602082015250565b6000614a7b60268361382a565b9150614a8682614a1f565b604082019050919050565b60006020820190508181036000830152614aaa81614a6e565b9050919050565b600081905092915050565b6000614ac78261381f565b614ad18185614ab1565b9350614ae181856020860161383b565b80840191505092915050565b6000614af98285614abc565b9150614b058284614abc565b91508190509392505050565b7f4552433732313a207472616e736665722066726f6d20696e636f72726563742060008201527f6f776e6572000000000000000000000000000000000000000000000000000000602082015250565b6000614b6d60258361382a565b9150614b7882614b11565b604082019050919050565b60006020820190508181036000830152614b9c81614b60565b9050919050565b7f4552433732313a207472616e7366657220746f20746865207a65726f2061646460008201527f7265737300000000000000000000000000000000000000000000000000000000602082015250565b6000614bff60248361382a565b9150614c0a82614ba3565b604082019050919050565b60006020820190508181036000830152614c2e81614bf2565b9050919050565b7f45524337323155524953746f726167653a2055524920736574206f66206e6f6e60008201527f6578697374656e7420746f6b656e000000000000000000000000000000000000602082015250565b6000614c91602e8361382a565b9150614c9c82614c35565b604082019050919050565b60006020820190508181036000830152614cc081614c84565b9050919050565b7f486f706566756c6c792073656e64696e672074686520636f727265637420707260008201527f6963650000000000000000000000000000000000000000000000000000000000602082015250565b6000614d2360238361382a565b9150614d2e82614cc7565b604082019050919050565b60006020820190508181036000830152614d5281614d16565b9050919050565b7f4d616b652073757265207468652070726963652069736e2774206e656761746960008201527f7665000000000000000000000000000000000000000000000000000000000000602082015250565b6000614db560228361382a565b9150614dc082614d59565b604082019050919050565b60006020820190508181036000830152614de481614da8565b9050919050565b6000608082019050614e006000830187613966565b614e0d6020830186613966565b614e1a6040830185613d9b565b614e2760608301846137f5565b95945050505050565b7f496e646578206f7574206f6620626f756e647300000000000000000000000000600082015250565b6000614e6660138361382a565b9150614e7182614e30565b602082019050919050565b60006020820190508181036000830152614e9581614e59565b9050919050565b6000614ea7826138d1565b9150614eb2836138d1565b9250828203905081811115614eca57614ec96146cd565b5b92915050565b600081549050614edf81614268565b9050919050565b818103614ef4575050614fcc565b614efd82614ed0565b67ffffffffffffffff811115614f1657614f15613a59565b5b614f208254614268565b614f2b82828561456e565b6000601f831160018114614f5a5760008415614f48578287015490505b614f5285826145df565b865550614fc5565b601f198416614f688761444f565b9650614f738661444f565b60005b82811015614f9b57848901548255600182019150600185019450602081019050614f76565b86831015614fb85784890154614fb4601f8916826145c1565b8355505b6001600288020188555050505b5050505050505b565b7f4e487b7100000000000000000000000000000000000000000000000000000000600052603160045260246000fd5b7f4552433732313a20617070726f766520746f2063616c6c657200000000000000600082015250565b600061503360198361382a565b915061503e82614ffd565b602082019050919050565b6000602082019050818103600083015261506281615026565b9050919050565b7f4552433732313a207472616e7366657220746f206e6f6e20455243373231526560008201527f63656976657220696d706c656d656e7465720000000000000000000000000000602082015250565b60006150c560328361382a565b91506150d082615069565b604082019050919050565b600060208201905081810360008301526150f4816150b8565b9050919050565b600081519050919050565b600082825260208201905092915050565b6000615122826150fb565b61512c8185615106565b935061513c81856020860161383b565b61514581613865565b840191505092915050565b60006080820190506151656000830187613966565b6151726020830186613966565b61517f6040830185613d9b565b81810360608301526151918184615117565b905095945050505050565b6000815190506151ab81613790565b92915050565b6000602082840312156151c7576151c661375a565b5b60006151d58482850161519c565b91505092915050565b7f4e487b7100000000000000000000000000000000000000000000000000000000600052601260045260246000fd5b7f4552433732313a206d696e7420746f20746865207a65726f2061646472657373600082015250565b600061524360208361382a565b915061524e8261520d565b602082019050919050565b6000602082019050818103600083015261527281615236565b9050919050565b7f4552433732313a20746f6b656e20616c7265616479206d696e74656400000000600082015250565b60006152af601c8361382a565b91506152ba82615279565b602082019050919050565b600060208201905081810360008301526152de816152a2565b905091905056fea2646970667358221220827a62234e12b0a28d836e606fad4b3e49007c23e81632a99aff03fa8a2933a864736f6c63430008120033",
  "immutableReferences": {},
  "source": "//SPDX-License-Identifier: Unlicensed\r\npragma solidity ^0.8.0;\r\n\r\nimport \"./../node_modules/@openzeppelin/contracts/token/ERC721/ERC721.sol\"; //TODO: magari si pu chiamare in maniera pi carina\r\nimport \"./../node_modules/@openzeppelin/contracts/token/ERC721//extensions/ERC721URIStorage.sol\"; //TODO: magari si pu chiamare in maniera pi carina\r\nimport \"./../node_modules/@openzeppelin/contracts/utils/Counters.sol\";\r\n\r\ncontract NFTMarketplace is ERC721URIStorage {\r\n    struct Card {\r\n        string name;\r\n        uint256 grade;\r\n        string condition;\r\n        uint256 cardCode;\r\n        // Other variables\r\n    }\r\n\r\n    mapping(address => Card[]) private userCards; // Mapping to register cards for each user\r\n    mapping(address => uint256) private cardCounts; // Mapping to keep track of card counts for each user\r\n\r\n    Card[] private allCards; // Array to keep track of all cards\r\n    uint256 private allCardsCount; // Variable to keep track of total card count\r\n\r\n    event CardRegistered(\r\n        address indexed user,\r\n        string name,\r\n        uint256 grade,\r\n        string condition,\r\n        uint256 cardCode\r\n    );\r\n\r\n    event CardTransferred(\r\n        address indexed from,\r\n        address indexed to,\r\n        uint256 cardIndex\r\n    );\r\n\r\n    address payable owner;\r\n    using Counters for Counters.Counter; //It's a datatype\r\n\r\n    //Keep track of the number of tokens created\r\n    Counters.Counter private _tokenIDs;\r\n\r\n    //Keep track of the number of items sold on the marketplace\r\n    Counters.Counter private _itemsSold;\r\n\r\n    uint256 listPrice = 0.01 ether; //Fee of the marketplace\r\n\r\n    struct ListedToken {\r\n        uint256 tokenID;\r\n        address payable owner;\r\n        address payable seller;\r\n        uint256 price;\r\n        bool currentlyListed;\r\n    }\r\n\r\n    //the event emitted when a token is successfully listed\r\n    event TokenListedSuccess(\r\n        uint256 indexed tokenId,\r\n        address owner,\r\n        address seller,\r\n        uint256 price,\r\n        bool currentlyListed\r\n    );\r\n\r\n    mapping(uint256 => ListedToken) private idToListedToken; //create a mapping between the id (incremental) and the associated data of the token (listed Token struct)\r\n\r\n    constructor() ERC721(\"NFTCollectible\", \"NFTC\") {\r\n        owner = payable(msg.sender); //only the owner gets a revenue when the marketplace is used, payable means that this address is eligible to receive some eth\r\n    }\r\n\r\n    // HELPER FUNCTIONS\r\n\r\n    function updateListPrice(uint256 _listPrice) public payable {\r\n        require(owner == msg.sender, \"Only the owner can perform this action\");\r\n        listPrice = _listPrice;\r\n    }\r\n\r\n    function getListPrice() public view returns (uint256) {\r\n        return listPrice;\r\n    }\r\n\r\n    function getLatestIdToListedToken()\r\n        public\r\n        view\r\n        returns (ListedToken memory)\r\n    {\r\n        //memory is an instructional keyboard to create a temporary memory allocation\r\n        uint256 currentTokenId = _tokenIDs.current();\r\n        return idToListedToken[currentTokenId];\r\n    }\r\n\r\n    function getListedForTokenId(\r\n        uint256 tokenId\r\n    ) public view returns (ListedToken memory) {\r\n        return idToListedToken[tokenId];\r\n    }\r\n\r\n    function getCurrentToken() public view returns (uint256) {\r\n        return _tokenIDs.current();\r\n    }\r\n\r\n    //CORE FUNCTIONS\r\n\r\n    // Function to get card count of a user by address\r\n    function getCardCount(address _user) external view returns (uint256) {\r\n        return cardCounts[_user];\r\n    }\r\n\r\n    //Function to get all cards count\r\n    function getAllCardsCount() external view returns (uint256) {\r\n        return allCardsCount;\r\n    }\r\n\r\n    // Function to transfer a card from one user to another\r\n    function transferCard(address _to, uint256 _cardIndex) external {\r\n        require( // require is used to validate the inputs to the function and throw error if the condition is not met\r\n            _cardIndex < userCards[msg.sender].length,\r\n            \"Invalid card index\"\r\n        );\r\n        Card memory cardToTransfer = userCards[msg.sender][_cardIndex]; // Get the card to transfer\r\n        userCards[_to].push(cardToTransfer); // Push the card to the user to whom it is being transferred\r\n        cardCounts[msg.sender]--; // Reduce the card count of the user from whom the card is being transferred\r\n        cardCounts[_to]++; // Increase the card count of the user to whom the card is being transferred\r\n        removeElement(_cardIndex); // Delete the card from the user from whom the card is being transferred\r\n        emit CardTransferred(msg.sender, _to, _cardIndex); // Emit the event to notify the transfer\r\n    }\r\n\r\n    // Function to get all cards of a user by address\r\n    function getUserCards(address _user) external view returns (Card[] memory) {\r\n        // view means that this function will not modify the state of the contract\r\n        return userCards[_user];\r\n    }\r\n\r\n    // Function to get all cards of a all users\r\n    function getAllUserCards() external view returns (Card[] memory) {\r\n        return allCards;\r\n    }\r\n\r\n    function removeElement(uint256 _cardIndex) internal {\r\n        require(\r\n            _cardIndex < userCards[msg.sender].length,\r\n            \"Index out of bounds\"\r\n        );\r\n\r\n        // Shift elements to the left starting from the element to be removed\r\n        for (uint i = _cardIndex; i < userCards[msg.sender].length - 1; i++) {\r\n            //FORSE USA TROPPO GAS --> da approfondire\r\n            userCards[msg.sender][i] = userCards[msg.sender][i + 1];\r\n        }\r\n\r\n        // Resize the array by deleting the last element\r\n        userCards[msg.sender].pop();\r\n    }\r\n\r\n    //Top level function when creating a token for the first time\r\n    function createToken(\r\n        string memory tokenURI,\r\n        uint256 price\r\n    ) public payable returns (uint) {\r\n        _tokenIDs.increment();\r\n        uint256 currentTokenId = _tokenIDs.current();\r\n        _safeMint(msg.sender, currentTokenId);\r\n        _setTokenURI(currentTokenId, tokenURI);\r\n\r\n        createListedToken(currentTokenId, price);\r\n\r\n        return currentTokenId;\r\n    }\r\n\r\n    function registerCard(\r\n        string memory _name,\r\n        uint256 _grade,\r\n        string memory _condition,\r\n        uint256 _cardCode\r\n    ) external {\r\n        Card memory newCard = Card(_name, _grade, _condition, _cardCode);\r\n        userCards[msg.sender].push(newCard);\r\n        allCards.push(newCard);\r\n        allCardsCount++;\r\n\r\n        cardCounts[msg.sender]++;\r\n        emit CardRegistered(msg.sender, _name, _grade, _condition, _cardCode);\r\n    }\r\n\r\n    //Helps create the object of type ListedToken for the NFT and update the idToListedToken mapping\r\n    function createListedToken(uint256 tokenID, uint256 price) private {\r\n        require(msg.value == listPrice, \"Hopefully sending the correct price\");\r\n        //Just sanity check\r\n        require(price > 0, \"Make sure the price isn't negative\");\r\n        idToListedToken[tokenID] = ListedToken(\r\n            tokenID,\r\n            payable(address(this)),\r\n            payable(msg.sender),\r\n            price,\r\n            true\r\n        );\r\n        _transfer(msg.sender, address(this), tokenID);\r\n\r\n        emit TokenListedSuccess(\r\n            tokenID,\r\n            address(this),\r\n            msg.sender,\r\n            price,\r\n            true\r\n        );\r\n    }\r\n\r\n    //Get all the NFTs currently listed for sale on the marketplace --> DA MODIFICARE\r\n    function getAllNFTs() public view returns (ListedToken[] memory) {\r\n        uint256 nftCount = _tokenIDs.current();\r\n        ListedToken[] memory tokens = new ListedToken[](nftCount);\r\n        uint256 currentIndex = 0;\r\n        uint256 currentId;\r\n        //at the moment currentlyListed is true for all, if it becomes false in the future we will\r\n        //filter out currentlyListed == false over here\r\n        for (uint256 i = 0; i < nftCount; i++) {\r\n            currentId = i + 1;\r\n            ListedToken storage currentItem = idToListedToken[currentId];\r\n            tokens[currentIndex] = currentItem;\r\n            currentIndex += 1;\r\n        }\r\n        //the array 'tokens' has the list of all NFTs in the marketplace\r\n        return tokens;\r\n    }\r\n\r\n    //Returns all the NFTs that the current user is owner or seller in\r\n    function getMyNFTs() public view returns (ListedToken[] memory) {\r\n        uint256 totalItemCount = _tokenIDs.current();\r\n        uint256 itemCount = 0;\r\n        uint256 currentIndex = 0;\r\n        uint256 currentId;\r\n        //Important to get a count of all the NFTs that belong to the user before we can make an array for them\r\n        for (uint256 i = 0; i < totalItemCount; i++) {\r\n            if (\r\n                idToListedToken[i + 1].owner == msg.sender ||\r\n                idToListedToken[i + 1].seller == msg.sender\r\n            ) {\r\n                itemCount += 1;\r\n            }\r\n        }\r\n\r\n        //Once you have the count of relevant NFTs, create an array then store all the NFTs in it\r\n        ListedToken[] memory items = new ListedToken[](itemCount);\r\n        for (uint256 i = 0; i < totalItemCount; i++) {\r\n            if (\r\n                idToListedToken[i + 1].owner == msg.sender ||\r\n                idToListedToken[i + 1].seller == msg.sender\r\n            ) {\r\n                currentId = i + 1;\r\n                ListedToken storage currentItem = idToListedToken[currentId];\r\n                items[currentIndex] = currentItem;\r\n                currentIndex += 1;\r\n            }\r\n        }\r\n        return items;\r\n    }\r\n\r\n    //Sell NFT to other address\r\n    function executeSale(uint256 tokenId) public payable {\r\n        uint256 price = idToListedToken[tokenId].price;\r\n        address seller = idToListedToken[tokenId].seller;\r\n        require(\r\n            msg.value == price,\r\n            \"Please submit the asking price in order to complete the purchase\"\r\n        );\r\n\r\n        //update the details of the token\r\n        idToListedToken[tokenId].currentlyListed = true;\r\n        idToListedToken[tokenId].seller = payable(msg.sender);\r\n        _itemsSold.increment();\r\n\r\n        //Actually transfer the token to the new owner\r\n        _transfer(address(this), msg.sender, tokenId);\r\n        //approve the marketplace to sell NFTs on your behalf\r\n        approve(address(this), tokenId);\r\n\r\n        //Transfer the listing fee to the marketplace creator\r\n        payable(owner).transfer(listPrice);\r\n        //Transfer the proceeds from the sale to the seller of the NFT\r\n        payable(seller).transfer(msg.value);\r\n    }\r\n}\r\n",
  "sourcePath": "C:\\Users\\Alessandro\\Desktop\\Universita\\Blockchain\\blockchain-authenticator\\project\\truffle\\contracts\\NFTMarketplace.sol",
  "compiler": {
    "name": "solc",
    "version": "0.8.18+commit.87f61d96.Emscripten.clang"
  },
  "schemaVersion": "3.4.14",
  "updatedAt": "2023-07-07T18:19:00.259Z",
  "networkType": "ethereum",
  "devdoc": {
    "events": {
      "Approval(address,address,uint256)": {
        "details": "Emitted when `owner` enables `approved` to manage the `tokenId` token."
      },
      "ApprovalForAll(address,address,bool)": {
        "details": "Emitted when `owner` enables or disables (`approved`) `operator` to manage all of its assets."
      },
      "BatchMetadataUpdate(uint256,uint256)": {
        "details": "This event emits when the metadata of a range of tokens is changed. So that the third-party platforms such as NFT market could timely update the images and related attributes of the NFTs."
      },
      "MetadataUpdate(uint256)": {
        "details": "This event emits when the metadata of a token is changed. So that the third-party platforms such as NFT market could timely update the images and related attributes of the NFT."
      },
      "Transfer(address,address,uint256)": {
        "details": "Emitted when `tokenId` token is transferred from `from` to `to`."
      }
    },
    "kind": "dev",
    "methods": {
      "approve(address,uint256)": {
        "details": "See {IERC721-approve}."
      },
      "balanceOf(address)": {
        "details": "See {IERC721-balanceOf}."
      },
      "getApproved(uint256)": {
        "details": "See {IERC721-getApproved}."
      },
      "isApprovedForAll(address,address)": {
        "details": "See {IERC721-isApprovedForAll}."
      },
      "name()": {
        "details": "See {IERC721Metadata-name}."
      },
      "ownerOf(uint256)": {
        "details": "See {IERC721-ownerOf}."
      },
      "safeTransferFrom(address,address,uint256)": {
        "details": "See {IERC721-safeTransferFrom}."
      },
      "safeTransferFrom(address,address,uint256,bytes)": {
        "details": "See {IERC721-safeTransferFrom}."
      },
      "setApprovalForAll(address,bool)": {
        "details": "See {IERC721-setApprovalForAll}."
      },
      "supportsInterface(bytes4)": {
        "details": "See {IERC165-supportsInterface}"
      },
      "symbol()": {
        "details": "See {IERC721Metadata-symbol}."
      },
      "tokenURI(uint256)": {
        "details": "See {IERC721Metadata-tokenURI}."
      },
      "transferFrom(address,address,uint256)": {
        "details": "See {IERC721-transferFrom}."
      }
    },
    "version": 1
  },
  "userdoc": {
    "kind": "user",
    "methods": {},
    "version": 1
  }
}