{
  "contractName": "SimpleCollectible",
  "abi": [
    {
      "inputs": [],
      "stateMutability": "payable",
      "type": "constructor"
    },
    {
      "anonymous": false,
      "inputs": [
        {
          "indexed": true,
          "internalType": "address",
          "name": "owner",
          "type": "address"
        },
        {
          "indexed": true,
          "internalType": "address",
          "name": "approved",
          "type": "address"
        },
        {
          "indexed": true,
          "internalType": "uint256",
          "name": "tokenId",
          "type": "uint256"
        }
      ],
      "name": "Approval",
      "type": "event"
    },
    {
      "anonymous": false,
      "inputs": [
        {
          "indexed": true,
          "internalType": "address",
          "name": "owner",
          "type": "address"
        },
        {
          "indexed": true,
          "internalType": "address",
          "name": "operator",
          "type": "address"
        },
        {
          "indexed": false,
          "internalType": "bool",
          "name": "approved",
          "type": "bool"
        }
      ],
      "name": "ApprovalForAll",
      "type": "event"
    },
    {
      "anonymous": false,
      "inputs": [
        {
          "indexed": true,
          "internalType": "address",
          "name": "previousOwner",
          "type": "address"
        },
        {
          "indexed": true,
          "internalType": "address",
          "name": "newOwner",
          "type": "address"
        }
      ],
      "name": "OwnershipTransferred",
      "type": "event"
    },
    {
      "anonymous": false,
      "inputs": [
        {
          "indexed": true,
          "internalType": "address",
          "name": "from",
          "type": "address"
        },
        {
          "indexed": true,
          "internalType": "address",
          "name": "to",
          "type": "address"
        },
        {
          "indexed": true,
          "internalType": "uint256",
          "name": "tokenId",
          "type": "uint256"
        }
      ],
      "name": "Transfer",
      "type": "event"
    },
    {
      "inputs": [
        {
          "internalType": "address",
          "name": "to",
          "type": "address"
        },
        {
          "internalType": "uint256",
          "name": "tokenId",
          "type": "uint256"
        }
      ],
      "name": "approve",
      "outputs": [],
      "stateMutability": "nonpayable",
      "type": "function"
    },
    {
      "inputs": [
        {
          "internalType": "address",
          "name": "owner",
          "type": "address"
        }
      ],
      "name": "balanceOf",
      "outputs": [
        {
          "internalType": "uint256",
          "name": "",
          "type": "uint256"
        }
      ],
      "stateMutability": "view",
      "type": "function"
    },
    {
      "inputs": [
        {
          "internalType": "uint256",
          "name": "tokenId",
          "type": "uint256"
        }
      ],
      "name": "getApproved",
      "outputs": [
        {
          "internalType": "address",
          "name": "",
          "type": "address"
        }
      ],
      "stateMutability": "view",
      "type": "function"
    },
    {
      "inputs": [
        {
          "internalType": "address",
          "name": "owner",
          "type": "address"
        },
        {
          "internalType": "address",
          "name": "operator",
          "type": "address"
        }
      ],
      "name": "isApprovedForAll",
      "outputs": [
        {
          "internalType": "bool",
          "name": "",
          "type": "bool"
        }
      ],
      "stateMutability": "view",
      "type": "function"
    },
    {
      "inputs": [],
      "name": "isMintEnabled",
      "outputs": [
        {
          "internalType": "bool",
          "name": "",
          "type": "bool"
        }
      ],
      "stateMutability": "view",
      "type": "function"
    },
    {
      "inputs": [],
      "name": "maxSupply",
      "outputs": [
        {
          "internalType": "uint256",
          "name": "",
          "type": "uint256"
        }
      ],
      "stateMutability": "view",
      "type": "function"
    },
    {
      "inputs": [],
      "name": "mintPrice",
      "outputs": [
        {
          "internalType": "uint256",
          "name": "",
          "type": "uint256"
        }
      ],
      "stateMutability": "view",
      "type": "function"
    },
    {
      "inputs": [
        {
          "internalType": "address",
          "name": "",
          "type": "address"
        }
      ],
      "name": "mintedWallets",
      "outputs": [
        {
          "internalType": "uint256",
          "name": "",
          "type": "uint256"
        }
      ],
      "stateMutability": "view",
      "type": "function"
    },
    {
      "inputs": [],
      "name": "name",
      "outputs": [
        {
          "internalType": "string",
          "name": "",
          "type": "string"
        }
      ],
      "stateMutability": "view",
      "type": "function"
    },
    {
      "inputs": [],
      "name": "owner",
      "outputs": [
        {
          "internalType": "address",
          "name": "",
          "type": "address"
        }
      ],
      "stateMutability": "view",
      "type": "function"
    },
    {
      "inputs": [
        {
          "internalType": "uint256",
          "name": "tokenId",
          "type": "uint256"
        }
      ],
      "name": "ownerOf",
      "outputs": [
        {
          "internalType": "address",
          "name": "",
          "type": "address"
        }
      ],
      "stateMutability": "view",
      "type": "function"
    },
    {
      "inputs": [],
      "name": "renounceOwnership",
      "outputs": [],
      "stateMutability": "nonpayable",
      "type": "function"
    },
    {
      "inputs": [
        {
          "internalType": "address",
          "name": "from",
          "type": "address"
        },
        {
          "internalType": "address",
          "name": "to",
          "type": "address"
        },
        {
          "internalType": "uint256",
          "name": "tokenId",
          "type": "uint256"
        }
      ],
      "name": "safeTransferFrom",
      "outputs": [],
      "stateMutability": "nonpayable",
      "type": "function"
    },
    {
      "inputs": [
        {
          "internalType": "address",
          "name": "from",
          "type": "address"
        },
        {
          "internalType": "address",
          "name": "to",
          "type": "address"
        },
        {
          "internalType": "uint256",
          "name": "tokenId",
          "type": "uint256"
        },
        {
          "internalType": "bytes",
          "name": "data",
          "type": "bytes"
        }
      ],
      "name": "safeTransferFrom",
      "outputs": [],
      "stateMutability": "nonpayable",
      "type": "function"
    },
    {
      "inputs": [
        {
          "internalType": "address",
          "name": "operator",
          "type": "address"
        },
        {
          "internalType": "bool",
          "name": "approved",
          "type": "bool"
        }
      ],
      "name": "setApprovalForAll",
      "outputs": [],
      "stateMutability": "nonpayable",
      "type": "function"
    },
    {
      "inputs": [
        {
          "internalType": "bytes4",
          "name": "interfaceId",
          "type": "bytes4"
        }
      ],
      "name": "supportsInterface",
      "outputs": [
        {
          "internalType": "bool",
          "name": "",
          "type": "bool"
        }
      ],
      "stateMutability": "view",
      "type": "function"
    },
    {
      "inputs": [],
      "name": "symbol",
      "outputs": [
        {
          "internalType": "string",
          "name": "",
          "type": "string"
        }
      ],
      "stateMutability": "view",
      "type": "function"
    },
    {
      "inputs": [],
      "name": "tokenCounter",
      "outputs": [
        {
          "internalType": "uint256",
          "name": "",
          "type": "uint256"
        }
      ],
      "stateMutability": "view",
      "type": "function"
    },
    {
      "inputs": [
        {
          "internalType": "uint256",
          "name": "tokenId",
          "type": "uint256"
        }
      ],
      "name": "tokenURI",
      "outputs": [
        {
          "internalType": "string",
          "name": "",
          "type": "string"
        }
      ],
      "stateMutability": "view",
      "type": "function"
    },
    {
      "inputs": [],
      "name": "totalSupply",
      "outputs": [
        {
          "internalType": "uint256",
          "name": "",
          "type": "uint256"
        }
      ],
      "stateMutability": "view",
      "type": "function"
    },
    {
      "inputs": [
        {
          "internalType": "address",
          "name": "from",
          "type": "address"
        },
        {
          "internalType": "address",
          "name": "to",
          "type": "address"
        },
        {
          "internalType": "uint256",
          "name": "tokenId",
          "type": "uint256"
        }
      ],
      "name": "transferFrom",
      "outputs": [],
      "stateMutability": "nonpayable",
      "type": "function"
    },
    {
      "inputs": [
        {
          "internalType": "address",
          "name": "newOwner",
          "type": "address"
        }
      ],
      "name": "transferOwnership",
      "outputs": [],
      "stateMutability": "nonpayable",
      "type": "function"
    },
    {
      "inputs": [],
      "name": "toggleIsMintEnabled",
      "outputs": [],
      "stateMutability": "nonpayable",
      "type": "function"
    },
    {
      "inputs": [
        {
          "internalType": "uint256",
          "name": "maxSupply_",
          "type": "uint256"
        }
      ],
      "name": "setMaxSupply",
      "outputs": [],
      "stateMutability": "nonpayable",
      "type": "function"
    },
    {
      "inputs": [],
      "name": "mint",
      "outputs": [],
      "stateMutability": "payable",
      "type": "function"
    }
  ],
  "bytecode": "0x608060405266b1a2bc2ec500006008556040518060400160405280600b81526020017f53696d706c65204d696e740000000000000000000000000000000000000000008152506040518060400160405280600a81526020017f53494d504c454d494e540000000000000000000000000000000000000000000081525081600090816200008c919062000417565b5080600190816200009e919062000417565b505050620000c1620000b5620000cf60201b60201c565b620000d760201b60201c565b6002600a81905550620004fe565b600033905090565b6000600660009054906101000a900473ffffffffffffffffffffffffffffffffffffffff16905081600660006101000a81548173ffffffffffffffffffffffffffffffffffffffff021916908373ffffffffffffffffffffffffffffffffffffffff1602179055508173ffffffffffffffffffffffffffffffffffffffff168173ffffffffffffffffffffffffffffffffffffffff167f8be0079c531659141344cd1fd0a4f28419497f9722a3daafe3b4186f6b6457e060405160405180910390a35050565b600081519050919050565b7f4e487b7100000000000000000000000000000000000000000000000000000000600052604160045260246000fd5b7f4e487b7100000000000000000000000000000000000000000000000000000000600052602260045260246000fd5b600060028204905060018216806200021f57607f821691505b602082108103620002355762000234620001d7565b5b50919050565b60008190508160005260206000209050919050565b60006020601f8301049050919050565b600082821b905092915050565b6000600883026200029f7fffffffffffffffffffffffffffffffffffffffffffffffffffffffffffffffff8262000260565b620002ab868362000260565b95508019841693508086168417925050509392505050565b6000819050919050565b6000819050919050565b6000620002f8620002f2620002ec84620002c3565b620002cd565b620002c3565b9050919050565b6000819050919050565b6200031483620002d7565b6200032c6200032382620002ff565b8484546200026d565b825550505050565b600090565b6200034362000334565b6200035081848462000309565b505050565b5b8181101562000378576200036c60008262000339565b60018101905062000356565b5050565b601f821115620003c75762000391816200023b565b6200039c8462000250565b81016020851015620003ac578190505b620003c4620003bb8562000250565b83018262000355565b50505b505050565b600082821c905092915050565b6000620003ec60001984600802620003cc565b1980831691505092915050565b6000620004078383620003d9565b9150826002028217905092915050565b62000422826200019d565b67ffffffffffffffff8111156200043e576200043d620001a8565b5b6200044a825462000206565b620004578282856200037c565b600060209050601f8311600181146200048f57600084156200047a578287015190505b620004868582620003f9565b865550620004f6565b601f1984166200049f866200023b565b60005b82811015620004c957848901518255600182019150602085019450602081019050620004a2565b86831015620004e95784890151620004e5601f891682620003d9565b8355505b6001600288020188555050505b505050505050565b612f26806200050e6000396000f3fe6080604052600436106101665760003560e01c806370a08231116100d1578063b88d4fde1161008a578063d082e38111610064578063d082e38114610509578063d5abeb0114610534578063e985e9c51461055f578063f2fde38b1461059c57610166565b8063b88d4fde1461048c578063c4073217146104b5578063c87b56dd146104cc57610166565b806370a082311461037c578063715018a6146103b95780638da5cb5b146103d057806395d89b41146103fb578063a22cb46514610426578063ada7c4ed1461044f57610166565b806323b872dd1161012357806323b872dd1461026e578063346de50a1461029757806342842e0e146102c25780636352211e146102eb5780636817c76c146103285780636f8b44b01461035357610166565b806301ffc9a71461016b57806306fdde03146101a8578063081812fc146101d3578063095ea7b3146102105780631249c58b1461023957806318160ddd14610243575b600080fd5b34801561017757600080fd5b50610192600480360381019061018d9190611efd565b6105c5565b60405161019f9190611f45565b60405180910390f35b3480156101b457600080fd5b506101bd6106a7565b6040516101ca9190611ff0565b60405180910390f35b3480156101df57600080fd5b506101fa60048036038101906101f59190612048565b610739565b60405161020791906120b6565b60405180910390f35b34801561021c57600080fd5b50610237600480360381019061023291906120fd565b61077f565b005b610241610896565b005b34801561024f57600080fd5b50610258610a72565b604051610265919061214c565b60405180910390f35b34801561027a57600080fd5b5061029560048036038101906102909190612167565b610a78565b005b3480156102a357600080fd5b506102ac610ad8565b6040516102b99190611f45565b60405180910390f35b3480156102ce57600080fd5b506102e960048036038101906102e49190612167565b610aeb565b005b3480156102f757600080fd5b50610312600480360381019061030d9190612048565b610b0b565b60405161031f91906120b6565b60405180910390f35b34801561033457600080fd5b5061033d610b91565b60405161034a919061214c565b60405180910390f35b34801561035f57600080fd5b5061037a60048036038101906103759190612048565b610b97565b005b34801561038857600080fd5b506103a3600480360381019061039e91906121ba565b610ba9565b6040516103b0919061214c565b60405180910390f35b3480156103c557600080fd5b506103ce610c60565b005b3480156103dc57600080fd5b506103e5610c74565b6040516103f291906120b6565b60405180910390f35b34801561040757600080fd5b50610410610c9e565b60405161041d9190611ff0565b60405180910390f35b34801561043257600080fd5b5061044d60048036038101906104489190612213565b610d30565b005b34801561045b57600080fd5b50610476600480360381019061047191906121ba565b610d46565b604051610483919061214c565b60405180910390f35b34801561049857600080fd5b506104b360048036038101906104ae9190612388565b610d5e565b005b3480156104c157600080fd5b506104ca610dc0565b005b3480156104d857600080fd5b506104f360048036038101906104ee9190612048565b610df4565b6040516105009190611ff0565b60405180910390f35b34801561051557600080fd5b5061051e610e5c565b60405161052b919061214c565b60405180910390f35b34801561054057600080fd5b50610549610e62565b604051610556919061214c565b60405180910390f35b34801561056b57600080fd5b506105866004803603810190610581919061240b565b610e68565b6040516105939190611f45565b60405180910390f35b3480156105a857600080fd5b506105c360048036038101906105be91906121ba565b610efc565b005b60007f80ac58cd000000000000000000000000000000000000000000000000000000007bffffffffffffffffffffffffffffffffffffffffffffffffffffffff1916827bffffffffffffffffffffffffffffffffffffffffffffffffffffffff1916148061069057507f5b5e139f000000000000000000000000000000000000000000000000000000007bffffffffffffffffffffffffffffffffffffffffffffffffffffffff1916827bffffffffffffffffffffffffffffffffffffffffffffffffffffffff1916145b806106a0575061069f82610f7f565b5b9050919050565b6060600080546106b69061247a565b80601f01602080910402602001604051908101604052809291908181526020018280546106e29061247a565b801561072f5780601f106107045761010080835404028352916020019161072f565b820191906000526020600020905b81548152906001019060200180831161071257829003601f168201915b5050505050905090565b600061074482610fe9565b6004600083815260200190815260200160002060009054906101000a900473ffffffffffffffffffffffffffffffffffffffff169050919050565b600061078a82610b0b565b90508073ffffffffffffffffffffffffffffffffffffffff168373ffffffffffffffffffffffffffffffffffffffff16036107fa576040517f08c379a00000000000000000000000000000000000000000000000000000000081526004016107f19061251d565b60405180910390fd5b8073ffffffffffffffffffffffffffffffffffffffff16610819611034565b73ffffffffffffffffffffffffffffffffffffffff161480610848575061084781610842611034565b610e68565b5b610887576040517f08c379a000000000000000000000000000000000000000000000000000000000815260040161087e906125af565b60405180910390fd5b610891838361103c565b505050565b600b60009054906101000a900460ff166108e5576040517f08c379a00000000000000000000000000000000000000000000000000000000081526004016108dc9061261b565b60405180910390fd5b6001600c60003373ffffffffffffffffffffffffffffffffffffffff1673ffffffffffffffffffffffffffffffffffffffff1681526020019081526020016000205410610967576040517f08c379a000000000000000000000000000000000000000000000000000000000815260040161095e90612687565b60405180910390fd5b60085434146109ab576040517f08c379a00000000000000000000000000000000000000000000000000000000081526004016109a2906126f3565b60405180910390fd5b600954600a54116109f1576040517f08c379a00000000000000000000000000000000000000000000000000000000081526004016109e89061275f565b60405180910390fd5b600c60003373ffffffffffffffffffffffffffffffffffffffff1673ffffffffffffffffffffffffffffffffffffffff1681526020019081526020016000206000815480929190610a41906127ae565b919050555060096000815480929190610a59906127ae565b919050555060006009549050610a6f33826110f5565b50565b60095481565b610a89610a83611034565b82611113565b610ac8576040517f08c379a0000000000000000000000000000000000000000000000000000000008152600401610abf90612868565b60405180910390fd5b610ad38383836111a8565b505050565b600b60009054906101000a900460ff1681565b610b0683838360405180602001604052806000815250610d5e565b505050565b600080610b17836114a1565b9050600073ffffffffffffffffffffffffffffffffffffffff168173ffffffffffffffffffffffffffffffffffffffff1603610b88576040517f08c379a0000000000000000000000000000000000000000000000000000000008152600401610b7f906128d4565b60405180910390fd5b80915050919050565b60085481565b610b9f6114de565b80600a8190555050565b60008073ffffffffffffffffffffffffffffffffffffffff168273ffffffffffffffffffffffffffffffffffffffff1603610c19576040517f08c379a0000000000000000000000000000000000000000000000000000000008152600401610c1090612966565b60405180910390fd5b600360008373ffffffffffffffffffffffffffffffffffffffff1673ffffffffffffffffffffffffffffffffffffffff168152602001908152602001600020549050919050565b610c686114de565b610c72600061155c565b565b6000600660009054906101000a900473ffffffffffffffffffffffffffffffffffffffff16905090565b606060018054610cad9061247a565b80601f0160208091040260200160405190810160405280929190818152602001828054610cd99061247a565b8015610d265780601f10610cfb57610100808354040283529160200191610d26565b820191906000526020600020905b815481529060010190602001808311610d0957829003601f168201915b5050505050905090565b610d42610d3b611034565b8383611622565b5050565b600c6020528060005260406000206000915090505481565b610d6f610d69611034565b83611113565b610dae576040517f08c379a0000000000000000000000000000000000000000000000000000000008152600401610da590612868565b60405180910390fd5b610dba8484848461178e565b50505050565b610dc86114de565b600b60009054906101000a900460ff1615600b60006101000a81548160ff021916908315150217905550565b6060610dff82610fe9565b6000610e096117ea565b90506000815111610e295760405180602001604052806000815250610e54565b80610e3384611801565b604051602001610e449291906129c2565b6040516020818303038152906040525b915050919050565b60075481565b600a5481565b6000600560008473ffffffffffffffffffffffffffffffffffffffff1673ffffffffffffffffffffffffffffffffffffffff16815260200190815260200160002060008373ffffffffffffffffffffffffffffffffffffffff1673ffffffffffffffffffffffffffffffffffffffff16815260200190815260200160002060009054906101000a900460ff16905092915050565b610f046114de565b600073ffffffffffffffffffffffffffffffffffffffff168173ffffffffffffffffffffffffffffffffffffffff1603610f73576040517f08c379a0000000000000000000000000000000000000000000000000000000008152600401610f6a90612a58565b60405180910390fd5b610f7c8161155c565b50565b60007f01ffc9a7000000000000000000000000000000000000000000000000000000007bffffffffffffffffffffffffffffffffffffffffffffffffffffffff1916827bffffffffffffffffffffffffffffffffffffffffffffffffffffffff1916149050919050565b610ff2816118cf565b611031576040517f08c379a0000000000000000000000000000000000000000000000000000000008152600401611028906128d4565b60405180910390fd5b50565b600033905090565b816004600083815260200190815260200160002060006101000a81548173ffffffffffffffffffffffffffffffffffffffff021916908373ffffffffffffffffffffffffffffffffffffffff160217905550808273ffffffffffffffffffffffffffffffffffffffff166110af83610b0b565b73ffffffffffffffffffffffffffffffffffffffff167f8c5be1e5ebec7d5bd14f71427d1e84f3dd0314c0f7b2291e5b200ac8c7c3b92560405160405180910390a45050565b61110f828260405180602001604052806000815250611910565b5050565b60008061111f83610b0b565b90508073ffffffffffffffffffffffffffffffffffffffff168473ffffffffffffffffffffffffffffffffffffffff16148061116157506111608185610e68565b5b8061119f57508373ffffffffffffffffffffffffffffffffffffffff1661118784610739565b73ffffffffffffffffffffffffffffffffffffffff16145b91505092915050565b8273ffffffffffffffffffffffffffffffffffffffff166111c882610b0b565b73ffffffffffffffffffffffffffffffffffffffff161461121e576040517f08c379a000000000000000000000000000000000000000000000000000000000815260040161121590612aea565b60405180910390fd5b600073ffffffffffffffffffffffffffffffffffffffff168273ffffffffffffffffffffffffffffffffffffffff160361128d576040517f08c379a000000000000000000000000000000000000000000000000000000000815260040161128490612b7c565b60405180910390fd5b61129a838383600161196b565b8273ffffffffffffffffffffffffffffffffffffffff166112ba82610b0b565b73ffffffffffffffffffffffffffffffffffffffff1614611310576040517f08c379a000000000000000000000000000000000000000000000000000000000815260040161130790612aea565b60405180910390fd5b6004600082815260200190815260200160002060006101000a81549073ffffffffffffffffffffffffffffffffffffffff02191690556001600360008573ffffffffffffffffffffffffffffffffffffffff1673ffffffffffffffffffffffffffffffffffffffff168152602001908152602001600020600082825403925050819055506001600360008473ffffffffffffffffffffffffffffffffffffffff1673ffffffffffffffffffffffffffffffffffffffff16815260200190815260200160002060008282540192505081905550816002600083815260200190815260200160002060006101000a81548173ffffffffffffffffffffffffffffffffffffffff021916908373ffffffffffffffffffffffffffffffffffffffff160217905550808273ffffffffffffffffffffffffffffffffffffffff168473ffffffffffffffffffffffffffffffffffffffff167fddf252ad1be2c89b69c2b068fc378daa952ba7f163c4a11628f55a4df523b3ef60405160405180910390a461149c8383836001611971565b505050565b60006002600083815260200190815260200160002060009054906101000a900473ffffffffffffffffffffffffffffffffffffffff169050919050565b6114e6611034565b73ffffffffffffffffffffffffffffffffffffffff16611504610c74565b73ffffffffffffffffffffffffffffffffffffffff161461155a576040517f08c379a000000000000000000000000000000000000000000000000000000000815260040161155190612be8565b60405180910390fd5b565b6000600660009054906101000a900473ffffffffffffffffffffffffffffffffffffffff16905081600660006101000a81548173ffffffffffffffffffffffffffffffffffffffff021916908373ffffffffffffffffffffffffffffffffffffffff1602179055508173ffffffffffffffffffffffffffffffffffffffff168173ffffffffffffffffffffffffffffffffffffffff167f8be0079c531659141344cd1fd0a4f28419497f9722a3daafe3b4186f6b6457e060405160405180910390a35050565b8173ffffffffffffffffffffffffffffffffffffffff168373ffffffffffffffffffffffffffffffffffffffff1603611690576040517f08c379a000000000000000000000000000000000000000000000000000000000815260040161168790612c54565b60405180910390fd5b80600560008573ffffffffffffffffffffffffffffffffffffffff1673ffffffffffffffffffffffffffffffffffffffff16815260200190815260200160002060008473ffffffffffffffffffffffffffffffffffffffff1673ffffffffffffffffffffffffffffffffffffffff16815260200190815260200160002060006101000a81548160ff0219169083151502179055508173ffffffffffffffffffffffffffffffffffffffff168373ffffffffffffffffffffffffffffffffffffffff167f17307eab39ab6107e8899845ad3d59bd9653f200f220920489ca2b5937696c31836040516117819190611f45565b60405180910390a3505050565b6117998484846111a8565b6117a584848484611977565b6117e4576040517f08c379a00000000000000000000000000000000000000000000000000000000081526004016117db90612ce6565b60405180910390fd5b50505050565b606060405180602001604052806000815250905090565b60606000600161181084611afe565b01905060008167ffffffffffffffff81111561182f5761182e61225d565b5b6040519080825280601f01601f1916602001820160405280156118615781602001600182028036833780820191505090505b509050600082602001820190505b6001156118c4578080600190039150507f3031323334353637383961626364656600000000000000000000000000000000600a86061a8153600a85816118b8576118b7612d06565b5b0494506000850361186f575b819350505050919050565b60008073ffffffffffffffffffffffffffffffffffffffff166118f1836114a1565b73ffffffffffffffffffffffffffffffffffffffff1614159050919050565b61191a8383611c51565b6119276000848484611977565b611966576040517f08c379a000000000000000000000000000000000000000000000000000000000815260040161195d90612ce6565b60405180910390fd5b505050565b50505050565b50505050565b60006119988473ffffffffffffffffffffffffffffffffffffffff16611e6e565b15611af1578373ffffffffffffffffffffffffffffffffffffffff1663150b7a026119c1611034565b8786866040518563ffffffff1660e01b81526004016119e39493929190612d8a565b6020604051808303816000875af1925050508015611a1f57506040513d601f19601f82011682018060405250810190611a1c9190612deb565b60015b611aa1573d8060008114611a4f576040519150601f19603f3d011682016040523d82523d6000602084013e611a54565b606091505b506000815103611a99576040517f08c379a0000000000000000000000000000000000000000000000000000000008152600401611a9090612ce6565b60405180910390fd5b805181602001fd5b63150b7a0260e01b7bffffffffffffffffffffffffffffffffffffffffffffffffffffffff1916817bffffffffffffffffffffffffffffffffffffffffffffffffffffffff191614915050611af6565b600190505b949350505050565b600080600090507a184f03e93ff9f4daa797ed6e38ed64bf6a1f0100000000000000008310611b5c577a184f03e93ff9f4daa797ed6e38ed64bf6a1f0100000000000000008381611b5257611b51612d06565b5b0492506040810190505b6d04ee2d6d415b85acef81000000008310611b99576d04ee2d6d415b85acef81000000008381611b8f57611b8e612d06565b5b0492506020810190505b662386f26fc100008310611bc857662386f26fc100008381611bbe57611bbd612d06565b5b0492506010810190505b6305f5e1008310611bf1576305f5e1008381611be757611be6612d06565b5b0492506008810190505b6127108310611c16576127108381611c0c57611c0b612d06565b5b0492506004810190505b60648310611c395760648381611c2f57611c2e612d06565b5b0492506002810190505b600a8310611c48576001810190505b80915050919050565b600073ffffffffffffffffffffffffffffffffffffffff168273ffffffffffffffffffffffffffffffffffffffff1603611cc0576040517f08c379a0000000000000000000000000000000000000000000000000000000008152600401611cb790612e64565b60405180910390fd5b611cc9816118cf565b15611d09576040517f08c379a0000000000000000000000000000000000000000000000000000000008152600401611d0090612ed0565b60405180910390fd5b611d1760008383600161196b565b611d20816118cf565b15611d60576040517f08c379a0000000000000000000000000000000000000000000000000000000008152600401611d5790612ed0565b60405180910390fd5b6001600360008473ffffffffffffffffffffffffffffffffffffffff1673ffffffffffffffffffffffffffffffffffffffff16815260200190815260200160002060008282540192505081905550816002600083815260200190815260200160002060006101000a81548173ffffffffffffffffffffffffffffffffffffffff021916908373ffffffffffffffffffffffffffffffffffffffff160217905550808273ffffffffffffffffffffffffffffffffffffffff16600073ffffffffffffffffffffffffffffffffffffffff167fddf252ad1be2c89b69c2b068fc378daa952ba7f163c4a11628f55a4df523b3ef60405160405180910390a4611e6a600083836001611971565b5050565b6000808273ffffffffffffffffffffffffffffffffffffffff163b119050919050565b6000604051905090565b600080fd5b600080fd5b60007fffffffff0000000000000000000000000000000000000000000000000000000082169050919050565b611eda81611ea5565b8114611ee557600080fd5b50565b600081359050611ef781611ed1565b92915050565b600060208284031215611f1357611f12611e9b565b5b6000611f2184828501611ee8565b91505092915050565b60008115159050919050565b611f3f81611f2a565b82525050565b6000602082019050611f5a6000830184611f36565b92915050565b600081519050919050565b600082825260208201905092915050565b60005b83811015611f9a578082015181840152602081019050611f7f565b60008484015250505050565b6000601f19601f8301169050919050565b6000611fc282611f60565b611fcc8185611f6b565b9350611fdc818560208601611f7c565b611fe581611fa6565b840191505092915050565b6000602082019050818103600083015261200a8184611fb7565b905092915050565b6000819050919050565b61202581612012565b811461203057600080fd5b50565b6000813590506120428161201c565b92915050565b60006020828403121561205e5761205d611e9b565b5b600061206c84828501612033565b91505092915050565b600073ffffffffffffffffffffffffffffffffffffffff82169050919050565b60006120a082612075565b9050919050565b6120b081612095565b82525050565b60006020820190506120cb60008301846120a7565b92915050565b6120da81612095565b81146120e557600080fd5b50565b6000813590506120f7816120d1565b92915050565b6000806040838503121561211457612113611e9b565b5b6000612122858286016120e8565b925050602061213385828601612033565b9150509250929050565b61214681612012565b82525050565b6000602082019050612161600083018461213d565b92915050565b6000806000606084860312156121805761217f611e9b565b5b600061218e868287016120e8565b935050602061219f868287016120e8565b92505060406121b086828701612033565b9150509250925092565b6000602082840312156121d0576121cf611e9b565b5b60006121de848285016120e8565b91505092915050565b6121f081611f2a565b81146121fb57600080fd5b50565b60008135905061220d816121e7565b92915050565b6000806040838503121561222a57612229611e9b565b5b6000612238858286016120e8565b9250506020612249858286016121fe565b9150509250929050565b600080fd5b600080fd5b7f4e487b7100000000000000000000000000000000000000000000000000000000600052604160045260246000fd5b61229582611fa6565b810181811067ffffffffffffffff821117156122b4576122b361225d565b5b80604052505050565b60006122c7611e91565b90506122d3828261228c565b919050565b600067ffffffffffffffff8211156122f3576122f261225d565b5b6122fc82611fa6565b9050602081019050919050565b82818337600083830152505050565b600061232b612326846122d8565b6122bd565b90508281526020810184848401111561234757612346612258565b5b612352848285612309565b509392505050565b600082601f83011261236f5761236e612253565b5b813561237f848260208601612318565b91505092915050565b600080600080608085870312156123a2576123a1611e9b565b5b60006123b0878288016120e8565b94505060206123c1878288016120e8565b93505060406123d287828801612033565b925050606085013567ffffffffffffffff8111156123f3576123f2611ea0565b5b6123ff8782880161235a565b91505092959194509250565b6000806040838503121561242257612421611e9b565b5b6000612430858286016120e8565b9250506020612441858286016120e8565b9150509250929050565b7f4e487b7100000000000000000000000000000000000000000000000000000000600052602260045260246000fd5b6000600282049050600182168061249257607f821691505b6020821081036124a5576124a461244b565b5b50919050565b7f4552433732313a20617070726f76616c20746f2063757272656e74206f776e6560008201527f7200000000000000000000000000000000000000000000000000000000000000602082015250565b6000612507602183611f6b565b9150612512826124ab565b604082019050919050565b60006020820190508181036000830152612536816124fa565b9050919050565b7f4552433732313a20617070726f76652063616c6c6572206973206e6f7420746f60008201527f6b656e206f776e6572206f7220617070726f76656420666f7220616c6c000000602082015250565b6000612599603d83611f6b565b91506125a48261253d565b604082019050919050565b600060208201905081810360008301526125c88161258c565b9050919050565b7f6d696e74696e67206e6f7420656e61626c656400000000000000000000000000600082015250565b6000612605601383611f6b565b9150612610826125cf565b602082019050919050565b60006020820190508181036000830152612634816125f8565b9050919050565b7f65786365656473206d6178207065722077616c6c657400000000000000000000600082015250565b6000612671601683611f6b565b915061267c8261263b565b602082019050919050565b600060208201905081810360008301526126a081612664565b9050919050565b7f77726f6e672076616c7565000000000000000000000000000000000000000000600082015250565b60006126dd600b83611f6b565b91506126e8826126a7565b602082019050919050565b6000602082019050818103600083015261270c816126d0565b9050919050565b7f736f6c64206f7574000000000000000000000000000000000000000000000000600082015250565b6000612749600883611f6b565b915061275482612713565b602082019050919050565b600060208201905081810360008301526127788161273c565b9050919050565b7f4e487b7100000000000000000000000000000000000000000000000000000000600052601160045260246000fd5b60006127b982612012565b91507fffffffffffffffffffffffffffffffffffffffffffffffffffffffffffffffff82036127eb576127ea61277f565b5b600182019050919050565b7f4552433732313a2063616c6c6572206973206e6f7420746f6b656e206f776e6560008201527f72206f7220617070726f76656400000000000000000000000000000000000000602082015250565b6000612852602d83611f6b565b915061285d826127f6565b604082019050919050565b6000602082019050818103600083015261288181612845565b9050919050565b7f4552433732313a20696e76616c696420746f6b656e2049440000000000000000600082015250565b60006128be601883611f6b565b91506128c982612888565b602082019050919050565b600060208201905081810360008301526128ed816128b1565b9050919050565b7f4552433732313a2061646472657373207a65726f206973206e6f74206120766160008201527f6c6964206f776e65720000000000000000000000000000000000000000000000602082015250565b6000612950602983611f6b565b915061295b826128f4565b604082019050919050565b6000602082019050818103600083015261297f81612943565b9050919050565b600081905092915050565b600061299c82611f60565b6129a68185612986565b93506129b6818560208601611f7c565b80840191505092915050565b60006129ce8285612991565b91506129da8284612991565b91508190509392505050565b7f4f776e61626c653a206e6577206f776e657220697320746865207a65726f206160008201527f6464726573730000000000000000000000000000000000000000000000000000602082015250565b6000612a42602683611f6b565b9150612a4d826129e6565b604082019050919050565b60006020820190508181036000830152612a7181612a35565b9050919050565b7f4552433732313a207472616e736665722066726f6d20696e636f72726563742060008201527f6f776e6572000000000000000000000000000000000000000000000000000000602082015250565b6000612ad4602583611f6b565b9150612adf82612a78565b604082019050919050565b60006020820190508181036000830152612b0381612ac7565b9050919050565b7f4552433732313a207472616e7366657220746f20746865207a65726f2061646460008201527f7265737300000000000000000000000000000000000000000000000000000000602082015250565b6000612b66602483611f6b565b9150612b7182612b0a565b604082019050919050565b60006020820190508181036000830152612b9581612b59565b9050919050565b7f4f776e61626c653a2063616c6c6572206973206e6f7420746865206f776e6572600082015250565b6000612bd2602083611f6b565b9150612bdd82612b9c565b602082019050919050565b60006020820190508181036000830152612c0181612bc5565b9050919050565b7f4552433732313a20617070726f766520746f2063616c6c657200000000000000600082015250565b6000612c3e601983611f6b565b9150612c4982612c08565b602082019050919050565b60006020820190508181036000830152612c6d81612c31565b9050919050565b7f4552433732313a207472616e7366657220746f206e6f6e20455243373231526560008201527f63656976657220696d706c656d656e7465720000000000000000000000000000602082015250565b6000612cd0603283611f6b565b9150612cdb82612c74565b604082019050919050565b60006020820190508181036000830152612cff81612cc3565b9050919050565b7f4e487b7100000000000000000000000000000000000000000000000000000000600052601260045260246000fd5b600081519050919050565b600082825260208201905092915050565b6000612d5c82612d35565b612d668185612d40565b9350612d76818560208601611f7c565b612d7f81611fa6565b840191505092915050565b6000608082019050612d9f60008301876120a7565b612dac60208301866120a7565b612db9604083018561213d565b8181036060830152612dcb8184612d51565b905095945050505050565b600081519050612de581611ed1565b92915050565b600060208284031215612e0157612e00611e9b565b5b6000612e0f84828501612dd6565b91505092915050565b7f4552433732313a206d696e7420746f20746865207a65726f2061646472657373600082015250565b6000612e4e602083611f6b565b9150612e5982612e18565b602082019050919050565b60006020820190508181036000830152612e7d81612e41565b9050919050565b7f4552433732313a20746f6b656e20616c7265616479206d696e74656400000000600082015250565b6000612eba601c83611f6b565b9150612ec582612e84565b602082019050919050565b60006020820190508181036000830152612ee981612ead565b905091905056fea26469706673582212208d20b08fbef08e7030b1363caac6dc6a5cfa3a46b47217c2e6799e063901d12064736f6c63430008120033",
  "immutableReferences": {},
  "source": "pragma solidity >=0.4.22 <0.9.0;\r\n\r\nimport \"./../node_modules/@openzeppelin/contracts/token/ERC721/ERC721.sol\"; //TODO: magari si pu chiamare in maniera pi carina\r\nimport \"./../node_modules/@openzeppelin/contracts/access/Ownable.sol\";\r\n\r\ncontract SimpleCollectible is ERC721, Ownable {\r\n\r\n   uint256 public tokenCounter;\r\n   uint256 public mintPrice = 0.05 ether;\r\n   uint256 public totalSupply;\r\n   uint256 public maxSupply;\r\n   bool public isMintEnabled; //variable that determines when people can mint the NFT\r\n   mapping(address => uint256) public mintedWallets; //keep track of the number of mints that each wallet have done\r\n\r\n\r\n   constructor () payable ERC721 (\"Simple Mint\",\"SIMPLEMINT\") {\r\n      maxSupply = 2;\r\n   }\r\n   \r\n   function toggleIsMintEnabled() external onlyOwner {            //only the owner (who have deployed the contract) can access it\r\n      isMintEnabled = !isMintEnabled;\r\n   }\r\n\r\n   function setMaxSupply(uint256 maxSupply_) external onlyOwner {    //only the owner can modify the max supply\r\n      maxSupply = maxSupply_;\r\n   }\r\n\r\n   function mint() external payable {              //payable means that the function deals with actual money\r\n      require(isMintEnabled, 'minting not enabled');\r\n      require(mintedWallets[msg.sender] < 1, 'exceeds max per wallet'); //only each wallet can only mint one\r\n      require(msg.value == mintPrice, 'wrong value'); //check if the user puts the correct price for the mint\r\n      require(maxSupply > totalSupply, 'sold out');\r\n\r\n      mintedWallets[msg.sender]++;\r\n      totalSupply++;\r\n      uint256 tokenId = totalSupply;\r\n      _safeMint(msg.sender, tokenId); //handles the mintig of the NFT\r\n   }\r\n\r\n\r\n   /* VECCHIO TUTORIAL\r\n   function createCollectible(string memory tokenURI) public (uint256) {\r\n      uint256 newItemId = tokenCounter;\r\n      _safeMint(msg.sender, newItemId); //creates safely a new NFT\r\n      _setTokenURI(newItemId, tokenURI);\r\n      tokenCounter = tokenCounter + 1;\r\n      return newItemId;\r\n   }\r\n\r\n   */\r\n}",
  "sourcePath": "C:\\Users\\Giacomo\\Desktop\\Blockchain\\blockchain-authenticator\\project\\truffle\\contracts\\SimpleCollectible.sol",
  "compiler": {
    "name": "solc",
    "version": "0.8.18+commit.87f61d96.Emscripten.clang"
  },
  "schemaVersion": "3.4.14",
  "updatedAt": "2023-07-05T10:05:48.275Z",
  "devdoc": {
    "events": {
      "Approval(address,address,uint256)": {
        "details": "Emitted when `owner` enables `approved` to manage the `tokenId` token."
      },
      "ApprovalForAll(address,address,bool)": {
        "details": "Emitted when `owner` enables or disables (`approved`) `operator` to manage all of its assets."
      },
      "Transfer(address,address,uint256)": {
        "details": "Emitted when `tokenId` token is transferred from `from` to `to`."
      }
    },
    "kind": "dev",
    "methods": {
      "approve(address,uint256)": {
        "details": "See {IERC721-approve}."
      },
      "balanceOf(address)": {
        "details": "See {IERC721-balanceOf}."
      },
      "getApproved(uint256)": {
        "details": "See {IERC721-getApproved}."
      },
      "isApprovedForAll(address,address)": {
        "details": "See {IERC721-isApprovedForAll}."
      },
      "name()": {
        "details": "See {IERC721Metadata-name}."
      },
      "owner()": {
        "details": "Returns the address of the current owner."
      },
      "ownerOf(uint256)": {
        "details": "See {IERC721-ownerOf}."
      },
      "renounceOwnership()": {
        "details": "Leaves the contract without owner. It will not be possible to call `onlyOwner` functions. Can only be called by the current owner. NOTE: Renouncing ownership will leave the contract without an owner, thereby disabling any functionality that is only available to the owner."
      },
      "safeTransferFrom(address,address,uint256)": {
        "details": "See {IERC721-safeTransferFrom}."
      },
      "safeTransferFrom(address,address,uint256,bytes)": {
        "details": "See {IERC721-safeTransferFrom}."
      },
      "setApprovalForAll(address,bool)": {
        "details": "See {IERC721-setApprovalForAll}."
      },
      "supportsInterface(bytes4)": {
        "details": "See {IERC165-supportsInterface}."
      },
      "symbol()": {
        "details": "See {IERC721Metadata-symbol}."
      },
      "tokenURI(uint256)": {
        "details": "See {IERC721Metadata-tokenURI}."
      },
      "transferFrom(address,address,uint256)": {
        "details": "See {IERC721-transferFrom}."
      },
      "transferOwnership(address)": {
        "details": "Transfers ownership of the contract to a new account (`newOwner`). Can only be called by the current owner."
      }
    },
    "version": 1
  },
  "userdoc": {
    "kind": "user",
    "methods": {},
    "version": 1
  }
}